{
  "contractName": "AuctionParticipant",
  "abi": [
    {
      "anonymous": false,
      "inputs": [],
      "name": "Finalized",
      "type": "event"
    },
    {
      "constant": false,
      "inputs": [
        {
          "internalType": "address",
          "name": "token",
          "type": "address"
        },
        {
          "internalType": "uint256",
          "name": "quantity",
          "type": "uint256"
        }
      ],
      "name": "settleCall",
      "outputs": [],
      "payable": false,
      "stateMutability": "nonpayable",
      "type": "function"
    },
    {
      "constant": false,
      "inputs": [
        {
          "internalType": "address",
          "name": "token",
          "type": "address"
        }
      ],
      "name": "settlePut",
      "outputs": [],
      "payable": true,
      "stateMutability": "payable",
      "type": "function"
    },
    {
      "constant": false,
      "inputs": [
        {
          "internalType": "uint256",
          "name": "expectingUSDAmount",
          "type": "uint256"
        }
      ],
      "name": "receiveETH",
      "outputs": [
        {
          "internalType": "bool",
          "name": "",
          "type": "bool"
        }
      ],
      "payable": true,
      "stateMutability": "payable",
      "type": "function"
    },
    {
      "constant": false,
      "inputs": [
        {
          "internalType": "uint256",
          "name": "expectingETHAmount",
          "type": "uint256"
        }
      ],
      "name": "receiveUSD",
      "outputs": [
        {
          "internalType": "bool",
          "name": "",
          "type": "bool"
        }
      ],
      "payable": false,
      "stateMutability": "nonpayable",
      "type": "function"
    },
    {
      "constant": false,
      "inputs": [],
      "name": "finalizedCallback",
      "outputs": [],
      "payable": false,
      "stateMutability": "nonpayable",
      "type": "function"
    }
  ],
  "bytecode": "0x608060405234801561001057600080fd5b50610d22806100206000396000f3fe60806040526004361061004a5760003560e01c8063236f0d401461004f578063478cb127146100a25780634c355a5f146100b95780634cfcd039146100fd578063f52cc91314610158575b600080fd5b34801561005b57600080fd5b506100886004803603602081101561007257600080fd5b810190808035906020019092919050505061019e565b604051808215151515815260200191505060405180910390f35b3480156100ae57600080fd5b506100b76104f7565b005b6100fb600480360360208110156100cf57600080fd5b81019080803573ffffffffffffffffffffffffffffffffffffffff169060200190929190505050610525565b005b34801561010957600080fd5b506101566004803603604081101561012057600080fd5b81019080803573ffffffffffffffffffffffffffffffffffffffff169060200190929190803590602001909291905050506106ab565b005b6101846004803603602081101561016e57600080fd5b8101908080359060200190929190505050610832565b604051808215151515815260200191505060405180910390f35b60008033905060008173ffffffffffffffffffffffffffffffffffffffff1663d63a6ccd6040518163ffffffff1660e01b815260040160206040518083038186803b1580156101ec57600080fd5b505afa158015610200573d6000803e3d6000fd5b505050506040513d602081101561021657600080fd5b810190808051906020019092919050505073ffffffffffffffffffffffffffffffffffffffff16635c65816583306040518363ffffffff1660e01b8152600401808373ffffffffffffffffffffffffffffffffffffffff1673ffffffffffffffffffffffffffffffffffffffff1681526020018273ffffffffffffffffffffffffffffffffffffffff1673ffffffffffffffffffffffffffffffffffffffff1681526020019250505060206040518083038186803b1580156102d757600080fd5b505afa1580156102eb573d6000803e3d6000fd5b505050506040513d602081101561030157600080fd5b810190808051906020019092919050505090508173ffffffffffffffffffffffffffffffffffffffff1663d63a6ccd6040518163ffffffff1660e01b815260040160206040518083038186803b15801561035a57600080fd5b505afa15801561036e573d6000803e3d6000fd5b505050506040513d602081101561038457600080fd5b810190808051906020019092919050505073ffffffffffffffffffffffffffffffffffffffff166323b872dd8330846040518463ffffffff1660e01b8152600401808473ffffffffffffffffffffffffffffffffffffffff1673ffffffffffffffffffffffffffffffffffffffff1681526020018373ffffffffffffffffffffffffffffffffffffffff1673ffffffffffffffffffffffffffffffffffffffff1681526020018281526020019350505050602060405180830381600087803b15801561044f57600080fd5b505af1158015610463573d6000803e3d6000fd5b505050506040513d602081101561047957600080fd5b8101908080519060200190929190505050508173ffffffffffffffffffffffffffffffffffffffff16631bb3399d856040518263ffffffff1660e01b81526004016000604051808303818588803b1580156104d357600080fd5b505af11580156104e7573d6000803e3d6000fd5b5050505050600192505050919050565b7f6823b073d48d6e3a7d385eeb601452d680e74bb46afe3255a7d778f3a9b1768160405160405180910390a1565b60008190506105b38173ffffffffffffffffffffffffffffffffffffffff16636664eb166040518163ffffffff1660e01b815260040160206040518083038186803b15801561057357600080fd5b505afa158015610587573d6000803e3d6000fd5b505050506040513d602081101561059d57600080fd5b810190808051906020019092919050505061098b565b8073ffffffffffffffffffffffffffffffffffffffff16638df82800346040518263ffffffff1660e01b815260040180828152602001915050600060405180830381600087803b15801561060657600080fd5b505af115801561061a573d6000803e3d6000fd5b505050506106a78173ffffffffffffffffffffffffffffffffffffffff16636664eb166040518163ffffffff1660e01b815260040160206040518083038186803b15801561066757600080fd5b505afa15801561067b573d6000803e3d6000fd5b505050506040513d602081101561069157600080fd5b8101908080519060200190929190505050610b70565b5050565b60008290506107398173ffffffffffffffffffffffffffffffffffffffff16636664eb166040518163ffffffff1660e01b815260040160206040518083038186803b1580156106f957600080fd5b505afa15801561070d573d6000803e3d6000fd5b505050506040513d602081101561072357600080fd5b810190808051906020019092919050505061098b565b8073ffffffffffffffffffffffffffffffffffffffff16638df82800836040518263ffffffff1660e01b815260040180828152602001915050600060405180830381600087803b15801561078c57600080fd5b505af11580156107a0573d6000803e3d6000fd5b5050505061082d8173ffffffffffffffffffffffffffffffffffffffff16636664eb166040518163ffffffff1660e01b815260040160206040518083038186803b1580156107ed57600080fd5b505afa158015610801573d6000803e3d6000fd5b505050506040513d602081101561081757600080fd5b8101908080519060200190929190505050610b70565b505050565b60008033905060008173ffffffffffffffffffffffffffffffffffffffff1663d63a6ccd6040518163ffffffff1660e01b815260040160206040518083038186803b15801561088057600080fd5b505afa158015610894573d6000803e3d6000fd5b505050506040513d60208110156108aa57600080fd5b810190808051906020019092919050505090508073ffffffffffffffffffffffffffffffffffffffff1663095ea7b383866040518363ffffffff1660e01b8152600401808373ffffffffffffffffffffffffffffffffffffffff1673ffffffffffffffffffffffffffffffffffffffff16815260200182815260200192505050602060405180830381600087803b15801561094457600080fd5b505af1158015610958573d6000803e3d6000fd5b505050506040513d602081101561096e57600080fd5b810190808051906020019092919050505050600192505050919050565b8073ffffffffffffffffffffffffffffffffffffffff166323b872dd33308473ffffffffffffffffffffffffffffffffffffffff16635c65816533306040518363ffffffff1660e01b8152600401808373ffffffffffffffffffffffffffffffffffffffff1673ffffffffffffffffffffffffffffffffffffffff1681526020018273ffffffffffffffffffffffffffffffffffffffff1673ffffffffffffffffffffffffffffffffffffffff1681526020019250505060206040518083038186803b158015610a5a57600080fd5b505afa158015610a6e573d6000803e3d6000fd5b505050506040513d6020811015610a8457600080fd5b81019080805190602001909291905050506040518463ffffffff1660e01b8152600401808473ffffffffffffffffffffffffffffffffffffffff1673ffffffffffffffffffffffffffffffffffffffff1681526020018373ffffffffffffffffffffffffffffffffffffffff1673ffffffffffffffffffffffffffffffffffffffff1681526020018281526020019350505050602060405180830381600087803b158015610b3157600080fd5b505af1158015610b45573d6000803e3d6000fd5b505050506040513d6020811015610b5b57600080fd5b81019080805190602001909291905050505050565b8073ffffffffffffffffffffffffffffffffffffffff1663a9059cbb338373ffffffffffffffffffffffffffffffffffffffff166370a08231306040518263ffffffff1660e01b8152600401808273ffffffffffffffffffffffffffffffffffffffff1673ffffffffffffffffffffffffffffffffffffffff16815260200191505060206040518083038186803b158015610c0a57600080fd5b505afa158015610c1e573d6000803e3d6000fd5b505050506040513d6020811015610c3457600080fd5b81019080805190602001909291905050506040518363ffffffff1660e01b8152600401808373ffffffffffffffffffffffffffffffffffffffff1673ffffffffffffffffffffffffffffffffffffffff16815260200182815260200192505050602060405180830381600087803b158015610cae57600080fd5b505af1158015610cc2573d6000803e3d6000fd5b505050506040513d6020811015610cd857600080fd5b8101908080519060200190929190505050505056fea265627a7a723158202fe703cb65c4d29ce7a32256a1ea24a0aa5571c07805bf694cb7052c8d09f91664736f6c63430005100032",
  "source": "pragma solidity ^0.5;\n\nimport \"../ETHCallOptionToken.sol\";\nimport \"../ETHPutOptionToken.sol\";\n\n\n/**\n    This is an example of an Auction participant smart contract.\n\n    It does no authorization/authentication of any other contracts,\n    but it does illustrate the basic concepts involved in settlement.\n */\n\ncontract AuctionParticipant {\n    function settleCall(address token, uint256 quantity) public {\n        ETHCallOptionToken callToken = ETHCallOptionToken(token);\n        _assumeDSFTokenBalance(callToken.dsf());\n        callToken.settle(quantity);\n        _returnDSFTokenBalance(callToken.dsf());\n    }\n\n    function settlePut(address token) public payable {\n        ETHPutOptionToken putToken = ETHPutOptionToken(token);\n        _assumeDSFTokenBalance(putToken.dsf());\n        putToken.settle(msg.value);\n        _returnDSFTokenBalance(putToken.dsf());\n    }\n\n    function receiveETH(uint256 expectingUSDAmount) public payable returns (bool) {\n        ETHCallOptionToken callToken = ETHCallOptionToken(msg.sender);\n        ERC20 usdToken = callToken.usd();\n        usdToken.approve(address(callToken), expectingUSDAmount);\n        return true;\n    }\n\n    function receiveUSD(uint256 expectingETHAmount) public returns (bool) {\n        ETHPutOptionToken putToken = ETHPutOptionToken(msg.sender);\n        uint256 allowed = putToken.usd().allowed(address(putToken), address(this));\n        putToken.usd().transferFrom(address(putToken), address(this), allowed);\n        putToken.finalizeSettlement.value(expectingETHAmount)();\n        return true;\n    }\n\n    event Finalized();\n\n    function finalizedCallback() public {\n        emit Finalized();\n    }\n\n    function _assumeDSFTokenBalance(ERC20 dsf) internal {\n        dsf.transferFrom(msg.sender, address(this), dsf.allowed(msg.sender, address(this)));\n    }\n\n    function _returnDSFTokenBalance(ERC20 dsf) internal {\n        dsf.transfer(msg.sender, dsf.balanceOf(address(this)));\n    }\n}",
  "sourcePath": "/Users/brianwheeler/dsfprotocol/option-tokens/contracts/test/AuctionParticipant.sol",
  "compiler": {
    "name": "solc",
    "version": "0.5.16+commit.9c3226ce.Emscripten.clang"
  },
  "schemaVersion": "3.2.0",
  "updatedAt": "2020-06-16T03:00:57.611Z",
  "devdoc": {
    "methods": {}
  },
  "userdoc": {
    "methods": {},
    "notice": "This is an example of an Auction participant smart contract. It does no authorization/authentication of any other contracts, but it does illustrate the basic concepts involved in settlement."
  }
}