{
  "contractName": "CallOptionTokenFactory",
  "abi": [
    {
      "inputs": [],
      "payable": false,
      "stateMutability": "nonpayable",
      "type": "constructor"
    },
    {
      "constant": false,
      "inputs": [],
      "name": "createToken",
      "outputs": [
        {
          "internalType": "address",
          "name": "",
          "type": "address"
        }
      ],
      "payable": false,
      "stateMutability": "nonpayable",
      "type": "function"
    }
  ],
  "bytecode": "0x608060405234801561001057600080fd5b5060af8061001f6000396000f3fe6080604052348015600f57600080fd5b506004361060285760003560e01c80639cbf9e3614602d575b600080fd5b60336075565b604051808273ffffffffffffffffffffffffffffffffffffffff1673ffffffffffffffffffffffffffffffffffffffff16815260200191505060405180910390f35b60009056fea265627a7a72315820b9e66d855af526b52a043a93239815a8a454c30b61781261dbd2b8eca03a6a5d64736f6c63430005100032",
  "source": "pragma solidity ^0.5;\n\n\ncontract CallOptionTokenFactory {\n    constructor() public {\n        // setup the option token templates\n    }\n\n    function createToken() public returns (address) {\n\n    }\n}",
  "sourcePath": "/Users/brianwheeler/optimum/protocol/contracts/OptionTokenFactory.sol",
  "compiler": {
    "name": "solc",
    "version": "0.5.16+commit.9c3226ce.Emscripten.clang"
  },
  "schemaVersion": "3.0.21",
  "updatedAt": "2020-02-06T15:33:53.098Z",
  "devdoc": {
    "methods": {}
  },
  "userdoc": {
    "methods": {}
  }
}