{
  "contractName": "DSFProtocol",
  "abi": [
    {
      "constant": true,
      "inputs": [],
      "name": "protocolToken",
      "outputs": [
        {
          "name": "",
          "type": "address"
        }
      ],
      "payable": false,
      "stateMutability": "view",
      "type": "function"
    },
    {
      "constant": true,
      "inputs": [],
      "name": "DURATION",
      "outputs": [
        {
          "name": "",
          "type": "uint256"
        }
      ],
      "payable": false,
      "stateMutability": "view",
      "type": "function"
    },
    {
      "constant": true,
      "inputs": [
        {
          "name": "",
          "type": "address"
        }
      ],
      "name": "earlyExercised",
      "outputs": [
        {
          "name": "",
          "type": "uint256"
        }
      ],
      "payable": false,
      "stateMutability": "view",
      "type": "function"
    },
    {
      "constant": true,
      "inputs": [
        {
          "name": "",
          "type": "address"
        },
        {
          "name": "",
          "type": "address"
        }
      ],
      "name": "writers",
      "outputs": [
        {
          "name": "",
          "type": "uint256"
        }
      ],
      "payable": false,
      "stateMutability": "view",
      "type": "function"
    },
    {
      "constant": true,
      "inputs": [],
      "name": "HALF_DURATION",
      "outputs": [
        {
          "name": "",
          "type": "uint256"
        }
      ],
      "payable": false,
      "stateMutability": "view",
      "type": "function"
    },
    {
      "constant": true,
      "inputs": [],
      "name": "usdERC20",
      "outputs": [
        {
          "name": "",
          "type": "address"
        }
      ],
      "payable": false,
      "stateMutability": "view",
      "type": "function"
    },
    {
      "constant": true,
      "inputs": [
        {
          "name": "",
          "type": "address"
        }
      ],
      "name": "expectValue",
      "outputs": [
        {
          "name": "",
          "type": "uint256"
        }
      ],
      "payable": false,
      "stateMutability": "view",
      "type": "function"
    },
    {
      "constant": true,
      "inputs": [],
      "name": "PREFERENCE_MAX",
      "outputs": [
        {
          "name": "",
          "type": "uint256"
        }
      ],
      "payable": false,
      "stateMutability": "view",
      "type": "function"
    },
    {
      "constant": true,
      "inputs": [
        {
          "name": "",
          "type": "address"
        }
      ],
      "name": "totalInterest",
      "outputs": [
        {
          "name": "",
          "type": "uint256"
        }
      ],
      "payable": false,
      "stateMutability": "view",
      "type": "function"
    },
    {
      "constant": true,
      "inputs": [
        {
          "name": "",
          "type": "address"
        }
      ],
      "name": "seriesInfo",
      "outputs": [
        {
          "name": "expiration",
          "type": "uint256"
        },
        {
          "name": "flavor",
          "type": "uint8"
        },
        {
          "name": "strike",
          "type": "uint256"
        }
      ],
      "payable": false,
      "stateMutability": "view",
      "type": "function"
    },
    {
      "constant": true,
      "inputs": [
        {
          "name": "",
          "type": "address"
        }
      ],
      "name": "holdersSettlement",
      "outputs": [
        {
          "name": "",
          "type": "uint256"
        }
      ],
      "payable": false,
      "stateMutability": "view",
      "type": "function"
    },
    {
      "constant": true,
      "inputs": [
        {
          "name": "",
          "type": "address"
        }
      ],
      "name": "openInterest",
      "outputs": [
        {
          "name": "",
          "type": "uint256"
        }
      ],
      "payable": false,
      "stateMutability": "view",
      "type": "function"
    },
    {
      "constant": true,
      "inputs": [],
      "name": "VERSION",
      "outputs": [
        {
          "name": "",
          "type": "string"
        }
      ],
      "payable": false,
      "stateMutability": "view",
      "type": "function"
    },
    {
      "inputs": [
        {
          "name": "_token",
          "type": "address"
        },
        {
          "name": "_usd",
          "type": "address"
        }
      ],
      "payable": false,
      "stateMutability": "nonpayable",
      "type": "constructor"
    },
    {
      "payable": true,
      "stateMutability": "payable",
      "type": "fallback"
    },
    {
      "anonymous": false,
      "inputs": [
        {
          "indexed": false,
          "name": "token",
          "type": "address"
        }
      ],
      "name": "OptionTokenCreated",
      "type": "event"
    },
    {
      "constant": false,
      "inputs": [
        {
          "name": "name",
          "type": "string"
        },
        {
          "name": "symbol",
          "type": "string"
        },
        {
          "name": "expiration",
          "type": "uint256"
        },
        {
          "name": "flavor",
          "type": "uint8"
        },
        {
          "name": "strike",
          "type": "uint256"
        }
      ],
      "name": "issue",
      "outputs": [
        {
          "name": "",
          "type": "address"
        }
      ],
      "payable": false,
      "stateMutability": "nonpayable",
      "type": "function"
    },
    {
      "constant": false,
      "inputs": [
        {
          "name": "_series",
          "type": "address"
        },
        {
          "name": "amount",
          "type": "uint256"
        }
      ],
      "name": "open",
      "outputs": [
        {
          "name": "",
          "type": "bool"
        }
      ],
      "payable": true,
      "stateMutability": "payable",
      "type": "function"
    },
    {
      "constant": false,
      "inputs": [
        {
          "name": "_series",
          "type": "address"
        },
        {
          "name": "amount",
          "type": "uint256"
        }
      ],
      "name": "close",
      "outputs": [
        {
          "name": "",
          "type": "bool"
        }
      ],
      "payable": false,
      "stateMutability": "nonpayable",
      "type": "function"
    },
    {
      "constant": false,
      "inputs": [
        {
          "name": "_series",
          "type": "address"
        },
        {
          "name": "amount",
          "type": "uint256"
        }
      ],
      "name": "exercise",
      "outputs": [],
      "payable": true,
      "stateMutability": "payable",
      "type": "function"
    },
    {
      "constant": false,
      "inputs": [],
      "name": "receive",
      "outputs": [
        {
          "name": "",
          "type": "bool"
        }
      ],
      "payable": true,
      "stateMutability": "payable",
      "type": "function"
    },
    {
      "constant": false,
      "inputs": [
        {
          "name": "_series",
          "type": "address"
        },
        {
          "name": "amount",
          "type": "uint256"
        }
      ],
      "name": "bid",
      "outputs": [
        {
          "name": "",
          "type": "bool"
        }
      ],
      "payable": true,
      "stateMutability": "payable",
      "type": "function"
    },
    {
      "constant": true,
      "inputs": [
        {
          "name": "strike",
          "type": "uint256"
        },
        {
          "name": "elapsed",
          "type": "uint256"
        },
        {
          "name": "discountRate",
          "type": "uint256"
        }
      ],
      "name": "putAuctionUSDPrice",
      "outputs": [
        {
          "name": "",
          "type": "uint256"
        }
      ],
      "payable": false,
      "stateMutability": "pure",
      "type": "function"
    },
    {
      "constant": true,
      "inputs": [
        {
          "name": "strike",
          "type": "uint256"
        },
        {
          "name": "elapsed",
          "type": "uint256"
        },
        {
          "name": "discountRate",
          "type": "uint256"
        }
      ],
      "name": "callAuctionUSDPrice",
      "outputs": [
        {
          "name": "",
          "type": "uint256"
        }
      ],
      "payable": false,
      "stateMutability": "pure",
      "type": "function"
    },
    {
      "constant": false,
      "inputs": [
        {
          "name": "_series",
          "type": "address"
        }
      ],
      "name": "redeem",
      "outputs": [
        {
          "name": "eth",
          "type": "uint256"
        },
        {
          "name": "usd",
          "type": "uint256"
        }
      ],
      "payable": false,
      "stateMutability": "nonpayable",
      "type": "function"
    },
    {
      "constant": false,
      "inputs": [
        {
          "name": "_series",
          "type": "address"
        }
      ],
      "name": "settle",
      "outputs": [
        {
          "name": "usd",
          "type": "uint256"
        }
      ],
      "payable": false,
      "stateMutability": "nonpayable",
      "type": "function"
    },
    {
      "constant": true,
      "inputs": [
        {
          "name": "from",
          "type": "address"
        }
      ],
      "name": "discount",
      "outputs": [
        {
          "name": "",
          "type": "uint256"
        }
      ],
      "payable": false,
      "stateMutability": "view",
      "type": "function"
    },
    {
      "constant": true,
      "inputs": [
        {
          "name": "from",
          "type": "address"
        }
      ],
      "name": "preference",
      "outputs": [
        {
          "name": "",
          "type": "uint256"
        }
      ],
      "payable": false,
      "stateMutability": "view",
      "type": "function"
    },
    {
      "constant": true,
      "inputs": [
        {
          "name": "a",
          "type": "uint256"
        },
        {
          "name": "b",
          "type": "uint256"
        }
      ],
      "name": "_min",
      "outputs": [
        {
          "name": "",
          "type": "uint256"
        }
      ],
      "payable": false,
      "stateMutability": "pure",
      "type": "function"
    },
    {
      "constant": true,
      "inputs": [
        {
          "name": "a",
          "type": "uint256"
        },
        {
          "name": "b",
          "type": "uint256"
        }
      ],
      "name": "_max",
      "outputs": [
        {
          "name": "",
          "type": "uint256"
        }
      ],
      "payable": false,
      "stateMutability": "pure",
      "type": "function"
    },
    {
      "constant": true,
      "inputs": [
        {
          "name": "x",
          "type": "uint256"
        }
      ],
      "name": "_unsLn",
      "outputs": [
        {
          "name": "log",
          "type": "uint256"
        }
      ],
      "payable": false,
      "stateMutability": "pure",
      "type": "function"
    }
  ],
  "bytecode": "0x608060405234801561001057600080fd5b50604051604080620051308339810180604052604081101561003157600080fd5b81019080805190602001909291908051906020019092919050505081600160006101000a81548173ffffffffffffffffffffffffffffffffffffffff021916908373ffffffffffffffffffffffffffffffffffffffff160217905550806000806101000a81548173ffffffffffffffffffffffffffffffffffffffff021916908373ffffffffffffffffffffffffffffffffffffffff160217905550505061505180620000df6000396000f3fe608060405260043610620001e25760003560e01c80638fb28fcf1162000103578063c7bc163b1162000097578063dd068ec1116200006d578063dd068ec11462000c1e578063e49280cb1462000c6f578063edd8ca7b1462000ce6578063ffa1ad741462000d4f57620001e2565b8063c7bc163b1462000ac6578063c9b58fb01462000b4c578063ce0689801462000bb557620001e2565b8063ac023b7511620000d9578063ac023b751462000969578063ac89f44d14620009c6578063bb8e625d1462000a2f578063c0d7eec11462000a5d57620001e2565b80638fb28fcf146200087857806395a2251f14620008d5578063a3e76c0f146200094557620001e2565b806355678cfc116200017b5780636a256b2911620001515780636a256b2914620007205780637cce8e5714620007895780637efded4714620007b7578063828ac72a146200081157620001e2565b806355678cfc14620005c757806359d667a514620006505780635f29cf2314620006b957620001e2565b80631be0528911620001bd5780631be0528914620004745780632b9862ce14620004a2578063339ffec6146200050b57806353003a57146200055e57620001e2565b80630325e87e14620001e75780630a0e5c9d14620003b15780631a465fe1146200041a575b600080fd5b348015620001f457600080fd5b506200036f600480360360a08110156200020d57600080fd5b81019080803590602001906401000000008111156200022b57600080fd5b8201836020820111156200023e57600080fd5b803590602001918460018302840111640100000000831117156200026157600080fd5b91908080601f016020809104026020016040519081016040528093929190818152602001838380828437600081840152601f19601f82011690508083019250505050505050919291929080359060200190640100000000811115620002c557600080fd5b820183602082011115620002d857600080fd5b80359060200191846001830284011164010000000083111715620002fb57600080fd5b91908080601f016020809104026020016040519081016040528093929190818152602001838380828437600081840152601f19601f82011690508083019250505050505050919291929080359060200190929190803560ff1690602001909291908035906020019092919050505062000de5565b604051808273ffffffffffffffffffffffffffffffffffffffff1673ffffffffffffffffffffffffffffffffffffffff16815260200191505060405180910390f35b6200040060048036036040811015620003c957600080fd5b81019080803573ffffffffffffffffffffffffffffffffffffffff1690602001909291908035906020019092919050505062001033565b604051808215151515815260200191505060405180910390f35b3480156200042757600080fd5b50620004326200147c565b604051808273ffffffffffffffffffffffffffffffffffffffff1673ffffffffffffffffffffffffffffffffffffffff16815260200191505060405180910390f35b3480156200048157600080fd5b506200048c620014a2565b6040518082815260200191505060405180910390f35b348015620004af57600080fd5b50620004f560048036036020811015620004c857600080fd5b81019080803573ffffffffffffffffffffffffffffffffffffffff169060200190929190505050620014a8565b6040518082815260200191505060405180910390f35b3480156200051857600080fd5b5062000548600480360360208110156200053157600080fd5b81019080803590602001909291905050506200167f565b6040518082815260200191505060405180910390f35b3480156200056b57600080fd5b50620005b1600480360360208110156200058457600080fd5b81019080803573ffffffffffffffffffffffffffffffffffffffff16906020019092919050505062001760565b6040518082815260200191505060405180910390f35b348015620005d457600080fd5b506200063a60048036036040811015620005ed57600080fd5b81019080803573ffffffffffffffffffffffffffffffffffffffff169060200190929190803573ffffffffffffffffffffffffffffffffffffffff16906020019092919050505062001778565b6040518082815260200191505060405180910390f35b6200069f600480360360408110156200066857600080fd5b81019080803573ffffffffffffffffffffffffffffffffffffffff169060200190929190803590602001909291905050506200179d565b604051808215151515815260200191505060405180910390f35b348015620006c657600080fd5b506200070a60048036036060811015620006df57600080fd5b81019080803590602001909291908035906020019092919080359060200190929190505050620021c5565b6040518082815260200191505060405180910390f35b3480156200072d57600080fd5b5062000773600480360360208110156200074657600080fd5b81019080803573ffffffffffffffffffffffffffffffffffffffff16906020019092919050505062002203565b6040518082815260200191505060405180910390f35b3480156200079657600080fd5b50620007a162002619565b6040518082815260200191505060405180910390f35b348015620007c457600080fd5b50620007cf6200262a565b604051808273ffffffffffffffffffffffffffffffffffffffff1673ffffffffffffffffffffffffffffffffffffffff16815260200191505060405180910390f35b3480156200081e57600080fd5b5062000862600480360360608110156200083757600080fd5b810190808035906020019092919080359060200190929190803590602001909291905050506200264f565b6040518082815260200191505060405180910390f35b3480156200088557600080fd5b50620008bf600480360360408110156200089e57600080fd5b81019080803590602001909291908035906020019092919050505062002685565b6040518082815260200191505060405180910390f35b348015620008e257600080fd5b506200092860048036036020811015620008fb57600080fd5b81019080803573ffffffffffffffffffffffffffffffffffffffff169060200190929190505050620026a3565b604051808381526020018281526020019250505060405180910390f35b6200094f62002e8e565b604051808215151515815260200191505060405180910390f35b3480156200097657600080fd5b50620009b0600480360360408110156200098f57600080fd5b81019080803590602001909291908035906020019092919050505062002f28565b6040518082815260200191505060405180910390f35b348015620009d357600080fd5b5062000a1960048036036020811015620009ec57600080fd5b81019080803573ffffffffffffffffffffffffffffffffffffffff16906020019092919050505062002f46565b6040518082815260200191505060405180910390f35b34801562000a3c57600080fd5b5062000a4762002f5e565b6040518082815260200191505060405180910390f35b34801562000a6a57600080fd5b5062000ab06004803603602081101562000a8357600080fd5b81019080803573ffffffffffffffffffffffffffffffffffffffff16906020019092919050505062002f69565b6040518082815260200191505060405180910390f35b34801562000ad357600080fd5b5062000b196004803603602081101562000aec57600080fd5b81019080803573ffffffffffffffffffffffffffffffffffffffff16906020019092919050505062002f81565b6040518084815260200183600181111562000b3057fe5b60ff168152602001828152602001935050505060405180910390f35b34801562000b5957600080fd5b5062000b9f6004803603602081101562000b7257600080fd5b81019080803573ffffffffffffffffffffffffffffffffffffffff16906020019092919050505062002fb8565b6040518082815260200191505060405180910390f35b34801562000bc257600080fd5b5062000c086004803603602081101562000bdb57600080fd5b81019080803573ffffffffffffffffffffffffffffffffffffffff16906020019092919050505062002fd0565b6040518082815260200191505060405180910390f35b62000c6d6004803603604081101562000c3657600080fd5b81019080803573ffffffffffffffffffffffffffffffffffffffff1690602001909291908035906020019092919050505062003011565b005b34801562000c7c57600080fd5b5062000ccc6004803603604081101562000c9557600080fd5b81019080803573ffffffffffffffffffffffffffffffffffffffff169060200190929190803590602001909291905050506200353b565b604051808215151515815260200191505060405180910390f35b34801562000cf357600080fd5b5062000d396004803603602081101562000d0c57600080fd5b81019080803573ffffffffffffffffffffffffffffffffffffffff16906020019092919050505062003a27565b6040518082815260200191505060405180910390f35b34801562000d5c57600080fd5b5062000d6762003a3f565b6040518080602001828103825283818151815260200191508051906020019080838360005b8381101562000da957808201518184015260208101905062000d8c565b50505050905090810190601f16801562000dd75780820380516001836020036101000a031916815260200191505b509250505060405180910390f35b600042841162000df457600080fd5b670de0b6b3a7640000821162000e0957600080fd5b6000868660405162000e1b9062003a78565b808060200180602001838103835285818151815260200191508051906020019080838360005b8381101562000e5e57808201518184015260208101905062000e41565b50505050905090810190601f16801562000e8c5780820380516001836020036101000a031916815260200191505b50838103825284818151815260200191508051906020019080838360005b8381101562000ec757808201518184015260208101905062000eaa565b50505050905090810190601f16801562000ef55780820380516001836020036101000a031916815260200191505b50945050505050604051809103906000f08015801562000f19573d6000803e3d6000fd5b509050604051806060016040528086815260200185600181111562000f3a57fe5b815260200184815250600660008373ffffffffffffffffffffffffffffffffffffffff1673ffffffffffffffffffffffffffffffffffffffff1681526020019081526020016000206000820151816000015560208201518160010160006101000a81548160ff0219169083600181111562000fb157fe5b0217905550604082015181600201559050507ff434a81a703b3b06f1dd290881e157c47d663389196c88db9f57819ec6f6ae9f81604051808273ffffffffffffffffffffffffffffffffffffffff1673ffffffffffffffffffffffffffffffffffffffff16815260200191505060405180910390a18091505095945050505050565b60006200103f62003a86565b600660008573ffffffffffffffffffffffffffffffffffffffff1673ffffffffffffffffffffffffffffffffffffffff168152602001908152602001600020604051806060016040529081600082015481526020016001820160009054906101000a900460ff166001811115620010b257fe5b6001811115620010be57fe5b8152602001600282015481525050905080600001514210620010df57600080fd5b60006001811115620010ed57fe5b81602001516001811115620010fe57fe5b141562001118578234146200111257600080fd5b62001287565b600034146200112657600080fd5b600081604001518402905081604001518482816200114057fe5b04146200114c57600080fd5b670de0b6b3a764000081816200115e57fe5b0490506000809054906101000a900473ffffffffffffffffffffffffffffffffffffffff1673ffffffffffffffffffffffffffffffffffffffff166323b872dd3330846040518463ffffffff1660e01b8152600401808473ffffffffffffffffffffffffffffffffffffffff1673ffffffffffffffffffffffffffffffffffffffff1681526020018373ffffffffffffffffffffffffffffffffffffffff1673ffffffffffffffffffffffffffffffffffffffff1681526020018281526020019350505050602060405180830381600087803b1580156200123e57600080fd5b505af115801562001253573d6000803e3d6000fd5b505050506040513d60208110156200126a57600080fd5b81019080805190602001909291905050506200128557600080fd5b505b8373ffffffffffffffffffffffffffffffffffffffff16636370920e33856040518363ffffffff1660e01b8152600401808373ffffffffffffffffffffffffffffffffffffffff1673ffffffffffffffffffffffffffffffffffffffff16815260200182815260200192505050602060405180830381600087803b1580156200130f57600080fd5b505af115801562001324573d6000803e3d6000fd5b505050506040513d60208110156200133b57600080fd5b81019080805190602001909291905050505082600260008673ffffffffffffffffffffffffffffffffffffffff1673ffffffffffffffffffffffffffffffffffffffff1681526020019081526020016000206000828254019250508190555082600460008673ffffffffffffffffffffffffffffffffffffffff1673ffffffffffffffffffffffffffffffffffffffff1681526020019081526020016000206000828254019250508190555082600560008673ffffffffffffffffffffffffffffffffffffffff1673ffffffffffffffffffffffffffffffffffffffff16815260200190815260200160002060003373ffffffffffffffffffffffffffffffffffffffff1673ffffffffffffffffffffffffffffffffffffffff16815260200190815260200160002060008282540192505081905550600191505092915050565b600160009054906101000a900473ffffffffffffffffffffffffffffffffffffffff1681565b61a8c081565b60008062001653600160009054906101000a900473ffffffffffffffffffffffffffffffffffffffff1673ffffffffffffffffffffffffffffffffffffffff166318160ddd6040518163ffffffff1660e01b815260040160206040518083038186803b1580156200151857600080fd5b505afa1580156200152d573d6000803e3d6000fd5b505050506040513d60208110156200154457600080fd5b8101908080519060200190929190505050670de0b6b3a7640000600160009054906101000a900473ffffffffffffffffffffffffffffffffffffffff1673ffffffffffffffffffffffffffffffffffffffff166370a08231876040518263ffffffff1660e01b8152600401808273ffffffffffffffffffffffffffffffffffffffff1673ffffffffffffffffffffffffffffffffffffffff16815260200191505060206040518083038186803b158015620015fe57600080fd5b505afa15801562001613573d6000803e3d6000fd5b505050506040513d60208110156200162a57600080fd5b810190808051906020019092919050505002816200164457fe5b046683734dd0b0800062002f28565b905060006683734dd0b08000670de0b6b3a76400008302816200167257fe5b0490508092505050919050565b6000809050670de0b6b3a76400008210156200169f57600090506200175b565b5b6714d1120d7b1600008210620016d4576705a08044edda90008101905060036002830281620016cb57fe5b049150620016a0565b670de0b6b3a76400008203915060008290506000600190505b600a81101562001755578082816200170157fe5b0483019250600181019050670de0b6b3a7640000848302816200172057fe5b0491508082816200172d57fe5b0483039250600181019050670de0b6b3a7640000848302816200174c57fe5b049150620016ed565b82925050505b919050565b60036020528060005260406000206000915090505481565b6005602052816000526040600020602052806000526040600020600091509150505481565b6000801515600960009054906101000a900460ff16151514620017bf57600080fd5b6001600960006101000a81548160ff021916908315150217905550620017e462003a86565b600660008573ffffffffffffffffffffffffffffffffffffffff1673ffffffffffffffffffffffffffffffffffffffff168152602001908152602001600020604051806060016040529081600082015481526020016001820160009054906101000a900460ff1660018111156200185757fe5b60018111156200186357fe5b815260200160028201548152505090506000816000015190508042116200188957600080fd5b61a8c0810142106200189a57600080fd5b60008142039050620018ec85600260008973ffffffffffffffffffffffffffffffffffffffff1673ffffffffffffffffffffffffffffffffffffffff1681526020019081526020016000205462002f28565b945084600260008873ffffffffffffffffffffffffffffffffffffffff1673ffffffffffffffffffffffffffffffffffffffff1681526020019081526020016000206000828254039250508190555060008060006200194b3362002fd0565b90506000339050600060018111156200196057fe5b876020015160018111156200197157fe5b141562001e3857600034146200198657600080fd5b6200199787604001518684620021c5565b9350670de0b6b3a764000089850281620019ad57fe5b049250670de0b6b3a764000087604001518a0281620019c857fe5b048303600760008c73ffffffffffffffffffffffffffffffffffffffff1673ffffffffffffffffffffffffffffffffffffffff168152602001908152602001600020600082825401925050819055506000836000809054906101000a900473ffffffffffffffffffffffffffffffffffffffff1673ffffffffffffffffffffffffffffffffffffffff166370a08231336040518263ffffffff1660e01b8152600401808273ffffffffffffffffffffffffffffffffffffffff1673ffffffffffffffffffffffffffffffffffffffff16815260200191505060206040518083038186803b15801562001ab957600080fd5b505afa15801562001ace573d6000803e3d6000fd5b505050506040513d602081101562001ae557600080fd5b81019080805190602001909291905050501015801562001c145750836000809054906101000a900473ffffffffffffffffffffffffffffffffffffffff1673ffffffffffffffffffffffffffffffffffffffff1663dd62ed3e33306040518363ffffffff1660e01b8152600401808373ffffffffffffffffffffffffffffffffffffffff1673ffffffffffffffffffffffffffffffffffffffff1681526020018273ffffffffffffffffffffffffffffffffffffffff1673ffffffffffffffffffffffffffffffffffffffff1681526020019250505060206040518083038186803b15801562001bd457600080fd5b505afa15801562001be9573d6000803e3d6000fd5b505050506040513d602081101562001c0057600080fd5b810190808051906020019092919050505010155b9050801562001c6b573373ffffffffffffffffffffffffffffffffffffffff166108fc8b9081150290604051600060405180830381858888f1935050505015801562001c64573d6000803e3d6000fd5b5062001d0d565b8173ffffffffffffffffffffffffffffffffffffffff1663092eb18c8c8c6040518363ffffffff1660e01b8152600401808373ffffffffffffffffffffffffffffffffffffffff1673ffffffffffffffffffffffffffffffffffffffff16815260200182815260200192505050600060405180830381600087803b15801562001cf357600080fd5b505af115801562001d08573d6000803e3d6000fd5b505050505b6000809054906101000a900473ffffffffffffffffffffffffffffffffffffffff1673ffffffffffffffffffffffffffffffffffffffff166323b872dd3330876040518463ffffffff1660e01b8152600401808473ffffffffffffffffffffffffffffffffffffffff1673ffffffffffffffffffffffffffffffffffffffff1681526020018373ffffffffffffffffffffffffffffffffffffffff1673ffffffffffffffffffffffffffffffffffffffff1681526020018281526020019350505050602060405180830381600087803b15801562001dea57600080fd5b505af115801562001dff573d6000803e3d6000fd5b505050506040513d602081101562001e1657600080fd5b810190808051906020019092919050505062001e3157600080fd5b5062002199565b62001e49876040015186846200264f565b9350670de0b6b3a7640000848a028162001e5f57fe5b04925082670de0b6b3a764000088604001518b028162001e7b57fe5b0403600760008c73ffffffffffffffffffffffffffffffffffffffff1673ffffffffffffffffffffffffffffffffffffffff168152602001908152602001600020600082825401925050819055506000809054906101000a900473ffffffffffffffffffffffffffffffffffffffff1673ffffffffffffffffffffffffffffffffffffffff1663a9059cbb33856040518363ffffffff1660e01b8152600401808373ffffffffffffffffffffffffffffffffffffffff1673ffffffffffffffffffffffffffffffffffffffff16815260200182815260200192505050602060405180830381600087803b15801562001f7257600080fd5b505af115801562001f87573d6000803e3d6000fd5b505050506040513d602081101562001f9e57600080fd5b81019080805190602001909291905050505060003414156200213f576000600860003373ffffffffffffffffffffffffffffffffffffffff1673ffffffffffffffffffffffffffffffffffffffff16815260200190815260200160002054146200200757600080fd5b88600860003373ffffffffffffffffffffffffffffffffffffffff1673ffffffffffffffffffffffffffffffffffffffff168152602001908152602001600020819055508073ffffffffffffffffffffffffffffffffffffffff1663bb4a69698b856040518363ffffffff1660e01b8152600401808373ffffffffffffffffffffffffffffffffffffffff1673ffffffffffffffffffffffffffffffffffffffff16815260200182815260200192505050600060405180830381600087803b158015620020d357600080fd5b505af1158015620020e8573d6000803e3d6000fd5b505050506000600860003373ffffffffffffffffffffffffffffffffffffffff1673ffffffffffffffffffffffffffffffffffffffff16815260200190815260200160002054146200213957600080fd5b62002198565b883410156200214d57600080fd5b3373ffffffffffffffffffffffffffffffffffffffff166108fc8a34039081150290604051600060405180830381858888f1935050505015801562002196573d6000803e3d6000fd5b505b5b6000600960006101000a81548160ff021916908315150217905550600197505050505050505092915050565b6000808361a8c0860281620021d657fe5b049050620021f9670de0b6b3a764000084830281620021f157fe5b048662002685565b9150509392505050565b60006200220f62003a86565b600660008473ffffffffffffffffffffffffffffffffffffffff1673ffffffffffffffffffffffffffffffffffffffff168152602001908152602001600020604051806060016040529081600082015481526020016001820160009054906101000a900460ff1660018111156200228257fe5b60018111156200228e57fe5b8152602001600282015481525050905061a8c08160000151014211620022b357600080fd5b60008373ffffffffffffffffffffffffffffffffffffffff166370a08231336040518263ffffffff1660e01b8152600401808273ffffffffffffffffffffffffffffffffffffffff1673ffffffffffffffffffffffffffffffffffffffff16815260200191505060206040518083038186803b1580156200233357600080fd5b505afa15801562002348573d6000803e3d6000fd5b505050506040513d60208110156200235f57600080fd5b810190808051906020019092919050505090508373ffffffffffffffffffffffffffffffffffffffff16639dc29fac33836040518363ffffffff1660e01b8152600401808373ffffffffffffffffffffffffffffffffffffffff1673ffffffffffffffffffffffffffffffffffffffff16815260200182815260200192505050602060405180830381600087803b158015620023fa57600080fd5b505af11580156200240f573d6000803e3d6000fd5b505050506040513d60208110156200242657600080fd5b8101908080519060200190929190505050506000600360008673ffffffffffffffffffffffffffffffffffffffff1673ffffffffffffffffffffffffffffffffffffffff16815260200190815260200160002054600460008773ffffffffffffffffffffffffffffffffffffffff1673ffffffffffffffffffffffffffffffffffffffff1681526020019081526020016000205403670de0b6b3a7640000830281620024ce57fe5b049050670de0b6b3a764000081600760008873ffffffffffffffffffffffffffffffffffffffff1673ffffffffffffffffffffffffffffffffffffffff1681526020019081526020016000205402816200252457fe5b0493506000809054906101000a900473ffffffffffffffffffffffffffffffffffffffff1673ffffffffffffffffffffffffffffffffffffffff1663a9059cbb33866040518363ffffffff1660e01b8152600401808373ffffffffffffffffffffffffffffffffffffffff1673ffffffffffffffffffffffffffffffffffffffff16815260200182815260200192505050602060405180830381600087803b158015620025d057600080fd5b505af1158015620025e5573d6000803e3d6000fd5b505050506040513d6020811015620025fc57600080fd5b810190808051906020019092919050505050839350505050919050565b600261a8c0816200262657fe5b0481565b6000809054906101000a900473ffffffffffffffffffffffffffffffffffffffff1681565b6000808261a8c002670de0b6b3a764000086860202816200266c57fe5b0490506200267b818662002f28565b9150509392505050565b60008183111562002699578290506200269d565b8190505b92915050565b600080620026b062003a86565b600660008573ffffffffffffffffffffffffffffffffffffffff1673ffffffffffffffffffffffffffffffffffffffff168152602001908152602001600020604051806060016040529081600082015481526020016001820160009054906101000a900460ff1660018111156200272357fe5b60018111156200272f57fe5b8152602001600282015481525050905061a8c081600001510142116200275457600080fd5b6000600460008673ffffffffffffffffffffffffffffffffffffffff1673ffffffffffffffffffffffffffffffffffffffff16815260200190815260200160002054670de0b6b3a7640000600260008873ffffffffffffffffffffffffffffffffffffffff1673ffffffffffffffffffffffffffffffffffffffff168152602001908152602001600020540281620027e857fe5b0490506000600460008773ffffffffffffffffffffffffffffffffffffffff1673ffffffffffffffffffffffffffffffffffffffff16815260200190815260200160002054670de0b6b3a7640000600260008973ffffffffffffffffffffffffffffffffffffffff1673ffffffffffffffffffffffffffffffffffffffff16815260200190815260200160002054600460008a73ffffffffffffffffffffffffffffffffffffffff1673ffffffffffffffffffffffffffffffffffffffff16815260200190815260200160002054030281620028c057fe5b0490506000806001811115620028d257fe5b84602001516001811115620028e357fe5b141562002b7657670de0b6b3a764000083600560008a73ffffffffffffffffffffffffffffffffffffffff1673ffffffffffffffffffffffffffffffffffffffff16815260200190815260200160002060003373ffffffffffffffffffffffffffffffffffffffff1673ffffffffffffffffffffffffffffffffffffffff1681526020019081526020016000205402816200297a57fe5b0495506000861115620029d0573373ffffffffffffffffffffffffffffffffffffffff166108fc829081150290604051600060405180830381858888f19350505050158015620029ce573d6000803e3d6000fd5b505b670de0b6b3a764000082600560008a73ffffffffffffffffffffffffffffffffffffffff1673ffffffffffffffffffffffffffffffffffffffff16815260200190815260200160002060003373ffffffffffffffffffffffffffffffffffffffff1673ffffffffffffffffffffffffffffffffffffffff16815260200190815260200160002054028162002a6057fe5b049450670de0b6b3a7640000846040015186028162002a7b57fe5b049450600085111562002b70576000809054906101000a900473ffffffffffffffffffffffffffffffffffffffff1673ffffffffffffffffffffffffffffffffffffffff1663a9059cbb33836040518363ffffffff1660e01b8152600401808373ffffffffffffffffffffffffffffffffffffffff1673ffffffffffffffffffffffffffffffffffffffff16815260200182815260200192505050602060405180830381600087803b15801562002b3157600080fd5b505af115801562002b46573d6000803e3d6000fd5b505050506040513d602081101562002b5d57600080fd5b8101908080519060200190929190505050505b62002dfd565b670de0b6b3a764000083600560008a73ffffffffffffffffffffffffffffffffffffffff1673ffffffffffffffffffffffffffffffffffffffff16815260200190815260200160002060003373ffffffffffffffffffffffffffffffffffffffff1673ffffffffffffffffffffffffffffffffffffffff16815260200190815260200160002054028162002c0657fe5b049450670de0b6b3a7640000846040015186028162002c2157fe5b049450600085111562002d16576000809054906101000a900473ffffffffffffffffffffffffffffffffffffffff1673ffffffffffffffffffffffffffffffffffffffff1663a9059cbb33876040518363ffffffff1660e01b8152600401808373ffffffffffffffffffffffffffffffffffffffff1673ffffffffffffffffffffffffffffffffffffffff16815260200182815260200192505050602060405180830381600087803b15801562002cd757600080fd5b505af115801562002cec573d6000803e3d6000fd5b505050506040513d602081101562002d0357600080fd5b8101908080519060200190929190505050505b670de0b6b3a764000082600560008a73ffffffffffffffffffffffffffffffffffffffff1673ffffffffffffffffffffffffffffffffffffffff16815260200190815260200160002060003373ffffffffffffffffffffffffffffffffffffffff1673ffffffffffffffffffffffffffffffffffffffff16815260200190815260200160002054028162002da657fe5b049550600086111562002dfc573373ffffffffffffffffffffffffffffffffffffffff166108fc879081150290604051600060405180830381858888f1935050505015801562002dfa573d6000803e3d6000fd5b505b5b6000600560008973ffffffffffffffffffffffffffffffffffffffff1673ffffffffffffffffffffffffffffffffffffffff16815260200190815260200160002060003373ffffffffffffffffffffffffffffffffffffffff1673ffffffffffffffffffffffffffffffffffffffff1681526020019081526020016000208190555085859550955050505050915091565b600034600860003373ffffffffffffffffffffffffffffffffffffffff1673ffffffffffffffffffffffffffffffffffffffff168152602001908152602001600020541462002edc57600080fd5b6000600860003373ffffffffffffffffffffffffffffffffffffffff1673ffffffffffffffffffffffffffffffffffffffff168152602001908152602001600020819055506001905090565b60008183111562002f3c5781905062002f40565b8290505b92915050565b60086020528060005260406000206000915090505481565b6683734dd0b0800081565b60046020528060005260406000206000915090505481565b60066020528060005260406000206000915090508060000154908060010160009054906101000a900460ff16908060020154905083565b60076020528060005260406000206000915090505481565b6000606462002ff6670de0b6b3a7640000608b62002fee86620014a8565b02016200167f565b68056bc75e2d6310000003816200300957fe5b049050919050565b6200301b62003a86565b600660008473ffffffffffffffffffffffffffffffffffffffff1673ffffffffffffffffffffffffffffffffffffffff168152602001908152602001600020604051806060016040529081600082015481526020016001820160009054906101000a900460ff1660018111156200308e57fe5b60018111156200309a57fe5b8152602001600282015481525050905080600001514210620030bb57600080fd5b81600260008573ffffffffffffffffffffffffffffffffffffffff1673ffffffffffffffffffffffffffffffffffffffff1681526020019081526020016000205410156200310857600080fd5b8273ffffffffffffffffffffffffffffffffffffffff16639dc29fac33846040518363ffffffff1660e01b8152600401808373ffffffffffffffffffffffffffffffffffffffff1673ffffffffffffffffffffffffffffffffffffffff16815260200182815260200192505050602060405180830381600087803b1580156200319057600080fd5b505af1158015620031a5573d6000803e3d6000fd5b505050506040513d6020811015620031bc57600080fd5b81019080805190602001909291905050505060008160400151830290508160400151838281620031e857fe5b0414620031f457600080fd5b670de0b6b3a764000081816200320657fe5b04905082600260008673ffffffffffffffffffffffffffffffffffffffff1673ffffffffffffffffffffffffffffffffffffffff1681526020019081526020016000206000828254039250508190555082600360008673ffffffffffffffffffffffffffffffffffffffff1673ffffffffffffffffffffffffffffffffffffffff1681526020019081526020016000206000828254019250508190555060006001811115620032b157fe5b82602001516001811115620032c257fe5b141562003440573373ffffffffffffffffffffffffffffffffffffffff166108fc849081150290604051600060405180830381858888f1935050505015801562003310573d6000803e3d6000fd5b50600034146200331f57600080fd5b6000809054906101000a900473ffffffffffffffffffffffffffffffffffffffff1673ffffffffffffffffffffffffffffffffffffffff166323b872dd3330846040518463ffffffff1660e01b8152600401808473ffffffffffffffffffffffffffffffffffffffff1673ffffffffffffffffffffffffffffffffffffffff1681526020018373ffffffffffffffffffffffffffffffffffffffff1673ffffffffffffffffffffffffffffffffffffffff1681526020018281526020019350505050602060405180830381600087803b158015620033fc57600080fd5b505af115801562003411573d6000803e3d6000fd5b505050506040513d60208110156200342857600080fd5b81019080805190602001909291905050505062003535565b8234146200344d57600080fd5b6000809054906101000a900473ffffffffffffffffffffffffffffffffffffffff1673ffffffffffffffffffffffffffffffffffffffff1663a9059cbb33836040518363ffffffff1660e01b8152600401808373ffffffffffffffffffffffffffffffffffffffff1673ffffffffffffffffffffffffffffffffffffffff16815260200182815260200192505050602060405180830381600087803b158015620034f657600080fd5b505af11580156200350b573d6000803e3d6000fd5b505050506040513d60208110156200352257600080fd5b8101908080519060200190929190505050505b50505050565b60006200354762003a86565b600660008573ffffffffffffffffffffffffffffffffffffffff1673ffffffffffffffffffffffffffffffffffffffff168152602001908152602001600020604051806060016040529081600082015481526020016001820160009054906101000a900460ff166001811115620035ba57fe5b6001811115620035c657fe5b8152602001600282015481525050905080600001514210620035e757600080fd5b82600260008673ffffffffffffffffffffffffffffffffffffffff1673ffffffffffffffffffffffffffffffffffffffff1681526020019081526020016000205410156200363457600080fd5b8373ffffffffffffffffffffffffffffffffffffffff16639dc29fac33856040518363ffffffff1660e01b8152600401808373ffffffffffffffffffffffffffffffffffffffff1673ffffffffffffffffffffffffffffffffffffffff16815260200182815260200192505050602060405180830381600087803b158015620036bc57600080fd5b505af1158015620036d1573d6000803e3d6000fd5b505050506040513d6020811015620036e857600080fd5b81019080805190602001909291905050505082600560008673ffffffffffffffffffffffffffffffffffffffff1673ffffffffffffffffffffffffffffffffffffffff16815260200190815260200160002060003373ffffffffffffffffffffffffffffffffffffffff1673ffffffffffffffffffffffffffffffffffffffff1681526020019081526020016000205410156200378457600080fd5b82600560008673ffffffffffffffffffffffffffffffffffffffff1673ffffffffffffffffffffffffffffffffffffffff16815260200190815260200160002060003373ffffffffffffffffffffffffffffffffffffffff1673ffffffffffffffffffffffffffffffffffffffff1681526020019081526020016000206000828254039250508190555082600260008673ffffffffffffffffffffffffffffffffffffffff1673ffffffffffffffffffffffffffffffffffffffff1681526020019081526020016000206000828254039250508190555082600460008673ffffffffffffffffffffffffffffffffffffffff1673ffffffffffffffffffffffffffffffffffffffff1681526020019081526020016000206000828254039250508190555060006001811115620038b657fe5b81602001516001811115620038c757fe5b14156200391c573373ffffffffffffffffffffffffffffffffffffffff166108fc849081150290604051600060405180830381858888f1935050505015801562003915573d6000803e3d6000fd5b5062003a1c565b6000809054906101000a900473ffffffffffffffffffffffffffffffffffffffff1673ffffffffffffffffffffffffffffffffffffffff1663a9059cbb33670de0b6b3a764000084604001518702816200397257fe5b046040518363ffffffff1660e01b8152600401808373ffffffffffffffffffffffffffffffffffffffff1673ffffffffffffffffffffffffffffffffffffffff16815260200182815260200192505050602060405180830381600087803b158015620039dd57600080fd5b505af1158015620039f2573d6000803e3d6000fd5b505050506040513d602081101562003a0957600080fd5b8101908080519060200190929190505050505b600191505092915050565b60026020528060005260406000206000915090505481565b6040518060400160405280600381526020017f312e30000000000000000000000000000000000000000000000000000000000081525081565b6115728062003ab483390190565b6040518060600160405280600081526020016000600181111562003aa657fe5b815260200160008152509056fe60806040523480156200001157600080fd5b506040516200157238038062001572833981018060405260408110156200003757600080fd5b8101908080516401000000008111156200005057600080fd5b828101905060208101848111156200006757600080fd5b81518560018202830111640100000000821117156200008557600080fd5b50509291906020018051640100000000811115620000a257600080fd5b82810190506020810184811115620000b957600080fd5b8151856001820283011164010000000082111715620000d757600080fd5b5050929190505050336000806101000a81548173ffffffffffffffffffffffffffffffffffffffff021916908373ffffffffffffffffffffffffffffffffffffffff16021790555081600490805190602001906200013792919062000159565b5080600590805190602001906200015092919062000159565b50505062000208565b828054600181600116156101000203166002900490600052602060002090601f016020900481019282601f106200019c57805160ff1916838001178555620001cd565b82800160010185558215620001cd579182015b82811115620001cc578251825591602001919060010190620001af565b5b509050620001dc9190620001e0565b5090565b6200020591905b8082111562000201576000816000905550600101620001e7565b5090565b90565b61135a80620002186000396000f3fe608060405234801561001057600080fd5b506004361061010b5760003560e01c80633f35d033116100a2578063928012301161007157806392801230146105b457806395d89b41146105fe5780639dc29fac14610681578063a9059cbb146106e7578063dd62ed3e1461074d5761010b565b80633f35d033146103815780635c6581651461047e5780636370920e146104f657806370a082311461055c5761010b565b806323b872dd116100de57806323b872dd1461026157806327e235e3146102e7578063313ce5671461033f57806333a581d2146103635761010b565b806302d05d3f1461011057806306fdde031461015a578063095ea7b3146101dd57806318160ddd14610243575b600080fd5b6101186107c5565b604051808273ffffffffffffffffffffffffffffffffffffffff1673ffffffffffffffffffffffffffffffffffffffff16815260200191505060405180910390f35b6101626107ea565b6040518080602001828103825283818151815260200191508051906020019080838360005b838110156101a2578082015181840152602081019050610187565b50505050905090810190601f1680156101cf5780820380516001836020036101000a031916815260200191505b509250505060405180910390f35b610229600480360360408110156101f357600080fd5b81019080803573ffffffffffffffffffffffffffffffffffffffff16906020019092919080359060200190929190505050610888565b604051808215151515815260200191505060405180910390f35b61024b61097a565b6040518082815260200191505060405180910390f35b6102cd6004803603606081101561027757600080fd5b81019080803573ffffffffffffffffffffffffffffffffffffffff169060200190929190803573ffffffffffffffffffffffffffffffffffffffff16906020019092919080359060200190929190505050610980565b604051808215151515815260200191505060405180910390f35b610329600480360360208110156102fd57600080fd5b81019080803573ffffffffffffffffffffffffffffffffffffffff169060200190929190505050610b3e565b6040518082815260200191505060405180910390f35b610347610b56565b604051808260ff1660ff16815260200191505060405180910390f35b61036b610b5b565b6040518082815260200191505060405180910390f35b6104646004803603606081101561039757600080fd5b81019080803573ffffffffffffffffffffffffffffffffffffffff16906020019092919080359060200190929190803590602001906401000000008111156103de57600080fd5b8201836020820111156103f057600080fd5b8035906020019184600183028401116401000000008311171561041257600080fd5b91908080601f016020809104026020016040519081016040528093929190818152602001838380828437600081840152601f19601f820116905080830192505050505050509192919290505050610b7f565b604051808215151515815260200191505060405180910390f35b6104e06004803603604081101561049457600080fd5b81019080803573ffffffffffffffffffffffffffffffffffffffff169060200190929190803573ffffffffffffffffffffffffffffffffffffffff169060200190929190505050610dcc565b6040518082815260200191505060405180910390f35b6105426004803603604081101561050c57600080fd5b81019080803573ffffffffffffffffffffffffffffffffffffffff16906020019092919080359060200190929190505050610df1565b604051808215151515815260200191505060405180910390f35b61059e6004803603602081101561057257600080fd5b81019080803573ffffffffffffffffffffffffffffffffffffffff169060200190929190505050610f01565b6040518082815260200191505060405180910390f35b6105bc610f4a565b604051808273ffffffffffffffffffffffffffffffffffffffff1673ffffffffffffffffffffffffffffffffffffffff16815260200191505060405180910390f35b610606610f70565b6040518080602001828103825283818151815260200191508051906020019080838360005b8381101561064657808201518184015260208101905061062b565b50505050905090810190601f1680156106735780820380516001836020036101000a031916815260200191505b509250505060405180910390f35b6106cd6004803603604081101561069757600080fd5b81019080803573ffffffffffffffffffffffffffffffffffffffff1690602001909291908035906020019092919050505061100e565b604051808215151515815260200191505060405180910390f35b610733600480360360408110156106fd57600080fd5b81019080803573ffffffffffffffffffffffffffffffffffffffff1690602001909291908035906020019092919050505061111c565b604051808215151515815260200191505060405180910390f35b6107af6004803603604081101561076357600080fd5b81019080803573ffffffffffffffffffffffffffffffffffffffff169060200190929190803573ffffffffffffffffffffffffffffffffffffffff169060200190929190505050611198565b6040518082815260200191505060405180910390f35b6000809054906101000a900473ffffffffffffffffffffffffffffffffffffffff1681565b60048054600181600116156101000203166002900480601f0160208091040260200160405190810160405280929190818152602001828054600181600116156101000203166002900480156108805780601f1061085557610100808354040283529160200191610880565b820191906000526020600020905b81548152906001019060200180831161086357829003601f168201915b505050505081565b600081600360003373ffffffffffffffffffffffffffffffffffffffff1673ffffffffffffffffffffffffffffffffffffffff16815260200190815260200160002060008573ffffffffffffffffffffffffffffffffffffffff1673ffffffffffffffffffffffffffffffffffffffff168152602001908152602001600020819055508273ffffffffffffffffffffffffffffffffffffffff163373ffffffffffffffffffffffffffffffffffffffff167f8c5be1e5ebec7d5bd14f71427d1e84f3dd0314c0f7b2291e5b200ac8c7c3b925846040518082815260200191505060405180910390a36001905092915050565b60065481565b600080600360008673ffffffffffffffffffffffffffffffffffffffff1673ffffffffffffffffffffffffffffffffffffffff16815260200190815260200160002060003373ffffffffffffffffffffffffffffffffffffffff1673ffffffffffffffffffffffffffffffffffffffff16815260200190815260200160002054905082811015610a0f57600080fd5b610a1a85858561121f565b7fffffffffffffffffffffffffffffffffffffffffffffffffffffffffffffffff811015610acd5782600360008773ffffffffffffffffffffffffffffffffffffffff1673ffffffffffffffffffffffffffffffffffffffff16815260200190815260200160002060003373ffffffffffffffffffffffffffffffffffffffff1673ffffffffffffffffffffffffffffffffffffffff168152602001908152602001600020600082825403925050819055505b8373ffffffffffffffffffffffffffffffffffffffff168573ffffffffffffffffffffffffffffffffffffffff167fddf252ad1be2c89b69c2b068fc378daa952ba7f163c4a11628f55a4df523b3ef856040518082815260200191505060405180910390a360019150509392505050565b60026020528060005260406000206000915090505481565b601281565b7fffffffffffffffffffffffffffffffffffffffffffffffffffffffffffffffff81565b6000610b8c33858561121f565b6000604051808061130b6024913960240190506040518091039020905060008573ffffffffffffffffffffffffffffffffffffffff168233878760405160200180857bffffffffffffffffffffffffffffffffffffffffffffffffffffffff19167bffffffffffffffffffffffffffffffffffffffffffffffffffffffff191681526004018473ffffffffffffffffffffffffffffffffffffffff1673ffffffffffffffffffffffffffffffffffffffff1660601b815260140183815260200182805190602001908083835b60208310610c7b5780518252602082019150602081019050602083039250610c58565b6001836020036101000a0380198251168184511680821785525050505050509050019450505050506040516020818303038152906040526040518082805190602001908083835b60208310610ce55780518252602082019150602081019050602083039250610cc2565b6001836020036101000a0380198251168184511680821785525050505050509050019150506000604051808303816000865af19150503d8060008114610d47576040519150601f19603f3d011682016040523d82523d6000602084013e610d4c565b606091505b5050905080610d5a57600080fd5b8573ffffffffffffffffffffffffffffffffffffffff163373ffffffffffffffffffffffffffffffffffffffff167fddf252ad1be2c89b69c2b068fc378daa952ba7f163c4a11628f55a4df523b3ef876040518082815260200191505060405180910390a36001925050509392505050565b6003602052816000526040600020602052806000526040600020600091509150505481565b60008060009054906101000a900473ffffffffffffffffffffffffffffffffffffffff1673ffffffffffffffffffffffffffffffffffffffff163373ffffffffffffffffffffffffffffffffffffffff1614610e4c57600080fd5b8182600260008673ffffffffffffffffffffffffffffffffffffffff1673ffffffffffffffffffffffffffffffffffffffff16815260200190815260200160002054011015610e9a57600080fd5b81600260008573ffffffffffffffffffffffffffffffffffffffff1673ffffffffffffffffffffffffffffffffffffffff16815260200190815260200160002060008282540192505081905550816006600082825401925050819055506001905092915050565b6000600260008373ffffffffffffffffffffffffffffffffffffffff1673ffffffffffffffffffffffffffffffffffffffff168152602001908152602001600020549050919050565b600160009054906101000a900473ffffffffffffffffffffffffffffffffffffffff1681565b60058054600181600116156101000203166002900480601f0160208091040260200160405190810160405280929190818152602001828054600181600116156101000203166002900480156110065780601f10610fdb57610100808354040283529160200191611006565b820191906000526020600020905b815481529060010190602001808311610fe957829003601f168201915b505050505081565b60008060009054906101000a900473ffffffffffffffffffffffffffffffffffffffff1673ffffffffffffffffffffffffffffffffffffffff163373ffffffffffffffffffffffffffffffffffffffff161461106957600080fd5b81600260008573ffffffffffffffffffffffffffffffffffffffff1673ffffffffffffffffffffffffffffffffffffffff1681526020019081526020016000205410156110b557600080fd5b81600260008573ffffffffffffffffffffffffffffffffffffffff1673ffffffffffffffffffffffffffffffffffffffff16815260200190815260200160002060008282540392505081905550816006600082825403925050819055506001905092915050565b600061112933848461121f565b8273ffffffffffffffffffffffffffffffffffffffff163373ffffffffffffffffffffffffffffffffffffffff167fddf252ad1be2c89b69c2b068fc378daa952ba7f163c4a11628f55a4df523b3ef846040518082815260200191505060405180910390a36001905092915050565b6000600360008473ffffffffffffffffffffffffffffffffffffffff1673ffffffffffffffffffffffffffffffffffffffff16815260200190815260200160002060008373ffffffffffffffffffffffffffffffffffffffff1673ffffffffffffffffffffffffffffffffffffffff16815260200190815260200160002054905092915050565b80600260008573ffffffffffffffffffffffffffffffffffffffff1673ffffffffffffffffffffffffffffffffffffffff16815260200190815260200160002054101561126b57600080fd5b80600260008573ffffffffffffffffffffffffffffffffffffffff1673ffffffffffffffffffffffffffffffffffffffff1681526020019081526020016000206000828254039250508190555080600260008473ffffffffffffffffffffffffffffffffffffffff1673ffffffffffffffffffffffffffffffffffffffff1681526020019081526020016000206000828254019250508190555050505056fe72656365697665546f6b656e7328616464726573732c75696e743235362c627974657329a165627a7a72305820058cd538c390fbeaf803c02998524b7081b524c5aa0b80e6b9aa3191203074340029a165627a7a72305820d0564c12a99bd2a5204b16166dd7d4ae18685ad5ff2679f6532696e5f9364bc40029",
  "source": "pragma solidity ^0.5;\n\nimport \"./ERC20.sol\";\nimport \"./OptionToken.sol\";\nimport \"./VariableSupplyToken.sol\";\nimport \"./DSFProtocolTypes.sol\";\nimport \"./BidderInterface.sol\";\n\n\ncontract DSFProtocol is DSFProtocolTypes {\n    \n    string public constant VERSION = \"1.0\";\n    \n    ERC20 public usdERC20;\n    ERC20 public protocolToken;\n\n    struct OptionSeries {\n        uint expiration;\n        Flavor flavor;\n        uint strike;\n    }\n\n    uint public constant DURATION = 12 hours;\n    uint public constant HALF_DURATION = DURATION / 2;\n\n    mapping(address => uint) public openInterest;\n    mapping(address => uint) public earlyExercised;\n    mapping(address => uint) public totalInterest;\n    mapping(address => mapping(address => uint)) public writers;\n    mapping(address => OptionSeries) public seriesInfo;\n    mapping(address => uint) public holdersSettlement;\n\n    mapping(address => uint) public expectValue;\n    bool isAuction;\n    \n    \n    uint public constant PREFERENCE_MAX = 0.037 ether;\n\n    constructor(address _token, address _usd) public {\n        protocolToken = ERC20(_token);\n        usdERC20 = ERC20(_usd);\n    }\n\n    function() external payable {\n        revert();\n    }\n\n    event OptionTokenCreated(address token);\n    // Note, this just creates an option token, it doesn't guarantee\n    // settlement of that token. For guaranteed settlement see the DSFProtocolProxy contract(s)\n    function issue(string memory name, string memory symbol, uint expiration, Flavor flavor, uint strike) public returns (address) {\n        require(expiration > now);\n        require(strike > 1 ether);\n        address series = address(new OptionToken(name, symbol));\n        seriesInfo[series] = OptionSeries(expiration, flavor, strike);\n        emit OptionTokenCreated(series);\n        return series;\n    }\n\n    function open(address _series, uint amount) public payable returns (bool) {\n        OptionSeries memory series = seriesInfo[_series];\n        require(now < series.expiration);\n\n        if (series.flavor == Flavor.Call) {\n            require(msg.value == amount);\n        } else {\n            require(msg.value == 0);\n            uint escrow = amount * series.strike;\n            require(escrow / amount == series.strike);\n            escrow /= 1 ether;\n            require(usdERC20.transferFrom(msg.sender, address(this), escrow));\n        }\n        \n        VariableSupplyToken(_series).grant(msg.sender, amount);\n\n        openInterest[_series] += amount;\n        totalInterest[_series] += amount;\n        writers[_series][msg.sender] += amount;\n\n        return true;\n    }\n\n    function close(address _series, uint amount) public returns (bool) {\n        OptionSeries memory series = seriesInfo[_series];\n\n        require(now < series.expiration);\n        require(openInterest[_series] >= amount);\n        VariableSupplyToken(_series).burn(msg.sender, amount);\n\n        require(writers[_series][msg.sender] >= amount);\n        writers[_series][msg.sender] -= amount;\n        openInterest[_series] -= amount;\n        totalInterest[_series] -= amount;\n        \n        if (series.flavor == Flavor.Call) {\n            msg.sender.transfer(amount);\n        } else {\n            usdERC20.transfer(msg.sender, amount * series.strike / 1 ether);\n        }\n        return true;\n    }\n    \n    function exercise(address _series, uint amount) public payable {\n        OptionSeries memory series = seriesInfo[_series];\n\n        require(now < series.expiration);\n        require(openInterest[_series] >= amount);\n        VariableSupplyToken(_series).burn(msg.sender, amount);\n\n        uint usd = amount * series.strike;\n        require(usd / amount == series.strike);\n        usd /= 1 ether;\n\n        openInterest[_series] -= amount;\n        earlyExercised[_series] += amount;\n\n        if (series.flavor == Flavor.Call) {\n            msg.sender.transfer(amount);\n            require(msg.value == 0);\n            usdERC20.transferFrom(msg.sender, address(this), usd);\n        } else {\n            require(msg.value == amount);\n            usdERC20.transfer(msg.sender, usd);\n        }\n    }\n    \n    function receive() public payable returns (bool) {\n        require(expectValue[msg.sender] == msg.value);\n        expectValue[msg.sender] = 0;\n        return true;\n    }\n\n    function bid(address _series, uint amount) public payable returns (bool) {\n\n        require(isAuction == false);\n        isAuction = true;\n\n        OptionSeries memory series = seriesInfo[_series];\n\n        uint start = series.expiration;\n        require(now > start);\n        require(now < start + DURATION);\n\n        uint elapsed = now - start;\n\n        // amount is upper-bounded to open interest of series\n        amount = _min(amount, openInterest[_series]);\n\n        openInterest[_series] -= amount;\n\n        uint offer;\n        uint givGet;\n        uint discountRate = discount(msg.sender);\n        \n        BidderInterface bidder = BidderInterface(msg.sender);\n        \n        if (series.flavor == Flavor.Call) {\n            require(msg.value == 0);\n\n            offer = callAuctionUSDPrice(series.strike, elapsed, discountRate);\n            givGet = offer * amount / 1 ether;\n            \n            holdersSettlement[_series] += givGet - amount * series.strike / 1 ether;\n\n            bool hasFunds = usdERC20.balanceOf(msg.sender) >= givGet && usdERC20.allowance(msg.sender, address(this)) >= givGet;\n\n            if (hasFunds) {\n                msg.sender.transfer(amount);\n            } else {\n                bidder.receiveETH(_series, amount);\n            }\n\n            require(usdERC20.transferFrom(msg.sender, address(this), givGet));\n        } else {\n            // offer represents the amount the sender will sell eth for in USD\n            offer = putAuctionUSDPrice(series.strike, elapsed, discountRate);\n            \n            // the amount in USD the sender will receive\n            givGet = amount * offer / 1 ether;\n\n            holdersSettlement[_series] += amount * series.strike / 1 ether - givGet;\n            usdERC20.transfer(msg.sender, givGet);\n\n            if (msg.value == 0) {\n                require(expectValue[msg.sender] == 0);\n                expectValue[msg.sender] = amount;\n                \n                bidder.receiveUSD(_series, givGet);\n                require(expectValue[msg.sender] == 0);\n            } else {\n                require(msg.value >= amount);\n                msg.sender.transfer(msg.value - amount);\n            }\n        }\n\n        isAuction = false;\n        return true;\n    }\n    \n    function putAuctionUSDPrice(uint strike, uint elapsed, uint discountRate) public pure returns (uint) {\n        uint price = elapsed * strike * 1 ether / (DURATION * discountRate);\n        return _min(price, strike);\n    }\n    \n    function callAuctionUSDPrice(uint strike, uint elapsed, uint discountRate) public pure returns (uint) {\n        uint price = strike * DURATION / elapsed;\n        return _max(\n            price * discountRate / 1 ether,\n            strike\n        );\n    }\n\n    function redeem(address _series) public returns (uint eth, uint usd) {\n        OptionSeries memory series = seriesInfo[_series];\n\n        require(now > series.expiration + DURATION);\n\n        uint unsettledPercent = openInterest[_series] * 1 ether / totalInterest[_series];\n        uint exercisedPercent = (totalInterest[_series] - openInterest[_series]) * 1 ether / totalInterest[_series];\n        uint owed;\n\n        if (series.flavor == Flavor.Call) {\n            eth = writers[_series][msg.sender] * unsettledPercent / 1 ether;\n\n            if (eth > 0) {\n                msg.sender.transfer(owed);\n            }\n\n            usd = writers[_series][msg.sender] * exercisedPercent / 1 ether;\n            usd = usd * series.strike / 1 ether;\n            if (usd > 0) {\n                usdERC20.transfer(msg.sender, owed);\n            }\n        } else {\n            usd = writers[_series][msg.sender] * unsettledPercent / 1 ether;\n            usd = usd * series.strike / 1 ether;\n            if (usd > 0) {\n                usdERC20.transfer(msg.sender, usd);\n            }\n\n            eth = writers[_series][msg.sender] * exercisedPercent / 1 ether;\n            if (eth > 0) {\n                msg.sender.transfer(eth);\n            }\n        }\n\n        writers[_series][msg.sender] = 0;\n        return (eth, usd);\n    }\n\n    function settle(address _series) public returns (uint usd) {\n        OptionSeries memory series = seriesInfo[_series];\n        require(now > series.expiration + DURATION);\n\n        uint bal = ERC20(_series).balanceOf(msg.sender);\n        VariableSupplyToken(_series).burn(msg.sender, bal);\n\n        uint percent = bal * 1 ether / (totalInterest[_series] - earlyExercised[_series]);\n        usd = holdersSettlement[_series] * percent / 1 ether;\n        usdERC20.transfer(msg.sender, usd);\n        return usd;\n    }\n    \n    // map preference to a discount factor between 0.95 and 1\n    function discount(address from) public view returns (uint) {\n        return (100 ether - _unsLn(preference(from) * 139 + 1 ether)) / 100;\n    }\n    \n    // map the quantity between 0 and 3.7% of DSF token supply the user owns\n    // to between 0 and 1\n    function preference(address from) public view returns (uint) {\n        uint percent = _min(\n            protocolToken.balanceOf(from) * 1 ether / protocolToken.totalSupply(),\n            PREFERENCE_MAX\n        );\n        \n        uint normalized = percent * 1 ether / PREFERENCE_MAX;\n        return normalized;\n    }\n\n    function _min(uint a, uint b) pure public returns (uint) {\n        if (a > b)\n            return b;\n        return a;\n    }\n\n    function _max(uint a, uint b) pure public returns (uint) {\n        if (a > b)\n            return a;\n        return b;\n    }\n    \n    function _unsLn(uint x) pure public returns (uint log) {\n        log = 0;\n        \n        // not a true ln function, we can't represent the negatives\n        if (x < 1 ether)\n            return 0;\n\n        while (x >= 1.5 ether) {\n            log += 0.405465 ether;\n            x = x * 2 / 3;\n        }\n        \n        x = x - 1 ether;\n        uint y = x;\n        uint i = 1;\n\n        while (i < 10) {\n            log += (y / i);\n            i = i + 1;\n            y = y * x / 1 ether;\n            log -= (y / i);\n            i = i + 1;\n            y = y * x / 1 ether;\n        }\n         \n        return(log);\n    }\n}",
  "sourcePath": "/Users/brianwheeler/optimum/protocol/contracts/DSFProtocol.sol",
  "compiler": {
    "name": "solc",
    "version": "0.5.8+commit.23d335f2.Emscripten.clang"
  },
  "schemaVersion": "3.0.10",
  "updatedAt": "2019-06-12T23:23:44.804Z",
  "devdoc": {
    "methods": {}
  },
  "userdoc": {
    "methods": {}
  }
}