{
  "contractName": "DSFProtocol",
  "abi": [
    {
      "constant": true,
      "inputs": [],
      "name": "protocolToken",
      "outputs": [
        {
          "name": "",
          "type": "address"
        }
      ],
      "payable": false,
      "stateMutability": "view",
      "type": "function"
    },
    {
      "constant": true,
      "inputs": [],
      "name": "DURATION",
      "outputs": [
        {
          "name": "",
          "type": "uint256"
        }
      ],
      "payable": false,
      "stateMutability": "view",
      "type": "function"
    },
    {
      "constant": true,
      "inputs": [
        {
          "name": "",
          "type": "address"
        }
      ],
      "name": "earlyExercised",
      "outputs": [
        {
          "name": "",
          "type": "uint256"
        }
      ],
      "payable": false,
      "stateMutability": "view",
      "type": "function"
    },
    {
      "constant": true,
      "inputs": [
        {
          "name": "",
          "type": "address"
        },
        {
          "name": "",
          "type": "address"
        }
      ],
      "name": "writers",
      "outputs": [
        {
          "name": "",
          "type": "uint256"
        }
      ],
      "payable": false,
      "stateMutability": "view",
      "type": "function"
    },
    {
      "constant": true,
      "inputs": [],
      "name": "HALF_DURATION",
      "outputs": [
        {
          "name": "",
          "type": "uint256"
        }
      ],
      "payable": false,
      "stateMutability": "view",
      "type": "function"
    },
    {
      "constant": true,
      "inputs": [],
      "name": "usdERC20",
      "outputs": [
        {
          "name": "",
          "type": "address"
        }
      ],
      "payable": false,
      "stateMutability": "view",
      "type": "function"
    },
    {
      "constant": true,
      "inputs": [
        {
          "name": "",
          "type": "address"
        }
      ],
      "name": "expectValue",
      "outputs": [
        {
          "name": "",
          "type": "uint256"
        }
      ],
      "payable": false,
      "stateMutability": "view",
      "type": "function"
    },
    {
      "constant": true,
      "inputs": [],
      "name": "PREFERENCE_MAX",
      "outputs": [
        {
          "name": "",
          "type": "uint256"
        }
      ],
      "payable": false,
      "stateMutability": "view",
      "type": "function"
    },
    {
      "constant": true,
      "inputs": [
        {
          "name": "",
          "type": "address"
        }
      ],
      "name": "totalInterest",
      "outputs": [
        {
          "name": "",
          "type": "uint256"
        }
      ],
      "payable": false,
      "stateMutability": "view",
      "type": "function"
    },
    {
      "constant": true,
      "inputs": [
        {
          "name": "",
          "type": "address"
        }
      ],
      "name": "seriesInfo",
      "outputs": [
        {
          "name": "expiration",
          "type": "uint256"
        },
        {
          "name": "flavor",
          "type": "uint8"
        },
        {
          "name": "strike",
          "type": "uint256"
        }
      ],
      "payable": false,
      "stateMutability": "view",
      "type": "function"
    },
    {
      "constant": true,
      "inputs": [
        {
          "name": "",
          "type": "address"
        }
      ],
      "name": "holdersSettlement",
      "outputs": [
        {
          "name": "",
          "type": "uint256"
        }
      ],
      "payable": false,
      "stateMutability": "view",
      "type": "function"
    },
    {
      "constant": true,
      "inputs": [
        {
          "name": "",
          "type": "address"
        }
      ],
      "name": "openInterest",
      "outputs": [
        {
          "name": "",
          "type": "uint256"
        }
      ],
      "payable": false,
      "stateMutability": "view",
      "type": "function"
    },
    {
      "constant": true,
      "inputs": [],
      "name": "VERSION",
      "outputs": [
        {
          "name": "",
          "type": "string"
        }
      ],
      "payable": false,
      "stateMutability": "view",
      "type": "function"
    },
    {
      "inputs": [
        {
          "name": "_token",
          "type": "address"
        },
        {
          "name": "_usd",
          "type": "address"
        }
      ],
      "payable": false,
      "stateMutability": "nonpayable",
      "type": "constructor"
    },
    {
      "payable": true,
      "stateMutability": "payable",
      "type": "fallback"
    },
    {
      "constant": false,
      "inputs": [
        {
          "name": "name",
          "type": "string"
        },
        {
          "name": "symbol",
          "type": "string"
        },
        {
          "name": "expiration",
          "type": "uint256"
        },
        {
          "name": "flavor",
          "type": "uint8"
        },
        {
          "name": "strike",
          "type": "uint256"
        }
      ],
      "name": "issue",
      "outputs": [
        {
          "name": "",
          "type": "address"
        }
      ],
      "payable": false,
      "stateMutability": "nonpayable",
      "type": "function"
    },
    {
      "constant": false,
      "inputs": [
        {
          "name": "_series",
          "type": "address"
        },
        {
          "name": "amount",
          "type": "uint256"
        }
      ],
      "name": "open",
      "outputs": [
        {
          "name": "",
          "type": "bool"
        }
      ],
      "payable": true,
      "stateMutability": "payable",
      "type": "function"
    },
    {
      "constant": false,
      "inputs": [
        {
          "name": "_series",
          "type": "address"
        },
        {
          "name": "amount",
          "type": "uint256"
        }
      ],
      "name": "close",
      "outputs": [
        {
          "name": "",
          "type": "bool"
        }
      ],
      "payable": false,
      "stateMutability": "nonpayable",
      "type": "function"
    },
    {
      "constant": false,
      "inputs": [
        {
          "name": "_series",
          "type": "address"
        },
        {
          "name": "amount",
          "type": "uint256"
        }
      ],
      "name": "exercise",
      "outputs": [],
      "payable": true,
      "stateMutability": "payable",
      "type": "function"
    },
    {
      "constant": false,
      "inputs": [],
      "name": "receive",
      "outputs": [
        {
          "name": "",
          "type": "bool"
        }
      ],
      "payable": true,
      "stateMutability": "payable",
      "type": "function"
    },
    {
      "constant": false,
      "inputs": [
        {
          "name": "_series",
          "type": "address"
        },
        {
          "name": "amount",
          "type": "uint256"
        }
      ],
      "name": "bid",
      "outputs": [
        {
          "name": "",
          "type": "bool"
        }
      ],
      "payable": true,
      "stateMutability": "payable",
      "type": "function"
    },
    {
      "constant": true,
      "inputs": [
        {
          "name": "strike",
          "type": "uint256"
        },
        {
          "name": "elapsed",
          "type": "uint256"
        },
        {
          "name": "discountRate",
          "type": "uint256"
        }
      ],
      "name": "putAuctionUSDPrice",
      "outputs": [
        {
          "name": "",
          "type": "uint256"
        }
      ],
      "payable": false,
      "stateMutability": "pure",
      "type": "function"
    },
    {
      "constant": true,
      "inputs": [
        {
          "name": "strike",
          "type": "uint256"
        },
        {
          "name": "elapsed",
          "type": "uint256"
        },
        {
          "name": "discountRate",
          "type": "uint256"
        }
      ],
      "name": "callAuctionUSDPrice",
      "outputs": [
        {
          "name": "",
          "type": "uint256"
        }
      ],
      "payable": false,
      "stateMutability": "pure",
      "type": "function"
    },
    {
      "constant": false,
      "inputs": [
        {
          "name": "_series",
          "type": "address"
        }
      ],
      "name": "redeem",
      "outputs": [
        {
          "name": "",
          "type": "bool"
        }
      ],
      "payable": false,
      "stateMutability": "nonpayable",
      "type": "function"
    },
    {
      "constant": false,
      "inputs": [
        {
          "name": "_series",
          "type": "address"
        }
      ],
      "name": "settle",
      "outputs": [
        {
          "name": "",
          "type": "bool"
        }
      ],
      "payable": false,
      "stateMutability": "nonpayable",
      "type": "function"
    },
    {
      "constant": true,
      "inputs": [
        {
          "name": "from",
          "type": "address"
        }
      ],
      "name": "discount",
      "outputs": [
        {
          "name": "",
          "type": "uint256"
        }
      ],
      "payable": false,
      "stateMutability": "view",
      "type": "function"
    },
    {
      "constant": true,
      "inputs": [
        {
          "name": "from",
          "type": "address"
        }
      ],
      "name": "preference",
      "outputs": [
        {
          "name": "",
          "type": "uint256"
        }
      ],
      "payable": false,
      "stateMutability": "view",
      "type": "function"
    },
    {
      "constant": true,
      "inputs": [
        {
          "name": "a",
          "type": "uint256"
        },
        {
          "name": "b",
          "type": "uint256"
        }
      ],
      "name": "_min",
      "outputs": [
        {
          "name": "",
          "type": "uint256"
        }
      ],
      "payable": false,
      "stateMutability": "pure",
      "type": "function"
    },
    {
      "constant": true,
      "inputs": [
        {
          "name": "a",
          "type": "uint256"
        },
        {
          "name": "b",
          "type": "uint256"
        }
      ],
      "name": "_max",
      "outputs": [
        {
          "name": "",
          "type": "uint256"
        }
      ],
      "payable": false,
      "stateMutability": "pure",
      "type": "function"
    },
    {
      "constant": true,
      "inputs": [
        {
          "name": "x",
          "type": "uint256"
        }
      ],
      "name": "_unsLn",
      "outputs": [
        {
          "name": "log",
          "type": "uint256"
        }
      ],
      "payable": false,
      "stateMutability": "pure",
      "type": "function"
    }
  ],
  "bytecode": "0x608060405234801561001057600080fd5b506040516040806150aa8339810180604052604081101561003057600080fd5b81019080805190602001909291908051906020019092919050505081600160006101000a81548173ffffffffffffffffffffffffffffffffffffffff021916908373ffffffffffffffffffffffffffffffffffffffff160217905550806000806101000a81548173ffffffffffffffffffffffffffffffffffffffff021916908373ffffffffffffffffffffffffffffffffffffffff1602179055505050614fcd806100dd6000396000f3fe608060405260043610620001e25760003560e01c80638fb28fcf1162000103578063c7bc163b1162000097578063dd068ec1116200006d578063dd068ec11462000c1f578063e49280cb1462000c70578063edd8ca7b1462000ce7578063ffa1ad741462000d5057620001e2565b8063c7bc163b1462000ac7578063c9b58fb01462000b4d578063ce0689801462000bb657620001e2565b8063ac023b7511620000d9578063ac023b75146200096a578063ac89f44d14620009c7578063bb8e625d1462000a30578063c0d7eec11462000a5e57620001e2565b80638fb28fcf146200087c57806395a2251f14620008d9578063a3e76c0f146200094657620001e2565b806355678cfc116200017b5780636a256b2911620001515780636a256b2914620007205780637cce8e57146200078d5780637efded4714620007bb578063828ac72a146200081557620001e2565b806355678cfc14620005c757806359d667a514620006505780635f29cf2314620006b957620001e2565b80631be0528911620001bd5780631be0528914620004745780632b9862ce14620004a2578063339ffec6146200050b57806353003a57146200055e57620001e2565b80630325e87e14620001e75780630a0e5c9d14620003b15780631a465fe1146200041a575b600080fd5b348015620001f457600080fd5b506200036f600480360360a08110156200020d57600080fd5b81019080803590602001906401000000008111156200022b57600080fd5b8201836020820111156200023e57600080fd5b803590602001918460018302840111640100000000831117156200026157600080fd5b91908080601f016020809104026020016040519081016040528093929190818152602001838380828437600081840152601f19601f82011690508083019250505050505050919291929080359060200190640100000000811115620002c557600080fd5b820183602082011115620002d857600080fd5b80359060200191846001830284011164010000000083111715620002fb57600080fd5b91908080601f016020809104026020016040519081016040528093929190818152602001838380828437600081840152601f19601f82011690508083019250505050505050919291929080359060200190929190803560ff1690602001909291908035906020019092919050505062000de6565b604051808273ffffffffffffffffffffffffffffffffffffffff1673ffffffffffffffffffffffffffffffffffffffff16815260200191505060405180910390f35b6200040060048036036040811015620003c957600080fd5b81019080803573ffffffffffffffffffffffffffffffffffffffff1690602001909291908035906020019092919050505062000fae565b604051808215151515815260200191505060405180910390f35b3480156200042757600080fd5b5062000432620013f7565b604051808273ffffffffffffffffffffffffffffffffffffffff1673ffffffffffffffffffffffffffffffffffffffff16815260200191505060405180910390f35b3480156200048157600080fd5b506200048c6200141d565b6040518082815260200191505060405180910390f35b348015620004af57600080fd5b50620004f560048036036020811015620004c857600080fd5b81019080803573ffffffffffffffffffffffffffffffffffffffff16906020019092919050505062001423565b6040518082815260200191505060405180910390f35b3480156200051857600080fd5b5062000548600480360360208110156200053157600080fd5b8101908080359060200190929190505050620015fa565b6040518082815260200191505060405180910390f35b3480156200056b57600080fd5b50620005b1600480360360208110156200058457600080fd5b81019080803573ffffffffffffffffffffffffffffffffffffffff169060200190929190505050620016db565b6040518082815260200191505060405180910390f35b348015620005d457600080fd5b506200063a60048036036040811015620005ed57600080fd5b81019080803573ffffffffffffffffffffffffffffffffffffffff169060200190929190803573ffffffffffffffffffffffffffffffffffffffff169060200190929190505050620016f3565b6040518082815260200191505060405180910390f35b6200069f600480360360408110156200066857600080fd5b81019080803573ffffffffffffffffffffffffffffffffffffffff1690602001909291908035906020019092919050505062001718565b604051808215151515815260200191505060405180910390f35b348015620006c657600080fd5b506200070a60048036036060811015620006df57600080fd5b8101908080359060200190929190803590602001909291908035906020019092919050505062002140565b6040518082815260200191505060405180910390f35b3480156200072d57600080fd5b5062000773600480360360208110156200074657600080fd5b81019080803573ffffffffffffffffffffffffffffffffffffffff1690602001909291905050506200217e565b604051808215151515815260200191505060405180910390f35b3480156200079a57600080fd5b50620007a562002598565b6040518082815260200191505060405180910390f35b348015620007c857600080fd5b50620007d3620025a9565b604051808273ffffffffffffffffffffffffffffffffffffffff1673ffffffffffffffffffffffffffffffffffffffff16815260200191505060405180910390f35b3480156200082257600080fd5b5062000866600480360360608110156200083b57600080fd5b81019080803590602001909291908035906020019092919080359060200190929190505050620025ce565b6040518082815260200191505060405180910390f35b3480156200088957600080fd5b50620008c360048036036040811015620008a257600080fd5b81019080803590602001909291908035906020019092919050505062002604565b6040518082815260200191505060405180910390f35b348015620008e657600080fd5b506200092c60048036036020811015620008ff57600080fd5b81019080803573ffffffffffffffffffffffffffffffffffffffff16906020019092919050505062002622565b604051808215151515815260200191505060405180910390f35b6200095062002e0a565b604051808215151515815260200191505060405180910390f35b3480156200097757600080fd5b50620009b1600480360360408110156200099057600080fd5b81019080803590602001909291908035906020019092919050505062002ea4565b6040518082815260200191505060405180910390f35b348015620009d457600080fd5b5062000a1a60048036036020811015620009ed57600080fd5b81019080803573ffffffffffffffffffffffffffffffffffffffff16906020019092919050505062002ec2565b6040518082815260200191505060405180910390f35b34801562000a3d57600080fd5b5062000a4862002eda565b6040518082815260200191505060405180910390f35b34801562000a6b57600080fd5b5062000ab16004803603602081101562000a8457600080fd5b81019080803573ffffffffffffffffffffffffffffffffffffffff16906020019092919050505062002ee5565b6040518082815260200191505060405180910390f35b34801562000ad457600080fd5b5062000b1a6004803603602081101562000aed57600080fd5b81019080803573ffffffffffffffffffffffffffffffffffffffff16906020019092919050505062002efd565b6040518084815260200183600181111562000b3157fe5b60ff168152602001828152602001935050505060405180910390f35b34801562000b5a57600080fd5b5062000ba06004803603602081101562000b7357600080fd5b81019080803573ffffffffffffffffffffffffffffffffffffffff16906020019092919050505062002f34565b6040518082815260200191505060405180910390f35b34801562000bc357600080fd5b5062000c096004803603602081101562000bdc57600080fd5b81019080803573ffffffffffffffffffffffffffffffffffffffff16906020019092919050505062002f4c565b6040518082815260200191505060405180910390f35b62000c6e6004803603604081101562000c3757600080fd5b81019080803573ffffffffffffffffffffffffffffffffffffffff1690602001909291908035906020019092919050505062002f8d565b005b34801562000c7d57600080fd5b5062000ccd6004803603604081101562000c9657600080fd5b81019080803573ffffffffffffffffffffffffffffffffffffffff16906020019092919080359060200190929190505050620034b7565b604051808215151515815260200191505060405180910390f35b34801562000cf457600080fd5b5062000d3a6004803603602081101562000d0d57600080fd5b81019080803573ffffffffffffffffffffffffffffffffffffffff169060200190929190505050620039a3565b6040518082815260200191505060405180910390f35b34801562000d5d57600080fd5b5062000d68620039bb565b6040518080602001828103825283818151815260200191508051906020019080838360005b8381101562000daa57808201518184015260208101905062000d8d565b50505050905090810190601f16801562000dd85780820380516001836020036101000a031916815260200191505b509250505060405180910390f35b600080868660405162000df990620039f4565b808060200180602001838103835285818151815260200191508051906020019080838360005b8381101562000e3c57808201518184015260208101905062000e1f565b50505050905090810190601f16801562000e6a5780820380516001836020036101000a031916815260200191505b50838103825284818151815260200191508051906020019080838360005b8381101562000ea557808201518184015260208101905062000e88565b50505050905090810190601f16801562000ed35780820380516001836020036101000a031916815260200191505b50945050505050604051809103906000f08015801562000ef7573d6000803e3d6000fd5b509050604051806060016040528086815260200185600181111562000f1857fe5b815260200184815250600660008373ffffffffffffffffffffffffffffffffffffffff1673ffffffffffffffffffffffffffffffffffffffff1681526020019081526020016000206000820151816000015560208201518160010160006101000a81548160ff0219169083600181111562000f8f57fe5b0217905550604082015181600201559050508091505095945050505050565b600062000fba62003a02565b600660008573ffffffffffffffffffffffffffffffffffffffff1673ffffffffffffffffffffffffffffffffffffffff168152602001908152602001600020604051806060016040529081600082015481526020016001820160009054906101000a900460ff1660018111156200102d57fe5b60018111156200103957fe5b81526020016002820154815250509050806000015142106200105a57600080fd5b8373ffffffffffffffffffffffffffffffffffffffff16636370920e33856040518363ffffffff1660e01b8152600401808373ffffffffffffffffffffffffffffffffffffffff1673ffffffffffffffffffffffffffffffffffffffff16815260200182815260200192505050602060405180830381600087803b158015620010e257600080fd5b505af1158015620010f7573d6000803e3d6000fd5b505050506040513d60208110156200110e57600080fd5b810190808051906020019092919050505050600060018111156200112e57fe5b816020015160018111156200113f57fe5b141562001159578234146200115357600080fd5b620012c8565b600034146200116757600080fd5b600081604001518402905081604001518482816200118157fe5b04146200118d57600080fd5b670de0b6b3a764000081816200119f57fe5b0490506000809054906101000a900473ffffffffffffffffffffffffffffffffffffffff1673ffffffffffffffffffffffffffffffffffffffff166323b872dd3330846040518463ffffffff1660e01b8152600401808473ffffffffffffffffffffffffffffffffffffffff1673ffffffffffffffffffffffffffffffffffffffff1681526020018373ffffffffffffffffffffffffffffffffffffffff1673ffffffffffffffffffffffffffffffffffffffff1681526020018281526020019350505050602060405180830381600087803b1580156200127f57600080fd5b505af115801562001294573d6000803e3d6000fd5b505050506040513d6020811015620012ab57600080fd5b8101908080519060200190929190505050620012c657600080fd5b505b82600260008673ffffffffffffffffffffffffffffffffffffffff1673ffffffffffffffffffffffffffffffffffffffff1681526020019081526020016000206000828254019250508190555082600460008673ffffffffffffffffffffffffffffffffffffffff1673ffffffffffffffffffffffffffffffffffffffff1681526020019081526020016000206000828254019250508190555082600560008673ffffffffffffffffffffffffffffffffffffffff1673ffffffffffffffffffffffffffffffffffffffff16815260200190815260200160002060003373ffffffffffffffffffffffffffffffffffffffff1673ffffffffffffffffffffffffffffffffffffffff16815260200190815260200160002060008282540192505081905550600191505092915050565b600160009054906101000a900473ffffffffffffffffffffffffffffffffffffffff1681565b61a8c081565b600080620015ce600160009054906101000a900473ffffffffffffffffffffffffffffffffffffffff1673ffffffffffffffffffffffffffffffffffffffff166318160ddd6040518163ffffffff1660e01b815260040160206040518083038186803b1580156200149357600080fd5b505afa158015620014a8573d6000803e3d6000fd5b505050506040513d6020811015620014bf57600080fd5b8101908080519060200190929190505050670de0b6b3a7640000600160009054906101000a900473ffffffffffffffffffffffffffffffffffffffff1673ffffffffffffffffffffffffffffffffffffffff166370a08231876040518263ffffffff1660e01b8152600401808273ffffffffffffffffffffffffffffffffffffffff1673ffffffffffffffffffffffffffffffffffffffff16815260200191505060206040518083038186803b1580156200157957600080fd5b505afa1580156200158e573d6000803e3d6000fd5b505050506040513d6020811015620015a557600080fd5b81019080805190602001909291905050500281620015bf57fe5b046683734dd0b0800062002ea4565b905060006683734dd0b08000670de0b6b3a7640000830281620015ed57fe5b0490508092505050919050565b6000809050670de0b6b3a76400008210156200161a5760009050620016d6565b5b6714d1120d7b16000082106200164f576705a08044edda900081019050600360028302816200164657fe5b0491506200161b565b670de0b6b3a76400008203915060008290506000600190505b600a811015620016d0578082816200167c57fe5b0483019250600181019050670de0b6b3a7640000848302816200169b57fe5b049150808281620016a857fe5b0483039250600181019050670de0b6b3a764000084830281620016c757fe5b04915062001668565b82925050505b919050565b60036020528060005260406000206000915090505481565b6005602052816000526040600020602052806000526040600020600091509150505481565b6000801515600960009054906101000a900460ff161515146200173a57600080fd5b6001600960006101000a81548160ff0219169083151502179055506200175f62003a02565b600660008573ffffffffffffffffffffffffffffffffffffffff1673ffffffffffffffffffffffffffffffffffffffff168152602001908152602001600020604051806060016040529081600082015481526020016001820160009054906101000a900460ff166001811115620017d257fe5b6001811115620017de57fe5b815260200160028201548152505090506000816000015190508042116200180457600080fd5b61a8c0810142106200181557600080fd5b600081420390506200186785600260008973ffffffffffffffffffffffffffffffffffffffff1673ffffffffffffffffffffffffffffffffffffffff1681526020019081526020016000205462002ea4565b945084600260008873ffffffffffffffffffffffffffffffffffffffff1673ffffffffffffffffffffffffffffffffffffffff168152602001908152602001600020600082825403925050819055506000806000620018c63362002f4c565b9050600033905060006001811115620018db57fe5b87602001516001811115620018ec57fe5b141562001db357600034146200190157600080fd5b620019128760400151868462002140565b9350670de0b6b3a7640000898502816200192857fe5b049250670de0b6b3a764000087604001518a02816200194357fe5b048303600760008c73ffffffffffffffffffffffffffffffffffffffff1673ffffffffffffffffffffffffffffffffffffffff168152602001908152602001600020600082825401925050819055506000836000809054906101000a900473ffffffffffffffffffffffffffffffffffffffff1673ffffffffffffffffffffffffffffffffffffffff166370a08231336040518263ffffffff1660e01b8152600401808273ffffffffffffffffffffffffffffffffffffffff1673ffffffffffffffffffffffffffffffffffffffff16815260200191505060206040518083038186803b15801562001a3457600080fd5b505afa15801562001a49573d6000803e3d6000fd5b505050506040513d602081101562001a6057600080fd5b81019080805190602001909291905050501015801562001b8f5750836000809054906101000a900473ffffffffffffffffffffffffffffffffffffffff1673ffffffffffffffffffffffffffffffffffffffff1663dd62ed3e33306040518363ffffffff1660e01b8152600401808373ffffffffffffffffffffffffffffffffffffffff1673ffffffffffffffffffffffffffffffffffffffff1681526020018273ffffffffffffffffffffffffffffffffffffffff1673ffffffffffffffffffffffffffffffffffffffff1681526020019250505060206040518083038186803b15801562001b4f57600080fd5b505afa15801562001b64573d6000803e3d6000fd5b505050506040513d602081101562001b7b57600080fd5b810190808051906020019092919050505010155b9050801562001be6573373ffffffffffffffffffffffffffffffffffffffff166108fc8b9081150290604051600060405180830381858888f1935050505015801562001bdf573d6000803e3d6000fd5b5062001c88565b8173ffffffffffffffffffffffffffffffffffffffff1663092eb18c8c8c6040518363ffffffff1660e01b8152600401808373ffffffffffffffffffffffffffffffffffffffff1673ffffffffffffffffffffffffffffffffffffffff16815260200182815260200192505050600060405180830381600087803b15801562001c6e57600080fd5b505af115801562001c83573d6000803e3d6000fd5b505050505b6000809054906101000a900473ffffffffffffffffffffffffffffffffffffffff1673ffffffffffffffffffffffffffffffffffffffff166323b872dd3330876040518463ffffffff1660e01b8152600401808473ffffffffffffffffffffffffffffffffffffffff1673ffffffffffffffffffffffffffffffffffffffff1681526020018373ffffffffffffffffffffffffffffffffffffffff1673ffffffffffffffffffffffffffffffffffffffff1681526020018281526020019350505050602060405180830381600087803b15801562001d6557600080fd5b505af115801562001d7a573d6000803e3d6000fd5b505050506040513d602081101562001d9157600080fd5b810190808051906020019092919050505062001dac57600080fd5b5062002114565b62001dc487604001518684620025ce565b9350670de0b6b3a7640000848a028162001dda57fe5b04925082670de0b6b3a764000088604001518b028162001df657fe5b0403600760008c73ffffffffffffffffffffffffffffffffffffffff1673ffffffffffffffffffffffffffffffffffffffff168152602001908152602001600020600082825401925050819055506000809054906101000a900473ffffffffffffffffffffffffffffffffffffffff1673ffffffffffffffffffffffffffffffffffffffff1663a9059cbb33856040518363ffffffff1660e01b8152600401808373ffffffffffffffffffffffffffffffffffffffff1673ffffffffffffffffffffffffffffffffffffffff16815260200182815260200192505050602060405180830381600087803b15801562001eed57600080fd5b505af115801562001f02573d6000803e3d6000fd5b505050506040513d602081101562001f1957600080fd5b8101908080519060200190929190505050506000341415620020ba576000600860003373ffffffffffffffffffffffffffffffffffffffff1673ffffffffffffffffffffffffffffffffffffffff168152602001908152602001600020541462001f8257600080fd5b88600860003373ffffffffffffffffffffffffffffffffffffffff1673ffffffffffffffffffffffffffffffffffffffff168152602001908152602001600020819055508073ffffffffffffffffffffffffffffffffffffffff1663bb4a69698b856040518363ffffffff1660e01b8152600401808373ffffffffffffffffffffffffffffffffffffffff1673ffffffffffffffffffffffffffffffffffffffff16815260200182815260200192505050600060405180830381600087803b1580156200204e57600080fd5b505af115801562002063573d6000803e3d6000fd5b505050506000600860003373ffffffffffffffffffffffffffffffffffffffff1673ffffffffffffffffffffffffffffffffffffffff1681526020019081526020016000205414620020b457600080fd5b62002113565b88341015620020c857600080fd5b3373ffffffffffffffffffffffffffffffffffffffff166108fc8a34039081150290604051600060405180830381858888f1935050505015801562002111573d6000803e3d6000fd5b505b5b6000600960006101000a81548160ff021916908315150217905550600197505050505050505092915050565b6000808361a8c08602816200215157fe5b04905062002174670de0b6b3a7640000848302816200216c57fe5b048662002604565b9150509392505050565b60006200218a62003a02565b600660008473ffffffffffffffffffffffffffffffffffffffff1673ffffffffffffffffffffffffffffffffffffffff168152602001908152602001600020604051806060016040529081600082015481526020016001820160009054906101000a900460ff166001811115620021fd57fe5b60018111156200220957fe5b8152602001600282015481525050905061a8c081600001510142116200222e57600080fd5b60008373ffffffffffffffffffffffffffffffffffffffff166370a08231336040518263ffffffff1660e01b8152600401808273ffffffffffffffffffffffffffffffffffffffff1673ffffffffffffffffffffffffffffffffffffffff16815260200191505060206040518083038186803b158015620022ae57600080fd5b505afa158015620022c3573d6000803e3d6000fd5b505050506040513d6020811015620022da57600080fd5b810190808051906020019092919050505090508373ffffffffffffffffffffffffffffffffffffffff16639dc29fac33836040518363ffffffff1660e01b8152600401808373ffffffffffffffffffffffffffffffffffffffff1673ffffffffffffffffffffffffffffffffffffffff16815260200182815260200192505050602060405180830381600087803b1580156200237557600080fd5b505af11580156200238a573d6000803e3d6000fd5b505050506040513d6020811015620023a157600080fd5b8101908080519060200190929190505050506000600360008673ffffffffffffffffffffffffffffffffffffffff1673ffffffffffffffffffffffffffffffffffffffff16815260200190815260200160002054600460008773ffffffffffffffffffffffffffffffffffffffff1673ffffffffffffffffffffffffffffffffffffffff1681526020019081526020016000205403670de0b6b3a76400008302816200244957fe5b0490506000670de0b6b3a764000082600760008973ffffffffffffffffffffffffffffffffffffffff1673ffffffffffffffffffffffffffffffffffffffff168152602001908152602001600020540281620024a157fe5b0490506000809054906101000a900473ffffffffffffffffffffffffffffffffffffffff1673ffffffffffffffffffffffffffffffffffffffff1663a9059cbb33836040518363ffffffff1660e01b8152600401808373ffffffffffffffffffffffffffffffffffffffff1673ffffffffffffffffffffffffffffffffffffffff16815260200182815260200192505050602060405180830381600087803b1580156200254d57600080fd5b505af115801562002562573d6000803e3d6000fd5b505050506040513d60208110156200257957600080fd5b8101908080519060200190929190505050506001945050505050919050565b600261a8c081620025a557fe5b0481565b6000809054906101000a900473ffffffffffffffffffffffffffffffffffffffff1681565b6000808261a8c0670de0b6b3a76400008787020281620025ea57fe5b04029050620025fa818662002ea4565b9150509392505050565b60008183111562002618578290506200261c565b8190505b92915050565b60006200262e62003a02565b600660008473ffffffffffffffffffffffffffffffffffffffff1673ffffffffffffffffffffffffffffffffffffffff168152602001908152602001600020604051806060016040529081600082015481526020016001820160009054906101000a900460ff166001811115620026a157fe5b6001811115620026ad57fe5b8152602001600282015481525050905061a8c08160000151014211620026d257600080fd5b6000600460008573ffffffffffffffffffffffffffffffffffffffff1673ffffffffffffffffffffffffffffffffffffffff16815260200190815260200160002054670de0b6b3a7640000600260008773ffffffffffffffffffffffffffffffffffffffff1673ffffffffffffffffffffffffffffffffffffffff1681526020019081526020016000205402816200276657fe5b0490506000600460008673ffffffffffffffffffffffffffffffffffffffff1673ffffffffffffffffffffffffffffffffffffffff16815260200190815260200160002054670de0b6b3a7640000600260008873ffffffffffffffffffffffffffffffffffffffff1673ffffffffffffffffffffffffffffffffffffffff16815260200190815260200160002054600460008973ffffffffffffffffffffffffffffffffffffffff1673ffffffffffffffffffffffffffffffffffffffff168152602001908152602001600020540302816200283e57fe5b04905060008060018111156200285057fe5b846020015160018111156200286157fe5b141562002af457670de0b6b3a764000083600560008973ffffffffffffffffffffffffffffffffffffffff1673ffffffffffffffffffffffffffffffffffffffff16815260200190815260200160002060003373ffffffffffffffffffffffffffffffffffffffff1673ffffffffffffffffffffffffffffffffffffffff168152602001908152602001600020540281620028f857fe5b04905060008111156200294e573373ffffffffffffffffffffffffffffffffffffffff166108fc829081150290604051600060405180830381858888f193505050501580156200294c573d6000803e3d6000fd5b505b670de0b6b3a764000082600560008973ffffffffffffffffffffffffffffffffffffffff1673ffffffffffffffffffffffffffffffffffffffff16815260200190815260200160002060003373ffffffffffffffffffffffffffffffffffffffff1673ffffffffffffffffffffffffffffffffffffffff168152602001908152602001600020540281620029de57fe5b049050670de0b6b3a76400008460400151820281620029f957fe5b049050600081111562002aee576000809054906101000a900473ffffffffffffffffffffffffffffffffffffffff1673ffffffffffffffffffffffffffffffffffffffff1663a9059cbb33836040518363ffffffff1660e01b8152600401808373ffffffffffffffffffffffffffffffffffffffff1673ffffffffffffffffffffffffffffffffffffffff16815260200182815260200192505050602060405180830381600087803b15801562002aaf57600080fd5b505af115801562002ac4573d6000803e3d6000fd5b505050506040513d602081101562002adb57600080fd5b8101908080519060200190929190505050505b62002d7b565b670de0b6b3a764000083600560008973ffffffffffffffffffffffffffffffffffffffff1673ffffffffffffffffffffffffffffffffffffffff16815260200190815260200160002060003373ffffffffffffffffffffffffffffffffffffffff1673ffffffffffffffffffffffffffffffffffffffff16815260200190815260200160002054028162002b8457fe5b049050670de0b6b3a7640000846040015182028162002b9f57fe5b049050600081111562002c94576000809054906101000a900473ffffffffffffffffffffffffffffffffffffffff1673ffffffffffffffffffffffffffffffffffffffff1663a9059cbb33836040518363ffffffff1660e01b8152600401808373ffffffffffffffffffffffffffffffffffffffff1673ffffffffffffffffffffffffffffffffffffffff16815260200182815260200192505050602060405180830381600087803b15801562002c5557600080fd5b505af115801562002c6a573d6000803e3d6000fd5b505050506040513d602081101562002c8157600080fd5b8101908080519060200190929190505050505b670de0b6b3a764000082600560008973ffffffffffffffffffffffffffffffffffffffff1673ffffffffffffffffffffffffffffffffffffffff16815260200190815260200160002060003373ffffffffffffffffffffffffffffffffffffffff1673ffffffffffffffffffffffffffffffffffffffff16815260200190815260200160002054028162002d2457fe5b049050600081111562002d7a573373ffffffffffffffffffffffffffffffffffffffff166108fc829081150290604051600060405180830381858888f1935050505015801562002d78573d6000803e3d6000fd5b505b5b6000600560008873ffffffffffffffffffffffffffffffffffffffff1673ffffffffffffffffffffffffffffffffffffffff16815260200190815260200160002060003373ffffffffffffffffffffffffffffffffffffffff1673ffffffffffffffffffffffffffffffffffffffff168152602001908152602001600020819055506001945050505050919050565b600034600860003373ffffffffffffffffffffffffffffffffffffffff1673ffffffffffffffffffffffffffffffffffffffff168152602001908152602001600020541462002e5857600080fd5b6000600860003373ffffffffffffffffffffffffffffffffffffffff1673ffffffffffffffffffffffffffffffffffffffff168152602001908152602001600020819055506001905090565b60008183111562002eb85781905062002ebc565b8290505b92915050565b60086020528060005260406000206000915090505481565b6683734dd0b0800081565b60046020528060005260406000206000915090505481565b60066020528060005260406000206000915090508060000154908060010160009054906101000a900460ff16908060020154905083565b60076020528060005260406000206000915090505481565b6000606462002f72670de0b6b3a7640000608b62002f6a8662001423565b0201620015fa565b68056bc75e2d63100000038162002f8557fe5b049050919050565b62002f9762003a02565b600660008473ffffffffffffffffffffffffffffffffffffffff1673ffffffffffffffffffffffffffffffffffffffff168152602001908152602001600020604051806060016040529081600082015481526020016001820160009054906101000a900460ff1660018111156200300a57fe5b60018111156200301657fe5b81526020016002820154815250509050806000015142106200303757600080fd5b81600260008573ffffffffffffffffffffffffffffffffffffffff1673ffffffffffffffffffffffffffffffffffffffff1681526020019081526020016000205410156200308457600080fd5b8273ffffffffffffffffffffffffffffffffffffffff16639dc29fac33846040518363ffffffff1660e01b8152600401808373ffffffffffffffffffffffffffffffffffffffff1673ffffffffffffffffffffffffffffffffffffffff16815260200182815260200192505050602060405180830381600087803b1580156200310c57600080fd5b505af115801562003121573d6000803e3d6000fd5b505050506040513d60208110156200313857600080fd5b810190808051906020019092919050505050600081604001518302905081604001518382816200316457fe5b04146200317057600080fd5b670de0b6b3a764000081816200318257fe5b04905082600260008673ffffffffffffffffffffffffffffffffffffffff1673ffffffffffffffffffffffffffffffffffffffff1681526020019081526020016000206000828254039250508190555082600360008673ffffffffffffffffffffffffffffffffffffffff1673ffffffffffffffffffffffffffffffffffffffff16815260200190815260200160002060008282540192505081905550600060018111156200322d57fe5b826020015160018111156200323e57fe5b1415620033bc573373ffffffffffffffffffffffffffffffffffffffff166108fc849081150290604051600060405180830381858888f193505050501580156200328c573d6000803e3d6000fd5b50600034146200329b57600080fd5b6000809054906101000a900473ffffffffffffffffffffffffffffffffffffffff1673ffffffffffffffffffffffffffffffffffffffff166323b872dd3330846040518463ffffffff1660e01b8152600401808473ffffffffffffffffffffffffffffffffffffffff1673ffffffffffffffffffffffffffffffffffffffff1681526020018373ffffffffffffffffffffffffffffffffffffffff1673ffffffffffffffffffffffffffffffffffffffff1681526020018281526020019350505050602060405180830381600087803b1580156200337857600080fd5b505af11580156200338d573d6000803e3d6000fd5b505050506040513d6020811015620033a457600080fd5b810190808051906020019092919050505050620034b1565b823414620033c957600080fd5b6000809054906101000a900473ffffffffffffffffffffffffffffffffffffffff1673ffffffffffffffffffffffffffffffffffffffff1663a9059cbb33836040518363ffffffff1660e01b8152600401808373ffffffffffffffffffffffffffffffffffffffff1673ffffffffffffffffffffffffffffffffffffffff16815260200182815260200192505050602060405180830381600087803b1580156200347257600080fd5b505af115801562003487573d6000803e3d6000fd5b505050506040513d60208110156200349e57600080fd5b8101908080519060200190929190505050505b50505050565b6000620034c362003a02565b600660008573ffffffffffffffffffffffffffffffffffffffff1673ffffffffffffffffffffffffffffffffffffffff168152602001908152602001600020604051806060016040529081600082015481526020016001820160009054906101000a900460ff1660018111156200353657fe5b60018111156200354257fe5b81526020016002820154815250509050806000015142106200356357600080fd5b82600260008673ffffffffffffffffffffffffffffffffffffffff1673ffffffffffffffffffffffffffffffffffffffff168152602001908152602001600020541015620035b057600080fd5b8373ffffffffffffffffffffffffffffffffffffffff16639dc29fac33856040518363ffffffff1660e01b8152600401808373ffffffffffffffffffffffffffffffffffffffff1673ffffffffffffffffffffffffffffffffffffffff16815260200182815260200192505050602060405180830381600087803b1580156200363857600080fd5b505af11580156200364d573d6000803e3d6000fd5b505050506040513d60208110156200366457600080fd5b81019080805190602001909291905050505082600560008673ffffffffffffffffffffffffffffffffffffffff1673ffffffffffffffffffffffffffffffffffffffff16815260200190815260200160002060003373ffffffffffffffffffffffffffffffffffffffff1673ffffffffffffffffffffffffffffffffffffffff1681526020019081526020016000205410156200370057600080fd5b82600560008673ffffffffffffffffffffffffffffffffffffffff1673ffffffffffffffffffffffffffffffffffffffff16815260200190815260200160002060003373ffffffffffffffffffffffffffffffffffffffff1673ffffffffffffffffffffffffffffffffffffffff1681526020019081526020016000206000828254039250508190555082600260008673ffffffffffffffffffffffffffffffffffffffff1673ffffffffffffffffffffffffffffffffffffffff1681526020019081526020016000206000828254039250508190555082600460008673ffffffffffffffffffffffffffffffffffffffff1673ffffffffffffffffffffffffffffffffffffffff16815260200190815260200160002060008282540392505081905550600060018111156200383257fe5b816020015160018111156200384357fe5b141562003898573373ffffffffffffffffffffffffffffffffffffffff166108fc849081150290604051600060405180830381858888f1935050505015801562003891573d6000803e3d6000fd5b5062003998565b6000809054906101000a900473ffffffffffffffffffffffffffffffffffffffff1673ffffffffffffffffffffffffffffffffffffffff1663a9059cbb33670de0b6b3a76400008460400151870281620038ee57fe5b046040518363ffffffff1660e01b8152600401808373ffffffffffffffffffffffffffffffffffffffff1673ffffffffffffffffffffffffffffffffffffffff16815260200182815260200192505050602060405180830381600087803b1580156200395957600080fd5b505af11580156200396e573d6000803e3d6000fd5b505050506040513d60208110156200398557600080fd5b8101908080519060200190929190505050505b600191505092915050565b60026020528060005260406000206000915090505481565b6040518060400160405280600381526020017f312e30000000000000000000000000000000000000000000000000000000000081525081565b6115728062003a3083390190565b6040518060600160405280600081526020016000600181111562003a2257fe5b815260200160008152509056fe60806040523480156200001157600080fd5b506040516200157238038062001572833981018060405260408110156200003757600080fd5b8101908080516401000000008111156200005057600080fd5b828101905060208101848111156200006757600080fd5b81518560018202830111640100000000821117156200008557600080fd5b50509291906020018051640100000000811115620000a257600080fd5b82810190506020810184811115620000b957600080fd5b8151856001820283011164010000000082111715620000d757600080fd5b5050929190505050336000806101000a81548173ffffffffffffffffffffffffffffffffffffffff021916908373ffffffffffffffffffffffffffffffffffffffff16021790555081600490805190602001906200013792919062000159565b5080600590805190602001906200015092919062000159565b50505062000208565b828054600181600116156101000203166002900490600052602060002090601f016020900481019282601f106200019c57805160ff1916838001178555620001cd565b82800160010185558215620001cd579182015b82811115620001cc578251825591602001919060010190620001af565b5b509050620001dc9190620001e0565b5090565b6200020591905b8082111562000201576000816000905550600101620001e7565b5090565b90565b61135a80620002186000396000f3fe608060405234801561001057600080fd5b506004361061010b5760003560e01c80633f35d033116100a2578063928012301161007157806392801230146105b457806395d89b41146105fe5780639dc29fac14610681578063a9059cbb146106e7578063dd62ed3e1461074d5761010b565b80633f35d033146103815780635c6581651461047e5780636370920e146104f657806370a082311461055c5761010b565b806323b872dd116100de57806323b872dd1461026157806327e235e3146102e7578063313ce5671461033f57806333a581d2146103635761010b565b806302d05d3f1461011057806306fdde031461015a578063095ea7b3146101dd57806318160ddd14610243575b600080fd5b6101186107c5565b604051808273ffffffffffffffffffffffffffffffffffffffff1673ffffffffffffffffffffffffffffffffffffffff16815260200191505060405180910390f35b6101626107ea565b6040518080602001828103825283818151815260200191508051906020019080838360005b838110156101a2578082015181840152602081019050610187565b50505050905090810190601f1680156101cf5780820380516001836020036101000a031916815260200191505b509250505060405180910390f35b610229600480360360408110156101f357600080fd5b81019080803573ffffffffffffffffffffffffffffffffffffffff16906020019092919080359060200190929190505050610888565b604051808215151515815260200191505060405180910390f35b61024b61097a565b6040518082815260200191505060405180910390f35b6102cd6004803603606081101561027757600080fd5b81019080803573ffffffffffffffffffffffffffffffffffffffff169060200190929190803573ffffffffffffffffffffffffffffffffffffffff16906020019092919080359060200190929190505050610980565b604051808215151515815260200191505060405180910390f35b610329600480360360208110156102fd57600080fd5b81019080803573ffffffffffffffffffffffffffffffffffffffff169060200190929190505050610b3e565b6040518082815260200191505060405180910390f35b610347610b56565b604051808260ff1660ff16815260200191505060405180910390f35b61036b610b5b565b6040518082815260200191505060405180910390f35b6104646004803603606081101561039757600080fd5b81019080803573ffffffffffffffffffffffffffffffffffffffff16906020019092919080359060200190929190803590602001906401000000008111156103de57600080fd5b8201836020820111156103f057600080fd5b8035906020019184600183028401116401000000008311171561041257600080fd5b91908080601f016020809104026020016040519081016040528093929190818152602001838380828437600081840152601f19601f820116905080830192505050505050509192919290505050610b7f565b604051808215151515815260200191505060405180910390f35b6104e06004803603604081101561049457600080fd5b81019080803573ffffffffffffffffffffffffffffffffffffffff169060200190929190803573ffffffffffffffffffffffffffffffffffffffff169060200190929190505050610dcc565b6040518082815260200191505060405180910390f35b6105426004803603604081101561050c57600080fd5b81019080803573ffffffffffffffffffffffffffffffffffffffff16906020019092919080359060200190929190505050610df1565b604051808215151515815260200191505060405180910390f35b61059e6004803603602081101561057257600080fd5b81019080803573ffffffffffffffffffffffffffffffffffffffff169060200190929190505050610f01565b6040518082815260200191505060405180910390f35b6105bc610f4a565b604051808273ffffffffffffffffffffffffffffffffffffffff1673ffffffffffffffffffffffffffffffffffffffff16815260200191505060405180910390f35b610606610f70565b6040518080602001828103825283818151815260200191508051906020019080838360005b8381101561064657808201518184015260208101905061062b565b50505050905090810190601f1680156106735780820380516001836020036101000a031916815260200191505b509250505060405180910390f35b6106cd6004803603604081101561069757600080fd5b81019080803573ffffffffffffffffffffffffffffffffffffffff1690602001909291908035906020019092919050505061100e565b604051808215151515815260200191505060405180910390f35b610733600480360360408110156106fd57600080fd5b81019080803573ffffffffffffffffffffffffffffffffffffffff1690602001909291908035906020019092919050505061111c565b604051808215151515815260200191505060405180910390f35b6107af6004803603604081101561076357600080fd5b81019080803573ffffffffffffffffffffffffffffffffffffffff169060200190929190803573ffffffffffffffffffffffffffffffffffffffff169060200190929190505050611198565b6040518082815260200191505060405180910390f35b6000809054906101000a900473ffffffffffffffffffffffffffffffffffffffff1681565b60048054600181600116156101000203166002900480601f0160208091040260200160405190810160405280929190818152602001828054600181600116156101000203166002900480156108805780601f1061085557610100808354040283529160200191610880565b820191906000526020600020905b81548152906001019060200180831161086357829003601f168201915b505050505081565b600081600360003373ffffffffffffffffffffffffffffffffffffffff1673ffffffffffffffffffffffffffffffffffffffff16815260200190815260200160002060008573ffffffffffffffffffffffffffffffffffffffff1673ffffffffffffffffffffffffffffffffffffffff168152602001908152602001600020819055508273ffffffffffffffffffffffffffffffffffffffff163373ffffffffffffffffffffffffffffffffffffffff167f8c5be1e5ebec7d5bd14f71427d1e84f3dd0314c0f7b2291e5b200ac8c7c3b925846040518082815260200191505060405180910390a36001905092915050565b60065481565b600080600360008673ffffffffffffffffffffffffffffffffffffffff1673ffffffffffffffffffffffffffffffffffffffff16815260200190815260200160002060003373ffffffffffffffffffffffffffffffffffffffff1673ffffffffffffffffffffffffffffffffffffffff16815260200190815260200160002054905082811015610a0f57600080fd5b610a1a85858561121f565b7fffffffffffffffffffffffffffffffffffffffffffffffffffffffffffffffff811015610acd5782600360008773ffffffffffffffffffffffffffffffffffffffff1673ffffffffffffffffffffffffffffffffffffffff16815260200190815260200160002060003373ffffffffffffffffffffffffffffffffffffffff1673ffffffffffffffffffffffffffffffffffffffff168152602001908152602001600020600082825403925050819055505b8373ffffffffffffffffffffffffffffffffffffffff168573ffffffffffffffffffffffffffffffffffffffff167fddf252ad1be2c89b69c2b068fc378daa952ba7f163c4a11628f55a4df523b3ef856040518082815260200191505060405180910390a360019150509392505050565b60026020528060005260406000206000915090505481565b601281565b7fffffffffffffffffffffffffffffffffffffffffffffffffffffffffffffffff81565b6000610b8c33858561121f565b6000604051808061130b6024913960240190506040518091039020905060008573ffffffffffffffffffffffffffffffffffffffff168233878760405160200180857bffffffffffffffffffffffffffffffffffffffffffffffffffffffff19167bffffffffffffffffffffffffffffffffffffffffffffffffffffffff191681526004018473ffffffffffffffffffffffffffffffffffffffff1673ffffffffffffffffffffffffffffffffffffffff1660601b815260140183815260200182805190602001908083835b60208310610c7b5780518252602082019150602081019050602083039250610c58565b6001836020036101000a0380198251168184511680821785525050505050509050019450505050506040516020818303038152906040526040518082805190602001908083835b60208310610ce55780518252602082019150602081019050602083039250610cc2565b6001836020036101000a0380198251168184511680821785525050505050509050019150506000604051808303816000865af19150503d8060008114610d47576040519150601f19603f3d011682016040523d82523d6000602084013e610d4c565b606091505b5050905080610d5a57600080fd5b8573ffffffffffffffffffffffffffffffffffffffff163373ffffffffffffffffffffffffffffffffffffffff167fddf252ad1be2c89b69c2b068fc378daa952ba7f163c4a11628f55a4df523b3ef876040518082815260200191505060405180910390a36001925050509392505050565b6003602052816000526040600020602052806000526040600020600091509150505481565b60008060009054906101000a900473ffffffffffffffffffffffffffffffffffffffff1673ffffffffffffffffffffffffffffffffffffffff163373ffffffffffffffffffffffffffffffffffffffff1614610e4c57600080fd5b8182600260008673ffffffffffffffffffffffffffffffffffffffff1673ffffffffffffffffffffffffffffffffffffffff16815260200190815260200160002054011015610e9a57600080fd5b81600260008573ffffffffffffffffffffffffffffffffffffffff1673ffffffffffffffffffffffffffffffffffffffff16815260200190815260200160002060008282540192505081905550816006600082825401925050819055506001905092915050565b6000600260008373ffffffffffffffffffffffffffffffffffffffff1673ffffffffffffffffffffffffffffffffffffffff168152602001908152602001600020549050919050565b600160009054906101000a900473ffffffffffffffffffffffffffffffffffffffff1681565b60058054600181600116156101000203166002900480601f0160208091040260200160405190810160405280929190818152602001828054600181600116156101000203166002900480156110065780601f10610fdb57610100808354040283529160200191611006565b820191906000526020600020905b815481529060010190602001808311610fe957829003601f168201915b505050505081565b60008060009054906101000a900473ffffffffffffffffffffffffffffffffffffffff1673ffffffffffffffffffffffffffffffffffffffff163373ffffffffffffffffffffffffffffffffffffffff161461106957600080fd5b81600260008573ffffffffffffffffffffffffffffffffffffffff1673ffffffffffffffffffffffffffffffffffffffff1681526020019081526020016000205410156110b557600080fd5b81600260008573ffffffffffffffffffffffffffffffffffffffff1673ffffffffffffffffffffffffffffffffffffffff16815260200190815260200160002060008282540392505081905550816006600082825403925050819055506001905092915050565b600061112933848461121f565b8273ffffffffffffffffffffffffffffffffffffffff163373ffffffffffffffffffffffffffffffffffffffff167fddf252ad1be2c89b69c2b068fc378daa952ba7f163c4a11628f55a4df523b3ef846040518082815260200191505060405180910390a36001905092915050565b6000600360008473ffffffffffffffffffffffffffffffffffffffff1673ffffffffffffffffffffffffffffffffffffffff16815260200190815260200160002060008373ffffffffffffffffffffffffffffffffffffffff1673ffffffffffffffffffffffffffffffffffffffff16815260200190815260200160002054905092915050565b80600260008573ffffffffffffffffffffffffffffffffffffffff1673ffffffffffffffffffffffffffffffffffffffff16815260200190815260200160002054101561126b57600080fd5b80600260008573ffffffffffffffffffffffffffffffffffffffff1673ffffffffffffffffffffffffffffffffffffffff1681526020019081526020016000206000828254039250508190555080600260008473ffffffffffffffffffffffffffffffffffffffff1673ffffffffffffffffffffffffffffffffffffffff1681526020019081526020016000206000828254019250508190555050505056fe72656365697665546f6b656e7328616464726573732c75696e743235362c627974657329a165627a7a72305820058cd538c390fbeaf803c02998524b7081b524c5aa0b80e6b9aa3191203074340029a165627a7a7230582059b7c140c9e14907d3b2ed773718cdb5ffcef9a4e8ba71ebfb1a150ab3c08fb50029",
  "source": "pragma solidity ^0.5;\n\nimport \"./ERC20.sol\";\nimport \"./OptionToken.sol\";\nimport \"./VariableSupplyToken.sol\";\nimport \"./DSFProtocolTypes.sol\";\nimport \"./BidderInterface.sol\";\n\n\ncontract DSFProtocol is DSFProtocolTypes {\n    \n    string public constant VERSION = \"1.0\";\n    \n    ERC20 public usdERC20;\n    ERC20 public protocolToken;\n\n    struct OptionSeries {\n        uint expiration;\n        Flavor flavor;\n        uint strike;\n    }\n\n    uint public constant DURATION = 12 hours;\n    uint public constant HALF_DURATION = DURATION / 2;\n\n    mapping(address => uint) public openInterest;\n    mapping(address => uint) public earlyExercised;\n    mapping(address => uint) public totalInterest;\n    mapping(address => mapping(address => uint)) public writers;\n    mapping(address => OptionSeries) public seriesInfo;\n    mapping(address => uint) public holdersSettlement;\n\n    mapping(address => uint) public expectValue;\n    bool isAuction;\n    \n    \n    uint public constant PREFERENCE_MAX = 0.037 ether;\n\n    constructor(address _token, address _usd) public {\n        protocolToken = ERC20(_token);\n        usdERC20 = ERC20(_usd);\n    }\n\n    function() external payable {\n        revert();\n    }\n\n    // Note, this just creates an option token, it doesn't guarantee\n    // settlement of that token. For guaranteed settlement see the DSFProtocolProxy contract(s)\n    function issue(string memory name, string memory symbol, uint expiration, Flavor flavor, uint strike) public returns (address) {\n        address series = address(new OptionToken(name, symbol));\n        seriesInfo[series] = OptionSeries(expiration, flavor, strike);\n        return series;\n    }\n\n    function open(address _series, uint amount) public payable returns (bool) {\n        OptionSeries memory series = seriesInfo[_series];\n        require(now < series.expiration);\n\n        VariableSupplyToken(_series).grant(msg.sender, amount);\n\n        if (series.flavor == Flavor.Call) {\n            require(msg.value == amount);\n        } else {\n            require(msg.value == 0);\n            uint escrow = amount * series.strike;\n            require(escrow / amount == series.strike);\n            escrow /= 1 ether;\n            require(usdERC20.transferFrom(msg.sender, address(this), escrow));\n        }\n        \n        openInterest[_series] += amount;\n        totalInterest[_series] += amount;\n        writers[_series][msg.sender] += amount;\n\n        return true;\n    }\n\n    function close(address _series, uint amount) public returns (bool) {\n        OptionSeries memory series = seriesInfo[_series];\n\n        require(now < series.expiration);\n        require(openInterest[_series] >= amount);\n        VariableSupplyToken(_series).burn(msg.sender, amount);\n\n        require(writers[_series][msg.sender] >= amount);\n        writers[_series][msg.sender] -= amount;\n        openInterest[_series] -= amount;\n        totalInterest[_series] -= amount;\n        \n        if (series.flavor == Flavor.Call) {\n            msg.sender.transfer(amount);\n        } else {\n            usdERC20.transfer(msg.sender, amount * series.strike / 1 ether);\n        }\n        return true;\n    }\n    \n    function exercise(address _series, uint amount) public payable {\n        OptionSeries memory series = seriesInfo[_series];\n\n        require(now < series.expiration);\n        require(openInterest[_series] >= amount);\n        VariableSupplyToken(_series).burn(msg.sender, amount);\n\n        uint usd = amount * series.strike;\n        require(usd / amount == series.strike);\n        usd /= 1 ether;\n\n        openInterest[_series] -= amount;\n        earlyExercised[_series] += amount;\n\n        if (series.flavor == Flavor.Call) {\n            msg.sender.transfer(amount);\n            require(msg.value == 0);\n            usdERC20.transferFrom(msg.sender, address(this), usd);\n        } else {\n            require(msg.value == amount);\n            usdERC20.transfer(msg.sender, usd);\n        }\n    }\n    \n    function receive() public payable returns (bool) {\n        require(expectValue[msg.sender] == msg.value);\n        expectValue[msg.sender] = 0;\n        return true;\n    }\n\n    function bid(address _series, uint amount) public payable returns (bool) {\n\n        require(isAuction == false);\n        isAuction = true;\n\n        OptionSeries memory series = seriesInfo[_series];\n\n        uint start = series.expiration;\n        require(now > start);\n        require(now < start + DURATION);\n\n        uint elapsed = now - start;\n        \n        // amount is upper-bounded to open interest of series\n        amount = _min(amount, openInterest[_series]);\n\n        openInterest[_series] -= amount;\n\n        uint offer;\n        uint givGet;\n        uint discountRate = discount(msg.sender);\n        \n        BidderInterface bidder = BidderInterface(msg.sender);\n        \n        if (series.flavor == Flavor.Call) {\n            require(msg.value == 0);\n\n            offer = callAuctionUSDPrice(series.strike, elapsed, discountRate);\n            givGet = offer * amount / 1 ether;\n            \n            holdersSettlement[_series] += givGet - amount * series.strike / 1 ether;\n\n            bool hasFunds = usdERC20.balanceOf(msg.sender) >= givGet && usdERC20.allowance(msg.sender, address(this)) >= givGet;\n\n            if (hasFunds) {\n                msg.sender.transfer(amount);\n            } else {\n                bidder.receiveETH(_series, amount);\n            }\n\n            require(usdERC20.transferFrom(msg.sender, address(this), givGet));\n        } else {\n            // offer represents the amount the sender will sell eth for in USD\n            offer = putAuctionUSDPrice(series.strike, elapsed, discountRate);\n            \n            // the amount in USD the sender will receive\n            givGet = amount * offer / 1 ether;\n\n            holdersSettlement[_series] += amount * series.strike / 1 ether - givGet;\n            usdERC20.transfer(msg.sender, givGet);\n\n            if (msg.value == 0) {\n                require(expectValue[msg.sender] == 0);\n                expectValue[msg.sender] = amount;\n                \n                bidder.receiveUSD(_series, givGet);\n                require(expectValue[msg.sender] == 0);\n            } else {\n                require(msg.value >= amount);\n                msg.sender.transfer(msg.value - amount);\n            }\n        }\n\n        isAuction = false;\n        return true;\n    }\n    \n    function putAuctionUSDPrice(uint strike, uint elapsed, uint discountRate) public pure returns (uint) {\n        uint price = elapsed * strike * 1 ether / DURATION * discountRate;\n        return _min(price, strike);\n    }\n    \n    function callAuctionUSDPrice(uint strike, uint elapsed, uint discountRate) public pure returns (uint) {\n        uint price = strike * DURATION / elapsed;\n        return _max(\n            price * discountRate / 1 ether, \n            strike\n        );\n    }\n\n    function redeem(address _series) public returns (bool) {\n        OptionSeries memory series = seriesInfo[_series];\n\n        require(now > series.expiration + DURATION);\n\n        uint unsettledPercent = openInterest[_series] * 1 ether / totalInterest[_series];\n        uint exercisedPercent = (totalInterest[_series] - openInterest[_series]) * 1 ether / totalInterest[_series];\n        uint owed;\n\n        if (series.flavor == Flavor.Call) {\n            owed = writers[_series][msg.sender] * unsettledPercent / 1 ether;\n            if (owed > 0) {\n                msg.sender.transfer(owed);\n            }\n\n            owed = writers[_series][msg.sender] * exercisedPercent / 1 ether;\n            owed = owed * series.strike / 1 ether;\n            if (owed > 0) {\n                usdERC20.transfer(msg.sender, owed);\n            }\n        } else {\n            owed = writers[_series][msg.sender] * unsettledPercent / 1 ether;\n            owed = owed * series.strike / 1 ether;\n            if (owed > 0) {\n                usdERC20.transfer(msg.sender, owed);\n            }\n\n            owed = writers[_series][msg.sender] * exercisedPercent / 1 ether;\n            if (owed > 0) {\n                msg.sender.transfer(owed);\n            }\n        }\n\n        writers[_series][msg.sender] = 0;\n        return true;\n    }\n\n    function settle(address _series) public returns (bool) {\n        OptionSeries memory series = seriesInfo[_series];\n        require(now > series.expiration + DURATION);\n\n        uint bal = ERC20(_series).balanceOf(msg.sender);\n        VariableSupplyToken(_series).burn(msg.sender, bal);\n\n        uint percent = bal * 1 ether / (totalInterest[_series] - earlyExercised[_series]);\n        uint owed = holdersSettlement[_series] * percent / 1 ether;\n        usdERC20.transfer(msg.sender, owed);\n        return true;\n    }\n    \n    // map preference to a discount factor between 0.95 and 1\n    function discount(address from) public view returns (uint) {\n        return (100 ether - _unsLn(preference(from) * 139 + 1 ether)) / 100;\n    }\n    \n    // map the quantity between 0 and 3.7% of DSF token supply the user owns\n    // to between 0 and 1\n    function preference(address from) public view returns (uint) {\n        uint percent = _min(\n            protocolToken.balanceOf(from) * 1 ether / protocolToken.totalSupply(),\n            PREFERENCE_MAX\n        );\n        \n        uint normalized = percent * 1 ether / PREFERENCE_MAX;\n        return normalized;\n    }\n\n    function _min(uint a, uint b) pure public returns (uint) {\n        if (a > b)\n            return b;\n        return a;\n    }\n\n    function _max(uint a, uint b) pure public returns (uint) {\n        if (a > b)\n            return a;\n        return b;\n    }\n    \n    function _unsLn(uint x) pure public returns (uint log) {\n        log = 0;\n        \n        // not a true ln function, we can't represent the negatives\n        if (x < 1 ether)\n            return 0;\n\n        while (x >= 1.5 ether) {\n            log += 0.405465 ether;\n            x = x * 2 / 3;\n        }\n        \n        x = x - 1 ether;\n        uint y = x;\n        uint i = 1;\n\n        while (i < 10) {\n            log += (y / i);\n            i = i + 1;\n            y = y * x / 1 ether;\n            log -= (y / i);\n            i = i + 1;\n            y = y * x / 1 ether;\n        }\n         \n        return(log);\n    }\n}",
  "sourcePath": "/Users/brianwheeler/optimum/protocol/contracts/DSFProtocol.sol",
  "compiler": {
    "name": "solc",
    "version": "0.5.8+commit.23d335f2.Emscripten.clang"
  },
  "schemaVersion": "3.0.10",
  "updatedAt": "2019-05-31T21:37:04.120Z",
  "devdoc": {
    "methods": {}
  },
  "userdoc": {
    "methods": {}
  }
}