{
  "contractName": "ETHCallOptionToken",
  "abi": [
    {
      "anonymous": false,
      "inputs": [
        {
          "indexed": true,
          "internalType": "address",
          "name": "_owner",
          "type": "address"
        },
        {
          "indexed": true,
          "internalType": "address",
          "name": "_spender",
          "type": "address"
        },
        {
          "indexed": false,
          "internalType": "uint256",
          "name": "_value",
          "type": "uint256"
        }
      ],
      "name": "Approval",
      "type": "event"
    },
    {
      "anonymous": false,
      "inputs": [
        {
          "indexed": false,
          "internalType": "address",
          "name": "creator",
          "type": "address"
        },
        {
          "indexed": false,
          "internalType": "uint256",
          "name": "supply",
          "type": "uint256"
        }
      ],
      "name": "Created",
      "type": "event"
    },
    {
      "anonymous": false,
      "inputs": [
        {
          "indexed": true,
          "internalType": "address",
          "name": "_from",
          "type": "address"
        },
        {
          "indexed": true,
          "internalType": "address",
          "name": "_to",
          "type": "address"
        },
        {
          "indexed": false,
          "internalType": "uint256",
          "name": "_value",
          "type": "uint256"
        }
      ],
      "name": "Transfer",
      "type": "event"
    },
    {
      "constant": true,
      "inputs": [],
      "name": "MAX_UINT256",
      "outputs": [
        {
          "internalType": "uint256",
          "name": "",
          "type": "uint256"
        }
      ],
      "payable": false,
      "stateMutability": "view",
      "type": "function"
    },
    {
      "constant": true,
      "inputs": [],
      "name": "SETTLEMENT_DURATION",
      "outputs": [
        {
          "internalType": "uint256",
          "name": "",
          "type": "uint256"
        }
      ],
      "payable": false,
      "stateMutability": "view",
      "type": "function"
    },
    {
      "constant": true,
      "inputs": [
        {
          "internalType": "address",
          "name": "_owner",
          "type": "address"
        },
        {
          "internalType": "address",
          "name": "_spender",
          "type": "address"
        }
      ],
      "name": "allowance",
      "outputs": [
        {
          "internalType": "uint256",
          "name": "remaining",
          "type": "uint256"
        }
      ],
      "payable": false,
      "stateMutability": "view",
      "type": "function"
    },
    {
      "constant": true,
      "inputs": [
        {
          "internalType": "address",
          "name": "",
          "type": "address"
        },
        {
          "internalType": "address",
          "name": "",
          "type": "address"
        }
      ],
      "name": "allowed",
      "outputs": [
        {
          "internalType": "uint256",
          "name": "",
          "type": "uint256"
        }
      ],
      "payable": false,
      "stateMutability": "view",
      "type": "function"
    },
    {
      "constant": false,
      "inputs": [
        {
          "internalType": "address",
          "name": "_spender",
          "type": "address"
        },
        {
          "internalType": "uint256",
          "name": "_value",
          "type": "uint256"
        }
      ],
      "name": "approve",
      "outputs": [
        {
          "internalType": "bool",
          "name": "success",
          "type": "bool"
        }
      ],
      "payable": false,
      "stateMutability": "nonpayable",
      "type": "function"
    },
    {
      "constant": false,
      "inputs": [
        {
          "internalType": "address",
          "name": "spender",
          "type": "address"
        },
        {
          "internalType": "uint256",
          "name": "quantity",
          "type": "uint256"
        },
        {
          "internalType": "bytes",
          "name": "data",
          "type": "bytes"
        }
      ],
      "name": "approveAndCall",
      "outputs": [
        {
          "internalType": "bool",
          "name": "",
          "type": "bool"
        }
      ],
      "payable": false,
      "stateMutability": "nonpayable",
      "type": "function"
    },
    {
      "constant": true,
      "inputs": [],
      "name": "assigned",
      "outputs": [
        {
          "internalType": "uint256",
          "name": "",
          "type": "uint256"
        }
      ],
      "payable": false,
      "stateMutability": "view",
      "type": "function"
    },
    {
      "constant": true,
      "inputs": [
        {
          "internalType": "address",
          "name": "_owner",
          "type": "address"
        }
      ],
      "name": "balanceOf",
      "outputs": [
        {
          "internalType": "uint256",
          "name": "balance",
          "type": "uint256"
        }
      ],
      "payable": false,
      "stateMutability": "view",
      "type": "function"
    },
    {
      "constant": true,
      "inputs": [
        {
          "internalType": "address",
          "name": "",
          "type": "address"
        }
      ],
      "name": "balances",
      "outputs": [
        {
          "internalType": "uint256",
          "name": "",
          "type": "uint256"
        }
      ],
      "payable": false,
      "stateMutability": "view",
      "type": "function"
    },
    {
      "constant": true,
      "inputs": [],
      "name": "decimals",
      "outputs": [
        {
          "internalType": "uint8",
          "name": "",
          "type": "uint8"
        }
      ],
      "payable": false,
      "stateMutability": "view",
      "type": "function"
    },
    {
      "constant": true,
      "inputs": [],
      "name": "dsf",
      "outputs": [
        {
          "internalType": "contract ERC20",
          "name": "",
          "type": "address"
        }
      ],
      "payable": false,
      "stateMutability": "pure",
      "type": "function"
    },
    {
      "constant": true,
      "inputs": [
        {
          "internalType": "address",
          "name": "account",
          "type": "address"
        }
      ],
      "name": "edge",
      "outputs": [
        {
          "internalType": "uint256",
          "name": "",
          "type": "uint256"
        }
      ],
      "payable": false,
      "stateMutability": "view",
      "type": "function"
    },
    {
      "constant": true,
      "inputs": [],
      "name": "exercised",
      "outputs": [
        {
          "internalType": "uint256",
          "name": "",
          "type": "uint256"
        }
      ],
      "payable": false,
      "stateMutability": "view",
      "type": "function"
    },
    {
      "constant": true,
      "inputs": [],
      "name": "expiration",
      "outputs": [
        {
          "internalType": "uint256",
          "name": "",
          "type": "uint256"
        }
      ],
      "payable": false,
      "stateMutability": "view",
      "type": "function"
    },
    {
      "constant": false,
      "inputs": [
        {
          "internalType": "uint256",
          "name": "_expiration",
          "type": "uint256"
        },
        {
          "internalType": "uint256",
          "name": "_strike",
          "type": "uint256"
        }
      ],
      "name": "init",
      "outputs": [
        {
          "internalType": "bool",
          "name": "",
          "type": "bool"
        }
      ],
      "payable": false,
      "stateMutability": "nonpayable",
      "type": "function"
    },
    {
      "constant": true,
      "inputs": [],
      "name": "initialized",
      "outputs": [
        {
          "internalType": "bool",
          "name": "",
          "type": "bool"
        }
      ],
      "payable": false,
      "stateMutability": "view",
      "type": "function"
    },
    {
      "constant": true,
      "inputs": [],
      "name": "settled",
      "outputs": [
        {
          "internalType": "uint256",
          "name": "",
          "type": "uint256"
        }
      ],
      "payable": false,
      "stateMutability": "view",
      "type": "function"
    },
    {
      "constant": true,
      "inputs": [],
      "name": "settlementEnd",
      "outputs": [
        {
          "internalType": "uint256",
          "name": "",
          "type": "uint256"
        }
      ],
      "payable": false,
      "stateMutability": "view",
      "type": "function"
    },
    {
      "constant": true,
      "inputs": [],
      "name": "settlementStart",
      "outputs": [
        {
          "internalType": "uint256",
          "name": "",
          "type": "uint256"
        }
      ],
      "payable": false,
      "stateMutability": "view",
      "type": "function"
    },
    {
      "constant": true,
      "inputs": [],
      "name": "strike",
      "outputs": [
        {
          "internalType": "uint256",
          "name": "",
          "type": "uint256"
        }
      ],
      "payable": false,
      "stateMutability": "view",
      "type": "function"
    },
    {
      "constant": true,
      "inputs": [],
      "name": "totalSupply",
      "outputs": [
        {
          "internalType": "uint256",
          "name": "",
          "type": "uint256"
        }
      ],
      "payable": false,
      "stateMutability": "view",
      "type": "function"
    },
    {
      "constant": false,
      "inputs": [
        {
          "internalType": "address",
          "name": "_to",
          "type": "address"
        },
        {
          "internalType": "uint256",
          "name": "_value",
          "type": "uint256"
        }
      ],
      "name": "transfer",
      "outputs": [
        {
          "internalType": "bool",
          "name": "success",
          "type": "bool"
        }
      ],
      "payable": false,
      "stateMutability": "nonpayable",
      "type": "function"
    },
    {
      "constant": false,
      "inputs": [
        {
          "internalType": "address",
          "name": "_from",
          "type": "address"
        },
        {
          "internalType": "address",
          "name": "_to",
          "type": "address"
        },
        {
          "internalType": "uint256",
          "name": "_value",
          "type": "uint256"
        }
      ],
      "name": "transferFrom",
      "outputs": [
        {
          "internalType": "bool",
          "name": "success",
          "type": "bool"
        }
      ],
      "payable": false,
      "stateMutability": "nonpayable",
      "type": "function"
    },
    {
      "constant": true,
      "inputs": [],
      "name": "usd",
      "outputs": [
        {
          "internalType": "contract ERC20",
          "name": "",
          "type": "address"
        }
      ],
      "payable": false,
      "stateMutability": "pure",
      "type": "function"
    },
    {
      "constant": true,
      "inputs": [
        {
          "internalType": "address",
          "name": "",
          "type": "address"
        }
      ],
      "name": "writers",
      "outputs": [
        {
          "internalType": "uint256",
          "name": "",
          "type": "uint256"
        }
      ],
      "payable": false,
      "stateMutability": "view",
      "type": "function"
    },
    {
      "constant": true,
      "inputs": [],
      "name": "written",
      "outputs": [
        {
          "internalType": "uint256",
          "name": "",
          "type": "uint256"
        }
      ],
      "payable": false,
      "stateMutability": "view",
      "type": "function"
    },
    {
      "constant": false,
      "inputs": [],
      "name": "write",
      "outputs": [
        {
          "internalType": "bool",
          "name": "",
          "type": "bool"
        }
      ],
      "payable": true,
      "stateMutability": "payable",
      "type": "function"
    },
    {
      "constant": false,
      "inputs": [
        {
          "internalType": "address",
          "name": "spender",
          "type": "address"
        }
      ],
      "name": "writeAndApprove",
      "outputs": [
        {
          "internalType": "bool",
          "name": "",
          "type": "bool"
        }
      ],
      "payable": true,
      "stateMutability": "payable",
      "type": "function"
    },
    {
      "constant": false,
      "inputs": [
        {
          "internalType": "address",
          "name": "to",
          "type": "address"
        },
        {
          "internalType": "bytes",
          "name": "data",
          "type": "bytes"
        }
      ],
      "name": "writeApproveAndCall",
      "outputs": [
        {
          "internalType": "bool",
          "name": "",
          "type": "bool"
        }
      ],
      "payable": true,
      "stateMutability": "payable",
      "type": "function"
    },
    {
      "constant": false,
      "inputs": [],
      "name": "writeAsOrigin",
      "outputs": [
        {
          "internalType": "bool",
          "name": "",
          "type": "bool"
        }
      ],
      "payable": true,
      "stateMutability": "payable",
      "type": "function"
    },
    {
      "constant": false,
      "inputs": [
        {
          "internalType": "address",
          "name": "to",
          "type": "address"
        }
      ],
      "name": "writeAndApproveAsOrigin",
      "outputs": [
        {
          "internalType": "bool",
          "name": "",
          "type": "bool"
        }
      ],
      "payable": true,
      "stateMutability": "payable",
      "type": "function"
    },
    {
      "constant": false,
      "inputs": [
        {
          "internalType": "address",
          "name": "to",
          "type": "address"
        },
        {
          "internalType": "bytes",
          "name": "data",
          "type": "bytes"
        }
      ],
      "name": "writeApproveAndCallAsOrigin",
      "outputs": [
        {
          "internalType": "bool",
          "name": "",
          "type": "bool"
        }
      ],
      "payable": true,
      "stateMutability": "payable",
      "type": "function"
    },
    {
      "constant": false,
      "inputs": [
        {
          "internalType": "uint256",
          "name": "amount",
          "type": "uint256"
        }
      ],
      "name": "close",
      "outputs": [
        {
          "internalType": "bool",
          "name": "",
          "type": "bool"
        }
      ],
      "payable": false,
      "stateMutability": "nonpayable",
      "type": "function"
    },
    {
      "constant": false,
      "inputs": [
        {
          "internalType": "uint256",
          "name": "amount",
          "type": "uint256"
        }
      ],
      "name": "exercise",
      "outputs": [
        {
          "internalType": "bool",
          "name": "",
          "type": "bool"
        }
      ],
      "payable": false,
      "stateMutability": "nonpayable",
      "type": "function"
    },
    {
      "constant": false,
      "inputs": [
        {
          "internalType": "uint256",
          "name": "quantity",
          "type": "uint256"
        }
      ],
      "name": "settle",
      "outputs": [],
      "payable": false,
      "stateMutability": "nonpayable",
      "type": "function"
    },
    {
      "constant": true,
      "inputs": [],
      "name": "auctionPrice",
      "outputs": [
        {
          "internalType": "uint256",
          "name": "",
          "type": "uint256"
        }
      ],
      "payable": false,
      "stateMutability": "view",
      "type": "function"
    },
    {
      "constant": false,
      "inputs": [],
      "name": "liquidate",
      "outputs": [
        {
          "internalType": "bool",
          "name": "",
          "type": "bool"
        }
      ],
      "payable": false,
      "stateMutability": "nonpayable",
      "type": "function"
    },
    {
      "constant": false,
      "inputs": [],
      "name": "assignment",
      "outputs": [
        {
          "internalType": "bool",
          "name": "",
          "type": "bool"
        }
      ],
      "payable": false,
      "stateMutability": "nonpayable",
      "type": "function"
    },
    {
      "constant": false,
      "inputs": [],
      "name": "name",
      "outputs": [
        {
          "internalType": "string",
          "name": "",
          "type": "string"
        }
      ],
      "payable": false,
      "stateMutability": "nonpayable",
      "type": "function"
    },
    {
      "constant": false,
      "inputs": [],
      "name": "symbol",
      "outputs": [
        {
          "internalType": "string",
          "name": "",
          "type": "string"
        }
      ],
      "payable": false,
      "stateMutability": "nonpayable",
      "type": "function"
    }
  ],
  "bytecode": "0x608060405234801561001057600080fd5b50612cd4806100206000396000f3fe60806040526004361061023b5760003560e01c80636664eb161161012e578063a9059cbb116100ab578063cae9ca511161006f578063cae9ca5114610dde578063d63a6ccd14610ee8578063d7fd7bb914610f3f578063dd62ed3e14610f6a578063f5b885c414610fef5761023b565b8063a9059cbb14610ca0578063ad8f500814610d13578063adb4d99014610d3e578063b07f0a4114610d69578063bcb4ab0e14610dbc5761023b565b80638e7e80a2116100f25780638e7e80a214610af85780638f77583914610b5d57806395d89b4114610b88578063a47b328914610c18578063a5843f0814610c435761023b565b80636664eb161461097657806370a08231146109cd57806371ca2ecf14610a32578063825a8ba114610a615780638df8280014610abd5761023b565b8063313ce567116101bc57806348f4c5741161018057806348f4c574146106b557806350b72eb3146107a857806356742b5a146107d357806356ded78f146107fe5780635c658165146108f15761023b565b8063313ce5671461059e57806333a581d2146105cf5780633cc8fd7a146105fa57806342a47cfe1461065f5780634665096d1461068a5761023b565b806318160ddd1161020357806318160ddd146103f057806323b872dd1461041b57806323d30e5d146104ae57806327e235e31461050a57806328a070251461056f5761023b565b806306fdde0314610240578063095ea7b3146102d05780630aebeb4e1461034357806314c68b1b14610396578063158ef93e146103c1575b600080fd5b34801561024c57600080fd5b50610255611011565b6040518080602001828103825283818151815260200191508051906020019080838360005b8381101561029557808201518184015260208101905061027a565b50505050905090810190601f1680156102c25780820380516001836020036101000a031916815260200191505b509250505060405180910390f35b3480156102dc57600080fd5b50610329600480360360408110156102f357600080fd5b81019080803573ffffffffffffffffffffffffffffffffffffffff16906020019092919080359060200190929190505050611191565b604051808215151515815260200191505060405180910390f35b34801561034f57600080fd5b5061037c6004803603602081101561036657600080fd5b8101908080359060200190929190505050611283565b604051808215151515815260200191505060405180910390f35b3480156103a257600080fd5b506103ab611437565b6040518082815260200191505060405180910390f35b3480156103cd57600080fd5b506103d661143d565b604051808215151515815260200191505060405180910390f35b3480156103fc57600080fd5b50610405611450565b6040518082815260200191505060405180910390f35b34801561042757600080fd5b506104946004803603606081101561043e57600080fd5b81019080803573ffffffffffffffffffffffffffffffffffffffff169060200190929190803573ffffffffffffffffffffffffffffffffffffffff16906020019092919080359060200190929190505050611456565b604051808215151515815260200191505060405180910390f35b6104f0600480360360208110156104c457600080fd5b81019080803573ffffffffffffffffffffffffffffffffffffffff1690602001909291905050506116eb565b604051808215151515815260200191505060405180910390f35b34801561051657600080fd5b506105596004803603602081101561052d57600080fd5b81019080803573ffffffffffffffffffffffffffffffffffffffff16906020019092919050505061170a565b6040518082815260200191505060405180910390f35b34801561057b57600080fd5b50610584611722565b604051808215151515815260200191505060405180910390f35b3480156105aa57600080fd5b506105b36119d2565b604051808260ff1660ff16815260200191505060405180910390f35b3480156105db57600080fd5b506105e46119d7565b6040518082815260200191505060405180910390f35b34801561060657600080fd5b506106496004803603602081101561061d57600080fd5b81019080803573ffffffffffffffffffffffffffffffffffffffff1690602001909291905050506119fb565b6040518082815260200191505060405180910390f35b34801561066b57600080fd5b50610674611aef565b6040518082815260200191505060405180910390f35b34801561069657600080fd5b5061069f611afd565b6040518082815260200191505060405180910390f35b61078e600480360360408110156106cb57600080fd5b81019080803573ffffffffffffffffffffffffffffffffffffffff1690602001909291908035906020019064010000000081111561070857600080fd5b82018360208201111561071a57600080fd5b8035906020019184600183028401116401000000008311171561073c57600080fd5b91908080601f016020809104026020016040519081016040528093929190818152602001838380828437600081840152601f19601f820116905080830192505050505050509192919290505050611b03565b604051808215151515815260200191505060405180910390f35b3480156107b457600080fd5b506107bd611b24565b6040518082815260200191505060405180910390f35b3480156107df57600080fd5b506107e8611b2a565b6040518082815260200191505060405180910390f35b6108d76004803603604081101561081457600080fd5b81019080803573ffffffffffffffffffffffffffffffffffffffff1690602001909291908035906020019064010000000081111561085157600080fd5b82018360208201111561086357600080fd5b8035906020019184600183028401116401000000008311171561088557600080fd5b91908080601f016020809104026020016040519081016040528093929190818152602001838380828437600081840152601f19601f820116905080830192505050505050509192919290505050611bb0565b604051808215151515815260200191505060405180910390f35b3480156108fd57600080fd5b506109606004803603604081101561091457600080fd5b81019080803573ffffffffffffffffffffffffffffffffffffffff169060200190929190803573ffffffffffffffffffffffffffffffffffffffff169060200190929190505050611d10565b6040518082815260200191505060405180910390f35b34801561098257600080fd5b5061098b611d35565b604051808273ffffffffffffffffffffffffffffffffffffffff1673ffffffffffffffffffffffffffffffffffffffff16815260200191505060405180910390f35b3480156109d957600080fd5b50610a1c600480360360208110156109f057600080fd5b81019080803573ffffffffffffffffffffffffffffffffffffffff169060200190929190505050611d51565b6040518082815260200191505060405180910390f35b348015610a3e57600080fd5b50610a47611d99565b604051808215151515815260200191505060405180910390f35b610aa360048036036020811015610a7757600080fd5b81019080803573ffffffffffffffffffffffffffffffffffffffff16906020019092919050505061206e565b604051808215151515815260200191505060405180910390f35b348015610ac957600080fd5b50610af660048036036020811015610ae057600080fd5b810190808035906020019092919050505061208d565b005b348015610b0457600080fd5b50610b4760048036036020811015610b1b57600080fd5b81019080803573ffffffffffffffffffffffffffffffffffffffff169060200190929190505050612252565b6040518082815260200191505060405180910390f35b348015610b6957600080fd5b50610b7261226a565b6040518082815260200191505060405180910390f35b348015610b9457600080fd5b50610b9d612270565b6040518080602001828103825283818151815260200191508051906020019080838360005b83811015610bdd578082015181840152602081019050610bc2565b50505050905090810190601f168015610c0a5780820380516001836020036101000a031916815260200191505b509250505060405180910390f35b348015610c2457600080fd5b50610c2d6123f0565b6040518082815260200191505060405180910390f35b348015610c4f57600080fd5b50610c8660048036036040811015610c6657600080fd5b8101908080359060200190929190803590602001909291905050506123f6565b604051808215151515815260200191505060405180910390f35b348015610cac57600080fd5b50610cf960048036036040811015610cc357600080fd5b81019080803573ffffffffffffffffffffffffffffffffffffffff1690602001909291908035906020019092919050505061244a565b604051808215151515815260200191505060405180910390f35b348015610d1f57600080fd5b50610d2861259e565b6040518082815260200191505060405180910390f35b348015610d4a57600080fd5b50610d536125a4565b6040518082815260200191505060405180910390f35b348015610d7557600080fd5b50610da260048036036020811015610d8c57600080fd5b81019080803590602001909291905050506125aa565b604051808215151515815260200191505060405180910390f35b610dc46127d8565b604051808215151515815260200191505060405180910390f35b348015610dea57600080fd5b50610ece60048036036060811015610e0157600080fd5b81019080803573ffffffffffffffffffffffffffffffffffffffff1690602001909291908035906020019092919080359060200190640100000000811115610e4857600080fd5b820183602082011115610e5a57600080fd5b80359060200191846001830284011164010000000083111715610e7c57600080fd5b91908080601f016020809104026020016040519081016040528093929190818152602001838380828437600081840152601f19601f8201169050808301925050505050505091929192905050506128ad565b604051808215151515815260200191505060405180910390f35b348015610ef457600080fd5b50610efd612a0f565b604051808273ffffffffffffffffffffffffffffffffffffffff1673ffffffffffffffffffffffffffffffffffffffff16815260200191505060405180910390f35b348015610f4b57600080fd5b50610f54612a2b565b6040518082815260200191505060405180910390f35b348015610f7657600080fd5b50610fd960048036036040811015610f8d57600080fd5b81019080803573ffffffffffffffffffffffffffffffffffffffff169060200190929190803573ffffffffffffffffffffffffffffffffffffffff169060200190929190505050612a35565b6040518082815260200191505060405180910390f35b610ff7612abc565b604051808215151515815260200191505060405180910390f35b606073__FactoryAddress________________________73ffffffffffffffffffffffffffffffffffffffff1663ccf953bd60016004546005546040518463ffffffff1660e01b815260040180841515151581526020018381526020018281526020019350505050600060405180830381600087803b15801561109357600080fd5b505af11580156110a7573d6000803e3d6000fd5b505050506040513d6000823e3d601f19601f8201168201806040525060208110156110d157600080fd5b81019080805160405193929190846401000000008211156110f157600080fd5b8382019150602082018581111561110757600080fd5b825186600182028301116401000000008211171561112457600080fd5b8083526020830192505050908051906020019080838360005b8381101561115857808201518184015260208101905061113d565b50505050905090810190601f1680156111855780820380516001836020036101000a031916815260200191505b50604052505050905090565b600081600160003373ffffffffffffffffffffffffffffffffffffffff1673ffffffffffffffffffffffffffffffffffffffff16815260200190815260200160002060008573ffffffffffffffffffffffffffffffffffffffff1673ffffffffffffffffffffffffffffffffffffffff168152602001908152602001600020819055508273ffffffffffffffffffffffffffffffffffffffff163373ffffffffffffffffffffffffffffffffffffffff167f8c5be1e5ebec7d5bd14f71427d1e84f3dd0314c0f7b2291e5b200ac8c7c3b925846040518082815260200191505060405180910390a36001905092915050565b600061128d612a2b565b421061129857600080fd5b816000803373ffffffffffffffffffffffffffffffffffffffff1673ffffffffffffffffffffffffffffffffffffffff1681526020019081526020016000205410158015611325575081600660003373ffffffffffffffffffffffffffffffffffffffff1673ffffffffffffffffffffffffffffffffffffffff1681526020019081526020016000205410155b61132e57600080fd5b816000803373ffffffffffffffffffffffffffffffffffffffff1673ffffffffffffffffffffffffffffffffffffffff1681526020019081526020016000206000828254039250508190555081600660003373ffffffffffffffffffffffffffffffffffffffff1673ffffffffffffffffffffffffffffffffffffffff1681526020019081526020016000206000828254039250508190555081600860008282540392505081905550816002600082825403925050819055503373ffffffffffffffffffffffffffffffffffffffff166108fc839081150290604051600060405180830381858888f1935050505015801561142d573d6000803e3d6000fd5b5060019050919050565b60075481565b600360009054906101000a900460ff1681565b60025481565b600080600160008673ffffffffffffffffffffffffffffffffffffffff1673ffffffffffffffffffffffffffffffffffffffff16815260200190815260200160002060003373ffffffffffffffffffffffffffffffffffffffff1673ffffffffffffffffffffffffffffffffffffffff168152602001908152602001600020549050826000808773ffffffffffffffffffffffffffffffffffffffff1673ffffffffffffffffffffffffffffffffffffffff16815260200190815260200160002054101580156115265750828110155b61152f57600080fd5b826000808773ffffffffffffffffffffffffffffffffffffffff1673ffffffffffffffffffffffffffffffffffffffff16815260200190815260200160002060008282540392505081905550826000808673ffffffffffffffffffffffffffffffffffffffff1673ffffffffffffffffffffffffffffffffffffffff168152602001908152602001600020600082825401925050819055507fffffffffffffffffffffffffffffffffffffffffffffffffffffffffffffffff81101561167a5782600160008773ffffffffffffffffffffffffffffffffffffffff1673ffffffffffffffffffffffffffffffffffffffff16815260200190815260200160002060003373ffffffffffffffffffffffffffffffffffffffff1673ffffffffffffffffffffffffffffffffffffffff168152602001908152602001600020600082825403925050819055505b8373ffffffffffffffffffffffffffffffffffffffff168573ffffffffffffffffffffffffffffffffffffffff167fddf252ad1be2c89b69c2b068fc378daa952ba7f163c4a11628f55a4df523b3ef856040518082815260200191505060405180910390a360019150509392505050565b60006116f56127d8565b506117008234611191565b5060019050919050565b60006020528060005260406000206000915090505481565b600061172c611aef565b421161173757600080fd5b6000670de0b6b3a764000060055460095460075403028161175457fe5b049050600081611762612a0f565b73ffffffffffffffffffffffffffffffffffffffff166370a08231306040518263ffffffff1660e01b8152600401808273ffffffffffffffffffffffffffffffffffffffff1673ffffffffffffffffffffffffffffffffffffffff16815260200191505060206040518083038186803b1580156117de57600080fd5b505afa1580156117f2573d6000803e3d6000fd5b505050506040513d602081101561180857600080fd5b81019080805190602001909291905050500390506000600254826000803373ffffffffffffffffffffffffffffffffffffffff1673ffffffffffffffffffffffffffffffffffffffff16815260200190815260200160002054028161186957fe5b0490506000803373ffffffffffffffffffffffffffffffffffffffff1673ffffffffffffffffffffffffffffffffffffffff1681526020019081526020016000205460026000828254039250508190555060008060003373ffffffffffffffffffffffffffffffffffffffff1673ffffffffffffffffffffffffffffffffffffffff16815260200190815260200160002081905550611906612a0f565b73ffffffffffffffffffffffffffffffffffffffff1663a9059cbb33836040518363ffffffff1660e01b8152600401808373ffffffffffffffffffffffffffffffffffffffff1673ffffffffffffffffffffffffffffffffffffffff16815260200182815260200192505050602060405180830381600087803b15801561198c57600080fd5b505af11580156119a0573d6000803e3d6000fd5b505050506040513d60208110156119b657600080fd5b8101908080519060200190929190505050506001935050505090565b601281565b7fffffffffffffffffffffffffffffffffffffffffffffffffffffffffffffffff81565b60006801ce97ca0f21055555611a0f611d35565b73ffffffffffffffffffffffffffffffffffffffff166370a08231846040518263ffffffff1660e01b8152600401808273ffffffffffffffffffffffffffffffffffffffff1673ffffffffffffffffffffffffffffffffffffffff16815260200191505060206040518083038186803b158015611a8b57600080fd5b505afa158015611a9f573d6000803e3d6000fd5b505050506040513d6020811015611ab557600080fd5b8101908080519060200190929190505050016ec097ce7bc90715b34b9f100000000081611ade57fe5b04666a94d74f430000039050919050565b600061a8c060045401905090565b60045481565b6000611b0d6127d8565b50611b198334846128ad565b506001905092915050565b61a8c081565b6000611b34612a2b565b42118015611b485750611b45611aef565b42105b611b5157600080fd5b6000611b5b612a2b565b420390506000611b6a336119fb565b9050670de0b6b3a7640000600554820281611b8157fe5b0482670de0b6b3a76400000261a8c060055484670de0b6b3a764000003020281611ba757fe5b04019250505090565b6000611bbb8361206e565b5060008373ffffffffffffffffffffffffffffffffffffffff16836040518082805190602001908083835b60208310611c095780518252602082019150602081019050602083039250611be6565b6001836020036101000a0380198251168184511680821785525050505050509050019150506000604051808303816000865af19150503d8060008114611c6b576040519150601f19603f3d011682016040523d82523d6000602084013e611c70565b606091505b50509050808015611cfc575034600160003273ffffffffffffffffffffffffffffffffffffffff1673ffffffffffffffffffffffffffffffffffffffff16815260200190815260200160002060008673ffffffffffffffffffffffffffffffffffffffff1673ffffffffffffffffffffffffffffffffffffffff16815260200190815260200160002054105b611d0557600080fd5b600191505092915050565b6001602052816000526040600020602052806000526040600020600091509150505481565b600073__DSF___________________________________905090565b60008060008373ffffffffffffffffffffffffffffffffffffffff1673ffffffffffffffffffffffffffffffffffffffff168152602001908152602001600020549050919050565b6000611da3611aef565b4211611dae57600080fd5b6000670de0b6b3a7640000600554600954600754030281611dcb57fe5b049050600060085482600660003373ffffffffffffffffffffffffffffffffffffffff1673ffffffffffffffffffffffffffffffffffffffff168152602001908152602001600020540281611e1c57fe5b049050600060085447600660003373ffffffffffffffffffffffffffffffffffffffff1673ffffffffffffffffffffffffffffffffffffffff168152602001908152602001600020540281611e6d57fe5b049050600660003373ffffffffffffffffffffffffffffffffffffffff1673ffffffffffffffffffffffffffffffffffffffff16815260200190815260200160002054600860008282540392505081905550600660003373ffffffffffffffffffffffffffffffffffffffff1673ffffffffffffffffffffffffffffffffffffffff168152602001908152602001600020546009600082825401925050819055506000600660003373ffffffffffffffffffffffffffffffffffffffff1673ffffffffffffffffffffffffffffffffffffffff168152602001908152602001600020819055503373ffffffffffffffffffffffffffffffffffffffff166108fc829081150290604051600060405180830381858888f19350505050158015611f99573d6000803e3d6000fd5b50611fa2612a0f565b73ffffffffffffffffffffffffffffffffffffffff1663a9059cbb33846040518363ffffffff1660e01b8152600401808373ffffffffffffffffffffffffffffffffffffffff1673ffffffffffffffffffffffffffffffffffffffff16815260200182815260200192505050602060405180830381600087803b15801561202857600080fd5b505af115801561203c573d6000803e3d6000fd5b505050506040513d602081101561205257600080fd5b8101908080519060200190929190505050506001935050505090565b6000612078612abc565b506120838234612b91565b5060019050919050565b61209d600a546002540382612c83565b905060006120a9611b2a565b90506000670de0b6b3a7640000828402816120c057fe5b0490508260076000828254019250508190555082600a600082825401925050819055503373ffffffffffffffffffffffffffffffffffffffff1663f52cc91384836040518363ffffffff1660e01b8152600401808281526020019150506000604051808303818588803b15801561213657600080fd5b505af115801561214a573d6000803e3d6000fd5b5050505050612157612a0f565b73ffffffffffffffffffffffffffffffffffffffff166323b872dd3330846040518463ffffffff1660e01b8152600401808473ffffffffffffffffffffffffffffffffffffffff1673ffffffffffffffffffffffffffffffffffffffff1681526020018373ffffffffffffffffffffffffffffffffffffffff1673ffffffffffffffffffffffffffffffffffffffff1681526020018281526020019350505050602060405180830381600087803b15801561221157600080fd5b505af1158015612225573d6000803e3d6000fd5b505050506040513d602081101561223b57600080fd5b810190808051906020019092919050505050505050565b60066020528060005260406000206000915090505481565b600a5481565b606073__FactoryAddress________________________73ffffffffffffffffffffffffffffffffffffffff1663183cffb760016004546005546040518463ffffffff1660e01b815260040180841515151581526020018381526020018281526020019350505050600060405180830381600087803b1580156122f257600080fd5b505af1158015612306573d6000803e3d6000fd5b505050506040513d6000823e3d601f19601f82011682018060405250602081101561233057600080fd5b810190808051604051939291908464010000000082111561235057600080fd5b8382019150602082018581111561236657600080fd5b825186600182028301116401000000008211171561238357600080fd5b8083526020830192505050908051906020019080838360005b838110156123b757808201518184015260208101905061239c565b50505050905090810190601f1680156123e45780820380516001836020036101000a031916815260200191505b50604052505050905090565b60085481565b6000801515600360009054906101000a900460ff1615151461241757600080fd5b82600481905550816005819055506001600360006101000a81548160ff0219169083151502179055506001905092915050565b6000816000803373ffffffffffffffffffffffffffffffffffffffff1673ffffffffffffffffffffffffffffffffffffffff16815260200190815260200160002054101561249757600080fd5b816000803373ffffffffffffffffffffffffffffffffffffffff1673ffffffffffffffffffffffffffffffffffffffff16815260200190815260200160002060008282540392505081905550816000808573ffffffffffffffffffffffffffffffffffffffff1673ffffffffffffffffffffffffffffffffffffffff168152602001908152602001600020600082825401925050819055508273ffffffffffffffffffffffffffffffffffffffff163373ffffffffffffffffffffffffffffffffffffffff167fddf252ad1be2c89b69c2b068fc378daa952ba7f163c4a11628f55a4df523b3ef846040518082815260200191505060405180910390a36001905092915050565b60055481565b60095481565b6000816000803373ffffffffffffffffffffffffffffffffffffffff1673ffffffffffffffffffffffffffffffffffffffff168152602001908152602001600020541015801561260057506125fd612a2b565b42105b61260957600080fd5b816000803373ffffffffffffffffffffffffffffffffffffffff1673ffffffffffffffffffffffffffffffffffffffff16815260200190815260200160002060008282540392505081905550816002600082825403925050819055508160076000828254019250508190555061267d612a0f565b73ffffffffffffffffffffffffffffffffffffffff166323b872dd3330670de0b6b3a76400006005548702816126af57fe5b046040518463ffffffff1660e01b8152600401808473ffffffffffffffffffffffffffffffffffffffff1673ffffffffffffffffffffffffffffffffffffffff1681526020018373ffffffffffffffffffffffffffffffffffffffff1673ffffffffffffffffffffffffffffffffffffffff1681526020018281526020019350505050602060405180830381600087803b15801561274c57600080fd5b505af1158015612760573d6000803e3d6000fd5b505050506040513d602081101561277657600080fd5b8101908080519060200190929190505050503373ffffffffffffffffffffffffffffffffffffffff166108fc839081150290604051600060405180830381858888f193505050501580156127ce573d6000803e3d6000fd5b5060019050919050565b60006127e2612a2b565b42106127ed57600080fd5b34600260008282540192505081905550346000803373ffffffffffffffffffffffffffffffffffffffff1673ffffffffffffffffffffffffffffffffffffffff1681526020019081526020016000206000828254019250508190555034600660003373ffffffffffffffffffffffffffffffffffffffff1673ffffffffffffffffffffffffffffffffffffffff16815260200190815260200160002060008282540192505081905550346008600082825401925050819055506001905090565b60006128b98484611191565b5060008473ffffffffffffffffffffffffffffffffffffffff16836040518082805190602001908083835b6020831061290757805182526020820191506020810190506020830392506128e4565b6001836020036101000a0380198251168184511680821785525050505050509050019150506000604051808303816000865af19150503d8060008114612969576040519150601f19603f3d011682016040523d82523d6000602084013e61296e565b606091505b505090508080156129fa575083600160003373ffffffffffffffffffffffffffffffffffffffff1673ffffffffffffffffffffffffffffffffffffffff16815260200190815260200160002060008773ffffffffffffffffffffffffffffffffffffffff1673ffffffffffffffffffffffffffffffffffffffff16815260200190815260200160002054105b612a0357600080fd5b60019150509392505050565b600073__USD___________________________________905090565b6000600454905090565b6000600160008473ffffffffffffffffffffffffffffffffffffffff1673ffffffffffffffffffffffffffffffffffffffff16815260200190815260200160002060008373ffffffffffffffffffffffffffffffffffffffff1673ffffffffffffffffffffffffffffffffffffffff16815260200190815260200160002054905092915050565b6000612ac6612a2b565b4210612ad157600080fd5b34600260008282540192505081905550346000803273ffffffffffffffffffffffffffffffffffffffff1673ffffffffffffffffffffffffffffffffffffffff1681526020019081526020016000206000828254019250508190555034600660003273ffffffffffffffffffffffffffffffffffffffff1673ffffffffffffffffffffffffffffffffffffffff16815260200190815260200160002060008282540192505081905550346008600082825401925050819055506001905090565b600081600160003273ffffffffffffffffffffffffffffffffffffffff1673ffffffffffffffffffffffffffffffffffffffff16815260200190815260200160002060008573ffffffffffffffffffffffffffffffffffffffff1673ffffffffffffffffffffffffffffffffffffffff168152602001908152602001600020819055508273ffffffffffffffffffffffffffffffffffffffff163373ffffffffffffffffffffffffffffffffffffffff167f8c5be1e5ebec7d5bd14f71427d1e84f3dd0314c0f7b2291e5b200ac8c7c3b925846040518082815260200191505060405180910390a36001905092915050565b600081831015612c9557829050612c99565b8190505b9291505056fea265627a7a723158206928bc2c861095b47661ca9f77710bb3942c45e424047c820e78eda38f5ee5cc64736f6c63430005100032",
  "source": "pragma solidity ^0.5;\n\nimport \"./OptionToken.sol\";\n\n\ncontract ETHCallOptionToken is OptionToken {\n    function write() public payable returns (bool) {\n        require(now < settlementStart());\n        totalSupply += msg.value;\n        balances[msg.sender] += msg.value;\n        writers[msg.sender] += msg.value;\n        written += msg.value;\n        return true;\n    }\n\n    function writeAndApprove(address spender) public payable returns (bool) {\n        write();\n        approve(spender, msg.value);\n        return true;\n    }\n\n    function writeApproveAndCall(address to, bytes memory data) public payable returns (bool) {\n        write();\n        approveAndCall(to, msg.value, data);\n        return true;\n    }\n\n    function writeAsOrigin() public payable returns (bool) {\n        require(now < settlementStart());\n        totalSupply += msg.value;\n        balances[tx.origin] += msg.value;\n        writers[tx.origin] += msg.value;\n        written += msg.value;\n        return true;\n    }\n\n    function writeAndApproveAsOrigin(address to) public payable returns (bool) {\n        writeAsOrigin();\n        approveAsOrigin(to, msg.value);\n        return true;\n    }\n\n    function writeApproveAndCallAsOrigin(address to, bytes memory data) public payable returns (bool) {\n        writeAndApproveAsOrigin(to);\n        (bool result,) = to.call(data);\n        require(result && allowed[tx.origin][to] < msg.value);\n        return true;\n    }\n\n    function close(uint256 amount) public returns (bool) {\n        require(now < settlementStart());\n        require(balances[msg.sender] >= amount && writers[msg.sender] >= amount);\n        balances[msg.sender] -= amount;\n        writers[msg.sender] -= amount;\n        written -= amount;\n        totalSupply -= amount;\n        msg.sender.transfer(amount);\n        return true;\n    }\n\n    function exercise(uint256 amount) public returns (bool) {\n        require(balances[msg.sender] >= amount && now < settlementStart());\n        balances[msg.sender] -= amount;\n        totalSupply -= amount;\n        exercised += amount;\n        usd().transferFrom(msg.sender, address(this), amount * strike / 1 ether);\n        msg.sender.transfer(amount);\n        return true;\n    }\n\n    /** Settlement Functions\n\n        auctionPrice(), settle(), and finishSettlement() are responsible for allowing\n        settlement contracts to capitalize on the arbitrage opportunity provided in\n        the reverse dutch auction.\n     */\n\n    function settle(uint256 quantity) public {\n        quantity = min(totalSupply - settled, quantity);\n        uint256 price = auctionPrice();\n        uint256 giving = quantity * price / 1 ether;\n        exercised += quantity;\n        settled += quantity;\n        Auction(msg.sender).receiveETH.value(quantity)(giving);\n        usd().transferFrom(msg.sender, address(this), giving);\n    }\n\n    // returns price in USD for one ETH\n    function auctionPrice() public view returns (uint256) {\n        require(now > settlementStart() && now < settlementEnd());\n        uint256 elapsed = now - settlementStart();\n        uint256 e = edge(msg.sender);\n        return ((1 ether - e) * strike * SETTLEMENT_DURATION) / (1 ether * elapsed) + e * strike / 1 ether;\n    }\n\n\n    /** Allows the holder of an option-token to claim automatically exercised funds\n        afte settlement has ended.\n     */\n    function liquidate() public returns (bool) {\n        require(now > settlementEnd());\n        // writers are guaranteed the strike price of their options\n        uint256 writerSettlement = (exercised - assigned) * strike / 1 ether;\n        uint256 holderSettlement = usd().balanceOf(address(this)) - writerSettlement;\n        uint256 settlement = balances[msg.sender] * holderSettlement / totalSupply;\n        totalSupply -= balances[msg.sender];\n        balances[msg.sender] = 0;\n        usd().transfer(msg.sender, settlement);\n        return true;\n    }\n\n    /** Allows the writer of an option token to claim their collateral and/or assignment\n        after settlement has eneded.\n     */\n    function assignment() public returns (bool) {\n        require(now > settlementEnd());\n        uint256 writerSettlementUSD = (exercised - assigned) * strike / 1 ether;\n        uint256 redeemUSD = writers[msg.sender] * writerSettlementUSD / written;\n        uint256 redeemETH = writers[msg.sender] * address(this).balance / written;\n        written -= writers[msg.sender];\n        assigned += writers[msg.sender];\n        writers[msg.sender] = 0;\n        msg.sender.transfer(redeemETH);\n        usd().transfer(msg.sender, redeemUSD);\n        return true;\n    }\n\n    function name() public returns (string memory) {\n        return Factory(address(FactoryAddress)).getTokenName(true, expiration, strike);\n    }\n\n    function symbol() public returns (string memory) {\n        return Factory(address(FactoryAddress)).getTokenSymbol(true, expiration, strike);\n    }\n}",
  "sourcePath": "/Users/brianwheeler/optimum/protocol/contracts/ETHCallOptionToken.sol",
  "compiler": {
    "name": "solc",
    "version": "0.5.16+commit.9c3226ce.Emscripten.clang"
  },
  "schemaVersion": "3.0.23",
  "updatedAt": "2020-04-01T20:35:54.880Z",
  "devdoc": {
    "methods": {}
  },
  "userdoc": {
    "methods": {
      "assignment()": {
        "notice": "Allows the writer of an option token to claim their collateral and/or assignment after settlement has eneded."
      },
      "liquidate()": {
        "notice": "Allows the holder of an option-token to claim automatically exercised funds afte settlement has ended."
      },
      "settle(uint256)": {
        "notice": "Settlement Functions auctionPrice(), settle(), and finishSettlement() are responsible for allowing settlement contracts to capitalize on the arbitrage opportunity provided in the reverse dutch auction."
      }
    }
  }
}