{
  "contractName": "ETHCallOptionToken",
  "abi": [
    {
      "anonymous": false,
      "inputs": [
        {
          "indexed": true,
          "internalType": "address",
          "name": "_owner",
          "type": "address"
        },
        {
          "indexed": true,
          "internalType": "address",
          "name": "_spender",
          "type": "address"
        },
        {
          "indexed": false,
          "internalType": "uint256",
          "name": "_value",
          "type": "uint256"
        }
      ],
      "name": "Approval",
      "type": "event"
    },
    {
      "anonymous": false,
      "inputs": [
        {
          "indexed": false,
          "internalType": "address",
          "name": "creator",
          "type": "address"
        },
        {
          "indexed": false,
          "internalType": "uint256",
          "name": "supply",
          "type": "uint256"
        }
      ],
      "name": "Created",
      "type": "event"
    },
    {
      "anonymous": false,
      "inputs": [
        {
          "indexed": true,
          "internalType": "address",
          "name": "_from",
          "type": "address"
        },
        {
          "indexed": true,
          "internalType": "address",
          "name": "_to",
          "type": "address"
        },
        {
          "indexed": false,
          "internalType": "uint256",
          "name": "_value",
          "type": "uint256"
        }
      ],
      "name": "Transfer",
      "type": "event"
    },
    {
      "constant": true,
      "inputs": [],
      "name": "MAX_UINT256",
      "outputs": [
        {
          "internalType": "uint256",
          "name": "",
          "type": "uint256"
        }
      ],
      "payable": false,
      "stateMutability": "view",
      "type": "function"
    },
    {
      "constant": true,
      "inputs": [],
      "name": "SETTLEMENT_DURATION",
      "outputs": [
        {
          "internalType": "uint256",
          "name": "",
          "type": "uint256"
        }
      ],
      "payable": false,
      "stateMutability": "view",
      "type": "function"
    },
    {
      "constant": true,
      "inputs": [
        {
          "internalType": "address",
          "name": "_owner",
          "type": "address"
        },
        {
          "internalType": "address",
          "name": "_spender",
          "type": "address"
        }
      ],
      "name": "allowance",
      "outputs": [
        {
          "internalType": "uint256",
          "name": "remaining",
          "type": "uint256"
        }
      ],
      "payable": false,
      "stateMutability": "view",
      "type": "function"
    },
    {
      "constant": true,
      "inputs": [
        {
          "internalType": "address",
          "name": "",
          "type": "address"
        },
        {
          "internalType": "address",
          "name": "",
          "type": "address"
        }
      ],
      "name": "allowed",
      "outputs": [
        {
          "internalType": "uint256",
          "name": "",
          "type": "uint256"
        }
      ],
      "payable": false,
      "stateMutability": "view",
      "type": "function"
    },
    {
      "constant": false,
      "inputs": [
        {
          "internalType": "address",
          "name": "_spender",
          "type": "address"
        },
        {
          "internalType": "uint256",
          "name": "_value",
          "type": "uint256"
        }
      ],
      "name": "approve",
      "outputs": [
        {
          "internalType": "bool",
          "name": "success",
          "type": "bool"
        }
      ],
      "payable": false,
      "stateMutability": "nonpayable",
      "type": "function"
    },
    {
      "constant": true,
      "inputs": [
        {
          "internalType": "address",
          "name": "_owner",
          "type": "address"
        }
      ],
      "name": "balanceOf",
      "outputs": [
        {
          "internalType": "uint256",
          "name": "balance",
          "type": "uint256"
        }
      ],
      "payable": false,
      "stateMutability": "view",
      "type": "function"
    },
    {
      "constant": true,
      "inputs": [
        {
          "internalType": "address",
          "name": "",
          "type": "address"
        }
      ],
      "name": "balances",
      "outputs": [
        {
          "internalType": "uint256",
          "name": "",
          "type": "uint256"
        }
      ],
      "payable": false,
      "stateMutability": "view",
      "type": "function"
    },
    {
      "constant": true,
      "inputs": [],
      "name": "decimals",
      "outputs": [
        {
          "internalType": "uint8",
          "name": "",
          "type": "uint8"
        }
      ],
      "payable": false,
      "stateMutability": "view",
      "type": "function"
    },
    {
      "constant": true,
      "inputs": [],
      "name": "dsf",
      "outputs": [
        {
          "internalType": "contract ERC20",
          "name": "",
          "type": "address"
        }
      ],
      "payable": false,
      "stateMutability": "view",
      "type": "function"
    },
    {
      "constant": true,
      "inputs": [],
      "name": "expiration",
      "outputs": [
        {
          "internalType": "uint256",
          "name": "",
          "type": "uint256"
        }
      ],
      "payable": false,
      "stateMutability": "view",
      "type": "function"
    },
    {
      "constant": true,
      "inputs": [],
      "name": "initialized",
      "outputs": [
        {
          "internalType": "bool",
          "name": "",
          "type": "bool"
        }
      ],
      "payable": false,
      "stateMutability": "view",
      "type": "function"
    },
    {
      "constant": true,
      "inputs": [],
      "name": "liquidated",
      "outputs": [
        {
          "internalType": "uint256",
          "name": "",
          "type": "uint256"
        }
      ],
      "payable": false,
      "stateMutability": "view",
      "type": "function"
    },
    {
      "constant": true,
      "inputs": [
        {
          "internalType": "uint256",
          "name": "x",
          "type": "uint256"
        }
      ],
      "name": "ln",
      "outputs": [
        {
          "internalType": "uint256",
          "name": "log",
          "type": "uint256"
        }
      ],
      "payable": false,
      "stateMutability": "pure",
      "type": "function"
    },
    {
      "constant": true,
      "inputs": [],
      "name": "name",
      "outputs": [
        {
          "internalType": "string",
          "name": "",
          "type": "string"
        }
      ],
      "payable": false,
      "stateMutability": "view",
      "type": "function"
    },
    {
      "constant": true,
      "inputs": [],
      "name": "redeemed",
      "outputs": [
        {
          "internalType": "uint256",
          "name": "",
          "type": "uint256"
        }
      ],
      "payable": false,
      "stateMutability": "view",
      "type": "function"
    },
    {
      "constant": true,
      "inputs": [],
      "name": "strike",
      "outputs": [
        {
          "internalType": "uint256",
          "name": "",
          "type": "uint256"
        }
      ],
      "payable": false,
      "stateMutability": "view",
      "type": "function"
    },
    {
      "constant": true,
      "inputs": [],
      "name": "symbol",
      "outputs": [
        {
          "internalType": "string",
          "name": "",
          "type": "string"
        }
      ],
      "payable": false,
      "stateMutability": "view",
      "type": "function"
    },
    {
      "constant": true,
      "inputs": [],
      "name": "totalSupply",
      "outputs": [
        {
          "internalType": "uint256",
          "name": "",
          "type": "uint256"
        }
      ],
      "payable": false,
      "stateMutability": "view",
      "type": "function"
    },
    {
      "constant": false,
      "inputs": [
        {
          "internalType": "address",
          "name": "_to",
          "type": "address"
        },
        {
          "internalType": "uint256",
          "name": "_value",
          "type": "uint256"
        }
      ],
      "name": "transfer",
      "outputs": [
        {
          "internalType": "bool",
          "name": "success",
          "type": "bool"
        }
      ],
      "payable": false,
      "stateMutability": "nonpayable",
      "type": "function"
    },
    {
      "constant": false,
      "inputs": [
        {
          "internalType": "address",
          "name": "_from",
          "type": "address"
        },
        {
          "internalType": "address",
          "name": "_to",
          "type": "address"
        },
        {
          "internalType": "uint256",
          "name": "_value",
          "type": "uint256"
        }
      ],
      "name": "transferFrom",
      "outputs": [
        {
          "internalType": "bool",
          "name": "success",
          "type": "bool"
        }
      ],
      "payable": false,
      "stateMutability": "nonpayable",
      "type": "function"
    },
    {
      "constant": false,
      "inputs": [
        {
          "internalType": "address",
          "name": "_to",
          "type": "address"
        },
        {
          "internalType": "uint256",
          "name": "_value",
          "type": "uint256"
        },
        {
          "internalType": "bytes",
          "name": "data",
          "type": "bytes"
        }
      ],
      "name": "transferToContract",
      "outputs": [
        {
          "internalType": "bool",
          "name": "",
          "type": "bool"
        }
      ],
      "payable": false,
      "stateMutability": "nonpayable",
      "type": "function"
    },
    {
      "constant": true,
      "inputs": [],
      "name": "usd",
      "outputs": [
        {
          "internalType": "contract ERC20",
          "name": "",
          "type": "address"
        }
      ],
      "payable": false,
      "stateMutability": "view",
      "type": "function"
    },
    {
      "constant": true,
      "inputs": [
        {
          "internalType": "address",
          "name": "",
          "type": "address"
        }
      ],
      "name": "writers",
      "outputs": [
        {
          "internalType": "uint256",
          "name": "",
          "type": "uint256"
        }
      ],
      "payable": false,
      "stateMutability": "view",
      "type": "function"
    },
    {
      "constant": true,
      "inputs": [],
      "name": "written",
      "outputs": [
        {
          "internalType": "uint256",
          "name": "",
          "type": "uint256"
        }
      ],
      "payable": false,
      "stateMutability": "view",
      "type": "function"
    },
    {
      "constant": false,
      "inputs": [
        {
          "internalType": "string",
          "name": "_name",
          "type": "string"
        },
        {
          "internalType": "string",
          "name": "_symbol",
          "type": "string"
        },
        {
          "internalType": "uint256",
          "name": "_expiration",
          "type": "uint256"
        },
        {
          "internalType": "uint256",
          "name": "_strike",
          "type": "uint256"
        }
      ],
      "name": "init",
      "outputs": [
        {
          "internalType": "bool",
          "name": "",
          "type": "bool"
        }
      ],
      "payable": false,
      "stateMutability": "nonpayable",
      "type": "function"
    },
    {
      "constant": false,
      "inputs": [],
      "name": "write",
      "outputs": [
        {
          "internalType": "bool",
          "name": "",
          "type": "bool"
        }
      ],
      "payable": true,
      "stateMutability": "payable",
      "type": "function"
    },
    {
      "constant": false,
      "inputs": [
        {
          "internalType": "address",
          "name": "to",
          "type": "address"
        },
        {
          "internalType": "bytes",
          "name": "data",
          "type": "bytes"
        }
      ],
      "name": "writeApproveAndCall",
      "outputs": [
        {
          "internalType": "bool",
          "name": "",
          "type": "bool"
        }
      ],
      "payable": true,
      "stateMutability": "payable",
      "type": "function"
    },
    {
      "constant": false,
      "inputs": [
        {
          "internalType": "uint256",
          "name": "amount",
          "type": "uint256"
        }
      ],
      "name": "close",
      "outputs": [
        {
          "internalType": "bool",
          "name": "",
          "type": "bool"
        }
      ],
      "payable": false,
      "stateMutability": "nonpayable",
      "type": "function"
    },
    {
      "constant": false,
      "inputs": [
        {
          "internalType": "uint256",
          "name": "amount",
          "type": "uint256"
        }
      ],
      "name": "exercise",
      "outputs": [
        {
          "internalType": "bool",
          "name": "",
          "type": "bool"
        }
      ],
      "payable": false,
      "stateMutability": "nonpayable",
      "type": "function"
    },
    {
      "constant": false,
      "inputs": [
        {
          "internalType": "uint256",
          "name": "quantity",
          "type": "uint256"
        }
      ],
      "name": "liquidate",
      "outputs": [],
      "payable": false,
      "stateMutability": "nonpayable",
      "type": "function"
    },
    {
      "constant": false,
      "inputs": [],
      "name": "settle",
      "outputs": [
        {
          "internalType": "bool",
          "name": "",
          "type": "bool"
        }
      ],
      "payable": false,
      "stateMutability": "nonpayable",
      "type": "function"
    },
    {
      "constant": false,
      "inputs": [],
      "name": "redeem",
      "outputs": [
        {
          "internalType": "bool",
          "name": "",
          "type": "bool"
        }
      ],
      "payable": false,
      "stateMutability": "nonpayable",
      "type": "function"
    }
  ],
  "bytecode": "0x608060405234801561001057600080fd5b50612b30806100206000396000f3fe6080604052600436106101e35760003560e01c806350b72eb311610102578063a9059cbb11610095578063be040fb011610064578063be040fb014610d22578063d63a6ccd14610d51578063dd62ed3e14610da8578063e231bff014610e2d576101e3565b8063a9059cbb14610c0f578063ad8f500814610c82578063b07f0a4114610cad578063bcb4ab0e14610d00576101e3565b806387c80464116100d157806387c80464146109645780638e7e80a214610aef57806395d89b4114610b54578063a47b328914610be4576101e3565b806350b72eb3146107f85780635c658165146108235780636664eb16146108a857806370a08231146108ff576101e3565b806324d4e90a1161017a5780633f35d033116101495780633f35d03314610595578063415f12401461069f5780634665096d146106da57806348f4c57414610705576101e3565b806324d4e90a1461048557806327e235e3146104d4578063313ce5671461053957806333a581d21461056a576101e3565b8063158ef93e116101b6578063158ef93e1461036d57806318160ddd1461039c57806323b872dd146103c757806323b98cde1461045a576101e3565b806306fdde03146101e8578063095ea7b3146102785780630aebeb4e146102eb57806311da60b41461033e575b600080fd5b3480156101f457600080fd5b506101fd610e58565b6040518080602001828103825283818151815260200191508051906020019080838360005b8381101561023d578082015181840152602081019050610222565b50505050905090810190601f16801561026a5780820380516001836020036101000a031916815260200191505b509250505060405180910390f35b34801561028457600080fd5b506102d16004803603604081101561029b57600080fd5b81019080803573ffffffffffffffffffffffffffffffffffffffff16906020019092919080359060200190929190505050610ef6565b604051808215151515815260200191505060405180910390f35b3480156102f757600080fd5b506103246004803603602081101561030e57600080fd5b8101908080359060200190929190505050610fe8565b604051808215151515815260200191505060405180910390f35b34801561034a57600080fd5b50610353611187565b604051808215151515815260200191505060405180910390f35b34801561037957600080fd5b50610382611483565b604051808215151515815260200191505060405180910390f35b3480156103a857600080fd5b506103b1611496565b6040518082815260200191505060405180910390f35b3480156103d357600080fd5b50610440600480360360608110156103ea57600080fd5b81019080803573ffffffffffffffffffffffffffffffffffffffff169060200190929190803573ffffffffffffffffffffffffffffffffffffffff1690602001909291908035906020019092919050505061149c565b604051808215151515815260200191505060405180910390f35b34801561046657600080fd5b5061046f61165a565b6040518082815260200191505060405180910390f35b34801561049157600080fd5b506104be600480360360208110156104a857600080fd5b8101908080359060200190929190505050611660565b6040518082815260200191505060405180910390f35b3480156104e057600080fd5b50610523600480360360208110156104f757600080fd5b81019080803573ffffffffffffffffffffffffffffffffffffffff169060200190929190505050611736565b6040518082815260200191505060405180910390f35b34801561054557600080fd5b5061054e61174e565b604051808260ff1660ff16815260200191505060405180910390f35b34801561057657600080fd5b5061057f611753565b6040518082815260200191505060405180910390f35b3480156105a157600080fd5b50610685600480360360608110156105b857600080fd5b81019080803573ffffffffffffffffffffffffffffffffffffffff16906020019092919080359060200190929190803590602001906401000000008111156105ff57600080fd5b82018360208201111561061157600080fd5b8035906020019184600183028401116401000000008311171561063357600080fd5b91908080601f016020809104026020016040519081016040528093929190818152602001838380828437600081840152601f19601f820116905080830192505050505050509192919290505050611777565b604051808215151515815260200191505060405180910390f35b3480156106ab57600080fd5b506106d8600480360360208110156106c257600080fd5b81019080803590602001909291905050506119c4565b005b3480156106e657600080fd5b506106ef611e02565b6040518082815260200191505060405180910390f35b6107de6004803603604081101561071b57600080fd5b81019080803573ffffffffffffffffffffffffffffffffffffffff1690602001909291908035906020019064010000000081111561075857600080fd5b82018360208201111561076a57600080fd5b8035906020019184600183028401116401000000008311171561078c57600080fd5b91908080601f016020809104026020016040519081016040528093929190818152602001838380828437600081840152601f19601f820116905080830192505050505050509192919290505050611e08565b604051808215151515815260200191505060405180910390f35b34801561080457600080fd5b5061080d611fc5565b6040518082815260200191505060405180910390f35b34801561082f57600080fd5b506108926004803603604081101561084657600080fd5b81019080803573ffffffffffffffffffffffffffffffffffffffff169060200190929190803573ffffffffffffffffffffffffffffffffffffffff169060200190929190505050611fcb565b6040518082815260200191505060405180910390f35b3480156108b457600080fd5b506108bd611ff0565b604051808273ffffffffffffffffffffffffffffffffffffffff1673ffffffffffffffffffffffffffffffffffffffff16815260200191505060405180910390f35b34801561090b57600080fd5b5061094e6004803603602081101561092257600080fd5b81019080803573ffffffffffffffffffffffffffffffffffffffff169060200190929190505050612016565b6040518082815260200191505060405180910390f35b34801561097057600080fd5b50610ad56004803603608081101561098757600080fd5b81019080803590602001906401000000008111156109a457600080fd5b8201836020820111156109b657600080fd5b803590602001918460018302840111640100000000831117156109d857600080fd5b91908080601f016020809104026020016040519081016040528093929190818152602001838380828437600081840152601f19601f82011690508083019250505050505050919291929080359060200190640100000000811115610a3b57600080fd5b820183602082011115610a4d57600080fd5b80359060200191846001830284011164010000000083111715610a6f57600080fd5b91908080601f016020809104026020016040519081016040528093929190818152602001838380828437600081840152601f19601f820116905080830192505050505050509192919290803590602001909291908035906020019092919050505061205e565b604051808215151515815260200191505060405180910390f35b348015610afb57600080fd5b50610b3e60048036036020811015610b1257600080fd5b81019080803573ffffffffffffffffffffffffffffffffffffffff16906020019092919050505061218c565b6040518082815260200191505060405180910390f35b348015610b6057600080fd5b50610b696121a4565b6040518080602001828103825283818151815260200191508051906020019080838360005b83811015610ba9578082015181840152602081019050610b8e565b50505050905090810190601f168015610bd65780820380516001836020036101000a031916815260200191505b509250505060405180910390f35b348015610bf057600080fd5b50610bf9612242565b6040518082815260200191505060405180910390f35b348015610c1b57600080fd5b50610c6860048036036040811015610c3257600080fd5b81019080803573ffffffffffffffffffffffffffffffffffffffff16906020019092919080359060200190929190505050612248565b604051808215151515815260200191505060405180910390f35b348015610c8e57600080fd5b50610c976122c4565b6040518082815260200191505060405180910390f35b348015610cb957600080fd5b50610ce660048036036020811015610cd057600080fd5b81019080803590602001909291905050506122ca565b604051808215151515815260200191505060405180910390f35b610d08612502565b604051808215151515815260200191505060405180910390f35b348015610d2e57600080fd5b50610d376125c4565b604051808215151515815260200191505060405180910390f35b348015610d5d57600080fd5b50610d66612897565b604051808273ffffffffffffffffffffffffffffffffffffffff1673ffffffffffffffffffffffffffffffffffffffff16815260200191505060405180910390f35b348015610db457600080fd5b50610e1760048036036040811015610dcb57600080fd5b81019080803573ffffffffffffffffffffffffffffffffffffffff169060200190929190803573ffffffffffffffffffffffffffffffffffffffff1690602001909291905050506128bd565b6040518082815260200191505060405180910390f35b348015610e3957600080fd5b50610e42612944565b6040518082815260200191505060405180910390f35b60028054600181600116156101000203166002900480601f016020809104026020016040519081016040528092919081815260200182805460018160011615610100020316600290048015610eee5780601f10610ec357610100808354040283529160200191610eee565b820191906000526020600020905b815481529060010190602001808311610ed157829003601f168201915b505050505081565b600081600160003373ffffffffffffffffffffffffffffffffffffffff1673ffffffffffffffffffffffffffffffffffffffff16815260200190815260200160002060008573ffffffffffffffffffffffffffffffffffffffff1673ffffffffffffffffffffffffffffffffffffffff168152602001908152602001600020819055508273ffffffffffffffffffffffffffffffffffffffff163373ffffffffffffffffffffffffffffffffffffffff167f8c5be1e5ebec7d5bd14f71427d1e84f3dd0314c0f7b2291e5b200ac8c7c3b925846040518082815260200191505060405180910390a36001905092915050565b60006006544210610ff857600080fd5b816000803373ffffffffffffffffffffffffffffffffffffffff1673ffffffffffffffffffffffffffffffffffffffff1681526020019081526020016000205410158015611085575081600860003373ffffffffffffffffffffffffffffffffffffffff1673ffffffffffffffffffffffffffffffffffffffff1681526020019081526020016000205410155b61108e57600080fd5b816000803373ffffffffffffffffffffffffffffffffffffffff1673ffffffffffffffffffffffffffffffffffffffff1681526020019081526020016000206000828254039250508190555081600860003373ffffffffffffffffffffffffffffffffffffffff1673ffffffffffffffffffffffffffffffffffffffff1681526020019081526020016000206000828254039250508190555081600a600082825403925050819055503373ffffffffffffffffffffffffffffffffffffffff166108fc839081150290604051600060405180830381858888f1935050505015801561117d573d6000803e3d6000fd5b5060019050919050565b6000600654421161119757600080fd5b6000670de0b6b3a7640000600754600b546009540302816111b457fe5b049050600081600c60009054906101000a900473ffffffffffffffffffffffffffffffffffffffff1673ffffffffffffffffffffffffffffffffffffffff166370a08231306040518263ffffffff1660e01b8152600401808273ffffffffffffffffffffffffffffffffffffffff1673ffffffffffffffffffffffffffffffffffffffff16815260200191505060206040518083038186803b15801561125957600080fd5b505afa15801561126d573d6000803e3d6000fd5b505050506040513d602081101561128357600080fd5b81019080805190602001909291905050500390506000670de0b6b3a764000082600454670de0b6b3a76400006000803373ffffffffffffffffffffffffffffffffffffffff1673ffffffffffffffffffffffffffffffffffffffff1681526020019081526020016000205402816112f657fe5b0402816112ff57fe5b0490506000803373ffffffffffffffffffffffffffffffffffffffff1673ffffffffffffffffffffffffffffffffffffffff1681526020019081526020016000205460046000828254039250508190555060008060003373ffffffffffffffffffffffffffffffffffffffff1673ffffffffffffffffffffffffffffffffffffffff16815260200190815260200160002081905550600c60009054906101000a900473ffffffffffffffffffffffffffffffffffffffff1673ffffffffffffffffffffffffffffffffffffffff1663a9059cbb33836040518363ffffffff1660e01b8152600401808373ffffffffffffffffffffffffffffffffffffffff1673ffffffffffffffffffffffffffffffffffffffff16815260200182815260200192505050602060405180830381600087803b15801561143d57600080fd5b505af1158015611451573d6000803e3d6000fd5b505050506040513d602081101561146757600080fd5b8101908080519060200190929190505050506001935050505090565b600560009054906101000a900460ff1681565b60045481565b600080600160008673ffffffffffffffffffffffffffffffffffffffff1673ffffffffffffffffffffffffffffffffffffffff16815260200190815260200160002060003373ffffffffffffffffffffffffffffffffffffffff1673ffffffffffffffffffffffffffffffffffffffff1681526020019081526020016000205490508281101561152b57600080fd5b61153685858561294a565b7fffffffffffffffffffffffffffffffffffffffffffffffffffffffffffffffff8110156115e95782600160008773ffffffffffffffffffffffffffffffffffffffff1673ffffffffffffffffffffffffffffffffffffffff16815260200190815260200160002060003373ffffffffffffffffffffffffffffffffffffffff1673ffffffffffffffffffffffffffffffffffffffff168152602001908152602001600020600082825403925050819055505b8373ffffffffffffffffffffffffffffffffffffffff168573ffffffffffffffffffffffffffffffffffffffff167fddf252ad1be2c89b69c2b068fc378daa952ba7f163c4a11628f55a4df523b3ef856040518082815260200191505060405180910390a360019150509392505050565b60095481565b6000809050670de0b6b3a764000082101561167e5760009050611731565b5b6714d1120d7b16000082106116b0576705a08044edda900081019050600360028302816116a857fe5b04915061167f565b670de0b6b3a76400008203915060008290506000600190505b600a81101561172b578082816116db57fe5b0483019250600181019050670de0b6b3a7640000848302816116f957fe5b04915080828161170557fe5b0483039250600181019050670de0b6b3a76400008483028161172357fe5b0491506116c9565b82925050505b919050565b60006020528060005260406000206000915090505481565b601281565b7fffffffffffffffffffffffffffffffffffffffffffffffffffffffffffffffff81565b600061178433858561294a565b60006040518080612ad86024913960240190506040518091039020905060008573ffffffffffffffffffffffffffffffffffffffff168233878760405160200180857bffffffffffffffffffffffffffffffffffffffffffffffffffffffff19167bffffffffffffffffffffffffffffffffffffffffffffffffffffffff191681526004018473ffffffffffffffffffffffffffffffffffffffff1673ffffffffffffffffffffffffffffffffffffffff1660601b815260140183815260200182805190602001908083835b602083106118735780518252602082019150602081019050602083039250611850565b6001836020036101000a0380198251168184511680821785525050505050509050019450505050506040516020818303038152906040526040518082805190602001908083835b602083106118dd57805182526020820191506020810190506020830392506118ba565b6001836020036101000a0380198251168184511680821785525050505050509050019150506000604051808303816000865af19150503d806000811461193f576040519150601f19603f3d011682016040523d82523d6000602084013e611944565b606091505b505090508061195257600080fd5b8573ffffffffffffffffffffffffffffffffffffffff163373ffffffffffffffffffffffffffffffffffffffff167fddf252ad1be2c89b69c2b068fc378daa952ba7f163c4a11628f55a4df523b3ef876040518082815260200191505060405180910390a36001925050509392505050565b600061a8c060065403905060008160065403905060008161a8c060075402816119e957fe5b049050600654421080156119fc57508242115b8015611a0a57506007548110155b611a1357600080fd5b6000670de0b6b3a764000082860281611a2857fe5b04905080600c60009054906101000a900473ffffffffffffffffffffffffffffffffffffffff1673ffffffffffffffffffffffffffffffffffffffff166370a08231336040518263ffffffff1660e01b8152600401808273ffffffffffffffffffffffffffffffffffffffff1673ffffffffffffffffffffffffffffffffffffffff16815260200191505060206040518083038186803b158015611acb57600080fd5b505afa158015611adf573d6000803e3d6000fd5b505050506040513d6020811015611af557600080fd5b810190808051906020019092919050505010611c7057600c60009054906101000a900473ffffffffffffffffffffffffffffffffffffffff1673ffffffffffffffffffffffffffffffffffffffff166323b872dd3330846040518463ffffffff1660e01b8152600401808473ffffffffffffffffffffffffffffffffffffffff1673ffffffffffffffffffffffffffffffffffffffff1681526020018373ffffffffffffffffffffffffffffffffffffffff1673ffffffffffffffffffffffffffffffffffffffff1681526020018281526020019350505050602060405180830381600087803b158015611be857600080fd5b505af1158015611bfc573d6000803e3d6000fd5b505050506040513d6020811015611c1257600080fd5b8101908080519060200190929190505050503373ffffffffffffffffffffffffffffffffffffffff166108fc869081150290604051600060405180830381858888f19350505050158015611c6a573d6000803e3d6000fd5b50611deb565b3373ffffffffffffffffffffffffffffffffffffffff16633ecfd51e866040518263ffffffff1660e01b81526004016000604051808303818588803b158015611cb857600080fd5b505af1158015611ccc573d6000803e3d6000fd5b5050505050600c60009054906101000a900473ffffffffffffffffffffffffffffffffffffffff1673ffffffffffffffffffffffffffffffffffffffff166323b872dd3330846040518463ffffffff1660e01b8152600401808473ffffffffffffffffffffffffffffffffffffffff1673ffffffffffffffffffffffffffffffffffffffff1681526020018373ffffffffffffffffffffffffffffffffffffffff1673ffffffffffffffffffffffffffffffffffffffff1681526020018281526020019350505050602060405180830381600087803b158015611dae57600080fd5b505af1158015611dc2573d6000803e3d6000fd5b505050506040513d6020811015611dd857600080fd5b8101908080519060200190929190505050505b846009600082825401925050819055505050505050565b60065481565b60003460046000828254019250508190555034600860003373ffffffffffffffffffffffffffffffffffffffff1673ffffffffffffffffffffffffffffffffffffffff1681526020019081526020016000206000828254019250508190555034600a6000828254019250508190555034600160003373ffffffffffffffffffffffffffffffffffffffff1673ffffffffffffffffffffffffffffffffffffffff16815260200190815260200160002060008573ffffffffffffffffffffffffffffffffffffffff1673ffffffffffffffffffffffffffffffffffffffff1681526020019081526020016000208190555060008373ffffffffffffffffffffffffffffffffffffffff16836040518082805190602001908083835b60208310611f455780518252602082019150602081019050602083039250611f22565b6001836020036101000a0380198251168184511680821785525050505050509050019150506000604051808303816000865af19150503d8060008114611fa7576040519150601f19603f3d011682016040523d82523d6000602084013e611fac565b606091505b5050905080611fba57600080fd5b600191505092915050565b61a8c081565b6001602052816000526040600020602052806000526040600020600091509150505481565b600d60009054906101000a900473ffffffffffffffffffffffffffffffffffffffff1681565b60008060008373ffffffffffffffffffffffffffffffffffffffff1673ffffffffffffffffffffffffffffffffffffffff168152602001908152602001600020549050919050565b6000801515600560009054906101000a900460ff1615151461207f57600080fd5b734f678cebfe01cf0a111600b3d0afc27885aa578d600c60006101000a81548173ffffffffffffffffffffffffffffffffffffffff021916908373ffffffffffffffffffffffffffffffffffffffff160217905550739f4ca569de4c030a0affdfb321cc553e1426a1bf600d60006101000a81548173ffffffffffffffffffffffffffffffffffffffff021916908373ffffffffffffffffffffffffffffffffffffffff160217905550846002908051906020019061213f929190612a32565b508360039080519060200190612156929190612a32565b5082600681905550816007819055506001600560006101000a81548160ff02191690831515021790555060019050949350505050565b60086020528060005260406000206000915090505481565b60038054600181600116156101000203166002900480601f01602080910402602001604051908101604052809291908181526020018280546001816001161561010002031660029004801561223a5780601f1061220f5761010080835404028352916020019161223a565b820191906000526020600020905b81548152906001019060200180831161221d57829003601f168201915b505050505081565b600a5481565b600061225533848461294a565b8273ffffffffffffffffffffffffffffffffffffffff163373ffffffffffffffffffffffffffffffffffffffff167fddf252ad1be2c89b69c2b068fc378daa952ba7f163c4a11628f55a4df523b3ef846040518082815260200191505060405180910390a36001905092915050565b60075481565b6000816000803373ffffffffffffffffffffffffffffffffffffffff1673ffffffffffffffffffffffffffffffffffffffff168152602001908152602001600020541015801561231f575061a8c06006540342105b61232857600080fd5b816000803373ffffffffffffffffffffffffffffffffffffffff1673ffffffffffffffffffffffffffffffffffffffff1681526020019081526020016000206000828254039250508190555081600460008282540392505081905550600c60009054906101000a900473ffffffffffffffffffffffffffffffffffffffff1673ffffffffffffffffffffffffffffffffffffffff166323b872dd3330670de0b6b3a76400006007548702816123d957fe5b046040518463ffffffff1660e01b8152600401808473ffffffffffffffffffffffffffffffffffffffff1673ffffffffffffffffffffffffffffffffffffffff1681526020018373ffffffffffffffffffffffffffffffffffffffff1673ffffffffffffffffffffffffffffffffffffffff1681526020018281526020019350505050602060405180830381600087803b15801561247657600080fd5b505af115801561248a573d6000803e3d6000fd5b505050506040513d60208110156124a057600080fd5b8101908080519060200190929190505050503373ffffffffffffffffffffffffffffffffffffffff166108fc839081150290604051600060405180830381858888f193505050501580156124f8573d6000803e3d6000fd5b5060019050919050565b600034600460008282540192505081905550346000803373ffffffffffffffffffffffffffffffffffffffff1673ffffffffffffffffffffffffffffffffffffffff1681526020019081526020016000206000828254019250508190555034600860003373ffffffffffffffffffffffffffffffffffffffff1673ffffffffffffffffffffffffffffffffffffffff1681526020019081526020016000206000828254019250508190555034600a600082825401925050819055506001905090565b600060065442116125d457600080fd5b6000670de0b6b3a7640000600754600b546009540302816125f157fe5b0490506000600a54670de0b6b3a7640000600860003373ffffffffffffffffffffffffffffffffffffffff1673ffffffffffffffffffffffffffffffffffffffff16815260200190815260200160002054028161264a57fe5b0490506000670de0b6b3a76400008383028161266257fe5b0490506000670de0b6b3a76400004784028161267a57fe5b049050600860003373ffffffffffffffffffffffffffffffffffffffff1673ffffffffffffffffffffffffffffffffffffffff16815260200190815260200160002054600a60008282540392505081905550600860003373ffffffffffffffffffffffffffffffffffffffff1673ffffffffffffffffffffffffffffffffffffffff16815260200190815260200160002054600b600082825401925050819055506000600860003373ffffffffffffffffffffffffffffffffffffffff1673ffffffffffffffffffffffffffffffffffffffff168152602001908152602001600020819055503373ffffffffffffffffffffffffffffffffffffffff166108fc829081150290604051600060405180830381858888f193505050501580156127a6573d6000803e3d6000fd5b50600c60009054906101000a900473ffffffffffffffffffffffffffffffffffffffff1673ffffffffffffffffffffffffffffffffffffffff1663a9059cbb33846040518363ffffffff1660e01b8152600401808373ffffffffffffffffffffffffffffffffffffffff1673ffffffffffffffffffffffffffffffffffffffff16815260200182815260200192505050602060405180830381600087803b15801561285057600080fd5b505af1158015612864573d6000803e3d6000fd5b505050506040513d602081101561287a57600080fd5b810190808051906020019092919050505050600194505050505090565b600c60009054906101000a900473ffffffffffffffffffffffffffffffffffffffff1681565b6000600160008473ffffffffffffffffffffffffffffffffffffffff1673ffffffffffffffffffffffffffffffffffffffff16815260200190815260200160002060008373ffffffffffffffffffffffffffffffffffffffff1673ffffffffffffffffffffffffffffffffffffffff16815260200190815260200160002054905092915050565b600b5481565b806000808573ffffffffffffffffffffffffffffffffffffffff1673ffffffffffffffffffffffffffffffffffffffff16815260200190815260200160002054101561299557600080fd5b806000808573ffffffffffffffffffffffffffffffffffffffff1673ffffffffffffffffffffffffffffffffffffffff16815260200190815260200160002060008282540392505081905550806000808473ffffffffffffffffffffffffffffffffffffffff1673ffffffffffffffffffffffffffffffffffffffff16815260200190815260200160002060008282540192505081905550505050565b828054600181600116156101000203166002900490600052602060002090601f016020900481019282601f10612a7357805160ff1916838001178555612aa1565b82800160010185558215612aa1579182015b82811115612aa0578251825591602001919060010190612a85565b5b509050612aae9190612ab2565b5090565b612ad491905b80821115612ad0576000816000905550600101612ab8565b5090565b9056fe72656365697665546f6b656e7328616464726573732c75696e743235362c627974657329a265627a7a7231582051a38fcb78981af80ec9fae27f5aab04774f3b9ed729c89e60dfb5cedae535fb64736f6c63430005100032",
  "source": "pragma solidity ^0.5;\n\nimport \"./Math.sol\";\nimport \"./ERC20.sol\";\nimport \"./LiquidatorInterface.sol\";\n\n\ncontract ETHCallOptionToken is ERC20, Math {\n    bool public initialized;\n    uint256 public expiration;\n    uint256 public strike;\n\n    mapping(address => uint256) public writers;\n\n    uint256 public liquidated;\n    uint256 public written;\n    uint256 public redeemed;\n\n    uint256 public constant SETTLEMENT_DURATION = 12 hours;\n\n    ERC20 public usd;\n    ERC20 public dsf;\n\n    // called by Factory in same transaction as deploy\n    function init(\n        string memory _name,\n        string memory _symbol,\n        uint256 _expiration,\n        uint256 _strike\n    ) public returns (bool) {\n        require(initialized == false);\n        usd = ERC20(0x4F678ceBFe01CF0A111600b3d0AFC27885aA578d);\n        dsf = ERC20(0x9F4CA569De4c030a0afFDfB321cC553E1426A1bF);\n        name = string(_name);\n        symbol = string(_symbol);\n        expiration = _expiration;\n        strike = _strike;\n        initialized = true;\n        return true;\n    }\n\n    function write() public payable returns (bool) {\n        totalSupply += msg.value;\n        balances[msg.sender] += msg.value;\n        writers[msg.sender] += msg.value;\n        written += msg.value;\n        return true;\n    }\n\n    function writeApproveAndCall(address to, bytes memory data) public payable returns (bool) {\n        totalSupply += msg.value;\n        writers[msg.sender] += msg.value;\n        written += msg.value;\n        allowed[msg.sender][to] = msg.value;\n        (bool result,) = to.call(data);\n        require(result);\n        return true;\n    }\n\n    function close(uint256 amount) public returns (bool) {\n        require(now < expiration);\n        require(balances[msg.sender] >= amount && writers[msg.sender] >= amount);\n        balances[msg.sender] -= amount;\n        writers[msg.sender] -= amount;\n        written -= amount;\n        msg.sender.transfer(amount);\n        return true;\n    }\n\n    function exercise(uint256 amount) public returns (bool) {\n        require(balances[msg.sender] >= amount && now < expiration - SETTLEMENT_DURATION);\n        balances[msg.sender] -= amount;\n        totalSupply -= amount;\n        usd.transferFrom(msg.sender, address(this), amount * strike / 1 ether);\n        msg.sender.transfer(amount);\n        return true;\n    }\n\n    function liquidate(uint256 quantity) public {\n        uint256 start = expiration - SETTLEMENT_DURATION;\n        uint256 elapsed = expiration - start;\n        uint256 price = strike * SETTLEMENT_DURATION / elapsed;\n\n        require(now < expiration && now > start && price >= strike);\n\n        uint256 giving = quantity * price / 1 ether;\n\n        if (usd.balanceOf(msg.sender) >= giving) {\n            usd.transferFrom(msg.sender, address(this), giving);\n            msg.sender.transfer(quantity);\n        } else {\n            LiquidatorInterface(msg.sender).receiveETH.value(quantity)();\n            usd.transferFrom(msg.sender, address(this), giving);\n        }\n\n        liquidated += quantity;\n    }\n\n    function settle() public returns (bool) {\n        require(now > expiration);\n        uint256 writerSettlement = (liquidated - redeemed) * strike / 1 ether;\n        uint256 holderSettlement = usd.balanceOf(address(this)) - writerSettlement;\n        uint256 settlement = (balances[msg.sender] * 1 ether / totalSupply) * holderSettlement / 1 ether;\n        totalSupply -= balances[msg.sender];\n        balances[msg.sender] = 0;\n        usd.transfer(msg.sender, settlement);\n        return true;\n    }\n\n    function redeem() public returns (bool) {\n        require(now > expiration);\n        uint256 writerSettlementUSD = (liquidated - redeemed) * strike / 1 ether;\n        uint256 ratio = writers[msg.sender] * 1 ether / written;\n        uint256 redeemUSD = ratio * writerSettlementUSD / 1 ether;\n        uint256 redeemETH = ratio * address(this).balance / 1 ether;\n        written -= writers[msg.sender];\n        redeemed += writers[msg.sender];\n        writers[msg.sender] = 0;\n        msg.sender.transfer(redeemETH);\n        usd.transfer(msg.sender, redeemUSD);\n        return true;\n    }\n}",
  "sourcePath": "/Users/brianwheeler/optimum/protocol/contracts/ETHCallOptionToken.sol",
  "compiler": {
    "name": "solc",
    "version": "0.5.16+commit.9c3226ce.Emscripten.clang"
  },
  "schemaVersion": "3.0.23",
  "updatedAt": "2020-02-06T18:25:46.493Z",
  "devdoc": {
    "methods": {}
  },
  "userdoc": {
    "methods": {}
  }
}