{
  "contractName": "ETHPutOptionToken",
  "abi": [
    {
      "anonymous": false,
      "inputs": [
        {
          "indexed": true,
          "internalType": "address",
          "name": "_owner",
          "type": "address"
        },
        {
          "indexed": true,
          "internalType": "address",
          "name": "_spender",
          "type": "address"
        },
        {
          "indexed": false,
          "internalType": "uint256",
          "name": "_value",
          "type": "uint256"
        }
      ],
      "name": "Approval",
      "type": "event"
    },
    {
      "anonymous": false,
      "inputs": [
        {
          "indexed": false,
          "internalType": "address",
          "name": "creator",
          "type": "address"
        },
        {
          "indexed": false,
          "internalType": "uint256",
          "name": "supply",
          "type": "uint256"
        }
      ],
      "name": "Created",
      "type": "event"
    },
    {
      "anonymous": false,
      "inputs": [
        {
          "indexed": true,
          "internalType": "address",
          "name": "_from",
          "type": "address"
        },
        {
          "indexed": true,
          "internalType": "address",
          "name": "_to",
          "type": "address"
        },
        {
          "indexed": false,
          "internalType": "uint256",
          "name": "_value",
          "type": "uint256"
        }
      ],
      "name": "Transfer",
      "type": "event"
    },
    {
      "constant": true,
      "inputs": [],
      "name": "MAX_UINT256",
      "outputs": [
        {
          "internalType": "uint256",
          "name": "",
          "type": "uint256"
        }
      ],
      "payable": false,
      "stateMutability": "view",
      "type": "function"
    },
    {
      "constant": true,
      "inputs": [],
      "name": "SETTLEMENT_DURATION",
      "outputs": [
        {
          "internalType": "uint256",
          "name": "",
          "type": "uint256"
        }
      ],
      "payable": false,
      "stateMutability": "view",
      "type": "function"
    },
    {
      "constant": true,
      "inputs": [
        {
          "internalType": "address",
          "name": "_owner",
          "type": "address"
        },
        {
          "internalType": "address",
          "name": "_spender",
          "type": "address"
        }
      ],
      "name": "allowance",
      "outputs": [
        {
          "internalType": "uint256",
          "name": "remaining",
          "type": "uint256"
        }
      ],
      "payable": false,
      "stateMutability": "view",
      "type": "function"
    },
    {
      "constant": true,
      "inputs": [
        {
          "internalType": "address",
          "name": "",
          "type": "address"
        },
        {
          "internalType": "address",
          "name": "",
          "type": "address"
        }
      ],
      "name": "allowed",
      "outputs": [
        {
          "internalType": "uint256",
          "name": "",
          "type": "uint256"
        }
      ],
      "payable": false,
      "stateMutability": "view",
      "type": "function"
    },
    {
      "constant": false,
      "inputs": [
        {
          "internalType": "address",
          "name": "_spender",
          "type": "address"
        },
        {
          "internalType": "uint256",
          "name": "_value",
          "type": "uint256"
        }
      ],
      "name": "approve",
      "outputs": [
        {
          "internalType": "bool",
          "name": "success",
          "type": "bool"
        }
      ],
      "payable": false,
      "stateMutability": "nonpayable",
      "type": "function"
    },
    {
      "constant": false,
      "inputs": [
        {
          "internalType": "address",
          "name": "spender",
          "type": "address"
        },
        {
          "internalType": "uint256",
          "name": "quantity",
          "type": "uint256"
        },
        {
          "internalType": "bytes",
          "name": "data",
          "type": "bytes"
        }
      ],
      "name": "approveAndCall",
      "outputs": [
        {
          "internalType": "bool",
          "name": "",
          "type": "bool"
        }
      ],
      "payable": false,
      "stateMutability": "nonpayable",
      "type": "function"
    },
    {
      "constant": true,
      "inputs": [],
      "name": "assigned",
      "outputs": [
        {
          "internalType": "uint256",
          "name": "",
          "type": "uint256"
        }
      ],
      "payable": false,
      "stateMutability": "view",
      "type": "function"
    },
    {
      "constant": true,
      "inputs": [
        {
          "internalType": "address",
          "name": "_owner",
          "type": "address"
        }
      ],
      "name": "balanceOf",
      "outputs": [
        {
          "internalType": "uint256",
          "name": "balance",
          "type": "uint256"
        }
      ],
      "payable": false,
      "stateMutability": "view",
      "type": "function"
    },
    {
      "constant": true,
      "inputs": [
        {
          "internalType": "address",
          "name": "",
          "type": "address"
        }
      ],
      "name": "balances",
      "outputs": [
        {
          "internalType": "uint256",
          "name": "",
          "type": "uint256"
        }
      ],
      "payable": false,
      "stateMutability": "view",
      "type": "function"
    },
    {
      "constant": true,
      "inputs": [],
      "name": "decimals",
      "outputs": [
        {
          "internalType": "uint8",
          "name": "",
          "type": "uint8"
        }
      ],
      "payable": false,
      "stateMutability": "view",
      "type": "function"
    },
    {
      "constant": true,
      "inputs": [],
      "name": "dsf",
      "outputs": [
        {
          "internalType": "contract ERC20",
          "name": "",
          "type": "address"
        }
      ],
      "payable": false,
      "stateMutability": "pure",
      "type": "function"
    },
    {
      "constant": true,
      "inputs": [
        {
          "internalType": "address",
          "name": "account",
          "type": "address"
        }
      ],
      "name": "edge",
      "outputs": [
        {
          "internalType": "uint256",
          "name": "",
          "type": "uint256"
        }
      ],
      "payable": false,
      "stateMutability": "view",
      "type": "function"
    },
    {
      "constant": true,
      "inputs": [],
      "name": "exercised",
      "outputs": [
        {
          "internalType": "uint256",
          "name": "",
          "type": "uint256"
        }
      ],
      "payable": false,
      "stateMutability": "view",
      "type": "function"
    },
    {
      "constant": true,
      "inputs": [],
      "name": "expiration",
      "outputs": [
        {
          "internalType": "uint256",
          "name": "",
          "type": "uint256"
        }
      ],
      "payable": false,
      "stateMutability": "view",
      "type": "function"
    },
    {
      "constant": false,
      "inputs": [
        {
          "internalType": "uint256",
          "name": "_expiration",
          "type": "uint256"
        },
        {
          "internalType": "uint256",
          "name": "_strike",
          "type": "uint256"
        }
      ],
      "name": "init",
      "outputs": [
        {
          "internalType": "bool",
          "name": "",
          "type": "bool"
        }
      ],
      "payable": false,
      "stateMutability": "nonpayable",
      "type": "function"
    },
    {
      "constant": true,
      "inputs": [],
      "name": "initialized",
      "outputs": [
        {
          "internalType": "bool",
          "name": "",
          "type": "bool"
        }
      ],
      "payable": false,
      "stateMutability": "view",
      "type": "function"
    },
    {
      "constant": true,
      "inputs": [],
      "name": "settled",
      "outputs": [
        {
          "internalType": "uint256",
          "name": "",
          "type": "uint256"
        }
      ],
      "payable": false,
      "stateMutability": "view",
      "type": "function"
    },
    {
      "constant": true,
      "inputs": [],
      "name": "settlementEnd",
      "outputs": [
        {
          "internalType": "uint256",
          "name": "",
          "type": "uint256"
        }
      ],
      "payable": false,
      "stateMutability": "view",
      "type": "function"
    },
    {
      "constant": true,
      "inputs": [],
      "name": "settlementStart",
      "outputs": [
        {
          "internalType": "uint256",
          "name": "",
          "type": "uint256"
        }
      ],
      "payable": false,
      "stateMutability": "view",
      "type": "function"
    },
    {
      "constant": true,
      "inputs": [],
      "name": "strike",
      "outputs": [
        {
          "internalType": "uint256",
          "name": "",
          "type": "uint256"
        }
      ],
      "payable": false,
      "stateMutability": "view",
      "type": "function"
    },
    {
      "constant": true,
      "inputs": [],
      "name": "totalSupply",
      "outputs": [
        {
          "internalType": "uint256",
          "name": "",
          "type": "uint256"
        }
      ],
      "payable": false,
      "stateMutability": "view",
      "type": "function"
    },
    {
      "constant": false,
      "inputs": [
        {
          "internalType": "address",
          "name": "_to",
          "type": "address"
        },
        {
          "internalType": "uint256",
          "name": "_value",
          "type": "uint256"
        }
      ],
      "name": "transfer",
      "outputs": [
        {
          "internalType": "bool",
          "name": "success",
          "type": "bool"
        }
      ],
      "payable": false,
      "stateMutability": "nonpayable",
      "type": "function"
    },
    {
      "constant": false,
      "inputs": [
        {
          "internalType": "address",
          "name": "_from",
          "type": "address"
        },
        {
          "internalType": "address",
          "name": "_to",
          "type": "address"
        },
        {
          "internalType": "uint256",
          "name": "_value",
          "type": "uint256"
        }
      ],
      "name": "transferFrom",
      "outputs": [
        {
          "internalType": "bool",
          "name": "success",
          "type": "bool"
        }
      ],
      "payable": false,
      "stateMutability": "nonpayable",
      "type": "function"
    },
    {
      "constant": true,
      "inputs": [],
      "name": "usd",
      "outputs": [
        {
          "internalType": "contract ERC20",
          "name": "",
          "type": "address"
        }
      ],
      "payable": false,
      "stateMutability": "pure",
      "type": "function"
    },
    {
      "constant": true,
      "inputs": [
        {
          "internalType": "address",
          "name": "",
          "type": "address"
        }
      ],
      "name": "writers",
      "outputs": [
        {
          "internalType": "uint256",
          "name": "",
          "type": "uint256"
        }
      ],
      "payable": false,
      "stateMutability": "view",
      "type": "function"
    },
    {
      "constant": true,
      "inputs": [],
      "name": "written",
      "outputs": [
        {
          "internalType": "uint256",
          "name": "",
          "type": "uint256"
        }
      ],
      "payable": false,
      "stateMutability": "view",
      "type": "function"
    },
    {
      "constant": false,
      "inputs": [
        {
          "internalType": "uint256",
          "name": "amount",
          "type": "uint256"
        }
      ],
      "name": "write",
      "outputs": [
        {
          "internalType": "bool",
          "name": "",
          "type": "bool"
        }
      ],
      "payable": false,
      "stateMutability": "nonpayable",
      "type": "function"
    },
    {
      "constant": false,
      "inputs": [
        {
          "internalType": "uint256",
          "name": "amount",
          "type": "uint256"
        },
        {
          "internalType": "address",
          "name": "spender",
          "type": "address"
        }
      ],
      "name": "writeAndApprove",
      "outputs": [
        {
          "internalType": "bool",
          "name": "",
          "type": "bool"
        }
      ],
      "payable": true,
      "stateMutability": "payable",
      "type": "function"
    },
    {
      "constant": false,
      "inputs": [
        {
          "internalType": "uint256",
          "name": "amount",
          "type": "uint256"
        },
        {
          "internalType": "address",
          "name": "to",
          "type": "address"
        },
        {
          "internalType": "bytes",
          "name": "data",
          "type": "bytes"
        }
      ],
      "name": "writeApproveAndCall",
      "outputs": [
        {
          "internalType": "bool",
          "name": "",
          "type": "bool"
        }
      ],
      "payable": false,
      "stateMutability": "nonpayable",
      "type": "function"
    },
    {
      "constant": false,
      "inputs": [
        {
          "internalType": "uint256",
          "name": "amount",
          "type": "uint256"
        }
      ],
      "name": "writeAsOrigin",
      "outputs": [
        {
          "internalType": "bool",
          "name": "",
          "type": "bool"
        }
      ],
      "payable": false,
      "stateMutability": "nonpayable",
      "type": "function"
    },
    {
      "constant": false,
      "inputs": [
        {
          "internalType": "uint256",
          "name": "amount",
          "type": "uint256"
        },
        {
          "internalType": "address",
          "name": "to",
          "type": "address"
        }
      ],
      "name": "writeAndApproveAsOrigin",
      "outputs": [
        {
          "internalType": "bool",
          "name": "",
          "type": "bool"
        }
      ],
      "payable": false,
      "stateMutability": "nonpayable",
      "type": "function"
    },
    {
      "constant": false,
      "inputs": [
        {
          "internalType": "uint256",
          "name": "amount",
          "type": "uint256"
        },
        {
          "internalType": "address",
          "name": "to",
          "type": "address"
        },
        {
          "internalType": "bytes",
          "name": "data",
          "type": "bytes"
        }
      ],
      "name": "writeApproveAndCallAsOrigin",
      "outputs": [
        {
          "internalType": "bool",
          "name": "",
          "type": "bool"
        }
      ],
      "payable": false,
      "stateMutability": "nonpayable",
      "type": "function"
    },
    {
      "constant": false,
      "inputs": [
        {
          "internalType": "uint256",
          "name": "amount",
          "type": "uint256"
        }
      ],
      "name": "close",
      "outputs": [
        {
          "internalType": "bool",
          "name": "",
          "type": "bool"
        }
      ],
      "payable": false,
      "stateMutability": "nonpayable",
      "type": "function"
    },
    {
      "constant": false,
      "inputs": [],
      "name": "exercise",
      "outputs": [
        {
          "internalType": "bool",
          "name": "",
          "type": "bool"
        }
      ],
      "payable": true,
      "stateMutability": "payable",
      "type": "function"
    },
    {
      "constant": false,
      "inputs": [],
      "name": "assignment",
      "outputs": [
        {
          "internalType": "bool",
          "name": "",
          "type": "bool"
        }
      ],
      "payable": false,
      "stateMutability": "nonpayable",
      "type": "function"
    },
    {
      "constant": false,
      "inputs": [
        {
          "internalType": "uint256",
          "name": "quantity",
          "type": "uint256"
        }
      ],
      "name": "settle",
      "outputs": [],
      "payable": false,
      "stateMutability": "nonpayable",
      "type": "function"
    },
    {
      "constant": false,
      "inputs": [],
      "name": "finalizeSettlement",
      "outputs": [],
      "payable": true,
      "stateMutability": "payable",
      "type": "function"
    },
    {
      "constant": true,
      "inputs": [],
      "name": "auctionPrice",
      "outputs": [
        {
          "internalType": "uint256",
          "name": "",
          "type": "uint256"
        }
      ],
      "payable": false,
      "stateMutability": "view",
      "type": "function"
    },
    {
      "constant": false,
      "inputs": [],
      "name": "name",
      "outputs": [
        {
          "internalType": "string",
          "name": "",
          "type": "string"
        }
      ],
      "payable": false,
      "stateMutability": "nonpayable",
      "type": "function"
    },
    {
      "constant": false,
      "inputs": [],
      "name": "symbol",
      "outputs": [
        {
          "internalType": "string",
          "name": "",
          "type": "string"
        }
      ],
      "payable": false,
      "stateMutability": "nonpayable",
      "type": "function"
    }
  ],
  "bytecode": "0x608060405234801561001057600080fd5b506131b5806100206000396000f3fe60806040526004361061023b5760003560e01c80636664eb161161012e578063ad8f5008116100ab578063d32cb0fe1161006f578063d32cb0fe14610ed0578063d63a6ccd14610ef2578063d7fd7bb914610f49578063dd62ed3e14610f74578063e506ceb614610ff95761023b565b8063ad8f500814610c13578063adb4d99014610c3e578063bf66be9d14610c69578063c696848d14610d73578063cae9ca5114610dc65761023b565b80638f775839116100f25780638f77583914610a5d57806395d89b4114610a88578063a47b328914610b18578063a5843f0814610b43578063a9059cbb14610ba05761023b565b80636664eb16146108d257806370a082311461092957806371ca2ecf1461098e5780638df82800146109bd5780638e7e80a2146109f85761023b565b806327e235e3116101bc57806342a47cfe1161018057806342a47cfe146107a15780634665096d146107cc57806350b72eb3146107f757806356742b5a146108225780635c6581651461084d5761023b565b806327e235e3146106285780632f048afa1461068d578063313ce567146106e057806333a581d2146107115780633cc8fd7a1461073c5761023b565b8063158ef93e11610203578063158ef93e146104cb57806318160ddd146104fa5780631bb3399d146105255780631ef23cc41461052f57806323b872dd146105955761023b565b806306fdde031461024057806308e419cf146102d0578063095ea7b3146103da5780630aebeb4e1461044d57806314c68b1b146104a0575b600080fd5b34801561024c57600080fd5b5061025561106c565b6040518080602001828103825283818151815260200191508051906020019080838360005b8381101561029557808201518184015260208101905061027a565b50505050905090810190601f1680156102c25780820380516001836020036101000a031916815260200191505b509250505060405180910390f35b3480156102dc57600080fd5b506103c0600480360360608110156102f357600080fd5b8101908080359060200190929190803573ffffffffffffffffffffffffffffffffffffffff1690602001909291908035906020019064010000000081111561033a57600080fd5b82018360208201111561034c57600080fd5b8035906020019184600183028401116401000000008311171561036e57600080fd5b91908080601f016020809104026020016040519081016040528093929190818152602001838380828437600081840152601f19601f8201169050808301925050505050505091929192905050506111ec565b604051808215151515815260200191505060405180910390f35b3480156103e657600080fd5b50610433600480360360408110156103fd57600080fd5b81019080803573ffffffffffffffffffffffffffffffffffffffff1690602001909291908035906020019092919050505061120f565b604051808215151515815260200191505060405180910390f35b34801561045957600080fd5b506104866004803603602081101561047057600080fd5b8101908080359060200190929190505050611301565b604051808215151515815260200191505060405180910390f35b3480156104ac57600080fd5b506104b5611538565b6040518082815260200191505060405180910390f35b3480156104d757600080fd5b506104e061153e565b604051808215151515815260200191505060405180910390f35b34801561050657600080fd5b5061050f611551565b6040518082815260200191505060405180910390f35b61052d611557565b005b61057b6004803603604081101561054557600080fd5b8101908080359060200190929190803573ffffffffffffffffffffffffffffffffffffffff1690602001909291905050506115e9565b604051808215151515815260200191505060405180910390f35b3480156105a157600080fd5b5061060e600480360360608110156105b857600080fd5b81019080803573ffffffffffffffffffffffffffffffffffffffff169060200190929190803573ffffffffffffffffffffffffffffffffffffffff16906020019092919080359060200190929190505050611606565b604051808215151515815260200191505060405180910390f35b34801561063457600080fd5b506106776004803603602081101561064b57600080fd5b81019080803573ffffffffffffffffffffffffffffffffffffffff16906020019092919050505061189b565b6040518082815260200191505060405180910390f35b34801561069957600080fd5b506106c6600480360360208110156106b057600080fd5b81019080803590602001909291905050506118b3565b604051808215151515815260200191505060405180910390f35b3480156106ec57600080fd5b506106f5611a9d565b604051808260ff1660ff16815260200191505060405180910390f35b34801561071d57600080fd5b50610726611aa2565b6040518082815260200191505060405180910390f35b34801561074857600080fd5b5061078b6004803603602081101561075f57600080fd5b81019080803573ffffffffffffffffffffffffffffffffffffffff169060200190929190505050611ac6565b6040518082815260200191505060405180910390f35b3480156107ad57600080fd5b506107b6611bba565b6040518082815260200191505060405180910390f35b3480156107d857600080fd5b506107e1611bc8565b6040518082815260200191505060405180910390f35b34801561080357600080fd5b5061080c611bce565b6040518082815260200191505060405180910390f35b34801561082e57600080fd5b50610837611bd4565b6040518082815260200191505060405180910390f35b34801561085957600080fd5b506108bc6004803603604081101561087057600080fd5b81019080803573ffffffffffffffffffffffffffffffffffffffff169060200190929190803573ffffffffffffffffffffffffffffffffffffffff169060200190929190505050611c5b565b6040518082815260200191505060405180910390f35b3480156108de57600080fd5b506108e7611c80565b604051808273ffffffffffffffffffffffffffffffffffffffff1673ffffffffffffffffffffffffffffffffffffffff16815260200191505060405180910390f35b34801561093557600080fd5b506109786004803603602081101561094c57600080fd5b81019080803573ffffffffffffffffffffffffffffffffffffffff169060200190929190505050611c9c565b6040518082815260200191505060405180910390f35b34801561099a57600080fd5b506109a3611ce4565b604051808215151515815260200191505060405180910390f35b3480156109c957600080fd5b506109f6600480360360208110156109e057600080fd5b81019080803590602001909291905050506122a8565b005b348015610a0457600080fd5b50610a4760048036036020811015610a1b57600080fd5b81019080803573ffffffffffffffffffffffffffffffffffffffff169060200190929190505050612611565b6040518082815260200191505060405180910390f35b348015610a6957600080fd5b50610a72612629565b6040518082815260200191505060405180910390f35b348015610a9457600080fd5b50610a9d61262f565b6040518080602001828103825283818151815260200191508051906020019080838360005b83811015610add578082015181840152602081019050610ac2565b50505050905090810190601f168015610b0a5780820380516001836020036101000a031916815260200191505b509250505060405180910390f35b348015610b2457600080fd5b50610b2d6127af565b6040518082815260200191505060405180910390f35b348015610b4f57600080fd5b50610b8660048036036040811015610b6657600080fd5b8101908080359060200190929190803590602001909291905050506127b5565b604051808215151515815260200191505060405180910390f35b348015610bac57600080fd5b50610bf960048036036040811015610bc357600080fd5b81019080803573ffffffffffffffffffffffffffffffffffffffff16906020019092919080359060200190929190505050612809565b604051808215151515815260200191505060405180910390f35b348015610c1f57600080fd5b50610c2861295d565b6040518082815260200191505060405180910390f35b348015610c4a57600080fd5b50610c53612963565b6040518082815260200191505060405180910390f35b348015610c7557600080fd5b50610d5960048036036060811015610c8c57600080fd5b8101908080359060200190929190803573ffffffffffffffffffffffffffffffffffffffff16906020019092919080359060200190640100000000811115610cd357600080fd5b820183602082011115610ce557600080fd5b80359060200191846001830284011164010000000083111715610d0757600080fd5b91908080601f016020809104026020016040519081016040528093929190818152602001838380828437600081840152601f19601f820116905080830192505050505050509192919290505050612969565b604051808215151515815260200191505060405180910390f35b348015610d7f57600080fd5b50610dac60048036036020811015610d9657600080fd5b8101908080359060200190929190505050612acb565b604051808215151515815260200191505060405180910390f35b348015610dd257600080fd5b50610eb660048036036060811015610de957600080fd5b81019080803573ffffffffffffffffffffffffffffffffffffffff1690602001909291908035906020019092919080359060200190640100000000811115610e3057600080fd5b820183602082011115610e4257600080fd5b80359060200191846001830284011164010000000083111715610e6457600080fd5b91908080601f016020809104026020016040519081016040528093929190818152602001838380828437600081840152601f19601f820116905080830192505050505050509192919290505050612cb1565b604051808215151515815260200191505060405180910390f35b610ed8612e13565b604051808215151515815260200191505060405180910390f35b348015610efe57600080fd5b50610f07612fc4565b604051808273ffffffffffffffffffffffffffffffffffffffff1673ffffffffffffffffffffffffffffffffffffffff16815260200191505060405180910390f35b348015610f5557600080fd5b50610f5e612fe0565b6040518082815260200191505060405180910390f35b348015610f8057600080fd5b50610fe360048036036040811015610f9757600080fd5b81019080803573ffffffffffffffffffffffffffffffffffffffff169060200190929190803573ffffffffffffffffffffffffffffffffffffffff169060200190929190505050612fea565b6040518082815260200191505060405180910390f35b34801561100557600080fd5b506110526004803603604081101561101c57600080fd5b8101908080359060200190929190803573ffffffffffffffffffffffffffffffffffffffff169060200190929190505050613071565b604051808215151515815260200191505060405180910390f35b606073__FactoryAddress________________________73ffffffffffffffffffffffffffffffffffffffff1663ccf953bd60006004546005546040518463ffffffff1660e01b815260040180841515151581526020018381526020018281526020019350505050600060405180830381600087803b1580156110ee57600080fd5b505af1158015611102573d6000803e3d6000fd5b505050506040513d6000823e3d601f19601f82011682018060405250602081101561112c57600080fd5b810190808051604051939291908464010000000082111561114c57600080fd5b8382019150602082018581111561116257600080fd5b825186600182028301116401000000008211171561117f57600080fd5b8083526020830192505050908051906020019080838360005b838110156111b3578082015181840152602081019050611198565b50505050905090810190601f1680156111e05780820380516001836020036101000a031916815260200191505b50604052505050905090565b60006111f7846118b3565b50611203838584612cb1565b50600190509392505050565b600081600160003373ffffffffffffffffffffffffffffffffffffffff1673ffffffffffffffffffffffffffffffffffffffff16815260200190815260200160002060008573ffffffffffffffffffffffffffffffffffffffff1673ffffffffffffffffffffffffffffffffffffffff168152602001908152602001600020819055508273ffffffffffffffffffffffffffffffffffffffff163373ffffffffffffffffffffffffffffffffffffffff167f8c5be1e5ebec7d5bd14f71427d1e84f3dd0314c0f7b2291e5b200ac8c7c3b925846040518082815260200191505060405180910390a36001905092915050565b600061130b612fe0565b421061131657600080fd5b816000803373ffffffffffffffffffffffffffffffffffffffff1673ffffffffffffffffffffffffffffffffffffffff16815260200190815260200160002054101580156113a3575081600660003373ffffffffffffffffffffffffffffffffffffffff1673ffffffffffffffffffffffffffffffffffffffff1681526020019081526020016000205410155b6113ac57600080fd5b816000803373ffffffffffffffffffffffffffffffffffffffff1673ffffffffffffffffffffffffffffffffffffffff1681526020019081526020016000206000828254039250508190555081600660003373ffffffffffffffffffffffffffffffffffffffff1673ffffffffffffffffffffffffffffffffffffffff16815260200190815260200160002060008282540392505081905550816008600082825403925050819055508160026000828254039250508190555061146d612fc4565b73ffffffffffffffffffffffffffffffffffffffff1663a9059cbb33846040518363ffffffff1660e01b8152600401808373ffffffffffffffffffffffffffffffffffffffff1673ffffffffffffffffffffffffffffffffffffffff16815260200182815260200192505050602060405180830381600087803b1580156114f357600080fd5b505af1158015611507573d6000803e3d6000fd5b505050506040513d602081101561151d57600080fd5b81019080805190602001909291905050505060019050919050565b60075481565b600360009054906101000a900460ff1681565b60025481565b600b60003373ffffffffffffffffffffffffffffffffffffffff1673ffffffffffffffffffffffffffffffffffffffff1681526020019081526020016000205434146115a257600080fd5b6000600b60003373ffffffffffffffffffffffffffffffffffffffff1673ffffffffffffffffffffffffffffffffffffffff16815260200190815260200160002081905550565b60006115f4836118b3565b506115ff823461120f565b5092915050565b600080600160008673ffffffffffffffffffffffffffffffffffffffff1673ffffffffffffffffffffffffffffffffffffffff16815260200190815260200160002060003373ffffffffffffffffffffffffffffffffffffffff1673ffffffffffffffffffffffffffffffffffffffff168152602001908152602001600020549050826000808773ffffffffffffffffffffffffffffffffffffffff1673ffffffffffffffffffffffffffffffffffffffff16815260200190815260200160002054101580156116d65750828110155b6116df57600080fd5b826000808773ffffffffffffffffffffffffffffffffffffffff1673ffffffffffffffffffffffffffffffffffffffff16815260200190815260200160002060008282540392505081905550826000808673ffffffffffffffffffffffffffffffffffffffff1673ffffffffffffffffffffffffffffffffffffffff168152602001908152602001600020600082825401925050819055507fffffffffffffffffffffffffffffffffffffffffffffffffffffffffffffffff81101561182a5782600160008773ffffffffffffffffffffffffffffffffffffffff1673ffffffffffffffffffffffffffffffffffffffff16815260200190815260200160002060003373ffffffffffffffffffffffffffffffffffffffff1673ffffffffffffffffffffffffffffffffffffffff168152602001908152602001600020600082825403925050819055505b8373ffffffffffffffffffffffffffffffffffffffff168573ffffffffffffffffffffffffffffffffffffffff167fddf252ad1be2c89b69c2b068fc378daa952ba7f163c4a11628f55a4df523b3ef856040518082815260200191505060405180910390a360019150509392505050565b60006020528060005260406000206000915090505481565b60006118bd612fe0565b42106118c857600080fd5b6118d0612fc4565b73ffffffffffffffffffffffffffffffffffffffff166323b872dd3330670de0b6b3a764000060055487028161190257fe5b046040518463ffffffff1660e01b8152600401808473ffffffffffffffffffffffffffffffffffffffff1673ffffffffffffffffffffffffffffffffffffffff1681526020018373ffffffffffffffffffffffffffffffffffffffff1673ffffffffffffffffffffffffffffffffffffffff1681526020018281526020019350505050602060405180830381600087803b15801561199f57600080fd5b505af11580156119b3573d6000803e3d6000fd5b505050506040513d60208110156119c957600080fd5b81019080805190602001909291905050505081600260008282540192505081905550816000803373ffffffffffffffffffffffffffffffffffffffff1673ffffffffffffffffffffffffffffffffffffffff1681526020019081526020016000206000828254019250508190555081600660003373ffffffffffffffffffffffffffffffffffffffff1673ffffffffffffffffffffffffffffffffffffffff168152602001908152602001600020600082825401925050819055508160086000828254019250508190555060019050919050565b601281565b7fffffffffffffffffffffffffffffffffffffffffffffffffffffffffffffffff81565b60006801ce97ca0f21055555611ada611c80565b73ffffffffffffffffffffffffffffffffffffffff166370a08231846040518263ffffffff1660e01b8152600401808273ffffffffffffffffffffffffffffffffffffffff1673ffffffffffffffffffffffffffffffffffffffff16815260200191505060206040518083038186803b158015611b5657600080fd5b505afa158015611b6a573d6000803e3d6000fd5b505050506040513d6020811015611b8057600080fd5b8101908080519060200190929190505050016ec097ce7bc90715b34b9f100000000081611ba957fe5b04666a94d74f430000039050919050565b600061a8c060045401905090565b60045481565b61a8c081565b6000611bde612fe0565b42118015611bf35750611bef611bba565b4211155b611bfc57600080fd5b6000611c06612fe0565b420390506000611c1533611ac6565b9050600554670de0b6b3a7640000820281611c2c57fe5b04826005540261a8c083670de0b6b3a764000003670de0b6b3a7640000020281611c5257fe5b04019250505090565b6001602052816000526040600020602052806000526040600020600091509150505481565b600073__DSF___________________________________905090565b60008060008373ffffffffffffffffffffffffffffffffffffffff1673ffffffffffffffffffffffffffffffffffffffff168152602001908152602001600020549050919050565b6000611cee611bba565b4211611cf957600080fd5b6000600660003373ffffffffffffffffffffffffffffffffffffffff1673ffffffffffffffffffffffffffffffffffffffff168152602001908152602001600020541115611ffb576000670de0b6b3a7640000600554600754600854030281611d5e57fe5b049050600060085482600660003373ffffffffffffffffffffffffffffffffffffffff1673ffffffffffffffffffffffffffffffffffffffff168152602001908152602001600020540281611daf57fe5b049050600060085447600660003373ffffffffffffffffffffffffffffffffffffffff1673ffffffffffffffffffffffffffffffffffffffff168152602001908152602001600020540281611e0057fe5b049050600660003373ffffffffffffffffffffffffffffffffffffffff1673ffffffffffffffffffffffffffffffffffffffff16815260200190815260200160002054600860008282540392505081905550600660003373ffffffffffffffffffffffffffffffffffffffff1673ffffffffffffffffffffffffffffffffffffffff168152602001908152602001600020546009600082825401925050819055506000600660003373ffffffffffffffffffffffffffffffffffffffff1673ffffffffffffffffffffffffffffffffffffffff168152602001908152602001600020819055503373ffffffffffffffffffffffffffffffffffffffff166108fc829081150290604051600060405180830381858888f19350505050158015611f2c573d6000803e3d6000fd5b50611f35612fc4565b73ffffffffffffffffffffffffffffffffffffffff1663a9059cbb33846040518363ffffffff1660e01b8152600401808373ffffffffffffffffffffffffffffffffffffffff1673ffffffffffffffffffffffffffffffffffffffff16815260200182815260200192505050602060405180830381600087803b158015611fbb57600080fd5b505af1158015611fcf573d6000803e3d6000fd5b505050506040513d6020811015611fe557600080fd5b8101908080519060200190929190505050505050505b600061200633611c9c565b11156122a1576000670de0b6b3a764000060055460075460085403028161202957fe5b049050600081612037612fc4565b73ffffffffffffffffffffffffffffffffffffffff166370a08231306040518263ffffffff1660e01b8152600401808273ffffffffffffffffffffffffffffffffffffffff1673ffffffffffffffffffffffffffffffffffffffff16815260200191505060206040518083038186803b1580156120b357600080fd5b505afa1580156120c7573d6000803e3d6000fd5b505050506040513d60208110156120dd57600080fd5b81019080805190602001909291905050500390506000600254826000803373ffffffffffffffffffffffffffffffffffffffff1673ffffffffffffffffffffffffffffffffffffffff16815260200190815260200160002054028161213e57fe5b0490506000803373ffffffffffffffffffffffffffffffffffffffff1673ffffffffffffffffffffffffffffffffffffffff1681526020019081526020016000205460026000828254039250508190555060008060003373ffffffffffffffffffffffffffffffffffffffff1673ffffffffffffffffffffffffffffffffffffffff168152602001908152602001600020819055506121db612fc4565b73ffffffffffffffffffffffffffffffffffffffff1663a9059cbb33836040518363ffffffff1660e01b8152600401808373ffffffffffffffffffffffffffffffffffffffff1673ffffffffffffffffffffffffffffffffffffffff16815260200182815260200192505050602060405180830381600087803b15801561226157600080fd5b505af1158015612275573d6000803e3d6000fd5b505050506040513d602081101561228b57600080fd5b8101908080519060200190929190505050505050505b6001905090565b60006122b2611bd4565b9050600a54600254038211156122c757600080fd5b600081670de0b6b3a76400008402816122dc57fe5b04905082600b60003373ffffffffffffffffffffffffffffffffffffffff1673ffffffffffffffffffffffffffffffffffffffff1681526020019081526020016000208190555061232b612fc4565b73ffffffffffffffffffffffffffffffffffffffff1663095ea7b333836040518363ffffffff1660e01b8152600401808373ffffffffffffffffffffffffffffffffffffffff1673ffffffffffffffffffffffffffffffffffffffff16815260200182815260200192505050602060405180830381600087803b1580156123b157600080fd5b505af11580156123c5573d6000803e3d6000fd5b505050506040513d60208110156123db57600080fd5b8101908080519060200190929190505050503373ffffffffffffffffffffffffffffffffffffffff1663236f0d40846040518263ffffffff1660e01b815260040180828152602001915050602060405180830381600087803b15801561244057600080fd5b505af1158015612454573d6000803e3d6000fd5b505050506040513d602081101561246a57600080fd5b8101908080519060200190929190505050506000600b60003373ffffffffffffffffffffffffffffffffffffffff1673ffffffffffffffffffffffffffffffffffffffff168152602001908152602001600020541480156125bd575060006124d0612fc4565b73ffffffffffffffffffffffffffffffffffffffff16635c65816530336040518363ffffffff1660e01b8152600401808373ffffffffffffffffffffffffffffffffffffffff1673ffffffffffffffffffffffffffffffffffffffff1681526020018273ffffffffffffffffffffffffffffffffffffffff1673ffffffffffffffffffffffffffffffffffffffff1681526020019250505060206040518083038186803b15801561258057600080fd5b505afa158015612594573d6000803e3d6000fd5b505050506040513d60208110156125aa57600080fd5b8101908080519060200190929190505050145b80156125e357506005546ec097ce7bc90715b34b9f1000000000816125de57fe5b048210155b6125ec57600080fd5b8260076000828254019250508190555082600a60008282540192505081905550505050565b60066020528060005260406000206000915090505481565b600a5481565b606073__FactoryAddress________________________73ffffffffffffffffffffffffffffffffffffffff1663183cffb760006004546005546040518463ffffffff1660e01b815260040180841515151581526020018381526020018281526020019350505050600060405180830381600087803b1580156126b157600080fd5b505af11580156126c5573d6000803e3d6000fd5b505050506040513d6000823e3d601f19601f8201168201806040525060208110156126ef57600080fd5b810190808051604051939291908464010000000082111561270f57600080fd5b8382019150602082018581111561272557600080fd5b825186600182028301116401000000008211171561274257600080fd5b8083526020830192505050908051906020019080838360005b8381101561277657808201518184015260208101905061275b565b50505050905090810190601f1680156127a35780820380516001836020036101000a031916815260200191505b50604052505050905090565b60085481565b6000801515600360009054906101000a900460ff161515146127d657600080fd5b82600481905550816005819055506001600360006101000a81548160ff0219169083151502179055506001905092915050565b6000816000803373ffffffffffffffffffffffffffffffffffffffff1673ffffffffffffffffffffffffffffffffffffffff16815260200190815260200160002054101561285657600080fd5b816000803373ffffffffffffffffffffffffffffffffffffffff1673ffffffffffffffffffffffffffffffffffffffff16815260200190815260200160002060008282540392505081905550816000808573ffffffffffffffffffffffffffffffffffffffff1673ffffffffffffffffffffffffffffffffffffffff168152602001908152602001600020600082825401925050819055508273ffffffffffffffffffffffffffffffffffffffff163373ffffffffffffffffffffffffffffffffffffffff167fddf252ad1be2c89b69c2b068fc378daa952ba7f163c4a11628f55a4df523b3ef846040518082815260200191505060405180910390a36001905092915050565b60055481565b60095481565b60006129758484613071565b5060008373ffffffffffffffffffffffffffffffffffffffff16836040518082805190602001908083835b602083106129c357805182526020820191506020810190506020830392506129a0565b6001836020036101000a0380198251168184511680821785525050505050509050019150506000604051808303816000865af19150503d8060008114612a25576040519150601f19603f3d011682016040523d82523d6000602084013e612a2a565b606091505b50509050808015612ab6575084600160003273ffffffffffffffffffffffffffffffffffffffff1673ffffffffffffffffffffffffffffffffffffffff16815260200190815260200160002060008673ffffffffffffffffffffffffffffffffffffffff1673ffffffffffffffffffffffffffffffffffffffff16815260200190815260200160002054105b612abf57600080fd5b60019150509392505050565b6000612ad5612fe0565b4210612ae057600080fd5b612ae8612fc4565b73ffffffffffffffffffffffffffffffffffffffff166323b872dd3330670de0b6b3a7640000600554870281612b1a57fe5b046040518463ffffffff1660e01b8152600401808473ffffffffffffffffffffffffffffffffffffffff1673ffffffffffffffffffffffffffffffffffffffff1681526020018373ffffffffffffffffffffffffffffffffffffffff1673ffffffffffffffffffffffffffffffffffffffff1681526020018281526020019350505050602060405180830381600087803b158015612bb757600080fd5b505af1158015612bcb573d6000803e3d6000fd5b505050506040513d6020811015612be157600080fd5b81019080805190602001909291905050505081600260008282540192505081905550816000803273ffffffffffffffffffffffffffffffffffffffff1673ffffffffffffffffffffffffffffffffffffffff1681526020019081526020016000206000828254019250508190555081600660003273ffffffffffffffffffffffffffffffffffffffff1673ffffffffffffffffffffffffffffffffffffffff1681526020019081526020016000206000828254019250508190555081600860008282540192505081905550919050565b6000612cbd848461120f565b5060008473ffffffffffffffffffffffffffffffffffffffff16836040518082805190602001908083835b60208310612d0b5780518252602082019150602081019050602083039250612ce8565b6001836020036101000a0380198251168184511680821785525050505050509050019150506000604051808303816000865af19150503d8060008114612d6d576040519150601f19603f3d011682016040523d82523d6000602084013e612d72565b606091505b50509050808015612dfe575083600160003373ffffffffffffffffffffffffffffffffffffffff1673ffffffffffffffffffffffffffffffffffffffff16815260200190815260200160002060008773ffffffffffffffffffffffffffffffffffffffff1673ffffffffffffffffffffffffffffffffffffffff16815260200190815260200160002054105b612e0757600080fd5b60019150509392505050565b6000346000803373ffffffffffffffffffffffffffffffffffffffff1673ffffffffffffffffffffffffffffffffffffffff1681526020019081526020016000205410158015612e695750612e66612fe0565b42105b612e7257600080fd5b346000803373ffffffffffffffffffffffffffffffffffffffff1673ffffffffffffffffffffffffffffffffffffffff168152602001908152602001600020600082825403925050819055503460026000828254039250508190555034600760008282540192505081905550612ee6612fc4565b73ffffffffffffffffffffffffffffffffffffffff1663a9059cbb33670de0b6b3a7640000600554340281612f1757fe5b046040518363ffffffff1660e01b8152600401808373ffffffffffffffffffffffffffffffffffffffff1673ffffffffffffffffffffffffffffffffffffffff16815260200182815260200192505050602060405180830381600087803b158015612f8157600080fd5b505af1158015612f95573d6000803e3d6000fd5b505050506040513d6020811015612fab57600080fd5b8101908080519060200190929190505050506001905090565b600073__USD___________________________________905090565b6000600454905090565b6000600160008473ffffffffffffffffffffffffffffffffffffffff1673ffffffffffffffffffffffffffffffffffffffff16815260200190815260200160002060008373ffffffffffffffffffffffffffffffffffffffff1673ffffffffffffffffffffffffffffffffffffffff16815260200190815260200160002054905092915050565b600061307c83612acb565b50613087828461308e565b5092915050565b600081600160003273ffffffffffffffffffffffffffffffffffffffff1673ffffffffffffffffffffffffffffffffffffffff16815260200190815260200160002060008573ffffffffffffffffffffffffffffffffffffffff1673ffffffffffffffffffffffffffffffffffffffff168152602001908152602001600020819055508273ffffffffffffffffffffffffffffffffffffffff163373ffffffffffffffffffffffffffffffffffffffff167f8c5be1e5ebec7d5bd14f71427d1e84f3dd0314c0f7b2291e5b200ac8c7c3b925846040518082815260200191505060405180910390a3600190509291505056fea265627a7a7231582029ceb5e97a57add8de0d533eadfa4b7e9087b6e925b673e3d607f9d79012473d64736f6c63430005100032",
  "source": "pragma solidity ^0.5;\n\nimport \"./OptionToken.sol\";\n\n\ncontract ETHPutOptionToken is OptionToken {\n\n    // used in settlement when USD is sent and contract expects ETH in return.\n    mapping(address => uint256) ethOwed;\n\n    function write(uint256 amount) public returns (bool) {\n        require(now < settlementStart());\n        usd().transferFrom(msg.sender, address(this), amount * strike / 1 ether);\n        totalSupply += amount;\n        balances[msg.sender] += amount;\n        writers[msg.sender] += amount;\n        written += amount;\n        return true;\n    }\n\n    function writeAndApprove(uint256 amount, address spender) public payable returns (bool) {\n        write(amount);\n        approve(spender, msg.value);\n    }\n\n    function writeApproveAndCall(uint256 amount, address to, bytes memory data) public returns (bool) {\n        write(amount);\n        approveAndCall(to, amount, data);\n        return true;\n    }\n\n    function writeAsOrigin(uint256 amount) public returns (bool) {\n        require(now < settlementStart());\n        usd().transferFrom(msg.sender, address(this), amount * strike / 1 ether);\n        totalSupply += amount;\n        balances[tx.origin] += amount;\n        writers[tx.origin] += amount;\n        written += amount;\n    }\n\n    function writeAndApproveAsOrigin(uint256 amount, address to) public returns (bool) {\n        writeAsOrigin(amount);\n        approveAsOrigin(to, amount);\n    }\n\n    function writeApproveAndCallAsOrigin(uint256 amount, address to, bytes memory data) public returns (bool) {\n        writeAndApproveAsOrigin(amount, to);\n        (bool result,) = to.call(data);\n        require(result && allowed[tx.origin][to] < amount);\n        return true;\n    }\n\n    function close(uint256 amount) public returns (bool) {\n        require(now < settlementStart());\n        require(balances[msg.sender] >= amount && writers[msg.sender] >= amount);\n        balances[msg.sender] -= amount;\n        writers[msg.sender] -= amount;\n        written -= amount;\n        totalSupply -= amount;\n        usd().transfer(msg.sender, amount);\n        return true;\n    }\n\n    function exercise() public payable returns (bool) {\n        require(balances[msg.sender] >= msg.value && now < settlementStart());\n        balances[msg.sender] -= msg.value;\n        totalSupply -= msg.value;\n        exercised += msg.value;\n        usd().transfer(msg.sender, msg.value * strike / 1 ether);\n        return true;\n    }\n\n    function assignment() public returns (bool) {\n        require(now > settlementEnd());\n\n        if (writers[msg.sender] > 0) {\n            uint256 writerSettlementUSD = (written - exercised) * strike / 1 ether;\n            uint256 redeemUSD = writers[msg.sender] * writerSettlementUSD / written;\n            uint256 redeemETH = writers[msg.sender] * address(this).balance / written;\n            written -= writers[msg.sender];\n            assigned += writers[msg.sender];\n            writers[msg.sender] = 0;\n            msg.sender.transfer(redeemETH);\n            usd().transfer(msg.sender, redeemUSD);\n        }\n\n        if (balanceOf(msg.sender) > 0) {\n            uint256 writerSettlementUSD = (written - exercised) * strike / 1 ether;\n            uint256 holderSettlement = usd().balanceOf(address(this)) - writerSettlementUSD;\n            uint256 settlement = balances[msg.sender] * holderSettlement / totalSupply;\n            totalSupply -= balances[msg.sender];\n            balances[msg.sender] = 0;\n            usd().transfer(msg.sender, settlement);\n        }\n\n        return true;\n    }\n\n    /** Settlement Functions\n\n        auctionPrice(), settle(), and finishSettlement() are responsible for allowing\n        settlement contracts to capitalize on the arbitrage opportunity provided in\n        the reverse dutch auction.\n     */\n\n    function settle(uint256 quantity) public {\n        uint256 price = auctionPrice();\n        require(quantity <= totalSupply - settled);\n        uint256 usdAmount = quantity * 1 ether / price;\n        ethOwed[msg.sender] = quantity;\n        usd().approve(msg.sender, usdAmount);\n        Auction(msg.sender).receiveUSD(quantity);\n        require(ethOwed[msg.sender] == 0 && usd().allowed(address(this), msg.sender) == 0 && price >= (1 ether * 1 ether) / strike);\n        exercised += quantity;\n        settled += quantity;\n    }\n\n    function finalizeSettlement() public payable {\n        require(msg.value == ethOwed[msg.sender]);\n        ethOwed[msg.sender] = 0;\n    }\n\n    // returns the price in ETH for one USD.\n    function auctionPrice() public view returns (uint256) {\n        require(now > settlementStart() && now <= settlementEnd());\n        uint256 elapsed = now - settlementStart();\n        uint256 e = edge(msg.sender);\n        return (1 ether * (1 ether - e) * SETTLEMENT_DURATION) / (strike * elapsed) + e * 1 ether / strike;\n    }\n\n\n    /** Name & Symbol Functions\n\n        These functions have no technical influence on the mechanics of an option token.\n        They serve to fill the user interface \"name\" and \"symbol\" fields with sensible\n        information about the option token.\n     */\n\n    function name() public returns (string memory) {\n        return Factory(address(FactoryAddress)).getTokenName(false, expiration, strike);\n    }\n\n    function symbol() public returns (string memory) {\n        return Factory(address(FactoryAddress)).getTokenSymbol(false, expiration, strike);\n    }\n}",
  "sourcePath": "/Users/brianwheeler/dsfprotocol/protocol/contracts/ETHPutOptionToken.sol",
  "compiler": {
    "name": "solc",
    "version": "0.5.16+commit.9c3226ce.Emscripten.clang"
  },
  "schemaVersion": "3.0.23",
  "updatedAt": "2020-05-05T17:09:55.652Z",
  "networkType": "ethereum",
  "devdoc": {
    "methods": {}
  },
  "userdoc": {
    "methods": {
      "name()": {
        "notice": "Name & Symbol Functions These functions have no technical influence on the mechanics of an option token. They serve to fill the user interface \"name\" and \"symbol\" fields with sensible information about the option token."
      },
      "settle(uint256)": {
        "notice": "Settlement Functions auctionPrice(), settle(), and finishSettlement() are responsible for allowing settlement contracts to capitalize on the arbitrage opportunity provided in the reverse dutch auction."
      }
    }
  }
}