{
  "contractName": "ETHPutOptionToken",
  "abi": [
    {
      "anonymous": false,
      "inputs": [
        {
          "indexed": true,
          "internalType": "address",
          "name": "_owner",
          "type": "address"
        },
        {
          "indexed": true,
          "internalType": "address",
          "name": "_spender",
          "type": "address"
        },
        {
          "indexed": false,
          "internalType": "uint256",
          "name": "_value",
          "type": "uint256"
        }
      ],
      "name": "Approval",
      "type": "event"
    },
    {
      "anonymous": false,
      "inputs": [
        {
          "indexed": false,
          "internalType": "address",
          "name": "creator",
          "type": "address"
        },
        {
          "indexed": false,
          "internalType": "uint256",
          "name": "supply",
          "type": "uint256"
        }
      ],
      "name": "Created",
      "type": "event"
    },
    {
      "anonymous": false,
      "inputs": [
        {
          "indexed": true,
          "internalType": "address",
          "name": "_from",
          "type": "address"
        },
        {
          "indexed": true,
          "internalType": "address",
          "name": "_to",
          "type": "address"
        },
        {
          "indexed": false,
          "internalType": "uint256",
          "name": "_value",
          "type": "uint256"
        }
      ],
      "name": "Transfer",
      "type": "event"
    },
    {
      "constant": true,
      "inputs": [],
      "name": "MAX_UINT256",
      "outputs": [
        {
          "internalType": "uint256",
          "name": "",
          "type": "uint256"
        }
      ],
      "payable": false,
      "stateMutability": "view",
      "type": "function"
    },
    {
      "constant": true,
      "inputs": [],
      "name": "SETTLEMENT_DURATION",
      "outputs": [
        {
          "internalType": "uint256",
          "name": "",
          "type": "uint256"
        }
      ],
      "payable": false,
      "stateMutability": "view",
      "type": "function"
    },
    {
      "constant": true,
      "inputs": [
        {
          "internalType": "address",
          "name": "_owner",
          "type": "address"
        },
        {
          "internalType": "address",
          "name": "_spender",
          "type": "address"
        }
      ],
      "name": "allowance",
      "outputs": [
        {
          "internalType": "uint256",
          "name": "remaining",
          "type": "uint256"
        }
      ],
      "payable": false,
      "stateMutability": "view",
      "type": "function"
    },
    {
      "constant": true,
      "inputs": [
        {
          "internalType": "address",
          "name": "",
          "type": "address"
        },
        {
          "internalType": "address",
          "name": "",
          "type": "address"
        }
      ],
      "name": "allowed",
      "outputs": [
        {
          "internalType": "uint256",
          "name": "",
          "type": "uint256"
        }
      ],
      "payable": false,
      "stateMutability": "view",
      "type": "function"
    },
    {
      "constant": false,
      "inputs": [
        {
          "internalType": "address",
          "name": "_spender",
          "type": "address"
        },
        {
          "internalType": "uint256",
          "name": "_value",
          "type": "uint256"
        }
      ],
      "name": "approve",
      "outputs": [
        {
          "internalType": "bool",
          "name": "success",
          "type": "bool"
        }
      ],
      "payable": false,
      "stateMutability": "nonpayable",
      "type": "function"
    },
    {
      "constant": false,
      "inputs": [
        {
          "internalType": "address",
          "name": "spender",
          "type": "address"
        },
        {
          "internalType": "uint256",
          "name": "quantity",
          "type": "uint256"
        },
        {
          "internalType": "bytes",
          "name": "data",
          "type": "bytes"
        }
      ],
      "name": "approveAndCall",
      "outputs": [
        {
          "internalType": "bool",
          "name": "",
          "type": "bool"
        }
      ],
      "payable": false,
      "stateMutability": "nonpayable",
      "type": "function"
    },
    {
      "constant": true,
      "inputs": [],
      "name": "assigned",
      "outputs": [
        {
          "internalType": "uint256",
          "name": "",
          "type": "uint256"
        }
      ],
      "payable": false,
      "stateMutability": "view",
      "type": "function"
    },
    {
      "constant": true,
      "inputs": [
        {
          "internalType": "address",
          "name": "_owner",
          "type": "address"
        }
      ],
      "name": "balanceOf",
      "outputs": [
        {
          "internalType": "uint256",
          "name": "balance",
          "type": "uint256"
        }
      ],
      "payable": false,
      "stateMutability": "view",
      "type": "function"
    },
    {
      "constant": true,
      "inputs": [
        {
          "internalType": "address",
          "name": "",
          "type": "address"
        }
      ],
      "name": "balances",
      "outputs": [
        {
          "internalType": "uint256",
          "name": "",
          "type": "uint256"
        }
      ],
      "payable": false,
      "stateMutability": "view",
      "type": "function"
    },
    {
      "constant": true,
      "inputs": [],
      "name": "decimals",
      "outputs": [
        {
          "internalType": "uint8",
          "name": "",
          "type": "uint8"
        }
      ],
      "payable": false,
      "stateMutability": "view",
      "type": "function"
    },
    {
      "constant": true,
      "inputs": [],
      "name": "dsf",
      "outputs": [
        {
          "internalType": "contract ERC20",
          "name": "",
          "type": "address"
        }
      ],
      "payable": false,
      "stateMutability": "pure",
      "type": "function"
    },
    {
      "constant": true,
      "inputs": [
        {
          "internalType": "address",
          "name": "account",
          "type": "address"
        }
      ],
      "name": "edge",
      "outputs": [
        {
          "internalType": "uint256",
          "name": "",
          "type": "uint256"
        }
      ],
      "payable": false,
      "stateMutability": "view",
      "type": "function"
    },
    {
      "constant": true,
      "inputs": [],
      "name": "exercised",
      "outputs": [
        {
          "internalType": "uint256",
          "name": "",
          "type": "uint256"
        }
      ],
      "payable": false,
      "stateMutability": "view",
      "type": "function"
    },
    {
      "constant": true,
      "inputs": [],
      "name": "expiration",
      "outputs": [
        {
          "internalType": "uint256",
          "name": "",
          "type": "uint256"
        }
      ],
      "payable": false,
      "stateMutability": "view",
      "type": "function"
    },
    {
      "constant": false,
      "inputs": [
        {
          "internalType": "uint256",
          "name": "_expiration",
          "type": "uint256"
        },
        {
          "internalType": "uint256",
          "name": "_strike",
          "type": "uint256"
        }
      ],
      "name": "init",
      "outputs": [
        {
          "internalType": "bool",
          "name": "",
          "type": "bool"
        }
      ],
      "payable": false,
      "stateMutability": "nonpayable",
      "type": "function"
    },
    {
      "constant": true,
      "inputs": [],
      "name": "initialized",
      "outputs": [
        {
          "internalType": "bool",
          "name": "",
          "type": "bool"
        }
      ],
      "payable": false,
      "stateMutability": "view",
      "type": "function"
    },
    {
      "constant": true,
      "inputs": [],
      "name": "settled",
      "outputs": [
        {
          "internalType": "uint256",
          "name": "",
          "type": "uint256"
        }
      ],
      "payable": false,
      "stateMutability": "view",
      "type": "function"
    },
    {
      "constant": true,
      "inputs": [],
      "name": "settlementEnd",
      "outputs": [
        {
          "internalType": "uint256",
          "name": "",
          "type": "uint256"
        }
      ],
      "payable": false,
      "stateMutability": "view",
      "type": "function"
    },
    {
      "constant": true,
      "inputs": [],
      "name": "settlementStart",
      "outputs": [
        {
          "internalType": "uint256",
          "name": "",
          "type": "uint256"
        }
      ],
      "payable": false,
      "stateMutability": "view",
      "type": "function"
    },
    {
      "constant": true,
      "inputs": [],
      "name": "strike",
      "outputs": [
        {
          "internalType": "uint256",
          "name": "",
          "type": "uint256"
        }
      ],
      "payable": false,
      "stateMutability": "view",
      "type": "function"
    },
    {
      "constant": true,
      "inputs": [],
      "name": "totalSupply",
      "outputs": [
        {
          "internalType": "uint256",
          "name": "",
          "type": "uint256"
        }
      ],
      "payable": false,
      "stateMutability": "view",
      "type": "function"
    },
    {
      "constant": false,
      "inputs": [
        {
          "internalType": "address",
          "name": "_to",
          "type": "address"
        },
        {
          "internalType": "uint256",
          "name": "_value",
          "type": "uint256"
        }
      ],
      "name": "transfer",
      "outputs": [
        {
          "internalType": "bool",
          "name": "success",
          "type": "bool"
        }
      ],
      "payable": false,
      "stateMutability": "nonpayable",
      "type": "function"
    },
    {
      "constant": false,
      "inputs": [
        {
          "internalType": "address",
          "name": "_from",
          "type": "address"
        },
        {
          "internalType": "address",
          "name": "_to",
          "type": "address"
        },
        {
          "internalType": "uint256",
          "name": "_value",
          "type": "uint256"
        }
      ],
      "name": "transferFrom",
      "outputs": [
        {
          "internalType": "bool",
          "name": "success",
          "type": "bool"
        }
      ],
      "payable": false,
      "stateMutability": "nonpayable",
      "type": "function"
    },
    {
      "constant": true,
      "inputs": [],
      "name": "usd",
      "outputs": [
        {
          "internalType": "contract ERC20",
          "name": "",
          "type": "address"
        }
      ],
      "payable": false,
      "stateMutability": "pure",
      "type": "function"
    },
    {
      "constant": true,
      "inputs": [
        {
          "internalType": "address",
          "name": "",
          "type": "address"
        }
      ],
      "name": "writers",
      "outputs": [
        {
          "internalType": "uint256",
          "name": "",
          "type": "uint256"
        }
      ],
      "payable": false,
      "stateMutability": "view",
      "type": "function"
    },
    {
      "constant": true,
      "inputs": [],
      "name": "written",
      "outputs": [
        {
          "internalType": "uint256",
          "name": "",
          "type": "uint256"
        }
      ],
      "payable": false,
      "stateMutability": "view",
      "type": "function"
    },
    {
      "constant": false,
      "inputs": [
        {
          "internalType": "uint256",
          "name": "amount",
          "type": "uint256"
        }
      ],
      "name": "write",
      "outputs": [
        {
          "internalType": "bool",
          "name": "",
          "type": "bool"
        }
      ],
      "payable": false,
      "stateMutability": "nonpayable",
      "type": "function"
    },
    {
      "constant": false,
      "inputs": [
        {
          "internalType": "uint256",
          "name": "amount",
          "type": "uint256"
        },
        {
          "internalType": "address",
          "name": "spender",
          "type": "address"
        }
      ],
      "name": "writeAndApprove",
      "outputs": [
        {
          "internalType": "bool",
          "name": "",
          "type": "bool"
        }
      ],
      "payable": true,
      "stateMutability": "payable",
      "type": "function"
    },
    {
      "constant": false,
      "inputs": [
        {
          "internalType": "uint256",
          "name": "amount",
          "type": "uint256"
        },
        {
          "internalType": "address",
          "name": "to",
          "type": "address"
        },
        {
          "internalType": "bytes",
          "name": "data",
          "type": "bytes"
        }
      ],
      "name": "writeApproveAndCall",
      "outputs": [
        {
          "internalType": "bool",
          "name": "",
          "type": "bool"
        }
      ],
      "payable": false,
      "stateMutability": "nonpayable",
      "type": "function"
    },
    {
      "constant": false,
      "inputs": [
        {
          "internalType": "uint256",
          "name": "amount",
          "type": "uint256"
        }
      ],
      "name": "writeAsOrigin",
      "outputs": [
        {
          "internalType": "bool",
          "name": "",
          "type": "bool"
        }
      ],
      "payable": false,
      "stateMutability": "nonpayable",
      "type": "function"
    },
    {
      "constant": false,
      "inputs": [
        {
          "internalType": "uint256",
          "name": "amount",
          "type": "uint256"
        },
        {
          "internalType": "address",
          "name": "to",
          "type": "address"
        }
      ],
      "name": "writeAndApproveAsOrigin",
      "outputs": [
        {
          "internalType": "bool",
          "name": "",
          "type": "bool"
        }
      ],
      "payable": false,
      "stateMutability": "nonpayable",
      "type": "function"
    },
    {
      "constant": false,
      "inputs": [
        {
          "internalType": "uint256",
          "name": "amount",
          "type": "uint256"
        },
        {
          "internalType": "address",
          "name": "to",
          "type": "address"
        },
        {
          "internalType": "bytes",
          "name": "data",
          "type": "bytes"
        }
      ],
      "name": "writeApproveAndCallAsOrigin",
      "outputs": [
        {
          "internalType": "bool",
          "name": "",
          "type": "bool"
        }
      ],
      "payable": false,
      "stateMutability": "nonpayable",
      "type": "function"
    },
    {
      "constant": false,
      "inputs": [
        {
          "internalType": "uint256",
          "name": "amount",
          "type": "uint256"
        }
      ],
      "name": "close",
      "outputs": [
        {
          "internalType": "bool",
          "name": "",
          "type": "bool"
        }
      ],
      "payable": false,
      "stateMutability": "nonpayable",
      "type": "function"
    },
    {
      "constant": false,
      "inputs": [],
      "name": "exercise",
      "outputs": [
        {
          "internalType": "bool",
          "name": "",
          "type": "bool"
        }
      ],
      "payable": true,
      "stateMutability": "payable",
      "type": "function"
    },
    {
      "constant": false,
      "inputs": [],
      "name": "liquidate",
      "outputs": [
        {
          "internalType": "bool",
          "name": "",
          "type": "bool"
        }
      ],
      "payable": false,
      "stateMutability": "nonpayable",
      "type": "function"
    },
    {
      "constant": false,
      "inputs": [],
      "name": "assign",
      "outputs": [
        {
          "internalType": "bool",
          "name": "",
          "type": "bool"
        }
      ],
      "payable": false,
      "stateMutability": "nonpayable",
      "type": "function"
    },
    {
      "constant": false,
      "inputs": [
        {
          "internalType": "uint256",
          "name": "quantity",
          "type": "uint256"
        }
      ],
      "name": "settle",
      "outputs": [],
      "payable": false,
      "stateMutability": "nonpayable",
      "type": "function"
    },
    {
      "constant": false,
      "inputs": [],
      "name": "finalizeSettlement",
      "outputs": [],
      "payable": true,
      "stateMutability": "payable",
      "type": "function"
    },
    {
      "constant": true,
      "inputs": [],
      "name": "auctionPrice",
      "outputs": [
        {
          "internalType": "uint256",
          "name": "",
          "type": "uint256"
        }
      ],
      "payable": false,
      "stateMutability": "view",
      "type": "function"
    },
    {
      "constant": false,
      "inputs": [],
      "name": "name",
      "outputs": [
        {
          "internalType": "string",
          "name": "",
          "type": "string"
        }
      ],
      "payable": false,
      "stateMutability": "nonpayable",
      "type": "function"
    },
    {
      "constant": false,
      "inputs": [],
      "name": "symbol",
      "outputs": [
        {
          "internalType": "string",
          "name": "",
          "type": "string"
        }
      ],
      "payable": false,
      "stateMutability": "nonpayable",
      "type": "function"
    }
  ],
  "bytecode": "0x608060405234801561001057600080fd5b506131b3806100206000396000f3fe6080604052600436106102465760003560e01c806356742b5a11610139578063a9059cbb116100b6578063cae9ca511161007a578063cae9ca5114610e00578063d32cb0fe14610f0a578063d63a6ccd14610f2c578063d7fd7bb914610f83578063dd62ed3e14610fae578063e506ceb61461103357610246565b8063a9059cbb14610bda578063ad8f500814610c4d578063adb4d99014610c78578063bf66be9d14610ca3578063c696848d14610dad57610246565b80638e7e80a2116100fd5780638e7e80a214610a325780638f77583914610a9757806395d89b4114610ac2578063a47b328914610b52578063a5843f0814610b7d57610246565b806356742b5a1461088b5780635c658165146108b65780636664eb161461093b57806370a08231146109925780638df82800146109f757610246565b806323b872dd116101c757806333a581d21161018b57806333a581d21461077a5780633cc8fd7a146107a557806342a47cfe1461080a5780634665096d1461083557806350b72eb31461086057610246565b806323b872dd146105cf57806327e235e31461066257806328a07025146106c75780632f048afa146106f6578063313ce5671461074957610246565b806314c68b1b1161020e57806314c68b1b146104da578063158ef93e1461050557806318160ddd146105345780631bb3399d1461055f5780631ef23cc41461056957610246565b806306fdde031461024b57806308e419cf146102db578063095ea7b3146103e55780630aebeb4e1461045857806312ae6397146104ab575b600080fd5b34801561025757600080fd5b506102606110a6565b6040518080602001828103825283818151815260200191508051906020019080838360005b838110156102a0578082015181840152602081019050610285565b50505050905090810190601f1680156102cd5780820380516001836020036101000a031916815260200191505b509250505060405180910390f35b3480156102e757600080fd5b506103cb600480360360608110156102fe57600080fd5b8101908080359060200190929190803573ffffffffffffffffffffffffffffffffffffffff1690602001909291908035906020019064010000000081111561034557600080fd5b82018360208201111561035757600080fd5b8035906020019184600183028401116401000000008311171561037957600080fd5b91908080601f016020809104026020016040519081016040528093929190818152602001838380828437600081840152601f19601f820116905080830192505050505050509192919290505050611226565b604051808215151515815260200191505060405180910390f35b3480156103f157600080fd5b5061043e6004803603604081101561040857600080fd5b81019080803573ffffffffffffffffffffffffffffffffffffffff16906020019092919080359060200190929190505050611249565b604051808215151515815260200191505060405180910390f35b34801561046457600080fd5b506104916004803603602081101561047b57600080fd5b810190808035906020019092919050505061133b565b604051808215151515815260200191505060405180910390f35b3480156104b757600080fd5b506104c0611572565b604051808215151515815260200191505060405180910390f35b3480156104e657600080fd5b506104ef611847565b6040518082815260200191505060405180910390f35b34801561051157600080fd5b5061051a61184d565b604051808215151515815260200191505060405180910390f35b34801561054057600080fd5b50610549611860565b6040518082815260200191505060405180910390f35b610567611866565b005b6105b56004803603604081101561057f57600080fd5b8101908080359060200190929190803573ffffffffffffffffffffffffffffffffffffffff1690602001909291905050506118f6565b604051808215151515815260200191505060405180910390f35b3480156105db57600080fd5b50610648600480360360608110156105f257600080fd5b81019080803573ffffffffffffffffffffffffffffffffffffffff169060200190929190803573ffffffffffffffffffffffffffffffffffffffff16906020019092919080359060200190929190505050611913565b604051808215151515815260200191505060405180910390f35b34801561066e57600080fd5b506106b16004803603602081101561068557600080fd5b81019080803573ffffffffffffffffffffffffffffffffffffffff169060200190929190505050611ba8565b6040518082815260200191505060405180910390f35b3480156106d357600080fd5b506106dc611bc0565b604051808215151515815260200191505060405180910390f35b34801561070257600080fd5b5061072f6004803603602081101561071957600080fd5b8101908080359060200190929190505050611e70565b604051808215151515815260200191505060405180910390f35b34801561075557600080fd5b5061075e61205a565b604051808260ff1660ff16815260200191505060405180910390f35b34801561078657600080fd5b5061078f61205f565b6040518082815260200191505060405180910390f35b3480156107b157600080fd5b506107f4600480360360208110156107c857600080fd5b81019080803573ffffffffffffffffffffffffffffffffffffffff169060200190929190505050612083565b6040518082815260200191505060405180910390f35b34801561081657600080fd5b5061081f612177565b6040518082815260200191505060405180910390f35b34801561084157600080fd5b5061084a612185565b6040518082815260200191505060405180910390f35b34801561086c57600080fd5b5061087561218b565b6040518082815260200191505060405180910390f35b34801561089757600080fd5b506108a0612191565b6040518082815260200191505060405180910390f35b3480156108c257600080fd5b50610925600480360360408110156108d957600080fd5b81019080803573ffffffffffffffffffffffffffffffffffffffff169060200190929190803573ffffffffffffffffffffffffffffffffffffffff16906020019092919050505061220c565b6040518082815260200191505060405180910390f35b34801561094757600080fd5b50610950612231565b604051808273ffffffffffffffffffffffffffffffffffffffff1673ffffffffffffffffffffffffffffffffffffffff16815260200191505060405180910390f35b34801561099e57600080fd5b506109e1600480360360208110156109b557600080fd5b81019080803573ffffffffffffffffffffffffffffffffffffffff16906020019092919050505061224d565b6040518082815260200191505060405180910390f35b348015610a0357600080fd5b50610a3060048036036020811015610a1a57600080fd5b8101908080359060200190929190505050612295565b005b348015610a3e57600080fd5b50610a8160048036036020811015610a5557600080fd5b81019080803573ffffffffffffffffffffffffffffffffffffffff1690602001909291905050506125f3565b6040518082815260200191505060405180910390f35b348015610aa357600080fd5b50610aac61260b565b6040518082815260200191505060405180910390f35b348015610ace57600080fd5b50610ad7612611565b6040518080602001828103825283818151815260200191508051906020019080838360005b83811015610b17578082015181840152602081019050610afc565b50505050905090810190601f168015610b445780820380516001836020036101000a031916815260200191505b509250505060405180910390f35b348015610b5e57600080fd5b50610b67612791565b6040518082815260200191505060405180910390f35b348015610b8957600080fd5b50610bc060048036036040811015610ba057600080fd5b810190808035906020019092919080359060200190929190505050612797565b604051808215151515815260200191505060405180910390f35b348015610be657600080fd5b50610c3360048036036040811015610bfd57600080fd5b81019080803573ffffffffffffffffffffffffffffffffffffffff169060200190929190803590602001909291905050506127eb565b604051808215151515815260200191505060405180910390f35b348015610c5957600080fd5b50610c6261293f565b6040518082815260200191505060405180910390f35b348015610c8457600080fd5b50610c8d612945565b6040518082815260200191505060405180910390f35b348015610caf57600080fd5b50610d9360048036036060811015610cc657600080fd5b8101908080359060200190929190803573ffffffffffffffffffffffffffffffffffffffff16906020019092919080359060200190640100000000811115610d0d57600080fd5b820183602082011115610d1f57600080fd5b80359060200191846001830284011164010000000083111715610d4157600080fd5b91908080601f016020809104026020016040519081016040528093929190818152602001838380828437600081840152601f19601f82011690508083019250505050505050919291929050505061294b565b604051808215151515815260200191505060405180910390f35b348015610db957600080fd5b50610de660048036036020811015610dd057600080fd5b8101908080359060200190929190505050612aad565b604051808215151515815260200191505060405180910390f35b348015610e0c57600080fd5b50610ef060048036036060811015610e2357600080fd5b81019080803573ffffffffffffffffffffffffffffffffffffffff1690602001909291908035906020019092919080359060200190640100000000811115610e6a57600080fd5b820183602082011115610e7c57600080fd5b80359060200191846001830284011164010000000083111715610e9e57600080fd5b91908080601f016020809104026020016040519081016040528093929190818152602001838380828437600081840152601f19601f820116905080830192505050505050509192919290505050612c93565b604051808215151515815260200191505060405180910390f35b610f12612df5565b604051808215151515815260200191505060405180910390f35b348015610f3857600080fd5b50610f41612fa6565b604051808273ffffffffffffffffffffffffffffffffffffffff1673ffffffffffffffffffffffffffffffffffffffff16815260200191505060405180910390f35b348015610f8f57600080fd5b50610f98612fc2565b6040518082815260200191505060405180910390f35b348015610fba57600080fd5b5061101d60048036036040811015610fd157600080fd5b81019080803573ffffffffffffffffffffffffffffffffffffffff169060200190929190803573ffffffffffffffffffffffffffffffffffffffff169060200190929190505050612fcc565b6040518082815260200191505060405180910390f35b34801561103f57600080fd5b5061108c6004803603604081101561105657600080fd5b8101908080359060200190929190803573ffffffffffffffffffffffffffffffffffffffff169060200190929190505050613053565b604051808215151515815260200191505060405180910390f35b606073__FactoryAddress________________________73ffffffffffffffffffffffffffffffffffffffff1663ccf953bd60006004546005546040518463ffffffff1660e01b815260040180841515151581526020018381526020018281526020019350505050600060405180830381600087803b15801561112857600080fd5b505af115801561113c573d6000803e3d6000fd5b505050506040513d6000823e3d601f19601f82011682018060405250602081101561116657600080fd5b810190808051604051939291908464010000000082111561118657600080fd5b8382019150602082018581111561119c57600080fd5b82518660018202830111640100000000821117156111b957600080fd5b8083526020830192505050908051906020019080838360005b838110156111ed5780820151818401526020810190506111d2565b50505050905090810190601f16801561121a5780820380516001836020036101000a031916815260200191505b50604052505050905090565b600061123184611e70565b5061123d838584612c93565b50600190509392505050565b600081600160003373ffffffffffffffffffffffffffffffffffffffff1673ffffffffffffffffffffffffffffffffffffffff16815260200190815260200160002060008573ffffffffffffffffffffffffffffffffffffffff1673ffffffffffffffffffffffffffffffffffffffff168152602001908152602001600020819055508273ffffffffffffffffffffffffffffffffffffffff163373ffffffffffffffffffffffffffffffffffffffff167f8c5be1e5ebec7d5bd14f71427d1e84f3dd0314c0f7b2291e5b200ac8c7c3b925846040518082815260200191505060405180910390a36001905092915050565b6000611345612fc2565b421061135057600080fd5b816000803373ffffffffffffffffffffffffffffffffffffffff1673ffffffffffffffffffffffffffffffffffffffff16815260200190815260200160002054101580156113dd575081600660003373ffffffffffffffffffffffffffffffffffffffff1673ffffffffffffffffffffffffffffffffffffffff1681526020019081526020016000205410155b6113e657600080fd5b816000803373ffffffffffffffffffffffffffffffffffffffff1673ffffffffffffffffffffffffffffffffffffffff1681526020019081526020016000206000828254039250508190555081600660003373ffffffffffffffffffffffffffffffffffffffff1673ffffffffffffffffffffffffffffffffffffffff1681526020019081526020016000206000828254039250508190555081600860008282540392505081905550816002600082825403925050819055506114a7612fa6565b73ffffffffffffffffffffffffffffffffffffffff1663a9059cbb33846040518363ffffffff1660e01b8152600401808373ffffffffffffffffffffffffffffffffffffffff1673ffffffffffffffffffffffffffffffffffffffff16815260200182815260200192505050602060405180830381600087803b15801561152d57600080fd5b505af1158015611541573d6000803e3d6000fd5b505050506040513d602081101561155757600080fd5b81019080805190602001909291905050505060019050919050565b600061157c612177565b421161158757600080fd5b6000670de0b6b3a76400006005546007546008540302816115a457fe5b049050600060085482600660003373ffffffffffffffffffffffffffffffffffffffff1673ffffffffffffffffffffffffffffffffffffffff1681526020019081526020016000205402816115f557fe5b049050600060085447600660003373ffffffffffffffffffffffffffffffffffffffff1673ffffffffffffffffffffffffffffffffffffffff16815260200190815260200160002054028161164657fe5b049050600660003373ffffffffffffffffffffffffffffffffffffffff1673ffffffffffffffffffffffffffffffffffffffff16815260200190815260200160002054600860008282540392505081905550600660003373ffffffffffffffffffffffffffffffffffffffff1673ffffffffffffffffffffffffffffffffffffffff168152602001908152602001600020546009600082825401925050819055506000600660003373ffffffffffffffffffffffffffffffffffffffff1673ffffffffffffffffffffffffffffffffffffffff168152602001908152602001600020819055503373ffffffffffffffffffffffffffffffffffffffff166108fc829081150290604051600060405180830381858888f19350505050158015611772573d6000803e3d6000fd5b5061177b612fa6565b73ffffffffffffffffffffffffffffffffffffffff1663a9059cbb33846040518363ffffffff1660e01b8152600401808373ffffffffffffffffffffffffffffffffffffffff1673ffffffffffffffffffffffffffffffffffffffff16815260200182815260200192505050602060405180830381600087803b15801561180157600080fd5b505af1158015611815573d6000803e3d6000fd5b505050506040513d602081101561182b57600080fd5b8101908080519060200190929190505050506001935050505090565b60075481565b600360009054906101000a900460ff1681565b60025481565b600b60003373ffffffffffffffffffffffffffffffffffffffff1673ffffffffffffffffffffffffffffffffffffffff1681526020019081526020016000205434146118b157600080fd5b6000600b60003373ffffffffffffffffffffffffffffffffffffffff1673ffffffffffffffffffffffffffffffffffffffff1681526020019081526020016000205050565b600061190183611e70565b5061190c8234611249565b5092915050565b600080600160008673ffffffffffffffffffffffffffffffffffffffff1673ffffffffffffffffffffffffffffffffffffffff16815260200190815260200160002060003373ffffffffffffffffffffffffffffffffffffffff1673ffffffffffffffffffffffffffffffffffffffff168152602001908152602001600020549050826000808773ffffffffffffffffffffffffffffffffffffffff1673ffffffffffffffffffffffffffffffffffffffff16815260200190815260200160002054101580156119e35750828110155b6119ec57600080fd5b826000808773ffffffffffffffffffffffffffffffffffffffff1673ffffffffffffffffffffffffffffffffffffffff16815260200190815260200160002060008282540392505081905550826000808673ffffffffffffffffffffffffffffffffffffffff1673ffffffffffffffffffffffffffffffffffffffff168152602001908152602001600020600082825401925050819055507fffffffffffffffffffffffffffffffffffffffffffffffffffffffffffffffff811015611b375782600160008773ffffffffffffffffffffffffffffffffffffffff1673ffffffffffffffffffffffffffffffffffffffff16815260200190815260200160002060003373ffffffffffffffffffffffffffffffffffffffff1673ffffffffffffffffffffffffffffffffffffffff168152602001908152602001600020600082825403925050819055505b8373ffffffffffffffffffffffffffffffffffffffff168573ffffffffffffffffffffffffffffffffffffffff167fddf252ad1be2c89b69c2b068fc378daa952ba7f163c4a11628f55a4df523b3ef856040518082815260200191505060405180910390a360019150509392505050565b60006020528060005260406000206000915090505481565b6000611bca612177565b4211611bd557600080fd5b6000670de0b6b3a7640000600554600754600854030281611bf257fe5b049050600081611c00612fa6565b73ffffffffffffffffffffffffffffffffffffffff166370a08231306040518263ffffffff1660e01b8152600401808273ffffffffffffffffffffffffffffffffffffffff1673ffffffffffffffffffffffffffffffffffffffff16815260200191505060206040518083038186803b158015611c7c57600080fd5b505afa158015611c90573d6000803e3d6000fd5b505050506040513d6020811015611ca657600080fd5b81019080805190602001909291905050500390506000600254826000803373ffffffffffffffffffffffffffffffffffffffff1673ffffffffffffffffffffffffffffffffffffffff168152602001908152602001600020540281611d0757fe5b0490506000803373ffffffffffffffffffffffffffffffffffffffff1673ffffffffffffffffffffffffffffffffffffffff1681526020019081526020016000205460026000828254039250508190555060008060003373ffffffffffffffffffffffffffffffffffffffff1673ffffffffffffffffffffffffffffffffffffffff16815260200190815260200160002081905550611da4612fa6565b73ffffffffffffffffffffffffffffffffffffffff1663a9059cbb33836040518363ffffffff1660e01b8152600401808373ffffffffffffffffffffffffffffffffffffffff1673ffffffffffffffffffffffffffffffffffffffff16815260200182815260200192505050602060405180830381600087803b158015611e2a57600080fd5b505af1158015611e3e573d6000803e3d6000fd5b505050506040513d6020811015611e5457600080fd5b8101908080519060200190929190505050506001935050505090565b6000611e7a612fc2565b4210611e8557600080fd5b611e8d612fa6565b73ffffffffffffffffffffffffffffffffffffffff166323b872dd3330670de0b6b3a7640000600554870281611ebf57fe5b046040518463ffffffff1660e01b8152600401808473ffffffffffffffffffffffffffffffffffffffff1673ffffffffffffffffffffffffffffffffffffffff1681526020018373ffffffffffffffffffffffffffffffffffffffff1673ffffffffffffffffffffffffffffffffffffffff1681526020018281526020019350505050602060405180830381600087803b158015611f5c57600080fd5b505af1158015611f70573d6000803e3d6000fd5b505050506040513d6020811015611f8657600080fd5b81019080805190602001909291905050505081600260008282540192505081905550816000803373ffffffffffffffffffffffffffffffffffffffff1673ffffffffffffffffffffffffffffffffffffffff1681526020019081526020016000206000828254019250508190555081600660003373ffffffffffffffffffffffffffffffffffffffff1673ffffffffffffffffffffffffffffffffffffffff168152602001908152602001600020600082825401925050819055508160086000828254019250508190555060019050919050565b601281565b7fffffffffffffffffffffffffffffffffffffffffffffffffffffffffffffffff81565b60006801ce97ca0f21055555612097612231565b73ffffffffffffffffffffffffffffffffffffffff166370a08231846040518263ffffffff1660e01b8152600401808273ffffffffffffffffffffffffffffffffffffffff1673ffffffffffffffffffffffffffffffffffffffff16815260200191505060206040518083038186803b15801561211357600080fd5b505afa158015612127573d6000803e3d6000fd5b505050506040513d602081101561213d57600080fd5b8101908080519060200190929190505050016ec097ce7bc90715b34b9f10000000008161216657fe5b04666a94d74f430000039050919050565b600061a8c060045401905090565b60045481565b61a8c081565b60008061219c612fc2565b420390506121a8612fc2565b421180156121bc57506121b9612177565b42105b6121c557600080fd5b60006121d033612083565b9050600554670de0b6b3a76400008202816121e757fe5b04826005540261a8c083670de0b6b3a764000003028161220357fe5b04019250505090565b6001602052816000526040600020602052806000526040600020600091509150505481565b600073__DSF___________________________________905090565b60008060008373ffffffffffffffffffffffffffffffffffffffff1673ffffffffffffffffffffffffffffffffffffffff168152602001908152602001600020549050919050565b600061229f612191565b90506122b1600a546002540383613070565b91506000670de0b6b3a76400006005548402816122ca57fe5b0490506000670de0b6b3a7640000838302816122e257fe5b04905080600b60003373ffffffffffffffffffffffffffffffffffffffff1673ffffffffffffffffffffffffffffffffffffffff16815260200190815260200160002081905550612331612fa6565b73ffffffffffffffffffffffffffffffffffffffff1663095ea7b333846040518363ffffffff1660e01b8152600401808373ffffffffffffffffffffffffffffffffffffffff1673ffffffffffffffffffffffffffffffffffffffff16815260200182815260200192505050602060405180830381600087803b1580156123b757600080fd5b505af11580156123cb573d6000803e3d6000fd5b505050506040513d60208110156123e157600080fd5b8101908080519060200190929190505050503373ffffffffffffffffffffffffffffffffffffffff1663236f0d40856040518263ffffffff1660e01b815260040180828152602001915050600060405180830381600087803b15801561244657600080fd5b505af115801561245a573d6000803e3d6000fd5b505050506000600b60003373ffffffffffffffffffffffffffffffffffffffff1673ffffffffffffffffffffffffffffffffffffffff1681526020019081526020016000205414801561259f575060006124b2612fa6565b73ffffffffffffffffffffffffffffffffffffffff16635c65816530336040518363ffffffff1660e01b8152600401808373ffffffffffffffffffffffffffffffffffffffff1673ffffffffffffffffffffffffffffffffffffffff1681526020018273ffffffffffffffffffffffffffffffffffffffff1673ffffffffffffffffffffffffffffffffffffffff1681526020019250505060206040518083038186803b15801561256257600080fd5b505afa158015612576573d6000803e3d6000fd5b505050506040513d602081101561258c57600080fd5b8101908080519060200190929190505050145b80156125c457506005546ec097ce7bc90715b34b9f1000000000816125c057fe5b0483115b6125cd57600080fd5b8360076000828254019250508190555083600a6000828254019250508190555050505050565b60066020528060005260406000206000915090505481565b600a5481565b606073__FactoryAddress________________________73ffffffffffffffffffffffffffffffffffffffff1663183cffb760006004546005546040518463ffffffff1660e01b815260040180841515151581526020018381526020018281526020019350505050600060405180830381600087803b15801561269357600080fd5b505af11580156126a7573d6000803e3d6000fd5b505050506040513d6000823e3d601f19601f8201168201806040525060208110156126d157600080fd5b81019080805160405193929190846401000000008211156126f157600080fd5b8382019150602082018581111561270757600080fd5b825186600182028301116401000000008211171561272457600080fd5b8083526020830192505050908051906020019080838360005b8381101561275857808201518184015260208101905061273d565b50505050905090810190601f1680156127855780820380516001836020036101000a031916815260200191505b50604052505050905090565b60085481565b6000801515600360009054906101000a900460ff161515146127b857600080fd5b82600481905550816005819055506001600360006101000a81548160ff0219169083151502179055506001905092915050565b6000816000803373ffffffffffffffffffffffffffffffffffffffff1673ffffffffffffffffffffffffffffffffffffffff16815260200190815260200160002054101561283857600080fd5b816000803373ffffffffffffffffffffffffffffffffffffffff1673ffffffffffffffffffffffffffffffffffffffff16815260200190815260200160002060008282540392505081905550816000808573ffffffffffffffffffffffffffffffffffffffff1673ffffffffffffffffffffffffffffffffffffffff168152602001908152602001600020600082825401925050819055508273ffffffffffffffffffffffffffffffffffffffff163373ffffffffffffffffffffffffffffffffffffffff167fddf252ad1be2c89b69c2b068fc378daa952ba7f163c4a11628f55a4df523b3ef846040518082815260200191505060405180910390a36001905092915050565b60055481565b60095481565b60006129578484613053565b5060008373ffffffffffffffffffffffffffffffffffffffff16836040518082805190602001908083835b602083106129a55780518252602082019150602081019050602083039250612982565b6001836020036101000a0380198251168184511680821785525050505050509050019150506000604051808303816000865af19150503d8060008114612a07576040519150601f19603f3d011682016040523d82523d6000602084013e612a0c565b606091505b50509050808015612a98575084600160003273ffffffffffffffffffffffffffffffffffffffff1673ffffffffffffffffffffffffffffffffffffffff16815260200190815260200160002060008673ffffffffffffffffffffffffffffffffffffffff1673ffffffffffffffffffffffffffffffffffffffff16815260200190815260200160002054105b612aa157600080fd5b60019150509392505050565b6000612ab7612fc2565b4210612ac257600080fd5b612aca612fa6565b73ffffffffffffffffffffffffffffffffffffffff166323b872dd3330670de0b6b3a7640000600554870281612afc57fe5b046040518463ffffffff1660e01b8152600401808473ffffffffffffffffffffffffffffffffffffffff1673ffffffffffffffffffffffffffffffffffffffff1681526020018373ffffffffffffffffffffffffffffffffffffffff1673ffffffffffffffffffffffffffffffffffffffff1681526020018281526020019350505050602060405180830381600087803b158015612b9957600080fd5b505af1158015612bad573d6000803e3d6000fd5b505050506040513d6020811015612bc357600080fd5b81019080805190602001909291905050505081600260008282540192505081905550816000803273ffffffffffffffffffffffffffffffffffffffff1673ffffffffffffffffffffffffffffffffffffffff1681526020019081526020016000206000828254019250508190555081600660003273ffffffffffffffffffffffffffffffffffffffff1673ffffffffffffffffffffffffffffffffffffffff1681526020019081526020016000206000828254019250508190555081600860008282540192505081905550919050565b6000612c9f8484611249565b5060008473ffffffffffffffffffffffffffffffffffffffff16836040518082805190602001908083835b60208310612ced5780518252602082019150602081019050602083039250612cca565b6001836020036101000a0380198251168184511680821785525050505050509050019150506000604051808303816000865af19150503d8060008114612d4f576040519150601f19603f3d011682016040523d82523d6000602084013e612d54565b606091505b50509050808015612de0575083600160003373ffffffffffffffffffffffffffffffffffffffff1673ffffffffffffffffffffffffffffffffffffffff16815260200190815260200160002060008773ffffffffffffffffffffffffffffffffffffffff1673ffffffffffffffffffffffffffffffffffffffff16815260200190815260200160002054105b612de957600080fd5b60019150509392505050565b6000346000803373ffffffffffffffffffffffffffffffffffffffff1673ffffffffffffffffffffffffffffffffffffffff1681526020019081526020016000205410158015612e4b5750612e48612fc2565b42105b612e5457600080fd5b346000803373ffffffffffffffffffffffffffffffffffffffff1673ffffffffffffffffffffffffffffffffffffffff168152602001908152602001600020600082825403925050819055503460026000828254039250508190555034600760008282540192505081905550612ec8612fa6565b73ffffffffffffffffffffffffffffffffffffffff1663a9059cbb33670de0b6b3a7640000600554340281612ef957fe5b046040518363ffffffff1660e01b8152600401808373ffffffffffffffffffffffffffffffffffffffff1673ffffffffffffffffffffffffffffffffffffffff16815260200182815260200192505050602060405180830381600087803b158015612f6357600080fd5b505af1158015612f77573d6000803e3d6000fd5b505050506040513d6020811015612f8d57600080fd5b8101908080519060200190929190505050506001905090565b600073__USD___________________________________905090565b6000600454905090565b6000600160008473ffffffffffffffffffffffffffffffffffffffff1673ffffffffffffffffffffffffffffffffffffffff16815260200190815260200160002060008373ffffffffffffffffffffffffffffffffffffffff1673ffffffffffffffffffffffffffffffffffffffff16815260200190815260200160002054905092915050565b600061305e83612aad565b50613069828461308c565b5092915050565b60008183101561308257829050613086565b8190505b92915050565b600081600160003273ffffffffffffffffffffffffffffffffffffffff1673ffffffffffffffffffffffffffffffffffffffff16815260200190815260200160002060008573ffffffffffffffffffffffffffffffffffffffff1673ffffffffffffffffffffffffffffffffffffffff168152602001908152602001600020819055508273ffffffffffffffffffffffffffffffffffffffff163373ffffffffffffffffffffffffffffffffffffffff167f8c5be1e5ebec7d5bd14f71427d1e84f3dd0314c0f7b2291e5b200ac8c7c3b925846040518082815260200191505060405180910390a3600190509291505056fea265627a7a72315820c97f4c53fe18533cc13662fd0cc634de9a9adb05c99a299b83c5419f8f6f0f3e64736f6c63430005100032",
  "source": "pragma solidity ^0.5;\n\nimport \"./OptionToken.sol\";\n\n\ncontract ETHPutOptionToken is OptionToken {\n\n    // used in settlement when USD is sent and contract expects ETH in return.\n    mapping(address => uint256) ethOwed;\n\n    function write(uint256 amount) public returns (bool) {\n        require(now < settlementStart());\n        usd().transferFrom(msg.sender, address(this), amount * strike / 1 ether);\n        totalSupply += amount;\n        balances[msg.sender] += amount;\n        writers[msg.sender] += amount;\n        written += amount;\n        return true;\n    }\n\n    function writeAndApprove(uint256 amount, address spender) public payable returns (bool) {\n        write(amount);\n        approve(spender, msg.value);\n    }\n\n    function writeApproveAndCall(uint256 amount, address to, bytes memory data) public returns (bool) {\n        write(amount);\n        approveAndCall(to, amount, data);\n        return true;\n    }\n\n    function writeAsOrigin(uint256 amount) public returns (bool) {\n        require(now < settlementStart());\n        usd().transferFrom(msg.sender, address(this), amount * strike / 1 ether);\n        totalSupply += amount;\n        balances[tx.origin] += amount;\n        writers[tx.origin] += amount;\n        written += amount;\n    }\n\n    function writeAndApproveAsOrigin(uint256 amount, address to) public returns (bool) {\n        writeAsOrigin(amount);\n        approveAsOrigin(to, amount);\n    }\n\n    function writeApproveAndCallAsOrigin(uint256 amount, address to, bytes memory data) public returns (bool) {\n        writeAndApproveAsOrigin(amount, to);\n        (bool result,) = to.call(data);\n        require(result && allowed[tx.origin][to] < amount);\n        return true;\n    }\n\n    function close(uint256 amount) public returns (bool) {\n        require(now < settlementStart());\n        require(balances[msg.sender] >= amount && writers[msg.sender] >= amount);\n        balances[msg.sender] -= amount;\n        writers[msg.sender] -= amount;\n        written -= amount;\n        totalSupply -= amount;\n        usd().transfer(msg.sender, amount);\n        return true;\n    }\n\n    function exercise() public payable returns (bool) {\n        require(balances[msg.sender] >= msg.value && now < settlementStart());\n        balances[msg.sender] -= msg.value;\n        totalSupply -= msg.value;\n        exercised += msg.value;\n        usd().transfer(msg.sender, msg.value * strike / 1 ether);\n        return true;\n    }\n\n    // Holder   \n    function liquidate() public returns (bool) {\n        require(now > settlementEnd());\n        uint256 writerSettlement = (written - exercised) * strike / 1 ether;\n        uint256 holderSettlement = usd().balanceOf(address(this)) - writerSettlement;\n        uint256 settlement = balances[msg.sender] * holderSettlement / totalSupply;\n        totalSupply -= balances[msg.sender];\n        balances[msg.sender] = 0;\n        usd().transfer(msg.sender, settlement);\n        return true;\n    }\n\n    function assign() public returns (bool) {\n        require(now > settlementEnd());\n        uint256 writerSettlementUSD = (written - exercised) * strike / 1 ether;\n        uint256 redeemUSD = writers[msg.sender] * writerSettlementUSD / written;\n        uint256 redeemETH = writers[msg.sender] * address(this).balance / written;\n        written -= writers[msg.sender];\n        assigned += writers[msg.sender];\n        writers[msg.sender] = 0;\n        msg.sender.transfer(redeemETH);\n        usd().transfer(msg.sender, redeemUSD);\n        return true;\n    }\n\n    /** Settlement Functions\n\n        auctionPrice(), settle(), and finishSettlement() are responsible for allowing\n        settlement contracts to capitalize on the arbitrage opportunity provided in\n        the reverse dutch auction.\n     */\n\n    function settle(uint256 quantity) public {\n        uint256 price = auctionPrice();\n        quantity = min(totalSupply - settled, quantity);\n        uint256 usdAmount = quantity * strike / 1 ether;\n        uint256 giving = usdAmount * price / 1 ether;\n        ethOwed[msg.sender] = giving;\n        usd().approve(msg.sender, usdAmount);\n        Auction(msg.sender).receiveUSD(quantity);\n        require(ethOwed[msg.sender] == 0 && usd().allowed(address(this), msg.sender) == 0 && price > (1 ether * 1 ether) / strike);\n        exercised += quantity;\n        settled += quantity;\n    }\n\n    function finalizeSettlement() public payable {\n        require(msg.value == ethOwed[msg.sender]);\n        ethOwed[msg.sender] == 0;\n    }\n\n    // returns the price in ETH for one USD.\n    function auctionPrice() public view returns (uint256) {\n        uint256 elapsed = now - settlementStart();\n        require(now > settlementStart() && now < settlementEnd());\n        uint256 e = edge(msg.sender);\n        return ((1 ether - e) * SETTLEMENT_DURATION) / (strike * elapsed) + e * 1 ether / strike;\n    }\n\n\n    /** Name & Symbol Functions\n\n        These functions have no technical influence on the mechanics of an option token.\n        They serve to fill the user interface \"name\" and \"symbol\" fields with sensible\n        information about the option token.\n     */\n\n    function name() public returns (string memory) {\n        return Factory(address(FactoryAddress)).getTokenName(false, expiration, strike);\n    }\n\n    function symbol() public returns (string memory) {\n        return Factory(address(FactoryAddress)).getTokenSymbol(false, expiration, strike);\n    }\n}",
  "sourcePath": "/Users/brianwheeler/optimum/protocol/contracts/ETHPutOptionToken.sol",
  "compiler": {
    "name": "solc",
    "version": "0.5.16+commit.9c3226ce.Emscripten.clang"
  },
  "schemaVersion": "3.0.23",
  "updatedAt": "2020-04-01T20:35:54.910Z",
  "devdoc": {
    "methods": {}
  },
  "userdoc": {
    "methods": {
      "name()": {
        "notice": "Name & Symbol Functions These functions have no technical influence on the mechanics of an option token. They serve to fill the user interface \"name\" and \"symbol\" fields with sensible information about the option token."
      },
      "settle(uint256)": {
        "notice": "Settlement Functions auctionPrice(), settle(), and finishSettlement() are responsible for allowing settlement contracts to capitalize on the arbitrage opportunity provided in the reverse dutch auction."
      }
    }
  }
}