{
  "contractName": "Math",
  "abi": [
    {
      "constant": true,
      "inputs": [
        {
          "internalType": "uint256",
          "name": "x",
          "type": "uint256"
        }
      ],
      "name": "ln",
      "outputs": [
        {
          "internalType": "uint256",
          "name": "log",
          "type": "uint256"
        }
      ],
      "payable": false,
      "stateMutability": "pure",
      "type": "function"
    }
  ],
  "bytecode": "0x608060405234801561001057600080fd5b5061017d806100206000396000f3fe608060405234801561001057600080fd5b506004361061002b5760003560e01c806324d4e90a14610030575b600080fd5b61005c6004803603602081101561004657600080fd5b8101908080359060200190929190505050610072565b6040518082815260200191505060405180910390f35b6000809050670de0b6b3a76400008210156100905760009050610143565b5b6714d1120d7b16000082106100c2576705a08044edda900081019050600360028302816100ba57fe5b049150610091565b670de0b6b3a76400008203915060008290506000600190505b600a81101561013d578082816100ed57fe5b0483019250600181019050670de0b6b3a76400008483028161010b57fe5b04915080828161011757fe5b0483039250600181019050670de0b6b3a76400008483028161013557fe5b0491506100db565b82925050505b91905056fea265627a7a723158207142a716ae5350a35d405cd7eec5931eb28d0515f3b1fda739f84a7bdb14db7364736f6c63430005100032",
  "source": "pragma solidity ^0.5;\n\n\ncontract Math {\n    function ln(uint x) pure public returns (uint log) {\n        log = 0;\n        \n        // not a true ln function, we can't represent the negatives\n        if (x < 1 ether)\n            return 0;\n\n        while (x >= 1.5 ether) {\n            log += 0.405465 ether;\n            x = x * 2 / 3;\n        }\n        \n        x = x - 1 ether;\n        uint y = x;\n        uint i = 1;\n\n        while (i < 10) {\n            log += (y / i);\n            i = i + 1;\n            y = y * x / 1 ether;\n            log -= (y / i);\n            i = i + 1;\n            y = y * x / 1 ether;\n        }\n         \n        return(log);\n    }\n}",
  "sourcePath": "/Users/brianwheeler/optimum/protocol/contracts/Math.sol",
  "compiler": {
    "name": "solc",
    "version": "0.5.16+commit.9c3226ce.Emscripten.clang"
  },
  "schemaVersion": "3.0.21",
  "updatedAt": "2020-02-06T15:33:53.097Z",
  "devdoc": {
    "methods": {}
  },
  "userdoc": {
    "methods": {}
  }
}