{
  "contractName": "OptionTokenFactory",
  "abi": [
    {
      "inputs": [],
      "payable": false,
      "stateMutability": "nonpayable",
      "type": "constructor"
    },
    {
      "anonymous": false,
      "inputs": [
        {
          "indexed": false,
          "internalType": "address",
          "name": "token",
          "type": "address"
        },
        {
          "indexed": false,
          "internalType": "bool",
          "name": "isCall",
          "type": "bool"
        },
        {
          "indexed": false,
          "internalType": "uint128",
          "name": "expiration",
          "type": "uint128"
        },
        {
          "indexed": false,
          "internalType": "uint128",
          "name": "strike",
          "type": "uint128"
        }
      ],
      "name": "OptionTokenCreated",
      "type": "event"
    },
    {
      "constant": true,
      "inputs": [],
      "name": "callTemplate",
      "outputs": [
        {
          "internalType": "address",
          "name": "",
          "type": "address"
        }
      ],
      "payable": false,
      "stateMutability": "view",
      "type": "function"
    },
    {
      "constant": true,
      "inputs": [
        {
          "internalType": "uint128",
          "name": "",
          "type": "uint128"
        },
        {
          "internalType": "uint128",
          "name": "",
          "type": "uint128"
        }
      ],
      "name": "calls",
      "outputs": [
        {
          "internalType": "address",
          "name": "",
          "type": "address"
        }
      ],
      "payable": false,
      "stateMutability": "view",
      "type": "function"
    },
    {
      "constant": true,
      "inputs": [],
      "name": "putTemplate",
      "outputs": [
        {
          "internalType": "address",
          "name": "",
          "type": "address"
        }
      ],
      "payable": false,
      "stateMutability": "view",
      "type": "function"
    },
    {
      "constant": true,
      "inputs": [
        {
          "internalType": "uint128",
          "name": "",
          "type": "uint128"
        },
        {
          "internalType": "uint128",
          "name": "",
          "type": "uint128"
        }
      ],
      "name": "puts",
      "outputs": [
        {
          "internalType": "address",
          "name": "",
          "type": "address"
        }
      ],
      "payable": false,
      "stateMutability": "view",
      "type": "function"
    },
    {
      "constant": false,
      "inputs": [
        {
          "internalType": "uint128",
          "name": "expiration",
          "type": "uint128"
        },
        {
          "internalType": "uint128",
          "name": "strike",
          "type": "uint128"
        }
      ],
      "name": "createCall",
      "outputs": [
        {
          "internalType": "address",
          "name": "",
          "type": "address"
        }
      ],
      "payable": false,
      "stateMutability": "nonpayable",
      "type": "function"
    },
    {
      "constant": false,
      "inputs": [
        {
          "internalType": "uint128",
          "name": "expiration",
          "type": "uint128"
        },
        {
          "internalType": "uint128",
          "name": "strike",
          "type": "uint128"
        },
        {
          "internalType": "address",
          "name": "approve",
          "type": "address"
        }
      ],
      "name": "writeCall",
      "outputs": [
        {
          "internalType": "address",
          "name": "",
          "type": "address"
        }
      ],
      "payable": true,
      "stateMutability": "payable",
      "type": "function"
    },
    {
      "constant": false,
      "inputs": [
        {
          "internalType": "uint128",
          "name": "expiration",
          "type": "uint128"
        },
        {
          "internalType": "uint128",
          "name": "strike",
          "type": "uint128"
        }
      ],
      "name": "writeCall",
      "outputs": [
        {
          "internalType": "address",
          "name": "",
          "type": "address"
        }
      ],
      "payable": true,
      "stateMutability": "payable",
      "type": "function"
    },
    {
      "constant": false,
      "inputs": [
        {
          "internalType": "uint128",
          "name": "expiration",
          "type": "uint128"
        },
        {
          "internalType": "uint128",
          "name": "strike",
          "type": "uint128"
        },
        {
          "internalType": "address",
          "name": "approve",
          "type": "address"
        },
        {
          "internalType": "bytes",
          "name": "data",
          "type": "bytes"
        }
      ],
      "name": "writeCall",
      "outputs": [
        {
          "internalType": "address",
          "name": "",
          "type": "address"
        }
      ],
      "payable": true,
      "stateMutability": "payable",
      "type": "function"
    },
    {
      "constant": false,
      "inputs": [
        {
          "internalType": "uint128",
          "name": "expiration",
          "type": "uint128"
        },
        {
          "internalType": "uint128",
          "name": "strike",
          "type": "uint128"
        }
      ],
      "name": "createPut",
      "outputs": [
        {
          "internalType": "address",
          "name": "",
          "type": "address"
        }
      ],
      "payable": false,
      "stateMutability": "nonpayable",
      "type": "function"
    },
    {
      "constant": false,
      "inputs": [
        {
          "internalType": "uint128",
          "name": "expiration",
          "type": "uint128"
        },
        {
          "internalType": "uint128",
          "name": "strike",
          "type": "uint128"
        },
        {
          "internalType": "address",
          "name": "approve",
          "type": "address"
        },
        {
          "internalType": "bytes",
          "name": "data",
          "type": "bytes"
        }
      ],
      "name": "writePut",
      "outputs": [
        {
          "internalType": "address",
          "name": "",
          "type": "address"
        }
      ],
      "payable": false,
      "stateMutability": "nonpayable",
      "type": "function"
    },
    {
      "constant": false,
      "inputs": [
        {
          "internalType": "uint128",
          "name": "expiration",
          "type": "uint128"
        },
        {
          "internalType": "uint128",
          "name": "strike",
          "type": "uint128"
        },
        {
          "internalType": "address",
          "name": "approve",
          "type": "address"
        }
      ],
      "name": "writePut",
      "outputs": [
        {
          "internalType": "address",
          "name": "",
          "type": "address"
        }
      ],
      "payable": false,
      "stateMutability": "nonpayable",
      "type": "function"
    },
    {
      "constant": false,
      "inputs": [
        {
          "internalType": "uint128",
          "name": "expiration",
          "type": "uint128"
        },
        {
          "internalType": "uint128",
          "name": "strike",
          "type": "uint128"
        }
      ],
      "name": "writePut",
      "outputs": [
        {
          "internalType": "address",
          "name": "",
          "type": "address"
        }
      ],
      "payable": false,
      "stateMutability": "nonpayable",
      "type": "function"
    },
    {
      "constant": true,
      "inputs": [
        {
          "internalType": "bool",
          "name": "isCall",
          "type": "bool"
        },
        {
          "internalType": "uint128",
          "name": "expiration",
          "type": "uint128"
        },
        {
          "internalType": "uint128",
          "name": "strike",
          "type": "uint128"
        }
      ],
      "name": "getTokenName",
      "outputs": [
        {
          "internalType": "string",
          "name": "",
          "type": "string"
        }
      ],
      "payable": false,
      "stateMutability": "pure",
      "type": "function"
    },
    {
      "constant": true,
      "inputs": [
        {
          "internalType": "bool",
          "name": "isCall",
          "type": "bool"
        },
        {
          "internalType": "uint128",
          "name": "expiration",
          "type": "uint128"
        },
        {
          "internalType": "uint128",
          "name": "strike",
          "type": "uint128"
        }
      ],
      "name": "getTokenSymbol",
      "outputs": [
        {
          "internalType": "string",
          "name": "",
          "type": "string"
        }
      ],
      "payable": false,
      "stateMutability": "pure",
      "type": "function"
    }
  ],
  "bytecode": "0x608060405234801561001057600080fd5b5060405161001d906100e8565b604051809103906000f080158015610039573d6000803e3d6000fd5b50600260006101000a81548173ffffffffffffffffffffffffffffffffffffffff021916908373ffffffffffffffffffffffffffffffffffffffff160217905550604051610086906100f5565b604051809103906000f0801580156100a2573d6000803e3d6000fd5b50600360006101000a81548173ffffffffffffffffffffffffffffffffffffffff021916908373ffffffffffffffffffffffffffffffffffffffff160217905550610102565b6096806200177183390190565b6096806200180783390190565b61165f80620001126000396000f3fe6080604052600436106100dd5760003560e01c80633bfcbdc41161007f57806399068cf51161005957806399068cf5146108f6578063bc3f90031461099f578063bedacf0e146109f6578063c38a40b614610ae4576100dd565b80633bfcbdc4146106a35780634c71d9cb1461074c57806382db27d81461089f576100dd565b80632211534c116100bb5780632211534c1461039a5780632d4ee6fe146104885780632ef3055f1461053157806331fe8aa9146105fa576100dd565b8063022dc18b146100e257806310dc203c1461024257806311c43cb3146102fe575b600080fd5b3480156100ee57600080fd5b506102006004803603608081101561010557600080fd5b8101908080356fffffffffffffffffffffffffffffffff16906020019092919080356fffffffffffffffffffffffffffffffff169060200190929190803573ffffffffffffffffffffffffffffffffffffffff1690602001909291908035906020019064010000000081111561017a57600080fd5b82018360208201111561018c57600080fd5b803590602001918460018302840111640100000000831117156101ae57600080fd5b91908080601f016020809104026020016040519081016040528093929190818152602001838380828437600081840152601f19601f820116905080830192505050505050509192919290505050610b8d565b604051808273ffffffffffffffffffffffffffffffffffffffff1673ffffffffffffffffffffffffffffffffffffffff16815260200191505060405180910390f35b6102bc6004803603606081101561025857600080fd5b8101908080356fffffffffffffffffffffffffffffffff16906020019092919080356fffffffffffffffffffffffffffffffff169060200190929190803573ffffffffffffffffffffffffffffffffffffffff169060200190929190505050610ccd565b604051808273ffffffffffffffffffffffffffffffffffffffff1673ffffffffffffffffffffffffffffffffffffffff16815260200191505060405180910390f35b6103586004803603604081101561031457600080fd5b8101908080356fffffffffffffffffffffffffffffffff16906020019092919080356fffffffffffffffffffffffffffffffff169060200190929190505050610da0565b604051808273ffffffffffffffffffffffffffffffffffffffff1673ffffffffffffffffffffffffffffffffffffffff16815260200191505060405180910390f35b3480156103a657600080fd5b5061040d600480360360608110156103bd57600080fd5b8101908080351515906020019092919080356fffffffffffffffffffffffffffffffff16906020019092919080356fffffffffffffffffffffffffffffffff169060200190929190505050610e3b565b6040518080602001828103825283818151815260200191508051906020019080838360005b8381101561044d578082015181840152602081019050610432565b50505050905090810190601f16801561047a5780820380516001836020036101000a031916815260200191505b509250505060405180910390f35b34801561049457600080fd5b506104ef600480360360408110156104ab57600080fd5b8101908080356fffffffffffffffffffffffffffffffff16906020019092919080356fffffffffffffffffffffffffffffffff169060200190929190505050610e44565b604051808273ffffffffffffffffffffffffffffffffffffffff1673ffffffffffffffffffffffffffffffffffffffff16815260200191505060405180910390f35b34801561053d57600080fd5b506105b86004803603606081101561055457600080fd5b8101908080356fffffffffffffffffffffffffffffffff16906020019092919080356fffffffffffffffffffffffffffffffff169060200190929190803573ffffffffffffffffffffffffffffffffffffffff169060200190929190505050610e86565b604051808273ffffffffffffffffffffffffffffffffffffffff1673ffffffffffffffffffffffffffffffffffffffff16815260200191505060405180910390f35b34801561060657600080fd5b506106616004803603604081101561061d57600080fd5b8101908080356fffffffffffffffffffffffffffffffff16906020019092919080356fffffffffffffffffffffffffffffffff169060200190929190505050610f58565b604051808273ffffffffffffffffffffffffffffffffffffffff1673ffffffffffffffffffffffffffffffffffffffff16815260200191505060405180910390f35b3480156106af57600080fd5b5061070a600480360360408110156106c657600080fd5b8101908080356fffffffffffffffffffffffffffffffff16906020019092919080356fffffffffffffffffffffffffffffffff169060200190929190505050610f9a565b604051808273ffffffffffffffffffffffffffffffffffffffff1673ffffffffffffffffffffffffffffffffffffffff16815260200191505060405180910390f35b61085d6004803603608081101561076257600080fd5b8101908080356fffffffffffffffffffffffffffffffff16906020019092919080356fffffffffffffffffffffffffffffffff169060200190929190803573ffffffffffffffffffffffffffffffffffffffff169060200190929190803590602001906401000000008111156107d757600080fd5b8201836020820111156107e957600080fd5b8035906020019184600183028401116401000000008311171561080b57600080fd5b91908080601f016020809104026020016040519081016040528093929190818152602001838380828437600081840152601f19601f820116905080830192505050505050509192919290505050611034565b604051808273ffffffffffffffffffffffffffffffffffffffff1673ffffffffffffffffffffffffffffffffffffffff16815260200191505060405180910390f35b3480156108ab57600080fd5b506108b4611175565b604051808273ffffffffffffffffffffffffffffffffffffffff1673ffffffffffffffffffffffffffffffffffffffff16815260200191505060405180910390f35b34801561090257600080fd5b5061095d6004803603604081101561091957600080fd5b8101908080356fffffffffffffffffffffffffffffffff16906020019092919080356fffffffffffffffffffffffffffffffff16906020019092919050505061119b565b604051808273ffffffffffffffffffffffffffffffffffffffff1673ffffffffffffffffffffffffffffffffffffffff16815260200191505060405180910390f35b3480156109ab57600080fd5b506109b46111af565b604051808273ffffffffffffffffffffffffffffffffffffffff1673ffffffffffffffffffffffffffffffffffffffff16815260200191505060405180910390f35b348015610a0257600080fd5b50610a6960048036036060811015610a1957600080fd5b8101908080351515906020019092919080356fffffffffffffffffffffffffffffffff16906020019092919080356fffffffffffffffffffffffffffffffff1690602001909291905050506111d5565b6040518080602001828103825283818151815260200191508051906020019080838360005b83811015610aa9578082015181840152602081019050610a8e565b50505050905090810190601f168015610ad65780820380516001836020036101000a031916815260200191505b509250505060405180910390f35b348015610af057600080fd5b50610b4b60048036036040811015610b0757600080fd5b8101908080356fffffffffffffffffffffffffffffffff16906020019092919080356fffffffffffffffffffffffffffffffff1690602001909291905050506111de565b604051808273ffffffffffffffffffffffffffffffffffffffff1673ffffffffffffffffffffffffffffffffffffffff16815260200191505060405180910390f35b600080610b9a86866111f2565b90508073ffffffffffffffffffffffffffffffffffffffff166356ded78f85856040518363ffffffff1660e01b8152600401808373ffffffffffffffffffffffffffffffffffffffff1673ffffffffffffffffffffffffffffffffffffffff16815260200180602001828103825283818151815260200191508051906020019080838360005b83811015610c3b578082015181840152602081019050610c20565b50505050905090810190601f168015610c685780820380516001836020036101000a031916815260200191505b509350505050602060405180830381600087803b158015610c8857600080fd5b505af1158015610c9c573d6000803e3d6000fd5b505050506040513d6020811015610cb257600080fd5b81019080805190602001909291905050505050949350505050565b600080610cda85856111f2565b90508073ffffffffffffffffffffffffffffffffffffffff1663825a8ba134856040518363ffffffff1660e01b8152600401808273ffffffffffffffffffffffffffffffffffffffff1673ffffffffffffffffffffffffffffffffffffffff1681526020019150506020604051808303818588803b158015610d5b57600080fd5b505af1158015610d6f573d6000803e3d6000fd5b50505050506040513d6020811015610d8657600080fd5b810190808051906020019092919050505050509392505050565b600080610dad84846111f2565b90508073ffffffffffffffffffffffffffffffffffffffff1663f5b885c4346040518263ffffffff1660e01b81526004016020604051808303818588803b158015610df757600080fd5b505af1158015610e0b573d6000803e3d6000fd5b50505050506040513d6020811015610e2257600080fd5b8101908080519060200190929190505050505092915050565b60609392505050565b60006020528160005260406000206020528060005260406000206000915091509054906101000a900473ffffffffffffffffffffffffffffffffffffffff1681565b600080610e9385856111f2565b90508073ffffffffffffffffffffffffffffffffffffffff1663825a8ba1846040518263ffffffff1660e01b8152600401808273ffffffffffffffffffffffffffffffffffffffff1673ffffffffffffffffffffffffffffffffffffffff168152602001915050602060405180830381600087803b158015610f1457600080fd5b505af1158015610f28573d6000803e3d6000fd5b505050506040513d6020811015610f3e57600080fd5b810190808051906020019092919050505050509392505050565b60016020528160005260406000206020528060005260406000206000915091509054906101000a900473ffffffffffffffffffffffffffffffffffffffff1681565b600080610fa784846111f2565b90508073ffffffffffffffffffffffffffffffffffffffff1663f5b885c46040518163ffffffff1660e01b8152600401602060405180830381600087803b158015610ff157600080fd5b505af1158015611005573d6000803e3d6000fd5b505050506040513d602081101561101b57600080fd5b8101908080519060200190929190505050505092915050565b60008061104186866111f2565b90508073ffffffffffffffffffffffffffffffffffffffff166356ded78f3486866040518463ffffffff1660e01b8152600401808373ffffffffffffffffffffffffffffffffffffffff1673ffffffffffffffffffffffffffffffffffffffff16815260200180602001828103825283818151815260200191508051906020019080838360005b838110156110e35780820151818401526020810190506110c8565b50505050905090810190601f1680156111105780820380516001836020036101000a031916815260200191505b5093505050506020604051808303818588803b15801561112f57600080fd5b505af1158015611143573d6000803e3d6000fd5b50505050506040513d602081101561115a57600080fd5b81019080805190602001909291905050505050949350505050565b600260009054906101000a900473ffffffffffffffffffffffffffffffffffffffff1681565b60006111a783836111f2565b905092915050565b600360009054906101000a900473ffffffffffffffffffffffffffffffffffffffff1681565b60609392505050565b60006111ea83836111f2565b905092915050565b600042836fffffffffffffffffffffffffffffffff161180156112495750600061a8c062015180856fffffffffffffffffffffffffffffffff168161123357fe5b06036fffffffffffffffffffffffffffffffff16145b801561128a57506000674563918244f40000836fffffffffffffffffffffffffffffffff168161127557fe5b066fffffffffffffffffffffffffffffffff16145b80156112b1575069152d02c7e14af6800000826fffffffffffffffffffffffffffffffff16105b6112ba57600080fd5b6000806000856fffffffffffffffffffffffffffffffff166fffffffffffffffffffffffffffffffff1681526020019081526020016000206000846fffffffffffffffffffffffffffffffff166fffffffffffffffffffffffffffffffff16815260200190815260200160002060009054906101000a900473ffffffffffffffffffffffffffffffffffffffff169050600073ffffffffffffffffffffffffffffffffffffffff168173ffffffffffffffffffffffffffffffffffffffff161415611512576113aa600260009054906101000a900473ffffffffffffffffffffffffffffffffffffffff166115e4565b90508073ffffffffffffffffffffffffffffffffffffffff1663a5843f0885856040518363ffffffff1660e01b815260040180836fffffffffffffffffffffffffffffffff168152602001826fffffffffffffffffffffffffffffffff16815260200192505050602060405180830381600087803b15801561142b57600080fd5b505af115801561143f573d6000803e3d6000fd5b505050506040513d602081101561145557600080fd5b81019080805190602001909291905050505080600080866fffffffffffffffffffffffffffffffff166fffffffffffffffffffffffffffffffff1681526020019081526020016000206000856fffffffffffffffffffffffffffffffff166fffffffffffffffffffffffffffffffff16815260200190815260200160002060006101000a81548173ffffffffffffffffffffffffffffffffffffffff021916908373ffffffffffffffffffffffffffffffffffffffff1602179055505b7f6d27e371ceacbca040e865306e3f201490ebf573a2ed4ae4c77f6661595430c68160018686604051808573ffffffffffffffffffffffffffffffffffffffff1673ffffffffffffffffffffffffffffffffffffffff16815260200184151515158152602001836fffffffffffffffffffffffffffffffff166fffffffffffffffffffffffffffffffff168152602001826fffffffffffffffffffffffffffffffff166fffffffffffffffffffffffffffffffff16815260200194505050505060405180910390a18091505092915050565b600080690100000000000000000083027f5880730000000000000000000000000000000000000000803b80938091923cf3176000526020600080f090508091505091905056fea265627a7a723158202f3e9bd8faeae3d4b2dd2144e011d5d4d435cbbe03a1fda09423fcd393fcc5a764736f6c634300051000326080604052348015600f57600080fd5b5060788061001e6000396000f3fe6080604052600073__ETHCallOptionTokenAddress_____________905060405136600082376000803683855af43d806000843e8160008114603f578184f35b8184fdfea265627a7a72315820444e5082d7ab1972bb866b62d1b4336aada6fcf7febd66e6bcf5d9c009d5cb9064736f6c634300051000326080604052348015600f57600080fd5b5060788061001e6000396000f3fe6080604052600073__ETHPutOptionTokenAddress______________905060405136600082376000803683855af43d806000843e8160008114603f578184f35b8184fdfea265627a7a723158208fcd547ea8ccb94f499927568aa10f3b9faa8e6ed3c3c854a14cb9469b78861064736f6c63430005100032",
  "source": "pragma solidity ^0.5;\n\nimport \"./Cloner.sol\";\nimport \"./ETHCallOptionToken.sol\";\nimport \"./ETHPutOptionToken.sol\";\nimport \"./ETHCallOptionTokenProxy.sol\";\nimport \"./ETHPutOptionTokenProxy.sol\";\n\n\ncontract OptionTokenFactory is Cloner {\n    mapping(uint128 => mapping(uint128 => address)) public calls;\n    mapping(uint128 => mapping(uint128 => address)) public puts;\n\n    address public callTemplate;\n    address public putTemplate;\n\n    event OptionTokenCreated(address token, bool isCall, uint128 expiration, uint128 strike);\n\n    constructor() public {\n        callTemplate = address(new ETHCallOptionTokenProxy());\n        putTemplate = address(new ETHPutOptionTokenProxy());\n    }\n\n    function createCall(uint128 expiration, uint128 strike) public returns (address) {\n        return address(findOrCreateCall(expiration, strike));\n    }\n\n    function writeCall(uint128 expiration, uint128 strike) public payable returns (address) {\n        ETHCallOptionToken token = findOrCreateCall(expiration, strike);\n        token.writeAsOrigin.value(msg.value)();\n    }\n\n    function writeCall(uint128 expiration, uint128 strike, address approve) public payable returns (address) {\n        ETHCallOptionToken token = findOrCreateCall(expiration, strike);\n        token.writeAndApproveAsOrigin.value(msg.value)(approve);\n    }\n\n    function writeCall(uint128 expiration, uint128 strike, address approve, bytes memory data) public payable returns (address) {\n        ETHCallOptionToken token = findOrCreateCall(expiration, strike);\n        token.writeApproveAndCallAsOrigin.value(msg.value)(approve, data);\n    }\n\n    function createPut(uint128 expiration, uint128 strike) public returns (address) {\n        return address(findOrCreateCall(expiration, strike));\n    }\n\n    function writePut(uint128 expiration, uint128 strike) public returns (address) {\n        ETHCallOptionToken token = findOrCreateCall(expiration, strike);\n        token.writeAsOrigin();\n    }\n\n    function writePut(uint128 expiration, uint128 strike, address approve) public returns (address) {\n        ETHCallOptionToken token = findOrCreateCall(expiration, strike);\n        token.writeAndApproveAsOrigin(approve);\n    }\n\n    function writePut(uint128 expiration, uint128 strike, address approve, bytes memory data) public returns (address) {\n        ETHCallOptionToken token = findOrCreateCall(expiration, strike);\n        token.writeApproveAndCallAsOrigin(approve, data);\n    }\n\n    function findOrCreateCall(uint128 expiration, uint128 strike) internal returns (ETHCallOptionToken) {\n        require(expiration > now && expiration % 86400 - 43200 == 0 && strike % 5 ether == 0 && strike < 100000 ether);\n        address token = calls[expiration][strike];\n        if (token == address(0)) {\n            token = clone(callTemplate);\n            ETHCallOptionToken(token).init(expiration, strike);\n            calls[expiration][strike] = token;\n        }\n\n        emit OptionTokenCreated(token, true, expiration, strike);\n        return ETHCallOptionToken(token);\n    }\n\n    function findOrCreatePut(uint128 expiration, uint128 strike) internal returns (ETHPutOptionToken) {\n        require(expiration > now && expiration % 86400 - 43200 == 0 && strike % 5 ether == 0 && strike < 100000 ether);\n        address token = calls[expiration][strike];\n        if (token == address(0)) {\n            token = clone(putTemplate);\n            ETHPutOptionToken(token).init(expiration, strike);\n            calls[expiration][strike] = token;\n        }\n\n        emit OptionTokenCreated(token, false, expiration, strike);\n        return ETHPutOptionToken(token);\n    }\n\n    function getTokenName(bool isCall, uint128 expiration, uint128 strike) pure external returns (string memory) {\n\n    }\n\n    function getTokenSymbol(bool isCall, uint128 expiration, uint128 strike) pure external returns (string memory) {\n\n    }\n}",
  "sourcePath": "/Users/brianwheeler/optimum/protocol/contracts/OptionTokenFactory.sol",
  "compiler": {
    "name": "solc",
    "version": "0.5.16+commit.9c3226ce.Emscripten.clang"
  },
  "schemaVersion": "3.0.23",
  "updatedAt": "2020-02-26T23:28:19.567Z",
  "networkType": "ethereum",
  "devdoc": {
    "methods": {}
  },
  "userdoc": {
    "methods": {}
  }
}