{
  "contractName": "OptionTokenNamesake",
  "abi": [
    {
      "constant": true,
      "inputs": [
        {
          "internalType": "bool",
          "name": "isCall",
          "type": "bool"
        },
        {
          "internalType": "uint256",
          "name": "expiration",
          "type": "uint256"
        },
        {
          "internalType": "uint256",
          "name": "strike",
          "type": "uint256"
        }
      ],
      "name": "name",
      "outputs": [
        {
          "internalType": "string",
          "name": "",
          "type": "string"
        }
      ],
      "payable": false,
      "stateMutability": "pure",
      "type": "function"
    },
    {
      "constant": true,
      "inputs": [
        {
          "internalType": "bool",
          "name": "isCall",
          "type": "bool"
        },
        {
          "internalType": "uint256",
          "name": "expiration",
          "type": "uint256"
        },
        {
          "internalType": "uint256",
          "name": "strike",
          "type": "uint256"
        }
      ],
      "name": "symbol",
      "outputs": [
        {
          "internalType": "string",
          "name": "",
          "type": "string"
        }
      ],
      "payable": false,
      "stateMutability": "pure",
      "type": "function"
    },
    {
      "constant": true,
      "inputs": [
        {
          "internalType": "uint256",
          "name": "month",
          "type": "uint256"
        }
      ],
      "name": "monthName",
      "outputs": [
        {
          "internalType": "string",
          "name": "",
          "type": "string"
        }
      ],
      "payable": false,
      "stateMutability": "pure",
      "type": "function"
    }
  ],
  "bytecode": "0x610de0610026600b82828239805160001a60731461001957fe5b30600052607381538281f3fe730000000000000000000000000000000000000000301460806040526004361061004b5760003560e01c80631264fc31146100505780633a3f105a1461010d578063cf3ecfec146101b4575b600080fd5b6100926004803603606081101561006657600080fd5b810190808035151590602001909291908035906020019092919080359060200190929190505050610271565b6040518080602001828103825283818151815260200191508051906020019080838360005b838110156100d25780820151818401526020810190506100b7565b50505050905090810190601f1680156100ff5780820380516001836020036101000a031916815260200191505b509250505060405180910390f35b6101396004803603602081101561012357600080fd5b810190808035906020019092919050505061040d565b6040518080602001828103825283818151815260200191508051906020019080838360005b8381101561017957808201518184015260208101905061015e565b50505050905090810190601f1680156101a65780820380516001836020036101000a031916815260200191505b509250505060405180910390f35b6101f6600480360360608110156101ca57600080fd5b810190808035151590602001909291908035906020019092919080359060200190929190505050610700565b6040518080602001828103825283818151815260200191508051906020019080838360005b8381101561023657808201518184015260208101905061021b565b50505050905090810190601f1680156102635780820380516001836020036101000a031916815260200191505b509250505060405180910390f35b606060008061027f85610893565b925092505060606102926001840361040d565b905061040161032f826040518060400160405280600181526020017f20000000000000000000000000000000000000000000000000000000000000008152506102da866108c0565b6040518060400160405280600181526020017f200000000000000000000000000000000000000000000000000000000000000081525061032a670de0b6b3a76400008c8161032457fe5b046108c0565b6109ed565b6040518060400160405280600181526020017f2d00000000000000000000000000000000000000000000000000000000000000815250896103a5576040518060400160405280600381526020017f50555400000000000000000000000000000000000000000000000000000000008152506103dc565b6040518060400160405280600481526020017f43414c4c000000000000000000000000000000000000000000000000000000008152505b60405180602001604052806000815250604051806020016040528060008152506109ed565b93505050509392505050565b6060610417610d83565b6040518061018001604052806040518060400160405280600381526020017f4a414e000000000000000000000000000000000000000000000000000000000081525081526020016040518060400160405280600381526020017f464542000000000000000000000000000000000000000000000000000000000081525081526020016040518060400160405280600381526020017f4d4152000000000000000000000000000000000000000000000000000000000081525081526020016040518060400160405280600381526020017f415052000000000000000000000000000000000000000000000000000000000081525081526020016040518060400160405280600381526020017f4d4159000000000000000000000000000000000000000000000000000000000081525081526020016040518060400160405280600381526020017f4a554e000000000000000000000000000000000000000000000000000000000081525081526020016040518060400160405280600381526020017f4a554c000000000000000000000000000000000000000000000000000000000081525081526020016040518060400160405280600381526020017f415547000000000000000000000000000000000000000000000000000000000081525081526020016040518060400160405280600381526020017f534550000000000000000000000000000000000000000000000000000000000081525081526020016040518060400160405280600381526020017f4f4354000000000000000000000000000000000000000000000000000000000081525081526020016040518060400160405280600381526020017f4e4f56000000000000000000000000000000000000000000000000000000000081525081526020016040518060400160405280600381526020017f444543000000000000000000000000000000000000000000000000000000000081525081525090508083600c81106106f357fe5b6020020151915050919050565b606060008061070e85610893565b925092505061088861071f836108c0565b6040518060400160405280600181526020017f2f0000000000000000000000000000000000000000000000000000000000000081525061075e846108c0565b6040518060400160405280600181526020017f20000000000000000000000000000000000000000000000000000000000000008152506108836107b1670de0b6b3a76400008b816107ab57fe5b046108c0565b6040518060400160405280600181526020017f2d000000000000000000000000000000000000000000000000000000000000008152508d610827576040518060400160405280600181526020017f500000000000000000000000000000000000000000000000000000000000000081525061085e565b6040518060400160405280600181526020017f43000000000000000000000000000000000000000000000000000000000000008152505b60405180602001604052806000815250604051806020016040528060008152506109ed565b6109ed565b925050509392505050565b60008060006108ad6201518085816108a757fe5b04610caf565b8093508194508295505050509193909250565b60606000821415610908576040518060400160405280600181526020017f300000000000000000000000000000000000000000000000000000000000000081525090506109e8565b600082905060005b60008214610932578080600101915050600a828161092a57fe5b049150610910565b6060816040519080825280601f01601f1916602001820160405280156109675781602001600182028038833980820191505090505b50905060006001830390505b600086146109e057600a868161098557fe5b0660300160f81b8282806001900393508151811061099f57fe5b60200101907effffffffffffffffffffffffffffffffffffffffffffffffffffffffffffff1916908160001a905350600a86816109d857fe5b049550610973565b819450505050505b919050565b6060808690506060869050606086905060608690506060869050606081518351855187518951010101016040519080825280601f01601f191660200182016040528015610a495781602001600182028038833980820191505090505b509050606081905060008090506000809050600090505b8851811015610ace57888181518110610a7557fe5b602001015160f81c60f81b838380600101945081518110610a9257fe5b60200101907effffffffffffffffffffffffffffffffffffffffffffffffffffffffffffff1916908160001a9053508080600101915050610a60565b600090505b8751811015610b4157878181518110610ae857fe5b602001015160f81c60f81b838380600101945081518110610b0557fe5b60200101907effffffffffffffffffffffffffffffffffffffffffffffffffffffffffffff1916908160001a9053508080600101915050610ad3565b600090505b8651811015610bb457868181518110610b5b57fe5b602001015160f81c60f81b838380600101945081518110610b7857fe5b60200101907effffffffffffffffffffffffffffffffffffffffffffffffffffffffffffff1916908160001a9053508080600101915050610b46565b600090505b8551811015610c2757858181518110610bce57fe5b602001015160f81c60f81b838380600101945081518110610beb57fe5b60200101907effffffffffffffffffffffffffffffffffffffffffffffffffffffffffffff1916908160001a9053508080600101915050610bb9565b600090505b8451811015610c9a57848181518110610c4157fe5b602001015160f81c60f81b838380600101945081518110610c5e57fe5b60200101907effffffffffffffffffffffffffffffffffffffffffffffffffffffffffffff1916908160001a9053508080600101915050610c2c565b82995050505050505050505095945050505050565b600080600080849050600062253d8c62010bd98301019050600062023ab18260040281610cd857fe5b059050600460038262023ab1020181610ced57fe5b0582039150600062164b0960018401610fa00281610d0757fe5b059050601f6004826105b50281610d1a57fe5b058403019250600061098f8460500281610d3057fe5b059050600060508261098f0281610d4357fe5b0585039050600b8281610d5257fe5b05945084600c0260028301039150848360318603606402010192508298508197508096505050505050509193909250565b604051806101800160405280600c905b6060815260200190600190039081610d93579050509056fea265627a7a7231582047e4e51269f6431b2ecb43b775a3826a5aa5c7a178cbcef867ac51da436321ce64736f6c63430005100032",
  "source": "pragma solidity ^0.5;\n\nimport \"./DateTime.sol\";\n\n\nlibrary OptionTokenNamesake {\n    function name(bool isCall, uint256 expiration, uint256 strike) public pure returns (string memory) {\n        (, uint month, uint date) = DateTime.timestampToDate(expiration);\n        string memory monthName = monthName(month - 1);\n        return strConcat(\n            strConcat(monthName, \" \", uint2str(date), \" \", uint2str(strike / 1 ether)),\n        \"-\", isCall ? \"CALL\" : \"PUT\", \"\", \"\");\n    }\n\n    function symbol(bool isCall, uint256 expiration, uint256 strike) public pure returns (string memory) {\n        (, uint month, uint date) = DateTime.timestampToDate(expiration);\n\n        return strConcat(uint2str(month), \"/\", uint2str(date), \" \", strConcat(\n            uint2str(strike / 1 ether), \"-\", isCall ? \"C\" : \"P\", \"\", \"\"\n        ));\n    }\n\n    function monthName(uint256 month) public pure returns (string memory) {\n        string[12] memory MONTH_NAMES = [\"JAN\", \"FEB\", \"MAR\", \"APR\", \"MAY\", \"JUN\", \"JUL\", \"AUG\", \"SEP\", \"OCT\", \"NOV\", \"DEC\"];\n        return MONTH_NAMES[month];\n    }\n\n    function uint2str(uint _i) internal pure returns (string memory _uintAsString) {\n        if (_i == 0) {\n            return \"0\";\n        }\n        uint j = _i;\n        uint len;\n        while (j != 0) {\n            len++;\n            j /= 10;\n        }\n        bytes memory bstr = new bytes(len);\n        uint k = len - 1;\n        while (_i != 0) {\n            bstr[k--] = byte(uint8(48 + _i % 10));\n            _i /= 10;\n        }\n        return string(bstr);\n    }\n\n    function strConcat(string memory _a, string memory _b, string memory _c, string memory _d, string memory _e) internal pure returns (string memory _concatenatedString) {\n        bytes memory _ba = bytes(_a);\n        bytes memory _bb = bytes(_b);\n        bytes memory _bc = bytes(_c);\n        bytes memory _bd = bytes(_d);\n        bytes memory _be = bytes(_e);\n        string memory abcde = new string(_ba.length + _bb.length + _bc.length + _bd.length + _be.length);\n        bytes memory babcde = bytes(abcde);\n        uint k = 0;\n        uint i = 0;\n        for (i = 0; i < _ba.length; i++) {\n            babcde[k++] = _ba[i];\n        }\n        for (i = 0; i < _bb.length; i++) {\n            babcde[k++] = _bb[i];\n        }\n        for (i = 0; i < _bc.length; i++) {\n            babcde[k++] = _bc[i];\n        }\n        for (i = 0; i < _bd.length; i++) {\n            babcde[k++] = _bd[i];\n        }\n        for (i = 0; i < _be.length; i++) {\n            babcde[k++] = _be[i];\n        }\n        return string(babcde);\n    }\n}",
  "sourcePath": "/Users/brianwheeler/dsfprotocol/option-tokens/contracts/OptionTokenNamesake.sol",
  "compiler": {
    "name": "solc",
    "version": "0.5.16+commit.9c3226ce.Emscripten.clang"
  },
  "schemaVersion": "3.2.0",
  "updatedAt": "2020-06-17T23:44:00.970Z",
  "networkType": "ethereum",
  "devdoc": {
    "methods": {}
  },
  "userdoc": {
    "methods": {}
  }
}