{
  "contractName": "OptionTokenRegistry",
  "abi": [
    {
      "anonymous": false,
      "inputs": [
        {
          "indexed": false,
          "internalType": "address",
          "name": "token",
          "type": "address"
        },
        {
          "indexed": false,
          "internalType": "bool",
          "name": "isCall",
          "type": "bool"
        },
        {
          "indexed": false,
          "internalType": "uint128",
          "name": "expiration",
          "type": "uint128"
        },
        {
          "indexed": false,
          "internalType": "uint128",
          "name": "strike",
          "type": "uint128"
        }
      ],
      "name": "OptionTokenRegistered",
      "type": "event"
    },
    {
      "constant": true,
      "inputs": [
        {
          "internalType": "uint128",
          "name": "",
          "type": "uint128"
        },
        {
          "internalType": "uint128",
          "name": "",
          "type": "uint128"
        }
      ],
      "name": "calls",
      "outputs": [
        {
          "internalType": "address",
          "name": "",
          "type": "address"
        }
      ],
      "payable": false,
      "stateMutability": "view",
      "type": "function"
    },
    {
      "constant": true,
      "inputs": [
        {
          "internalType": "uint128",
          "name": "",
          "type": "uint128"
        },
        {
          "internalType": "uint128",
          "name": "",
          "type": "uint128"
        }
      ],
      "name": "puts",
      "outputs": [
        {
          "internalType": "address",
          "name": "",
          "type": "address"
        }
      ],
      "payable": false,
      "stateMutability": "view",
      "type": "function"
    },
    {
      "constant": false,
      "inputs": [
        {
          "internalType": "uint128",
          "name": "expiration",
          "type": "uint128"
        },
        {
          "internalType": "uint128",
          "name": "strike",
          "type": "uint128"
        }
      ],
      "name": "register",
      "outputs": [],
      "payable": false,
      "stateMutability": "nonpayable",
      "type": "function"
    }
  ],
  "bytecode": "0x608060405234801561001057600080fd5b506102dd806100206000396000f3fe608060405234801561001057600080fd5b50600436106100415760003560e01c80632d4ee6fe1461004657806331fe8aa9146100e25780634a6e8ee41461017e575b600080fd5b6100a06004803603604081101561005c57600080fd5b8101908080356fffffffffffffffffffffffffffffffff16906020019092919080356fffffffffffffffffffffffffffffffff1690602001909291905050506101da565b604051808273ffffffffffffffffffffffffffffffffffffffff1673ffffffffffffffffffffffffffffffffffffffff16815260200191505060405180910390f35b61013c600480360360408110156100f857600080fd5b8101908080356fffffffffffffffffffffffffffffffff16906020019092919080356fffffffffffffffffffffffffffffffff16906020019092919050505061021c565b604051808273ffffffffffffffffffffffffffffffffffffffff1673ffffffffffffffffffffffffffffffffffffffff16815260200191505060405180910390f35b6101d86004803603604081101561019457600080fd5b8101908080356fffffffffffffffffffffffffffffffff16906020019092919080356fffffffffffffffffffffffffffffffff16906020019092919050505061025e565b005b60006020528160005260406000206020528060005260406000206000915091509054906101000a900473ffffffffffffffffffffffffffffffffffffffff1681565b60016020528160005260406000206020528060005260406000206000915091509054906101000a900473ffffffffffffffffffffffffffffffffffffffff1681565b60606102693361027d565b905060008180519060200120905050505050565b6060813b6040519150601f19601f602083010116820160405280825280600060208401853c5091905056fea265627a7a72315820c8dd23174fd16bb8f09c3eb098a5a0885f828dcb407f0b00b327e61d444b153664736f6c63430005100032",
  "source": "pragma solidity ^0.5;\n\nimport \"./Cloner.sol\";\nimport \"./ETHCallOptionToken.sol\";\nimport \"./ETHPutOptionToken.sol\";\nimport \"./ProxyInterface.sol\";\n\n\ncontract OptionTokenRegistry {\n    mapping(uint128 => mapping(uint128 => address)) public calls;\n    mapping(uint128 => mapping(uint128 => address)) public puts;\n\n    event OptionTokenRegistered(address token, bool isCall, uint128 expiration, uint128 strike);\n\n    function register(uint128 expiration, uint128 strike) external {\n        bytes memory code = getCode(msg.sender);\n        bytes32 signature = keccak256(code);\n        // bytes32 OPTION_TOKEN_SIGNATURE =\n        // require(signature == )\n    }\n\n    function getCode(address _addr) private view returns (bytes memory o_code) {\n        assembly {\n            // retrieve the size of the code, this needs assembly\n            let size := extcodesize(_addr)\n            // allocate output byte array - this could also be done without assembly\n            // by using o_code = new bytes(size)\n            o_code := mload(0x40)\n            // new \"memory end\" including padding\n            mstore(0x40, add(o_code, and(add(add(size, 0x20), 0x1f), not(0x1f))))\n            // store length in memory\n            mstore(o_code, size)\n            // actually retrieve the code, this needs assembly\n            extcodecopy(_addr, add(o_code, 0x20), 0, size)\n        }\n    }\n}",
  "sourcePath": "/Users/brianwheeler/optimum/protocol/contracts/OptionTokenRegistry.sol",
  "compiler": {
    "name": "solc",
    "version": "0.5.16+commit.9c3226ce.Emscripten.clang"
  },
  "schemaVersion": "3.0.23",
  "updatedAt": "2020-02-19T16:04:45.414Z",
  "devdoc": {
    "methods": {}
  },
  "userdoc": {
    "methods": {}
  }
}