{
  "contractName": "OptionTokenFactory",
  "abi": [
    {
      "inputs": [],
      "payable": false,
      "stateMutability": "nonpayable",
      "type": "constructor"
    },
    {
      "anonymous": false,
      "inputs": [
        {
          "indexed": false,
          "internalType": "address",
          "name": "token",
          "type": "address"
        },
        {
          "indexed": true,
          "internalType": "bool",
          "name": "isCall",
          "type": "bool"
        },
        {
          "indexed": true,
          "internalType": "uint128",
          "name": "expiration",
          "type": "uint128"
        },
        {
          "indexed": true,
          "internalType": "uint128",
          "name": "strike",
          "type": "uint128"
        }
      ],
      "name": "OptionTokenCreated",
      "type": "event"
    },
    {
      "constant": true,
      "inputs": [],
      "name": "callTemplate",
      "outputs": [
        {
          "internalType": "address",
          "name": "",
          "type": "address"
        }
      ],
      "payable": false,
      "stateMutability": "view",
      "type": "function"
    },
    {
      "constant": true,
      "inputs": [
        {
          "internalType": "uint128",
          "name": "",
          "type": "uint128"
        },
        {
          "internalType": "uint128",
          "name": "",
          "type": "uint128"
        }
      ],
      "name": "calls",
      "outputs": [
        {
          "internalType": "address",
          "name": "",
          "type": "address"
        }
      ],
      "payable": false,
      "stateMutability": "view",
      "type": "function"
    },
    {
      "constant": true,
      "inputs": [],
      "name": "putTemplate",
      "outputs": [
        {
          "internalType": "address",
          "name": "",
          "type": "address"
        }
      ],
      "payable": false,
      "stateMutability": "view",
      "type": "function"
    },
    {
      "constant": true,
      "inputs": [
        {
          "internalType": "uint128",
          "name": "",
          "type": "uint128"
        },
        {
          "internalType": "uint128",
          "name": "",
          "type": "uint128"
        }
      ],
      "name": "puts",
      "outputs": [
        {
          "internalType": "address",
          "name": "",
          "type": "address"
        }
      ],
      "payable": false,
      "stateMutability": "view",
      "type": "function"
    },
    {
      "constant": true,
      "inputs": [],
      "name": "usd",
      "outputs": [
        {
          "internalType": "contract ERC20",
          "name": "",
          "type": "address"
        }
      ],
      "payable": false,
      "stateMutability": "view",
      "type": "function"
    },
    {
      "constant": false,
      "inputs": [
        {
          "internalType": "uint128",
          "name": "expiration",
          "type": "uint128"
        },
        {
          "internalType": "uint128",
          "name": "strike",
          "type": "uint128"
        }
      ],
      "name": "findOrCreateCall",
      "outputs": [
        {
          "internalType": "contract ETHCallOptionToken",
          "name": "",
          "type": "address"
        }
      ],
      "payable": false,
      "stateMutability": "nonpayable",
      "type": "function"
    },
    {
      "constant": false,
      "inputs": [
        {
          "internalType": "uint128",
          "name": "expiration",
          "type": "uint128"
        },
        {
          "internalType": "uint128",
          "name": "strike",
          "type": "uint128"
        }
      ],
      "name": "findOrCreatePut",
      "outputs": [
        {
          "internalType": "contract ETHPutOptionToken",
          "name": "",
          "type": "address"
        }
      ],
      "payable": false,
      "stateMutability": "nonpayable",
      "type": "function"
    },
    {
      "constant": false,
      "inputs": [
        {
          "internalType": "uint128",
          "name": "expiration",
          "type": "uint128"
        },
        {
          "internalType": "uint128",
          "name": "strike",
          "type": "uint128"
        }
      ],
      "name": "writeCall",
      "outputs": [
        {
          "internalType": "address",
          "name": "",
          "type": "address"
        }
      ],
      "payable": true,
      "stateMutability": "payable",
      "type": "function"
    },
    {
      "constant": false,
      "inputs": [
        {
          "internalType": "uint128",
          "name": "expiration",
          "type": "uint128"
        },
        {
          "internalType": "uint128",
          "name": "strike",
          "type": "uint128"
        },
        {
          "internalType": "uint128",
          "name": "amount",
          "type": "uint128"
        }
      ],
      "name": "writePut",
      "outputs": [
        {
          "internalType": "address",
          "name": "",
          "type": "address"
        }
      ],
      "payable": false,
      "stateMutability": "nonpayable",
      "type": "function"
    },
    {
      "constant": true,
      "inputs": [
        {
          "internalType": "bool",
          "name": "isCall",
          "type": "bool"
        },
        {
          "internalType": "uint256",
          "name": "expiration",
          "type": "uint256"
        },
        {
          "internalType": "uint256",
          "name": "strike",
          "type": "uint256"
        }
      ],
      "name": "getTokenName",
      "outputs": [
        {
          "internalType": "string",
          "name": "",
          "type": "string"
        }
      ],
      "payable": false,
      "stateMutability": "pure",
      "type": "function"
    },
    {
      "constant": true,
      "inputs": [
        {
          "internalType": "bool",
          "name": "isCall",
          "type": "bool"
        },
        {
          "internalType": "uint256",
          "name": "expiration",
          "type": "uint256"
        },
        {
          "internalType": "uint256",
          "name": "strike",
          "type": "uint256"
        }
      ],
      "name": "getTokenSymbol",
      "outputs": [
        {
          "internalType": "string",
          "name": "",
          "type": "string"
        }
      ],
      "payable": false,
      "stateMutability": "pure",
      "type": "function"
    }
  ],
  "bytecode": "0x60806040523480156200001157600080fd5b50604051620000209062000145565b604051809103906000f0801580156200003d573d6000803e3d6000fd5b50600260006101000a81548173ffffffffffffffffffffffffffffffffffffffff021916908373ffffffffffffffffffffffffffffffffffffffff1602179055506040516200008c9062000152565b604051809103906000f080158015620000a9573d6000803e3d6000fd5b50600360006101000a81548173ffffffffffffffffffffffffffffffffffffffff021916908373ffffffffffffffffffffffffffffffffffffffff16021790555073__USD___________________________________600460006101000a81548173ffffffffffffffffffffffffffffffffffffffff021916908373ffffffffffffffffffffffffffffffffffffffff1602179055506200015f565b60968062001b7783390190565b60968062001c0d83390190565b611a08806200016f6000396000f3fe60806040526004361061009c5760003560e01c8063364135f811610064578063364135f81461041e57806382db27d8146104c7578063a54fe5a41461051e578063bc3f9003146105c7578063ccf953bd1461061e578063d63a6ccd146106e85761009c565b806311c43cb3146100a1578063183cffb71461013d578063298e91c7146102075780632d4ee6fe146102cc57806331fe8aa914610375575b600080fd5b6100fb600480360360408110156100b757600080fd5b8101908080356fffffffffffffffffffffffffffffffff16906020019092919080356fffffffffffffffffffffffffffffffff16906020019092919050505061073f565b604051808273ffffffffffffffffffffffffffffffffffffffff1673ffffffffffffffffffffffffffffffffffffffff16815260200191505060405180910390f35b34801561014957600080fd5b5061018c6004803603606081101561016057600080fd5b810190808035151590602001909291908035906020019092919080359060200190929190505050610960565b6040518080602001828103825283818151815260200191508051906020019080838360005b838110156101cc5780820151818401526020810190506101b1565b50505050905090810190601f1680156101f95780820380516001836020036101000a031916815260200191505b509250505060405180910390f35b34801561021357600080fd5b5061028a6004803603606081101561022a57600080fd5b8101908080356fffffffffffffffffffffffffffffffff16906020019092919080356fffffffffffffffffffffffffffffffff16906020019092919080356fffffffffffffffffffffffffffffffff169060200190929190505050610ac7565b604051808273ffffffffffffffffffffffffffffffffffffffff1673ffffffffffffffffffffffffffffffffffffffff16815260200191505060405180910390f35b3480156102d857600080fd5b50610333600480360360408110156102ef57600080fd5b8101908080356fffffffffffffffffffffffffffffffff16906020019092919080356fffffffffffffffffffffffffffffffff169060200190929190505050610e7f565b604051808273ffffffffffffffffffffffffffffffffffffffff1673ffffffffffffffffffffffffffffffffffffffff16815260200191505060405180910390f35b34801561038157600080fd5b506103dc6004803603604081101561039857600080fd5b8101908080356fffffffffffffffffffffffffffffffff16906020019092919080356fffffffffffffffffffffffffffffffff169060200190929190505050610ec1565b604051808273ffffffffffffffffffffffffffffffffffffffff1673ffffffffffffffffffffffffffffffffffffffff16815260200191505060405180910390f35b34801561042a57600080fd5b506104856004803603604081101561044157600080fd5b8101908080356fffffffffffffffffffffffffffffffff16906020019092919080356fffffffffffffffffffffffffffffffff169060200190929190505050610f03565b604051808273ffffffffffffffffffffffffffffffffffffffff1673ffffffffffffffffffffffffffffffffffffffff16815260200191505060405180910390f35b3480156104d357600080fd5b506104dc6113df565b604051808273ffffffffffffffffffffffffffffffffffffffff1673ffffffffffffffffffffffffffffffffffffffff16815260200191505060405180910390f35b34801561052a57600080fd5b506105856004803603604081101561054157600080fd5b8101908080356fffffffffffffffffffffffffffffffff16906020019092919080356fffffffffffffffffffffffffffffffff169060200190929190505050611405565b604051808273ffffffffffffffffffffffffffffffffffffffff1673ffffffffffffffffffffffffffffffffffffffff16815260200191505060405180910390f35b3480156105d357600080fd5b506105dc6117da565b604051808273ffffffffffffffffffffffffffffffffffffffff1673ffffffffffffffffffffffffffffffffffffffff16815260200191505060405180910390f35b34801561062a57600080fd5b5061066d6004803603606081101561064157600080fd5b810190808035151590602001909291908035906020019092919080359060200190929190505050611800565b6040518080602001828103825283818151815260200191508051906020019080838360005b838110156106ad578082015181840152602081019050610692565b50505050905090810190601f1680156106da5780820380516001836020036101000a031916815260200191505b509250505060405180910390f35b3480156106f457600080fd5b506106fd611967565b604051808273ffffffffffffffffffffffffffffffffffffffff1673ffffffffffffffffffffffffffffffffffffffff16815260200191505060405180910390f35b60008061074c8484611405565b90508073ffffffffffffffffffffffffffffffffffffffff1663bcb4ab0e346040518263ffffffff1660e01b81526004016020604051808303818588803b15801561079657600080fd5b505af11580156107aa573d6000803e3d6000fd5b50505050506040513d60208110156107c157600080fd5b8101908080519060200190929190505050508073ffffffffffffffffffffffffffffffffffffffff1663a9059cbb33346040518363ffffffff1660e01b8152600401808373ffffffffffffffffffffffffffffffffffffffff1673ffffffffffffffffffffffffffffffffffffffff16815260200182815260200192505050602060405180830381600087803b15801561085a57600080fd5b505af115801561086e573d6000803e3d6000fd5b505050506040513d602081101561088457600080fd5b8101908080519060200190929190505050508073ffffffffffffffffffffffffffffffffffffffff1663615afb5733346040518363ffffffff1660e01b8152600401808373ffffffffffffffffffffffffffffffffffffffff1673ffffffffffffffffffffffffffffffffffffffff16815260200182815260200192505050602060405180830381600087803b15801561091d57600080fd5b505af1158015610931573d6000803e3d6000fd5b505050506040513d602081101561094757600080fd5b8101908080519060200190929190505050505092915050565b606073__OptionTokenNamesake___________________63cf3ecfec8585856040518463ffffffff1660e01b81526004018084151515158152602001838152602001828152602001935050505060006040518083038186803b1580156109c557600080fd5b505af41580156109d9573d6000803e3d6000fd5b505050506040513d6000823e3d601f19601f820116820180604052506020811015610a0357600080fd5b8101908080516040519392919084640100000000821115610a2357600080fd5b83820191506020820185811115610a3957600080fd5b8251866001820283011164010000000082111715610a5657600080fd5b8083526020830192505050908051906020019080838360005b83811015610a8a578082015181840152602081019050610a6f565b50505050905090810190601f168015610ab75780820380516001836020036101000a031916815260200191505b5060405250505090509392505050565b600080610ad48585610f03565b90506000670de0b6b3a76400008585026fffffffffffffffffffffffffffffffff1681610afd57fe5b049050600460009054906101000a900473ffffffffffffffffffffffffffffffffffffffff1673ffffffffffffffffffffffffffffffffffffffff166323b872dd3330846040518463ffffffff1660e01b8152600401808473ffffffffffffffffffffffffffffffffffffffff1673ffffffffffffffffffffffffffffffffffffffff1681526020018373ffffffffffffffffffffffffffffffffffffffff1673ffffffffffffffffffffffffffffffffffffffff168152602001826fffffffffffffffffffffffffffffffff1681526020019350505050602060405180830381600087803b158015610bef57600080fd5b505af1158015610c03573d6000803e3d6000fd5b505050506040513d6020811015610c1957600080fd5b8101908080519060200190929190505050508173ffffffffffffffffffffffffffffffffffffffff16632f048afa856040518263ffffffff1660e01b815260040180826fffffffffffffffffffffffffffffffff168152602001915050602060405180830381600087803b158015610c9057600080fd5b505af1158015610ca4573d6000803e3d6000fd5b505050506040513d6020811015610cba57600080fd5b8101908080519060200190929190505050508173ffffffffffffffffffffffffffffffffffffffff1663a9059cbb33866040518363ffffffff1660e01b8152600401808373ffffffffffffffffffffffffffffffffffffffff1673ffffffffffffffffffffffffffffffffffffffff168152602001826fffffffffffffffffffffffffffffffff16815260200192505050602060405180830381600087803b158015610d6557600080fd5b505af1158015610d79573d6000803e3d6000fd5b505050506040513d6020811015610d8f57600080fd5b8101908080519060200190929190505050508173ffffffffffffffffffffffffffffffffffffffff1663615afb5733866040518363ffffffff1660e01b8152600401808373ffffffffffffffffffffffffffffffffffffffff1673ffffffffffffffffffffffffffffffffffffffff168152602001826fffffffffffffffffffffffffffffffff16815260200192505050602060405180830381600087803b158015610e3a57600080fd5b505af1158015610e4e573d6000803e3d6000fd5b505050506040513d6020811015610e6457600080fd5b81019080805190602001909291905050505050509392505050565b60006020528160005260406000206020528060005260406000206000915091509054906101000a900473ffffffffffffffffffffffffffffffffffffffff1681565b60016020528160005260406000206020528060005260406000206000915091509054906101000a900473ffffffffffffffffffffffffffffffffffffffff1681565b600042836fffffffffffffffffffffffffffffffff16118015610f5a5750600061a8c062015180856fffffffffffffffffffffffffffffffff1681610f4457fe5b06036fffffffffffffffffffffffffffffffff16145b8015610f9b57506000674563918244f40000836fffffffffffffffffffffffffffffffff1681610f8657fe5b066fffffffffffffffffffffffffffffffff16145b8015610fb957506000826fffffffffffffffffffffffffffffffff16115b8015610fe0575069152d02c7e14af6800000826fffffffffffffffffffffffffffffffff16105b610fe957600080fd5b600060016000856fffffffffffffffffffffffffffffffff166fffffffffffffffffffffffffffffffff1681526020019081526020016000206000846fffffffffffffffffffffffffffffffff166fffffffffffffffffffffffffffffffff16815260200190815260200160002060009054906101000a900473ffffffffffffffffffffffffffffffffffffffff169050600073ffffffffffffffffffffffffffffffffffffffff168173ffffffffffffffffffffffffffffffffffffffff161415611348576110da600360009054906101000a900473ffffffffffffffffffffffffffffffffffffffff1661198d565b90508073ffffffffffffffffffffffffffffffffffffffff1663a5843f0885856040518363ffffffff1660e01b815260040180836fffffffffffffffffffffffffffffffff168152602001826fffffffffffffffffffffffffffffffff16815260200192505050602060405180830381600087803b15801561115b57600080fd5b505af115801561116f573d6000803e3d6000fd5b505050506040513d602081101561118557600080fd5b810190808051906020019092919050505050600460009054906101000a900473ffffffffffffffffffffffffffffffffffffffff1673ffffffffffffffffffffffffffffffffffffffff1663095ea7b3827fffffffffffffffffffffffffffffffffffffffffffffffffffffffffffffffff6040518363ffffffff1660e01b8152600401808373ffffffffffffffffffffffffffffffffffffffff1673ffffffffffffffffffffffffffffffffffffffff16815260200182815260200192505050602060405180830381600087803b15801561126057600080fd5b505af1158015611274573d6000803e3d6000fd5b505050506040513d602081101561128a57600080fd5b8101908080519060200190929190505050508060016000866fffffffffffffffffffffffffffffffff166fffffffffffffffffffffffffffffffff1681526020019081526020016000206000856fffffffffffffffffffffffffffffffff166fffffffffffffffffffffffffffffffff16815260200190815260200160002060006101000a81548173ffffffffffffffffffffffffffffffffffffffff021916908373ffffffffffffffffffffffffffffffffffffffff1602179055505b826fffffffffffffffffffffffffffffffff16846fffffffffffffffffffffffffffffffff16600015157f6d27e371ceacbca040e865306e3f201490ebf573a2ed4ae4c77f6661595430c684604051808273ffffffffffffffffffffffffffffffffffffffff1673ffffffffffffffffffffffffffffffffffffffff16815260200191505060405180910390a48091505092915050565b600260009054906101000a900473ffffffffffffffffffffffffffffffffffffffff1681565b600042836fffffffffffffffffffffffffffffffff1611801561145c5750600061a8c062015180856fffffffffffffffffffffffffffffffff168161144657fe5b06036fffffffffffffffffffffffffffffffff16145b801561149d57506000674563918244f40000836fffffffffffffffffffffffffffffffff168161148857fe5b066fffffffffffffffffffffffffffffffff16145b80156114bb57506000826fffffffffffffffffffffffffffffffff16115b80156114e2575069152d02c7e14af6800000826fffffffffffffffffffffffffffffffff16105b6114eb57600080fd5b6000806000856fffffffffffffffffffffffffffffffff166fffffffffffffffffffffffffffffffff1681526020019081526020016000206000846fffffffffffffffffffffffffffffffff166fffffffffffffffffffffffffffffffff16815260200190815260200160002060009054906101000a900473ffffffffffffffffffffffffffffffffffffffff169050600073ffffffffffffffffffffffffffffffffffffffff168173ffffffffffffffffffffffffffffffffffffffff161415611743576115db600260009054906101000a900473ffffffffffffffffffffffffffffffffffffffff1661198d565b90508073ffffffffffffffffffffffffffffffffffffffff1663a5843f0885856040518363ffffffff1660e01b815260040180836fffffffffffffffffffffffffffffffff168152602001826fffffffffffffffffffffffffffffffff16815260200192505050602060405180830381600087803b15801561165c57600080fd5b505af1158015611670573d6000803e3d6000fd5b505050506040513d602081101561168657600080fd5b81019080805190602001909291905050505080600080866fffffffffffffffffffffffffffffffff166fffffffffffffffffffffffffffffffff1681526020019081526020016000206000856fffffffffffffffffffffffffffffffff166fffffffffffffffffffffffffffffffff16815260200190815260200160002060006101000a81548173ffffffffffffffffffffffffffffffffffffffff021916908373ffffffffffffffffffffffffffffffffffffffff1602179055505b826fffffffffffffffffffffffffffffffff16846fffffffffffffffffffffffffffffffff16600115157f6d27e371ceacbca040e865306e3f201490ebf573a2ed4ae4c77f6661595430c684604051808273ffffffffffffffffffffffffffffffffffffffff1673ffffffffffffffffffffffffffffffffffffffff16815260200191505060405180910390a48091505092915050565b600360009054906101000a900473ffffffffffffffffffffffffffffffffffffffff1681565b606073__OptionTokenNamesake___________________631264fc318585856040518463ffffffff1660e01b81526004018084151515158152602001838152602001828152602001935050505060006040518083038186803b15801561186557600080fd5b505af4158015611879573d6000803e3d6000fd5b505050506040513d6000823e3d601f19601f8201168201806040525060208110156118a357600080fd5b81019080805160405193929190846401000000008211156118c357600080fd5b838201915060208201858111156118d957600080fd5b82518660018202830111640100000000821117156118f657600080fd5b8083526020830192505050908051906020019080838360005b8381101561192a57808201518184015260208101905061190f565b50505050905090810190601f1680156119575780820380516001836020036101000a031916815260200191505b5060405250505090509392505050565b600460009054906101000a900473ffffffffffffffffffffffffffffffffffffffff1681565b600080690100000000000000000083027f5880730000000000000000000000000000000000000000803b80938091923cf3176000526020600080f090508091505091905056fea265627a7a723158208fec05266b13f88da73c1b4b2f5a1fa190471ebf98230fbd3686e8837d393cb264736f6c634300051000326080604052348015600f57600080fd5b5060788061001e6000396000f3fe6080604052600073__ETHCallOptionTokenAddress_____________905060405136600082376000803683855af43d806000843e8160008114603f578184f35b8184fdfea265627a7a72315820ebf2a78c33e4ebaba495fd3b91b8c0e9ebf567f670e62baaed3df18ee2d6c0fb64736f6c634300051000326080604052348015600f57600080fd5b5060788061001e6000396000f3fe6080604052600073__ETHPutOptionTokenAddress______________905060405136600082376000803683855af43d806000843e8160008114603f578184f35b8184fdfea265627a7a7231582076fbab2fc41182a319a24a0426f1025ac2a69bc0ab4c21c5ff68d95364c228d664736f6c63430005100032",
  "source": "pragma solidity ^0.5;\n\nimport \"./Cloner.sol\";\nimport \"./ETHCallOptionToken.sol\";\nimport \"./ETHPutOptionToken.sol\";\nimport \"./ETHCallOptionTokenProxy.sol\";\nimport \"./ETHPutOptionTokenProxy.sol\";\nimport \"./OptionTokenNamesake.sol\";\n\n\ncontract OptionTokenFactory is Cloner {\n    mapping(uint128 => mapping(uint128 => address)) public calls;\n    mapping(uint128 => mapping(uint128 => address)) public puts;\n\n    address public callTemplate;\n    address public putTemplate;\n    ERC20 public usd;\n\n    event OptionTokenCreated(address token, bool indexed isCall, uint128 indexed expiration, uint128 indexed strike);\n\n    modifier receiveUSD(uint128 strike, uint128 amount) {\n        _;\n    }\n\n    constructor() public {\n        callTemplate = address(new ETHCallOptionTokenProxy());\n        putTemplate = address(new ETHPutOptionTokenProxy());\n        usd = ERC20(address(USD));\n    }\n\n    function findOrCreateCall(uint128 expiration, uint128 strike) public returns (ETHCallOptionToken) {\n        require(expiration > now && expiration % 86400 - 43200 == 0 && strike % 5 ether == 0 && strike > 0 ether && strike < 100000 ether);\n        address token = calls[expiration][strike];\n        if (token == address(0)) {\n            token = clone(callTemplate);\n            ETHCallOptionToken(token).init(expiration, strike);\n            calls[expiration][strike] = token;\n        }\n\n        emit OptionTokenCreated(token, true, expiration, strike);\n        return ETHCallOptionToken(token);\n    }\n\n    function findOrCreatePut(uint128 expiration, uint128 strike) public returns (ETHPutOptionToken) {\n        require(expiration > now && expiration % 86400 - 43200 == 0 && strike % 5 ether == 0 && strike > 0 ether && strike < 100000 ether);\n        address token = puts[expiration][strike];\n        if (token == address(0)) {\n            token = clone(putTemplate);\n            ETHPutOptionToken(token).init(expiration, strike);\n            usd.approve(token, uint256(-1));\n            puts[expiration][strike] = token;\n        }\n\n        emit OptionTokenCreated(token, false, expiration, strike);\n        return ETHPutOptionToken(token);\n    }\n\n    function writeCall(uint128 expiration, uint128 strike) public payable returns (address) {\n        ETHCallOptionToken token = findOrCreateCall(expiration, strike);\n        token.write.value(msg.value)();\n        token.transfer(msg.sender, msg.value);\n        token.writerTransfer(msg.sender, msg.value);\n    }\n\n    function writePut(uint128 expiration, uint128 strike, uint128 amount) public returns (address) {\n        ETHPutOptionToken token = findOrCreatePut(expiration, strike);\n        uint128 cost = amount * strike / 1 ether;\n        usd.transferFrom(msg.sender, address(this), cost);\n        token.write(amount);\n        token.transfer(msg.sender, amount);\n        token.writerTransfer(msg.sender, amount);\n    }\n\n    function getTokenName(bool isCall, uint256 expiration, uint256 strike) pure external returns (string memory) {\n        return OptionTokenNamesake.name(isCall, expiration, strike);\n    }\n\n    function getTokenSymbol(bool isCall, uint256 expiration, uint256 strike) pure external returns (string memory) {\n        return OptionTokenNamesake.symbol(isCall, expiration, strike);\n    }\n}",
  "sourcePath": "/Users/brianwheeler/dsfprotocol/option-tokens/contracts/OptionTokenFactory.sol",
  "compiler": {
    "name": "solc",
    "version": "0.5.16+commit.9c3226ce.Emscripten.clang"
  },
  "schemaVersion": "3.2.0",
  "updatedAt": "2020-06-17T23:44:00.926Z",
  "networkType": "ethereum",
  "devdoc": {
    "methods": {}
  },
  "userdoc": {
    "methods": {}
  }
}