{
  "contractName": "OptionTokenFactory",
  "abi": [
    {
      "inputs": [],
      "payable": false,
      "stateMutability": "nonpayable",
      "type": "constructor"
    },
    {
      "anonymous": false,
      "inputs": [
        {
          "indexed": false,
          "internalType": "address",
          "name": "token",
          "type": "address"
        },
        {
          "indexed": false,
          "internalType": "bool",
          "name": "isCall",
          "type": "bool"
        },
        {
          "indexed": false,
          "internalType": "uint128",
          "name": "expiration",
          "type": "uint128"
        },
        {
          "indexed": false,
          "internalType": "uint128",
          "name": "strike",
          "type": "uint128"
        }
      ],
      "name": "OptionTokenCreated",
      "type": "event"
    },
    {
      "constant": true,
      "inputs": [],
      "name": "callTemplate",
      "outputs": [
        {
          "internalType": "address",
          "name": "",
          "type": "address"
        }
      ],
      "payable": false,
      "stateMutability": "view",
      "type": "function"
    },
    {
      "constant": true,
      "inputs": [
        {
          "internalType": "uint128",
          "name": "",
          "type": "uint128"
        },
        {
          "internalType": "uint128",
          "name": "",
          "type": "uint128"
        }
      ],
      "name": "calls",
      "outputs": [
        {
          "internalType": "address",
          "name": "",
          "type": "address"
        }
      ],
      "payable": false,
      "stateMutability": "view",
      "type": "function"
    },
    {
      "constant": true,
      "inputs": [],
      "name": "putTemplate",
      "outputs": [
        {
          "internalType": "address",
          "name": "",
          "type": "address"
        }
      ],
      "payable": false,
      "stateMutability": "view",
      "type": "function"
    },
    {
      "constant": true,
      "inputs": [
        {
          "internalType": "uint128",
          "name": "",
          "type": "uint128"
        },
        {
          "internalType": "uint128",
          "name": "",
          "type": "uint128"
        }
      ],
      "name": "puts",
      "outputs": [
        {
          "internalType": "address",
          "name": "",
          "type": "address"
        }
      ],
      "payable": false,
      "stateMutability": "view",
      "type": "function"
    },
    {
      "constant": true,
      "inputs": [],
      "name": "usd",
      "outputs": [
        {
          "internalType": "contract ERC20",
          "name": "",
          "type": "address"
        }
      ],
      "payable": false,
      "stateMutability": "view",
      "type": "function"
    },
    {
      "constant": false,
      "inputs": [
        {
          "internalType": "uint128",
          "name": "expiration",
          "type": "uint128"
        },
        {
          "internalType": "uint128",
          "name": "strike",
          "type": "uint128"
        }
      ],
      "name": "createCall",
      "outputs": [
        {
          "internalType": "address",
          "name": "",
          "type": "address"
        }
      ],
      "payable": false,
      "stateMutability": "nonpayable",
      "type": "function"
    },
    {
      "constant": false,
      "inputs": [
        {
          "internalType": "uint128",
          "name": "expiration",
          "type": "uint128"
        },
        {
          "internalType": "uint128",
          "name": "strike",
          "type": "uint128"
        }
      ],
      "name": "writeCall",
      "outputs": [
        {
          "internalType": "address",
          "name": "",
          "type": "address"
        }
      ],
      "payable": true,
      "stateMutability": "payable",
      "type": "function"
    },
    {
      "constant": false,
      "inputs": [
        {
          "internalType": "uint128",
          "name": "expiration",
          "type": "uint128"
        },
        {
          "internalType": "uint128",
          "name": "strike",
          "type": "uint128"
        },
        {
          "internalType": "address",
          "name": "approve",
          "type": "address"
        }
      ],
      "name": "writeCallAndApprove",
      "outputs": [
        {
          "internalType": "address",
          "name": "",
          "type": "address"
        }
      ],
      "payable": true,
      "stateMutability": "payable",
      "type": "function"
    },
    {
      "constant": false,
      "inputs": [
        {
          "internalType": "uint128",
          "name": "expiration",
          "type": "uint128"
        },
        {
          "internalType": "uint128",
          "name": "strike",
          "type": "uint128"
        },
        {
          "internalType": "address",
          "name": "approve",
          "type": "address"
        },
        {
          "internalType": "bytes",
          "name": "data",
          "type": "bytes"
        }
      ],
      "name": "writeCallAndApproveAndCall",
      "outputs": [
        {
          "internalType": "address",
          "name": "",
          "type": "address"
        }
      ],
      "payable": true,
      "stateMutability": "payable",
      "type": "function"
    },
    {
      "constant": false,
      "inputs": [
        {
          "internalType": "uint128",
          "name": "expiration",
          "type": "uint128"
        },
        {
          "internalType": "uint128",
          "name": "strike",
          "type": "uint128"
        }
      ],
      "name": "createPut",
      "outputs": [
        {
          "internalType": "address",
          "name": "",
          "type": "address"
        }
      ],
      "payable": false,
      "stateMutability": "nonpayable",
      "type": "function"
    },
    {
      "constant": false,
      "inputs": [
        {
          "internalType": "uint128",
          "name": "expiration",
          "type": "uint128"
        },
        {
          "internalType": "uint128",
          "name": "strike",
          "type": "uint128"
        },
        {
          "internalType": "uint128",
          "name": "amount",
          "type": "uint128"
        }
      ],
      "name": "writePut",
      "outputs": [
        {
          "internalType": "address",
          "name": "",
          "type": "address"
        }
      ],
      "payable": false,
      "stateMutability": "nonpayable",
      "type": "function"
    },
    {
      "constant": false,
      "inputs": [
        {
          "internalType": "uint128",
          "name": "expiration",
          "type": "uint128"
        },
        {
          "internalType": "uint128",
          "name": "strike",
          "type": "uint128"
        },
        {
          "internalType": "uint128",
          "name": "amount",
          "type": "uint128"
        },
        {
          "internalType": "address",
          "name": "approve",
          "type": "address"
        }
      ],
      "name": "writePutAndApprove",
      "outputs": [
        {
          "internalType": "address",
          "name": "",
          "type": "address"
        }
      ],
      "payable": false,
      "stateMutability": "nonpayable",
      "type": "function"
    },
    {
      "constant": false,
      "inputs": [
        {
          "internalType": "uint128",
          "name": "expiration",
          "type": "uint128"
        },
        {
          "internalType": "uint128",
          "name": "strike",
          "type": "uint128"
        },
        {
          "internalType": "uint128",
          "name": "amount",
          "type": "uint128"
        },
        {
          "internalType": "address",
          "name": "approve",
          "type": "address"
        },
        {
          "internalType": "bytes",
          "name": "data",
          "type": "bytes"
        }
      ],
      "name": "writePutApproveAndCall",
      "outputs": [
        {
          "internalType": "address",
          "name": "",
          "type": "address"
        }
      ],
      "payable": false,
      "stateMutability": "nonpayable",
      "type": "function"
    },
    {
      "constant": true,
      "inputs": [
        {
          "internalType": "bool",
          "name": "isCall",
          "type": "bool"
        },
        {
          "internalType": "uint256",
          "name": "expiration",
          "type": "uint256"
        },
        {
          "internalType": "uint256",
          "name": "strike",
          "type": "uint256"
        }
      ],
      "name": "getTokenName",
      "outputs": [
        {
          "internalType": "string",
          "name": "",
          "type": "string"
        }
      ],
      "payable": false,
      "stateMutability": "pure",
      "type": "function"
    },
    {
      "constant": true,
      "inputs": [
        {
          "internalType": "bool",
          "name": "isCall",
          "type": "bool"
        },
        {
          "internalType": "uint256",
          "name": "expiration",
          "type": "uint256"
        },
        {
          "internalType": "uint256",
          "name": "strike",
          "type": "uint256"
        }
      ],
      "name": "getTokenSymbol",
      "outputs": [
        {
          "internalType": "string",
          "name": "",
          "type": "string"
        }
      ],
      "payable": false,
      "stateMutability": "pure",
      "type": "function"
    }
  ],
  "bytecode": "0x60806040523480156200001157600080fd5b50604051620000209062000145565b604051809103906000f0801580156200003d573d6000803e3d6000fd5b50600260006101000a81548173ffffffffffffffffffffffffffffffffffffffff021916908373ffffffffffffffffffffffffffffffffffffffff1602179055506040516200008c9062000152565b604051809103906000f080158015620000a9573d6000803e3d6000fd5b50600360006101000a81548173ffffffffffffffffffffffffffffffffffffffff021916908373ffffffffffffffffffffffffffffffffffffffff16021790555073__USD___________________________________600460006101000a81548173ffffffffffffffffffffffffffffffffffffffff021916908373ffffffffffffffffffffffffffffffffffffffff1602179055506200015f565b6096806200235b83390190565b609680620023f183390190565b6121ec806200016f6000396000f3fe6080604052600436106100e85760003560e01c806382db27d81161008a578063bc3f900311610059578063bc3f9003146109da578063c38a40b614610a31578063ccf953bd14610ada578063d63a6ccd14610ba4576100e8565b806382db27d8146106a25780638fc43ff7146106f957806399068cf51461084c5780639d22da04146108f5576100e8565b8063298e91c7116100c6578063298e91c7146103cf5780632d4ee6fe1461049457806331fe8aa91461053d57806379500d57146105e6576100e8565b806310fe6542146100ed57806311c43cb314610269578063183cffb714610305575b600080fd5b3480156100f957600080fd5b50610227600480360360a081101561011057600080fd5b8101908080356fffffffffffffffffffffffffffffffff16906020019092919080356fffffffffffffffffffffffffffffffff16906020019092919080356fffffffffffffffffffffffffffffffff169060200190929190803573ffffffffffffffffffffffffffffffffffffffff169060200190929190803590602001906401000000008111156101a157600080fd5b8201836020820111156101b357600080fd5b803590602001918460018302840111640100000000831117156101d557600080fd5b91908080601f016020809104026020016040519081016040528093929190818152602001838380828437600081840152601f19601f820116905080830192505050505050509192919290505050610bfb565b604051808273ffffffffffffffffffffffffffffffffffffffff1673ffffffffffffffffffffffffffffffffffffffff16815260200191505060405180910390f35b6102c36004803603604081101561027f57600080fd5b8101908080356fffffffffffffffffffffffffffffffff16906020019092919080356fffffffffffffffffffffffffffffffff169060200190929190505050610d56565b604051808273ffffffffffffffffffffffffffffffffffffffff1673ffffffffffffffffffffffffffffffffffffffff16815260200191505060405180910390f35b34801561031157600080fd5b506103546004803603606081101561032857600080fd5b810190808035151590602001909291908035906020019092919080359060200190929190505050610df1565b6040518080602001828103825283818151815260200191508051906020019080838360005b83811015610394578082015181840152602081019050610379565b50505050905090810190601f1680156103c15780820380516001836020036101000a031916815260200191505b509250505060405180910390f35b3480156103db57600080fd5b50610452600480360360608110156103f257600080fd5b8101908080356fffffffffffffffffffffffffffffffff16906020019092919080356fffffffffffffffffffffffffffffffff16906020019092919080356fffffffffffffffffffffffffffffffff169060200190929190505050610f58565b604051808273ffffffffffffffffffffffffffffffffffffffff1673ffffffffffffffffffffffffffffffffffffffff16815260200191505060405180910390f35b3480156104a057600080fd5b506104fb600480360360408110156104b757600080fd5b8101908080356fffffffffffffffffffffffffffffffff16906020019092919080356fffffffffffffffffffffffffffffffff16906020019092919050505061116b565b604051808273ffffffffffffffffffffffffffffffffffffffff1673ffffffffffffffffffffffffffffffffffffffff16815260200191505060405180910390f35b34801561054957600080fd5b506105a46004803603604081101561056057600080fd5b8101908080356fffffffffffffffffffffffffffffffff16906020019092919080356fffffffffffffffffffffffffffffffff1690602001909291905050506111ad565b604051808273ffffffffffffffffffffffffffffffffffffffff1673ffffffffffffffffffffffffffffffffffffffff16815260200191505060405180910390f35b610660600480360360608110156105fc57600080fd5b8101908080356fffffffffffffffffffffffffffffffff16906020019092919080356fffffffffffffffffffffffffffffffff169060200190929190803573ffffffffffffffffffffffffffffffffffffffff1690602001909291905050506111ef565b604051808273ffffffffffffffffffffffffffffffffffffffff1673ffffffffffffffffffffffffffffffffffffffff16815260200191505060405180910390f35b3480156106ae57600080fd5b506106b76112c2565b604051808273ffffffffffffffffffffffffffffffffffffffff1673ffffffffffffffffffffffffffffffffffffffff16815260200191505060405180910390f35b61080a6004803603608081101561070f57600080fd5b8101908080356fffffffffffffffffffffffffffffffff16906020019092919080356fffffffffffffffffffffffffffffffff169060200190929190803573ffffffffffffffffffffffffffffffffffffffff1690602001909291908035906020019064010000000081111561078457600080fd5b82018360208201111561079657600080fd5b803590602001918460018302840111640100000000831117156107b857600080fd5b91908080601f016020809104026020016040519081016040528093929190818152602001838380828437600081840152601f19601f8201169050808301925050505050505091929192905050506112e8565b604051808273ffffffffffffffffffffffffffffffffffffffff1673ffffffffffffffffffffffffffffffffffffffff16815260200191505060405180910390f35b34801561085857600080fd5b506108b36004803603604081101561086f57600080fd5b8101908080356fffffffffffffffffffffffffffffffff16906020019092919080356fffffffffffffffffffffffffffffffff169060200190929190505050611429565b604051808273ffffffffffffffffffffffffffffffffffffffff1673ffffffffffffffffffffffffffffffffffffffff16815260200191505060405180910390f35b34801561090157600080fd5b506109986004803603608081101561091857600080fd5b8101908080356fffffffffffffffffffffffffffffffff16906020019092919080356fffffffffffffffffffffffffffffffff16906020019092919080356fffffffffffffffffffffffffffffffff169060200190929190803573ffffffffffffffffffffffffffffffffffffffff16906020019092919050505061143d565b604051808273ffffffffffffffffffffffffffffffffffffffff1673ffffffffffffffffffffffffffffffffffffffff16815260200191505060405180910390f35b3480156109e657600080fd5b506109ef611685565b604051808273ffffffffffffffffffffffffffffffffffffffff1673ffffffffffffffffffffffffffffffffffffffff16815260200191505060405180910390f35b348015610a3d57600080fd5b50610a9860048036036040811015610a5457600080fd5b8101908080356fffffffffffffffffffffffffffffffff16906020019092919080356fffffffffffffffffffffffffffffffff1690602001909291905050506116ab565b604051808273ffffffffffffffffffffffffffffffffffffffff1673ffffffffffffffffffffffffffffffffffffffff16815260200191505060405180910390f35b348015610ae657600080fd5b50610b2960048036036060811015610afd57600080fd5b8101908080351515906020019092919080359060200190929190803590602001909291905050506116bf565b6040518080602001828103825283818151815260200191508051906020019080838360005b83811015610b69578082015181840152602081019050610b4e565b50505050905090810190601f168015610b965780820380516001836020036101000a031916815260200191505b509250505060405180910390f35b348015610bb057600080fd5b50610bb9611826565b604051808273ffffffffffffffffffffffffffffffffffffffff1673ffffffffffffffffffffffffffffffffffffffff16815260200191505060405180910390f35b600080610c08878761184c565b90508073ffffffffffffffffffffffffffffffffffffffff1663bf66be9d8686866040518463ffffffff1660e01b815260040180846fffffffffffffffffffffffffffffffff1681526020018373ffffffffffffffffffffffffffffffffffffffff1673ffffffffffffffffffffffffffffffffffffffff16815260200180602001828103825283818151815260200191508051906020019080838360005b83811015610cc2578082015181840152602081019050610ca7565b50505050905090810190601f168015610cef5780820380516001836020036101000a031916815260200191505b50945050505050602060405180830381600087803b158015610d1057600080fd5b505af1158015610d24573d6000803e3d6000fd5b505050506040513d6020811015610d3a57600080fd5b8101908080519060200190929190505050505095945050505050565b600080610d638484611d61565b90508073ffffffffffffffffffffffffffffffffffffffff1663f5b885c4346040518263ffffffff1660e01b81526004016020604051808303818588803b158015610dad57600080fd5b505af1158015610dc1573d6000803e3d6000fd5b50505050506040513d6020811015610dd857600080fd5b8101908080519060200190929190505050505092915050565b606073__OptionTokenNamesake___________________63cf3ecfec8585856040518463ffffffff1660e01b81526004018084151515158152602001838152602001828152602001935050505060006040518083038186803b158015610e5657600080fd5b505af4158015610e6a573d6000803e3d6000fd5b505050506040513d6000823e3d601f19601f820116820180604052506020811015610e9457600080fd5b8101908080516040519392919084640100000000821115610eb457600080fd5b83820191506020820185811115610eca57600080fd5b8251866001820283011164010000000082111715610ee757600080fd5b8083526020830192505050908051906020019080838360005b83811015610f1b578082015181840152602081019050610f00565b50505050905090810190601f168015610f485780820380516001836020036101000a031916815260200191505b5060405250505090509392505050565b600082826000670de0b6b3a76400008383026fffffffffffffffffffffffffffffffff1681610f8357fe5b049050600460009054906101000a900473ffffffffffffffffffffffffffffffffffffffff1673ffffffffffffffffffffffffffffffffffffffff166323b872dd3330846040518463ffffffff1660e01b8152600401808473ffffffffffffffffffffffffffffffffffffffff1673ffffffffffffffffffffffffffffffffffffffff1681526020018373ffffffffffffffffffffffffffffffffffffffff1673ffffffffffffffffffffffffffffffffffffffff168152602001826fffffffffffffffffffffffffffffffff1681526020019350505050602060405180830381600087803b15801561107557600080fd5b505af1158015611089573d6000803e3d6000fd5b505050506040513d602081101561109f57600080fd5b81019080805190602001909291905050505060006110bd888861184c565b90508073ffffffffffffffffffffffffffffffffffffffff1663c696848d876040518263ffffffff1660e01b815260040180826fffffffffffffffffffffffffffffffff168152602001915050602060405180830381600087803b15801561112457600080fd5b505af1158015611138573d6000803e3d6000fd5b505050506040513d602081101561114e57600080fd5b810190808051906020019092919050505050505050509392505050565b60006020528160005260406000206020528060005260406000206000915091509054906101000a900473ffffffffffffffffffffffffffffffffffffffff1681565b60016020528160005260406000206020528060005260406000206000915091509054906101000a900473ffffffffffffffffffffffffffffffffffffffff1681565b6000806111fc8585611d61565b90508073ffffffffffffffffffffffffffffffffffffffff1663825a8ba134856040518363ffffffff1660e01b8152600401808273ffffffffffffffffffffffffffffffffffffffff1673ffffffffffffffffffffffffffffffffffffffff1681526020019150506020604051808303818588803b15801561127d57600080fd5b505af1158015611291573d6000803e3d6000fd5b50505050506040513d60208110156112a857600080fd5b810190808051906020019092919050505050509392505050565b600260009054906101000a900473ffffffffffffffffffffffffffffffffffffffff1681565b6000806112f58686611d61565b90508073ffffffffffffffffffffffffffffffffffffffff166356ded78f3486866040518463ffffffff1660e01b8152600401808373ffffffffffffffffffffffffffffffffffffffff1673ffffffffffffffffffffffffffffffffffffffff16815260200180602001828103825283818151815260200191508051906020019080838360005b8381101561139757808201518184015260208101905061137c565b50505050905090810190601f1680156113c45780820380516001836020036101000a031916815260200191505b5093505050506020604051808303818588803b1580156113e357600080fd5b505af11580156113f7573d6000803e3d6000fd5b50505050506040513d602081101561140e57600080fd5b81019080805190602001909291905050505050949350505050565b60006114358383611d61565b905092915050565b600083836000670de0b6b3a76400008383026fffffffffffffffffffffffffffffffff168161146857fe5b049050600460009054906101000a900473ffffffffffffffffffffffffffffffffffffffff1673ffffffffffffffffffffffffffffffffffffffff166323b872dd3330846040518463ffffffff1660e01b8152600401808473ffffffffffffffffffffffffffffffffffffffff1673ffffffffffffffffffffffffffffffffffffffff1681526020018373ffffffffffffffffffffffffffffffffffffffff1673ffffffffffffffffffffffffffffffffffffffff168152602001826fffffffffffffffffffffffffffffffff1681526020019350505050602060405180830381600087803b15801561155a57600080fd5b505af115801561156e573d6000803e3d6000fd5b505050506040513d602081101561158457600080fd5b81019080805190602001909291905050505060006115a2898961184c565b90508073ffffffffffffffffffffffffffffffffffffffff1663e506ceb688886040518363ffffffff1660e01b815260040180836fffffffffffffffffffffffffffffffff1681526020018273ffffffffffffffffffffffffffffffffffffffff1673ffffffffffffffffffffffffffffffffffffffff16815260200192505050602060405180830381600087803b15801561163d57600080fd5b505af1158015611651573d6000803e3d6000fd5b505050506040513d602081101561166757600080fd5b81019080805190602001909291905050505050505050949350505050565b600360009054906101000a900473ffffffffffffffffffffffffffffffffffffffff1681565b60006116b78383611d61565b905092915050565b606073__OptionTokenNamesake___________________631264fc318585856040518463ffffffff1660e01b81526004018084151515158152602001838152602001828152602001935050505060006040518083038186803b15801561172457600080fd5b505af4158015611738573d6000803e3d6000fd5b505050506040513d6000823e3d601f19601f82011682018060405250602081101561176257600080fd5b810190808051604051939291908464010000000082111561178257600080fd5b8382019150602082018581111561179857600080fd5b82518660018202830111640100000000821117156117b557600080fd5b8083526020830192505050908051906020019080838360005b838110156117e95780820151818401526020810190506117ce565b50505050905090810190601f1680156118165780820380516001836020036101000a031916815260200191505b5060405250505090509392505050565b600460009054906101000a900473ffffffffffffffffffffffffffffffffffffffff1681565b600042836fffffffffffffffffffffffffffffffff161180156118a35750600061a8c062015180856fffffffffffffffffffffffffffffffff168161188d57fe5b06036fffffffffffffffffffffffffffffffff16145b80156118e457506000674563918244f40000836fffffffffffffffffffffffffffffffff16816118cf57fe5b066fffffffffffffffffffffffffffffffff16145b801561190257506000826fffffffffffffffffffffffffffffffff16115b8015611929575069152d02c7e14af6800000826fffffffffffffffffffffffffffffffff16105b61193257600080fd5b6000806000856fffffffffffffffffffffffffffffffff166fffffffffffffffffffffffffffffffff1681526020019081526020016000206000846fffffffffffffffffffffffffffffffff166fffffffffffffffffffffffffffffffff16815260200190815260200160002060009054906101000a900473ffffffffffffffffffffffffffffffffffffffff169050600073ffffffffffffffffffffffffffffffffffffffff168173ffffffffffffffffffffffffffffffffffffffff161415611c8f57611a22600360009054906101000a900473ffffffffffffffffffffffffffffffffffffffff16612171565b90508073ffffffffffffffffffffffffffffffffffffffff1663a5843f0885856040518363ffffffff1660e01b815260040180836fffffffffffffffffffffffffffffffff168152602001826fffffffffffffffffffffffffffffffff16815260200192505050602060405180830381600087803b158015611aa357600080fd5b505af1158015611ab7573d6000803e3d6000fd5b505050506040513d6020811015611acd57600080fd5b810190808051906020019092919050505050600460009054906101000a900473ffffffffffffffffffffffffffffffffffffffff1673ffffffffffffffffffffffffffffffffffffffff1663095ea7b3827fffffffffffffffffffffffffffffffffffffffffffffffffffffffffffffffff6040518363ffffffff1660e01b8152600401808373ffffffffffffffffffffffffffffffffffffffff1673ffffffffffffffffffffffffffffffffffffffff16815260200182815260200192505050602060405180830381600087803b158015611ba857600080fd5b505af1158015611bbc573d6000803e3d6000fd5b505050506040513d6020811015611bd257600080fd5b81019080805190602001909291905050505080600080866fffffffffffffffffffffffffffffffff166fffffffffffffffffffffffffffffffff1681526020019081526020016000206000856fffffffffffffffffffffffffffffffff166fffffffffffffffffffffffffffffffff16815260200190815260200160002060006101000a81548173ffffffffffffffffffffffffffffffffffffffff021916908373ffffffffffffffffffffffffffffffffffffffff1602179055505b7f6d27e371ceacbca040e865306e3f201490ebf573a2ed4ae4c77f6661595430c68160008686604051808573ffffffffffffffffffffffffffffffffffffffff1673ffffffffffffffffffffffffffffffffffffffff16815260200184151515158152602001836fffffffffffffffffffffffffffffffff166fffffffffffffffffffffffffffffffff168152602001826fffffffffffffffffffffffffffffffff166fffffffffffffffffffffffffffffffff16815260200194505050505060405180910390a18091505092915050565b600042836fffffffffffffffffffffffffffffffff16118015611db85750600061a8c062015180856fffffffffffffffffffffffffffffffff1681611da257fe5b06036fffffffffffffffffffffffffffffffff16145b8015611df957506000674563918244f40000836fffffffffffffffffffffffffffffffff1681611de457fe5b066fffffffffffffffffffffffffffffffff16145b8015611e1757506000826fffffffffffffffffffffffffffffffff16115b8015611e3e575069152d02c7e14af6800000826fffffffffffffffffffffffffffffffff16105b611e4757600080fd5b6000806000856fffffffffffffffffffffffffffffffff166fffffffffffffffffffffffffffffffff1681526020019081526020016000206000846fffffffffffffffffffffffffffffffff166fffffffffffffffffffffffffffffffff16815260200190815260200160002060009054906101000a900473ffffffffffffffffffffffffffffffffffffffff169050600073ffffffffffffffffffffffffffffffffffffffff168173ffffffffffffffffffffffffffffffffffffffff16141561209f57611f37600260009054906101000a900473ffffffffffffffffffffffffffffffffffffffff16612171565b90508073ffffffffffffffffffffffffffffffffffffffff1663a5843f0885856040518363ffffffff1660e01b815260040180836fffffffffffffffffffffffffffffffff168152602001826fffffffffffffffffffffffffffffffff16815260200192505050602060405180830381600087803b158015611fb857600080fd5b505af1158015611fcc573d6000803e3d6000fd5b505050506040513d6020811015611fe257600080fd5b81019080805190602001909291905050505080600080866fffffffffffffffffffffffffffffffff166fffffffffffffffffffffffffffffffff1681526020019081526020016000206000856fffffffffffffffffffffffffffffffff166fffffffffffffffffffffffffffffffff16815260200190815260200160002060006101000a81548173ffffffffffffffffffffffffffffffffffffffff021916908373ffffffffffffffffffffffffffffffffffffffff1602179055505b7f6d27e371ceacbca040e865306e3f201490ebf573a2ed4ae4c77f6661595430c68160018686604051808573ffffffffffffffffffffffffffffffffffffffff1673ffffffffffffffffffffffffffffffffffffffff16815260200184151515158152602001836fffffffffffffffffffffffffffffffff166fffffffffffffffffffffffffffffffff168152602001826fffffffffffffffffffffffffffffffff166fffffffffffffffffffffffffffffffff16815260200194505050505060405180910390a18091505092915050565b600080690100000000000000000083027f5880730000000000000000000000000000000000000000803b80938091923cf3176000526020600080f090508091505091905056fea265627a7a7231582048769daf05eac7930ffd4179930f447d73a759d90ab41a38a20a779a538aa7f664736f6c634300051000326080604052348015600f57600080fd5b5060788061001e6000396000f3fe6080604052600073__ETHCallOptionTokenAddress_____________905060405136600082376000803683855af43d806000843e8160008114603f578184f35b8184fdfea265627a7a72315820444e5082d7ab1972bb866b62d1b4336aada6fcf7febd66e6bcf5d9c009d5cb9064736f6c634300051000326080604052348015600f57600080fd5b5060788061001e6000396000f3fe6080604052600073__ETHPutOptionTokenAddress______________905060405136600082376000803683855af43d806000843e8160008114603f578184f35b8184fdfea265627a7a723158208fcd547ea8ccb94f499927568aa10f3b9faa8e6ed3c3c854a14cb9469b78861064736f6c63430005100032",
  "source": "pragma solidity ^0.5;\n\nimport \"./Cloner.sol\";\nimport \"./ETHCallOptionToken.sol\";\nimport \"./ETHPutOptionToken.sol\";\nimport \"./ETHCallOptionTokenProxy.sol\";\nimport \"./ETHPutOptionTokenProxy.sol\";\nimport \"./OptionTokenNamesake.sol\";\n\n\ncontract OptionTokenFactory is Cloner {\n    mapping(uint128 => mapping(uint128 => address)) public calls;\n    mapping(uint128 => mapping(uint128 => address)) public puts;\n\n    address public callTemplate;\n    address public putTemplate;\n    ERC20 public usd;\n\n    event OptionTokenCreated(address token, bool isCall, uint128 expiration, uint128 strike);\n\n    modifier receiveUSD(uint128 strike, uint128 amount) {\n        uint128 cost = amount * strike / 1 ether;\n        usd.transferFrom(msg.sender, address(this), cost);\n        _;\n    }\n\n    constructor() public {\n        callTemplate = address(new ETHCallOptionTokenProxy());\n        putTemplate = address(new ETHPutOptionTokenProxy());\n        usd = ERC20(address(USD));\n    }\n\n    function createCall(uint128 expiration, uint128 strike) public returns (address) {\n        return address(findOrCreateCall(expiration, strike));\n    }\n\n    function writeCall(uint128 expiration, uint128 strike) public payable returns (address) {\n        ETHCallOptionToken token = findOrCreateCall(expiration, strike);\n        token.writeAsOrigin.value(msg.value)();\n    }\n\n    function writeCallAndApprove(uint128 expiration, uint128 strike, address approve) public payable returns (address) {\n        ETHCallOptionToken token = findOrCreateCall(expiration, strike);\n        token.writeAndApproveAsOrigin.value(msg.value)(approve);\n    }\n\n    function writeCallAndApproveAndCall(uint128 expiration, uint128 strike, address approve, bytes memory data) public payable returns (address) {\n        ETHCallOptionToken token = findOrCreateCall(expiration, strike);\n        token.writeApproveAndCallAsOrigin.value(msg.value)(approve, data);\n    }\n\n    function createPut(uint128 expiration, uint128 strike) public returns (address) {\n        return address(findOrCreateCall(expiration, strike));\n    }\n\n    function writePut(uint128 expiration, uint128 strike, uint128 amount) public receiveUSD(strike, amount) returns (address) {\n        ETHPutOptionToken token = findOrCreatePut(expiration, strike);\n        token.writeAsOrigin(amount);\n    }\n\n    function writePutAndApprove(uint128 expiration, uint128 strike, uint128 amount, address approve) public receiveUSD(strike, amount) returns (address) {\n        ETHPutOptionToken token = findOrCreatePut(expiration, strike);\n        token.writeAndApproveAsOrigin(amount, approve);\n    }\n\n    function writePutApproveAndCall(uint128 expiration, uint128 strike, uint128 amount, address approve, bytes memory data) public returns (address) {\n        ETHPutOptionToken token = findOrCreatePut(expiration, strike);\n        token.writeApproveAndCallAsOrigin(amount, approve, data);\n    }\n\n    function findOrCreateCall(uint128 expiration, uint128 strike) internal returns (ETHCallOptionToken) {\n        require(expiration > now && expiration % 86400 - 43200 == 0 && strike % 5 ether == 0 && strike > 0 ether && strike < 100000 ether);\n        address token = calls[expiration][strike];\n        if (token == address(0)) {\n            token = clone(callTemplate);\n            ETHCallOptionToken(token).init(expiration, strike);\n            calls[expiration][strike] = token;\n        }\n\n        emit OptionTokenCreated(token, true, expiration, strike);\n        return ETHCallOptionToken(token);\n    }\n\n    function findOrCreatePut(uint128 expiration, uint128 strike) internal returns (ETHPutOptionToken) {\n        require(expiration > now && expiration % 86400 - 43200 == 0 && strike % 5 ether == 0 && strike > 0 ether && strike < 100000 ether);\n        address token = calls[expiration][strike];\n        if (token == address(0)) {\n            token = clone(putTemplate);\n            ETHPutOptionToken(token).init(expiration, strike);\n            usd.approve(token, uint256(-1));\n            calls[expiration][strike] = token;\n        }\n\n        emit OptionTokenCreated(token, false, expiration, strike);\n        return ETHPutOptionToken(token);\n    }\n\n    function getTokenName(bool isCall, uint256 expiration, uint256 strike) pure external returns (string memory) {\n        return OptionTokenNamesake.name(isCall, expiration, strike);\n    }\n\n    function getTokenSymbol(bool isCall, uint256 expiration, uint256 strike) pure external returns (string memory) {\n        return OptionTokenNamesake.symbol(isCall, expiration, strike);\n    }\n}",
  "sourcePath": "/Users/brianwheeler/optimum/protocol/contracts/OptionTokenFactory.sol",
  "compiler": {
    "name": "solc",
    "version": "0.5.16+commit.9c3226ce.Emscripten.clang"
  },
  "schemaVersion": "3.0.23",
  "updatedAt": "2020-04-01T20:35:54.957Z",
  "devdoc": {
    "methods": {}
  },
  "userdoc": {
    "methods": {}
  }
}